{
  "contractName": "BaseStorage",
  "abi": [
    {
      "constant": true,
      "inputs": [
        {
          "name": "key",
          "type": "bytes32"
        }
      ],
      "name": "getAddress",
      "outputs": [
        {
          "name": "",
          "type": "address"
        }
      ],
      "payable": false,
      "stateMutability": "view",
      "type": "function"
    },
    {
      "constant": true,
      "inputs": [
        {
          "name": "key",
          "type": "bytes32"
        }
      ],
      "name": "getUint",
      "outputs": [
        {
          "name": "",
          "type": "uint256"
        }
      ],
      "payable": false,
      "stateMutability": "view",
      "type": "function"
    },
    {
      "constant": true,
      "inputs": [
        {
          "name": "key",
          "type": "bytes32"
        }
      ],
      "name": "getString",
      "outputs": [
        {
          "name": "",
          "type": "string"
        }
      ],
      "payable": false,
      "stateMutability": "view",
      "type": "function"
    },
    {
      "constant": true,
      "inputs": [
        {
          "name": "key",
          "type": "bytes32"
        }
      ],
      "name": "getBytes",
      "outputs": [
        {
          "name": "",
          "type": "bytes"
        }
      ],
      "payable": false,
      "stateMutability": "view",
      "type": "function"
    },
    {
      "constant": true,
      "inputs": [
        {
          "name": "key",
          "type": "bytes32"
        }
      ],
      "name": "getBytes32",
      "outputs": [
        {
          "name": "",
          "type": "bytes32"
        }
      ],
      "payable": false,
      "stateMutability": "view",
      "type": "function"
    },
    {
      "constant": true,
      "inputs": [
        {
          "name": "key",
          "type": "bytes32"
        }
      ],
      "name": "getBool",
      "outputs": [
        {
          "name": "",
          "type": "bool"
        }
      ],
      "payable": false,
      "stateMutability": "view",
      "type": "function"
    },
    {
      "constant": true,
      "inputs": [
        {
          "name": "key",
          "type": "bytes32"
        }
      ],
      "name": "getInt",
      "outputs": [
        {
          "name": "",
          "type": "int256"
        }
      ],
      "payable": false,
      "stateMutability": "view",
      "type": "function"
    },
    {
      "constant": true,
      "inputs": [
        {
          "name": "key",
          "type": "bytes32"
        }
      ],
      "name": "getIpfs",
      "outputs": [
        {
          "name": "digest",
          "type": "bytes32"
        },
        {
          "name": "fnCode",
          "type": "uint8"
        },
        {
          "name": "size",
          "type": "uint8"
        }
      ],
      "payable": false,
      "stateMutability": "view",
      "type": "function"
    },
    {
      "constant": false,
      "inputs": [
        {
          "name": "key",
          "type": "bytes32"
        },
        {
          "name": "value",
          "type": "address"
        }
      ],
      "name": "setAddress",
      "outputs": [],
      "payable": false,
      "stateMutability": "nonpayable",
      "type": "function"
    },
    {
      "constant": false,
      "inputs": [
        {
          "name": "key",
          "type": "bytes32"
        },
        {
          "name": "value",
          "type": "uint256"
        }
      ],
      "name": "setUint",
      "outputs": [],
      "payable": false,
      "stateMutability": "nonpayable",
      "type": "function"
    },
    {
      "constant": false,
      "inputs": [
        {
          "name": "key",
          "type": "bytes32"
        },
        {
          "name": "value",
          "type": "string"
        }
      ],
      "name": "setString",
      "outputs": [],
      "payable": false,
      "stateMutability": "nonpayable",
      "type": "function"
    },
    {
      "constant": false,
      "inputs": [
        {
          "name": "key",
          "type": "bytes32"
        },
        {
          "name": "value",
          "type": "bytes"
        }
      ],
      "name": "setBytes",
      "outputs": [],
      "payable": false,
      "stateMutability": "nonpayable",
      "type": "function"
    },
    {
      "constant": false,
      "inputs": [
        {
          "name": "key",
          "type": "bytes32"
        },
        {
          "name": "value",
          "type": "bytes32"
        }
      ],
      "name": "setBytes32",
      "outputs": [],
      "payable": false,
      "stateMutability": "nonpayable",
      "type": "function"
    },
    {
      "constant": false,
      "inputs": [
        {
          "name": "key",
          "type": "bytes32"
        },
        {
          "name": "value",
          "type": "bool"
        }
      ],
      "name": "setBool",
      "outputs": [],
      "payable": false,
      "stateMutability": "nonpayable",
      "type": "function"
    },
    {
      "constant": false,
      "inputs": [
        {
          "name": "key",
          "type": "bytes32"
        },
        {
          "name": "value",
          "type": "int256"
        }
      ],
      "name": "setInt",
      "outputs": [],
      "payable": false,
      "stateMutability": "nonpayable",
      "type": "function"
    },
    {
      "constant": false,
      "inputs": [
        {
          "name": "key",
          "type": "bytes32"
        },
        {
          "name": "digest",
          "type": "bytes32"
        },
        {
          "name": "fnCode",
          "type": "uint8"
        },
        {
          "name": "size",
          "type": "uint8"
        }
      ],
      "name": "setIpfs",
      "outputs": [],
      "payable": false,
      "stateMutability": "nonpayable",
      "type": "function"
    },
    {
      "constant": false,
      "inputs": [
        {
          "name": "key",
          "type": "bytes32"
        }
      ],
      "name": "deleteAddress",
      "outputs": [],
      "payable": false,
      "stateMutability": "nonpayable",
      "type": "function"
    },
    {
      "constant": false,
      "inputs": [
        {
          "name": "key",
          "type": "bytes32"
        }
      ],
      "name": "deleteUint",
      "outputs": [],
      "payable": false,
      "stateMutability": "nonpayable",
      "type": "function"
    },
    {
      "constant": false,
      "inputs": [
        {
          "name": "key",
          "type": "bytes32"
        }
      ],
      "name": "deleteString",
      "outputs": [],
      "payable": false,
      "stateMutability": "nonpayable",
      "type": "function"
    },
    {
      "constant": false,
      "inputs": [
        {
          "name": "key",
          "type": "bytes32"
        }
      ],
      "name": "deleteBytes",
      "outputs": [],
      "payable": false,
      "stateMutability": "nonpayable",
      "type": "function"
    },
    {
      "constant": false,
      "inputs": [
        {
          "name": "key",
          "type": "bytes32"
        }
      ],
      "name": "deleteBytes32",
      "outputs": [],
      "payable": false,
      "stateMutability": "nonpayable",
      "type": "function"
    },
    {
      "constant": false,
      "inputs": [
        {
          "name": "key",
          "type": "bytes32"
        }
      ],
      "name": "deleteBool",
      "outputs": [],
      "payable": false,
      "stateMutability": "nonpayable",
      "type": "function"
    },
    {
      "constant": false,
      "inputs": [
        {
          "name": "key",
          "type": "bytes32"
        }
      ],
      "name": "deleteInt",
      "outputs": [],
      "payable": false,
      "stateMutability": "nonpayable",
      "type": "function"
    }
  ],
  "bytecode": "0x608060405234801561001057600080fd5b506112e6806100206000396000f300608060405260043610610133576000357c0100000000000000000000000000000000000000000000000000000000900463ffffffff1680630b9adc57146101385780630e14a3761461016957806321f8a7211461019a5780632c62ff2d1461020b5780632e28d0841461023c5780633e49bed0146102b35780634261ff6a146102ee5780634e91db0814610347578063616b59f6146103865780636d448c94146103b75780636e8995501461041e5780637ae1cfca146104955780638c160095146104de578063986e791a1461050f578063a6ed563e146105b9578063abfdcced14610606578063bd02d0f514610643578063c031a18014610688578063ca446dd914610732578063dc97d96214610783578063e2a4853a146107c8578063e2b202bf14610803578063f6bb3cc414610834575b600080fd5b34801561014457600080fd5b506101676004803603810190808035600019169060200190929190505050610865565b005b34801561017557600080fd5b5061019860048036038101908080356000191690602001909291905050506108a2565b005b3480156101a657600080fd5b506101c960048036038101908080356000191690602001909291905050506108fe565b604051808273ffffffffffffffffffffffffffffffffffffffff1673ffffffffffffffffffffffffffffffffffffffff16815260200191505060405180910390f35b34801561021757600080fd5b5061023a600480360381019080803560001916906020019092919050505061095e565b005b34801561024857600080fd5b506102b16004803603810190808035600019169060200190929190803590602001908201803590602001908080601f01602080910402602001604051908101604052809392919081815260200183838082843782019150505050505091929192905050506109a7565b005b3480156102bf57600080fd5b506102ec6004803603810190808035600019169060200190929190803590602001909291905050506109f6565b005b3480156102fa57600080fd5b5061034560048036038101908080356000191690602001909291908035600019169060200190929190803560ff169060200190929190803560ff169060200190929190505050610a35565b005b34801561035357600080fd5b5061038460048036038101908080356000191690602001909291908035600019169060200190929190505050610af8565b005b34801561039257600080fd5b506103b56004803603810190808035600019169060200190929190505050610b3b565b005b3480156103c357600080fd5b506103e66004803603810190808035600019169060200190929190505050610b80565b6040518084600019166000191681526020018360ff1660ff1681526020018260ff1660ff168152602001935050505060405180910390f35b34801561042a57600080fd5b506104936004803603810190808035600019169060200190929190803590602001908201803590602001908080601f0160208091040260200160405190810160405280939291908181526020018383808284378201915050505050509192919290505050610bf5565b005b3480156104a157600080fd5b506104c46004803603810190808035600019169060200190929190505050610c44565b604051808215151515815260200191505060405180910390f35b3480156104ea57600080fd5b5061050d6004803603810190808035600019169060200190929190505050610c91565b005b34801561051b57600080fd5b5061053e6004803603810190808035600019169060200190929190505050610cce565b6040518080602001828103825283818151815260200191508051906020019080838360005b8381101561057e578082015181840152602081019050610563565b50505050905090810190601f1680156105ab5780820380516001836020036101000a031916815260200191505b509250505060405180910390f35b3480156105c557600080fd5b506105e86004803603810190808035600019169060200190929190505050610da6565b60405180826000191660001916815260200191505060405180910390f35b34801561061257600080fd5b506106416004803603810190808035600019169060200190929190803515159060200190929190505050610de6565b005b34801561064f57600080fd5b506106726004803603810190808035600019169060200190929190505050610e38565b6040518082815260200191505060405180910390f35b34801561069457600080fd5b506106b76004803603810190808035600019169060200190929190505050610e77565b6040518080602001828103825283818151815260200191508051906020019080838360005b838110156106f75780820151818401526020810190506106dc565b50505050905090810190601f1680156107245780820380516001836020036101000a031916815260200191505b509250505060405180910390f35b34801561073e57600080fd5b506107816004803603810190808035600019169060200190929190803573ffffffffffffffffffffffffffffffffffffffff169060200190929190505050610f4f565b005b34801561078f57600080fd5b506107b26004803603810190808035600019169060200190929190505050610fc8565b6040518082815260200191505060405180910390f35b3480156107d457600080fd5b50610801600480360381019080803560001916906020019092919080359060200190929190505050611008565b005b34801561080f57600080fd5b506108326004803603810190808035600019169060200190929190505050611046565b005b34801561084057600080fd5b506108636004803603810190808035600019169060200190929190505050611082565b005b61086d6110c7565b151561087857600080fd5b60046000610885836110d0565b600019166000191681526020019081526020016000206000905550565b6108aa6110c7565b15156108b557600080fd5b600260006108c2836110d0565b6000191660001916815260200190815260200160002060006101000a81549073ffffffffffffffffffffffffffffffffffffffff021916905550565b60006109086110c7565b151561091357600080fd5b60026000610920846110d0565b6000191660001916815260200190815260200160002060009054906101000a900473ffffffffffffffffffffffffffffffffffffffff169050919050565b6109666110c7565b151561097157600080fd5b6005600061097e836110d0565b6000191660001916815260200190815260200160002060006101000a81549060ff021916905550565b6109af6110c7565b15156109ba57600080fd5b80600360006109c8856110d0565b6000191660001916815260200190815260200160002090805190602001906109f19291906110da565b505050565b6109fe6110c7565b1515610a0957600080fd5b8060066000610a17856110d0565b60001916600019168152602001908152602001600020819055505050565b610a3d61115a565b610a456110c7565b1515610a5057600080fd5b606060405190810160405280856000191681526020018460ff1681526020018360ff1681525090508060076000610a86886110d0565b600019166000191681526020019081526020016000206000820151816000019060001916905560208201518160010160006101000a81548160ff021916908360ff16021790555060408201518160010160016101000a81548160ff021916908360ff1602179055509050505050505050565b610b006110c7565b1515610b0b57600080fd5b8060046000610b19856110d0565b6000191660001916815260200190815260200160002081600019169055505050565b610b436110c7565b1515610b4e57600080fd5b60036000610b5b836110d0565b600019166000191681526020019081526020016000206000610b7d9190611185565b50565b600080600080610b8e6110c7565b1515610b9957600080fd5b60076000610ba6876110d0565b60001916600019168152602001908152602001600020905080600001548160010160009054906101000a900460ff168260010160019054906101000a900460ff16935093509350509193909250565b610bfd6110c7565b1515610c0857600080fd5b8060016000610c16856110d0565b600019166000191681526020019081526020016000209080519060200190610c3f9291906111cd565b505050565b6000610c4e6110c7565b1515610c5957600080fd5b60056000610c66846110d0565b6000191660001916815260200190815260200160002060009054906101000a900460ff169050919050565b610c996110c7565b1515610ca457600080fd5b60066000610cb1836110d0565b600019166000191681526020019081526020016000206000905550565b6060610cd86110c7565b1515610ce357600080fd5b60016000610cf0846110d0565b600019166000191681526020019081526020016000208054600181600116156101000203166002900480601f016020809104026020016040519081016040528092919081815260200182805460018160011615610100020316600290048015610d9a5780601f10610d6f57610100808354040283529160200191610d9a565b820191906000526020600020905b815481529060010190602001808311610d7d57829003601f168201915b50505050509050919050565b6000610db06110c7565b1515610dbb57600080fd5b60046000610dc8846110d0565b60001916600019168152602001908152602001600020549050919050565b610dee6110c7565b1515610df957600080fd5b8060056000610e07856110d0565b6000191660001916815260200190815260200160002060006101000a81548160ff0219169083151502179055505050565b6000610e426110c7565b1515610e4d57600080fd5b600080610e59846110d0565b60001916600019168152602001908152602001600020549050919050565b6060610e816110c7565b1515610e8c57600080fd5b60036000610e99846110d0565b600019166000191681526020019081526020016000208054600181600116156101000203166002900480601f016020809104026020016040519081016040528092919081815260200182805460018160011615610100020316600290048015610f435780601f10610f1857610100808354040283529160200191610f43565b820191906000526020600020905b815481529060010190602001808311610f2657829003601f168201915b50505050509050919050565b610f576110c7565b1515610f6257600080fd5b8060026000610f70856110d0565b6000191660001916815260200190815260200160002060006101000a81548173ffffffffffffffffffffffffffffffffffffffff021916908373ffffffffffffffffffffffffffffffffffffffff1602179055505050565b6000610fd26110c7565b1515610fdd57600080fd5b60066000610fea846110d0565b60001916600019168152602001908152602001600020549050919050565b6110106110c7565b151561101b57600080fd5b80600080611028856110d0565b60001916600019168152602001908152602001600020819055505050565b61104e6110c7565b151561105957600080fd5b600080611065836110d0565b600019166000191681526020019081526020016000206000905550565b61108a6110c7565b151561109557600080fd5b600160006110a2836110d0565b6000191660001916815260200190815260200160002060006110c4919061124d565b50565b60006001905090565b6000819050919050565b828054600181600116156101000203166002900490600052602060002090601f016020900481019282601f1061111b57805160ff1916838001178555611149565b82800160010185558215611149579182015b8281111561114857825182559160200191906001019061112d565b5b5090506111569190611295565b5090565b60606040519081016040528060008019168152602001600060ff168152602001600060ff1681525090565b50805460018160011615610100020316600290046000825580601f106111ab57506111ca565b601f0160209004906000526020600020908101906111c99190611295565b5b50565b828054600181600116156101000203166002900490600052602060002090601f016020900481019282601f1061120e57805160ff191683800117855561123c565b8280016001018555821561123c579182015b8281111561123b578251825591602001919060010190611220565b5b5090506112499190611295565b5090565b50805460018160011615610100020316600290046000825580601f106112735750611292565b601f0160209004906000526020600020908101906112919190611295565b5b50565b6112b791905b808211156112b357600081600090555060010161129b565b5090565b905600a165627a7a72305820d52afe567368534d01c4e51b8fa86452ebd04b2fbdf595ecc4441893d2bf4f280029",
  "source": "pragma solidity ^0.4.18;\n\nimport \"./KeyValueStorage.sol\";\n\ncontract BaseStorage is KeyValueStorage {\n\n  modifier isAllowed {\n    require(senderIsValid());\n    _;\n  }\n\n  /**** Get Methods ***********/\n\n  function getAddress(bytes32 key) public view isAllowed returns (address) {\n      return _addressStorage[scopedKey(key)];\n  }\n\n  function getUint(bytes32 key) public view isAllowed returns (uint) {\n      return _uintStorage[scopedKey(key)];\n  }\n\n  function getString(bytes32 key) public view isAllowed returns (string) {\n      return _stringStorage[scopedKey(key)];\n  }\n\n  function getBytes(bytes32 key) public view isAllowed returns (bytes) {\n      return _bytesStorage[scopedKey(key)];\n  }\n\n  function getBytes32(bytes32 key) public view isAllowed returns (bytes32) {\n      return _bytes32Storage[scopedKey(key)];\n  }\n\n  function getBool(bytes32 key) public view isAllowed returns (bool) {\n      return _boolStorage[scopedKey(key)];\n  }\n\n  function getInt(bytes32 key) public view isAllowed returns (int) {\n      return _intStorage[scopedKey(key)];\n  }\n\n  function getIpfs(bytes32 key) public view isAllowed returns (bytes32 digest, uint8 fnCode, uint8 size) {\n    Multihash storage entry = _multiHashStorage[scopedKey(key)];\n    return (entry.digest, entry.fnCode, entry.size);\n  }\n\n  /**** Set Methods ***********/\n\n  function setAddress(bytes32 key, address value) public isAllowed {\n    _addressStorage[scopedKey(key)] = value;\n  }\n\n  function setUint(bytes32 key, uint value) public isAllowed {\n      _uintStorage[scopedKey(key)] = value;\n  }\n\n  function setString(bytes32 key, string value) public isAllowed {\n      _stringStorage[scopedKey(key)] = value;\n  }\n\n  function setBytes(bytes32 key, bytes value) public isAllowed {\n      _bytesStorage[scopedKey(key)] = value;\n  }\n\n  function setBytes32(bytes32 key, bytes32 value) public isAllowed {\n      _bytes32Storage[scopedKey(key)] = value;\n  }\n\n  function setBool(bytes32 key, bool value) public isAllowed {\n      _boolStorage[scopedKey(key)] = value;\n  }\n\n  function setInt(bytes32 key, int value) public isAllowed {\n      _intStorage[scopedKey(key)] = value;\n  }\n\n  function setIpfs(bytes32 key, bytes32 digest, uint8 fnCode, uint8 size) public isAllowed {\n    Multihash memory entry = Multihash(digest, fnCode, size);\n    _multiHashStorage[scopedKey(key)] = entry;\n  }\n\n  /**** Delete Methods ***********/\n\n  function deleteAddress(bytes32 key) public isAllowed {\n      delete _addressStorage[scopedKey(key)];\n  }\n\n  function deleteUint(bytes32 key) public isAllowed {\n      delete _uintStorage[scopedKey(key)];\n  }\n\n  function deleteString(bytes32 key) public isAllowed {\n      delete _stringStorage[scopedKey(key)];\n  }\n\n  function deleteBytes(bytes32 key) public isAllowed {\n      delete _bytesStorage[scopedKey(key)];\n  }\n\n  function deleteBytes32(bytes32 key) public isAllowed {\n      delete _bytes32Storage[scopedKey(key)];\n  }\n\n  function deleteBool(bytes32 key) public isAllowed {\n      delete _boolStorage[scopedKey(key)];\n  }\n\n  function deleteInt(bytes32 key) public isAllowed {\n      delete _intStorage[scopedKey(key)];\n  }\n\n  /**** Private Methods ***********/\n\n  function senderIsValid() private view returns (bool) {\n    return true;\n  }\n\n  function scopedKey(bytes32 key) internal view returns(bytes32) {\n    return key;\n  }\n}\n",
  "sourcePath": "/home/henry/ws/botchain/contracts/Upgradability/BaseStorage.sol",
  "compiler": {
    "name": "solc",
    "version": "0.4.24+commit.e67f0147.Emscripten.clang"
  },
  "schemaVersion": "2.0.1",
  "updatedAt": "2018-11-01T15:08:00.548Z"
}