{
  "contractName": "BotEntryStorableRegistry",
  "abi": [
    {
      "constant": true,
      "inputs": [],
      "name": "botCoin",
      "outputs": [
        {
          "name": "",
          "type": "address"
        }
      ],
      "payable": false,
      "stateMutability": "view",
      "type": "function"
    },
    {
      "constant": true,
      "inputs": [],
      "name": "ownerRegistry",
      "outputs": [
        {
          "name": "",
          "type": "address"
        }
      ],
      "payable": false,
      "stateMutability": "view",
      "type": "function"
    },
    {
      "constant": true,
      "inputs": [],
      "name": "totalSupply",
      "outputs": [
        {
          "name": "",
          "type": "uint256"
        }
      ],
      "payable": false,
      "stateMutability": "view",
      "type": "function"
    },
    {
      "constant": true,
      "inputs": [
        {
          "name": "_entryId",
          "type": "uint256"
        }
      ],
      "name": "approvalStatus",
      "outputs": [
        {
          "name": "",
          "type": "bool"
        }
      ],
      "payable": false,
      "stateMutability": "view",
      "type": "function"
    },
    {
      "constant": true,
      "inputs": [
        {
          "name": "_tokenId",
          "type": "uint256"
        }
      ],
      "name": "ownerOf",
      "outputs": [
        {
          "name": "",
          "type": "uint256"
        }
      ],
      "payable": false,
      "stateMutability": "view",
      "type": "function"
    },
    {
      "constant": true,
      "inputs": [],
      "name": "tallaWallet",
      "outputs": [
        {
          "name": "",
          "type": "address"
        }
      ],
      "payable": false,
      "stateMutability": "view",
      "type": "function"
    },
    {
      "constant": false,
      "inputs": [
        {
          "name": "newArbiter",
          "type": "address"
        }
      ],
      "name": "changeArbiter",
      "outputs": [],
      "payable": false,
      "stateMutability": "nonpayable",
      "type": "function"
    },
    {
      "constant": false,
      "inputs": [
        {
          "name": "_entryId",
          "type": "uint256"
        }
      ],
      "name": "grantApproval",
      "outputs": [],
      "payable": false,
      "stateMutability": "nonpayable",
      "type": "function"
    },
    {
      "constant": true,
      "inputs": [
        {
          "name": "_entryId",
          "type": "uint256"
        }
      ],
      "name": "active",
      "outputs": [
        {
          "name": "",
          "type": "bool"
        }
      ],
      "payable": false,
      "stateMutability": "view",
      "type": "function"
    },
    {
      "constant": true,
      "inputs": [],
      "name": "getOwner",
      "outputs": [
        {
          "name": "",
          "type": "address"
        }
      ],
      "payable": false,
      "stateMutability": "view",
      "type": "function"
    },
    {
      "constant": false,
      "inputs": [
        {
          "name": "_entryId",
          "type": "uint256"
        }
      ],
      "name": "deactivate",
      "outputs": [],
      "payable": false,
      "stateMutability": "nonpayable",
      "type": "function"
    },
    {
      "constant": true,
      "inputs": [
        {
          "name": "_ownerTokenId",
          "type": "uint256"
        }
      ],
      "name": "balanceOf",
      "outputs": [
        {
          "name": "",
          "type": "uint256"
        }
      ],
      "payable": false,
      "stateMutability": "view",
      "type": "function"
    },
    {
      "constant": true,
      "inputs": [
        {
          "name": "_ownerTokenId",
          "type": "uint256"
        }
      ],
      "name": "tokensOf",
      "outputs": [
        {
          "name": "",
          "type": "uint256[]"
        }
      ],
      "payable": false,
      "stateMutability": "view",
      "type": "function"
    },
    {
      "constant": false,
      "inputs": [
        {
          "name": "entryPrice",
          "type": "uint256"
        }
      ],
      "name": "setEntryPrice",
      "outputs": [],
      "payable": false,
      "stateMutability": "nonpayable",
      "type": "function"
    },
    {
      "constant": false,
      "inputs": [
        {
          "name": "_entryId",
          "type": "uint256"
        }
      ],
      "name": "revokeApproval",
      "outputs": [],
      "payable": false,
      "stateMutability": "nonpayable",
      "type": "function"
    },
    {
      "constant": false,
      "inputs": [
        {
          "name": "_entryId",
          "type": "uint256"
        }
      ],
      "name": "activate",
      "outputs": [],
      "payable": false,
      "stateMutability": "nonpayable",
      "type": "function"
    },
    {
      "constant": true,
      "inputs": [
        {
          "name": "_entryId",
          "type": "uint256"
        }
      ],
      "name": "ownerOfEntry",
      "outputs": [
        {
          "name": "",
          "type": "address"
        }
      ],
      "payable": false,
      "stateMutability": "view",
      "type": "function"
    },
    {
      "constant": true,
      "inputs": [],
      "name": "getArbiter",
      "outputs": [
        {
          "name": "",
          "type": "address"
        }
      ],
      "payable": false,
      "stateMutability": "view",
      "type": "function"
    },
    {
      "constant": false,
      "inputs": [
        {
          "name": "tallaWallet",
          "type": "address"
        }
      ],
      "name": "setTallaWallet",
      "outputs": [],
      "payable": false,
      "stateMutability": "nonpayable",
      "type": "function"
    },
    {
      "constant": false,
      "inputs": [
        {
          "name": "newOwner",
          "type": "address"
        }
      ],
      "name": "transferOwnership",
      "outputs": [],
      "payable": false,
      "stateMutability": "nonpayable",
      "type": "function"
    },
    {
      "constant": true,
      "inputs": [],
      "name": "entryPrice",
      "outputs": [
        {
          "name": "",
          "type": "uint256"
        }
      ],
      "payable": false,
      "stateMutability": "view",
      "type": "function"
    },
    {
      "inputs": [
        {
          "name": "storage_",
          "type": "address"
        }
      ],
      "payable": false,
      "stateMutability": "nonpayable",
      "type": "constructor"
    },
    {
      "anonymous": false,
      "inputs": [
        {
          "indexed": false,
          "name": "botEntryId",
          "type": "uint256"
        },
        {
          "indexed": false,
          "name": "parentEntryId",
          "type": "uint256"
        },
        {
          "indexed": false,
          "name": "developerOwnerAddress",
          "type": "address"
        },
        {
          "indexed": false,
          "name": "botEntryAddress",
          "type": "address"
        },
        {
          "indexed": false,
          "name": "IpfsDigest",
          "type": "bytes32"
        },
        {
          "indexed": false,
          "name": "IpfsFnCode",
          "type": "uint8"
        },
        {
          "indexed": false,
          "name": "IpfsSize",
          "type": "uint8"
        }
      ],
      "name": "BotEntryCreated",
      "type": "event"
    },
    {
      "anonymous": false,
      "inputs": [
        {
          "indexed": false,
          "name": "entryId",
          "type": "uint256"
        }
      ],
      "name": "Activate",
      "type": "event"
    },
    {
      "anonymous": false,
      "inputs": [
        {
          "indexed": false,
          "name": "entryId",
          "type": "uint256"
        }
      ],
      "name": "Deactivate",
      "type": "event"
    },
    {
      "anonymous": false,
      "inputs": [
        {
          "indexed": false,
          "name": "entryId",
          "type": "uint256"
        }
      ],
      "name": "ApprovalGranted",
      "type": "event"
    },
    {
      "anonymous": false,
      "inputs": [
        {
          "indexed": false,
          "name": "entryId",
          "type": "uint256"
        }
      ],
      "name": "ApprovalRevoked",
      "type": "event"
    },
    {
      "anonymous": false,
      "inputs": [
        {
          "indexed": true,
          "name": "previousArbiter",
          "type": "address"
        },
        {
          "indexed": true,
          "name": "newArbiter",
          "type": "address"
        }
      ],
      "name": "ArbiterChange",
      "type": "event"
    },
    {
      "anonymous": false,
      "inputs": [
        {
          "indexed": true,
          "name": "previousOwner",
          "type": "address"
        },
        {
          "indexed": true,
          "name": "newOwner",
          "type": "address"
        }
      ],
      "name": "OwnershipTransferred",
      "type": "event"
    },
    {
      "constant": true,
      "inputs": [
        {
          "name": "botEntryId",
          "type": "uint256"
        }
      ],
      "name": "botEntryAddress",
      "outputs": [
        {
          "name": "",
          "type": "address"
        }
      ],
      "payable": false,
      "stateMutability": "view",
      "type": "function"
    },
    {
      "constant": true,
      "inputs": [
        {
          "name": "botEntryId",
          "type": "uint256"
        }
      ],
      "name": "botEntryIpfs",
      "outputs": [
        {
          "name": "digest",
          "type": "bytes32"
        },
        {
          "name": "fnCode",
          "type": "uint8"
        },
        {
          "name": "size",
          "type": "uint8"
        }
      ],
      "payable": false,
      "stateMutability": "view",
      "type": "function"
    },
    {
      "constant": true,
      "inputs": [
        {
          "name": "botEntryAddress",
          "type": "address"
        }
      ],
      "name": "botEntryIdForAddress",
      "outputs": [
        {
          "name": "",
          "type": "uint256"
        }
      ],
      "payable": false,
      "stateMutability": "view",
      "type": "function"
    },
    {
      "constant": true,
      "inputs": [
        {
          "name": "botEntryAddress",
          "type": "address"
        }
      ],
      "name": "botEntryAddressExists",
      "outputs": [
        {
          "name": "",
          "type": "bool"
        }
      ],
      "payable": false,
      "stateMutability": "view",
      "type": "function"
    },
    {
      "constant": true,
      "inputs": [
        {
          "name": "botEntryId",
          "type": "uint256"
        }
      ],
      "name": "getBotEntry",
      "outputs": [
        {
          "name": "_owner",
          "type": "address"
        },
        {
          "name": "_botEntryAddress",
          "type": "address"
        },
        {
          "name": "_digest",
          "type": "bytes32"
        },
        {
          "name": "_fnCode",
          "type": "uint8"
        },
        {
          "name": "_size",
          "type": "uint8"
        }
      ],
      "payable": false,
      "stateMutability": "view",
      "type": "function"
    },
    {
      "constant": false,
      "inputs": [
        {
          "name": "parentEntryId",
          "type": "uint256"
        },
        {
          "name": "botEntryAddress",
          "type": "address"
        },
        {
          "name": "IpfsDigest",
          "type": "bytes32"
        },
        {
          "name": "IpfsFnCode",
          "type": "uint8"
        },
        {
          "name": "IpfsSize",
          "type": "uint8"
        }
      ],
      "name": "createBotEntry",
      "outputs": [],
      "payable": false,
      "stateMutability": "nonpayable",
      "type": "function"
    }
  ],
  "bytecode": "0x60806040523480156200001157600080fd5b50604051602080620036aa83398101806040528101908080519060200190929190505050808182308181868287806000806101000a81548173ffffffffffffffffffffffffffffffffffffffff021916908373ffffffffffffffffffffffffffffffffffffffff1602179055505060008173ffffffffffffffffffffffffffffffffffffffff16141515620000bb57620000ba3362000106640100000000026401000000009004565b5b505060008173ffffffffffffffffffffffffffffffffffffffff16141515620000f957620000f88162000207640100000000026401000000009004565b5b5050505050505062000308565b6000809054906101000a900473ffffffffffffffffffffffffffffffffffffffff1673ffffffffffffffffffffffffffffffffffffffff1663ca446dd9826040518263ffffffff167c010000000000000000000000000000000000000000000000000000000002815260040180807f6f776e65720000000000000000000000000000000000000000000000000000008152506020018273ffffffffffffffffffffffffffffffffffffffff1673ffffffffffffffffffffffffffffffffffffffff168152602001915050600060405180830381600087803b158015620001eb57600080fd5b505af115801562000200573d6000803e3d6000fd5b5050505050565b6000809054906101000a900473ffffffffffffffffffffffffffffffffffffffff1673ffffffffffffffffffffffffffffffffffffffff1663ca446dd9826040518263ffffffff167c010000000000000000000000000000000000000000000000000000000002815260040180807f61726269746572000000000000000000000000000000000000000000000000008152506020018273ffffffffffffffffffffffffffffffffffffffff1673ffffffffffffffffffffffffffffffffffffffff168152602001915050600060405180830381600087803b158015620002ec57600080fd5b505af115801562000301573d6000803e3d6000fd5b5050505050565b61339280620003186000396000f30060806040526004361061015f576000357c0100000000000000000000000000000000000000000000000000000000900463ffffffff168063047913ce146101645780630c54a71a146101bb578063143e149c1461021257806318160ddd146102755780633f0c3484146102a05780634bf5efe6146103695780636352211e146103ae5780636f1d8884146103ef57806373ec533f1461044657806376cfa312146104bb5780637ca62997146104fe5780638033d5811461052b578063893d20e814610570578063916b9bef146105c75780639cc7f708146105f4578063a2eb892714610635578063a6e77af1146106b7578063b1e130fc146106e4578063b260c42a14610711578063ce03ffc91461073e578063cffe00f9146107ab578063dcbd32fe14610802578063e05a122014610845578063eab3afe9146108a0578063eb84cae6146108f7578063f2fde38b14610964578063f745adfc146109a7575b600080fd5b34801561017057600080fd5b506101796109d2565b604051808273ffffffffffffffffffffffffffffffffffffffff1673ffffffffffffffffffffffffffffffffffffffff16815260200191505060405180910390f35b3480156101c757600080fd5b506101d0610ac4565b604051808273ffffffffffffffffffffffffffffffffffffffff1673ffffffffffffffffffffffffffffffffffffffff16815260200191505060405180910390f35b34801561021e57600080fd5b5061023d60048036038101908080359060200190929190505050610bb6565b6040518084600019166000191681526020018360ff1660ff1681526020018260ff1660ff168152602001935050505060405180910390f35b34801561028157600080fd5b5061028a610cec565b6040518082815260200191505060405180910390f35b3480156102ac57600080fd5b506102cb60048036038101908080359060200190929190505050610dde565b604051808673ffffffffffffffffffffffffffffffffffffffff1673ffffffffffffffffffffffffffffffffffffffff1681526020018573ffffffffffffffffffffffffffffffffffffffff1673ffffffffffffffffffffffffffffffffffffffff16815260200184600019166000191681526020018360ff1660ff1681526020018260ff1660ff1681526020019550505050505060405180910390f35b34801561037557600080fd5b5061039460048036038101908080359060200190929190505050610e1a565b604051808215151515815260200191505060405180910390f35b3480156103ba57600080fd5b506103d960048036038101908080359060200190929190505050610f33565b6040518082815260200191505060405180910390f35b3480156103fb57600080fd5b50610404610f5a565b604051808273ffffffffffffffffffffffffffffffffffffffff1673ffffffffffffffffffffffffffffffffffffffff16815260200191505060405180910390f35b34801561045257600080fd5b506104b960048036038101908080359060200190929190803573ffffffffffffffffffffffffffffffffffffffff1690602001909291908035600019169060200190929190803560ff169060200190929190803560ff16906020019092919050505061104c565b005b3480156104c757600080fd5b506104fc600480360381019080803573ffffffffffffffffffffffffffffffffffffffff1690602001909291905050506112f6565b005b34801561050a57600080fd5b50610529600480360381019080803590602001909291905050506113e0565b005b34801561053757600080fd5b50610556600480360381019080803590602001909291905050506114cc565b604051808215151515815260200191505060405180910390f35b34801561057c57600080fd5b506105856115e5565b604051808273ffffffffffffffffffffffffffffffffffffffff1673ffffffffffffffffffffffffffffffffffffffff16815260200191505060405180910390f35b3480156105d357600080fd5b506105f2600480360381019080803590602001909291905050506116d7565b005b34801561060057600080fd5b5061061f60048036038101908080359060200190929190505050611744565b6040518082815260200191505060405180910390f35b34801561064157600080fd5b506106606004803603810190808035906020019092919050505061185d565b6040518080602001828103825283818151815260200191508051906020019060200280838360005b838110156106a3578082015181840152602081019050610688565b505050509050019250505060405180910390f35b3480156106c357600080fd5b506106e2600480360381019080803590602001909291905050506118ed565b005b3480156106f057600080fd5b5061070f60048036038101908080359060200190929190505050611a01565b005b34801561071d57600080fd5b5061073c60048036038101908080359060200190929190505050611aaf565b005b34801561074a57600080fd5b5061076960048036038101908080359060200190929190505050611b1d565b604051808273ffffffffffffffffffffffffffffffffffffffff1673ffffffffffffffffffffffffffffffffffffffff16815260200191505060405180910390f35b3480156107b757600080fd5b506107c0611be4565b604051808273ffffffffffffffffffffffffffffffffffffffff1673ffffffffffffffffffffffffffffffffffffffff16815260200191505060405180910390f35b34801561080e57600080fd5b50610843600480360381019080803573ffffffffffffffffffffffffffffffffffffffff169060200190929190505050611cd6565b005b34801561085157600080fd5b50610886600480360381019080803573ffffffffffffffffffffffffffffffffffffffff169060200190929190505050611e3c565b604051808215151515815260200191505060405180910390f35b3480156108ac57600080fd5b506108e1600480360381019080803573ffffffffffffffffffffffffffffffffffffffff169060200190929190505050611e50565b6040518082815260200191505060405180910390f35b34801561090357600080fd5b5061092260048036038101908080359060200190929190505050611fa4565b604051808273ffffffffffffffffffffffffffffffffffffffff1673ffffffffffffffffffffffffffffffffffffffff16815260200191505060405180910390f35b34801561097057600080fd5b506109a5600480360381019080803573ffffffffffffffffffffffffffffffffffffffff1690602001909291905050506120bd565b005b3480156109b357600080fd5b506109bc6121a7565b6040518082815260200191505060405180910390f35b60008060009054906101000a900473ffffffffffffffffffffffffffffffffffffffff1673ffffffffffffffffffffffffffffffffffffffff166321f8a7216040518163ffffffff167c010000000000000000000000000000000000000000000000000000000002815260040180807f626f74436f696e416464726573730000000000000000000000000000000000008152506020019050602060405180830381600087803b158015610a8457600080fd5b505af1158015610a98573d6000803e3d6000fd5b505050506040513d6020811015610aae57600080fd5b8101908080519060200190929190505050905090565b60008060009054906101000a900473ffffffffffffffffffffffffffffffffffffffff1673ffffffffffffffffffffffffffffffffffffffff166321f8a7216040518163ffffffff167c010000000000000000000000000000000000000000000000000000000002815260040180807f6f776e65725265676973747279416464726573730000000000000000000000008152506020019050602060405180830381600087803b158015610b7657600080fd5b505af1158015610b8a573d6000803e3d6000fd5b505050506040513d6020811015610ba057600080fd5b8101908080519060200190929190505050905090565b60008060008060009054906101000a900473ffffffffffffffffffffffffffffffffffffffff1673ffffffffffffffffffffffffffffffffffffffff16636d448c948560405180807f626f74456e74727949706673486173680000000000000000000000000000000081525060100182815260200191505060405180910390206040518263ffffffff167c0100000000000000000000000000000000000000000000000000000000028152600401808260001916600019168152602001915050606060405180830381600087803b158015610c9057600080fd5b505af1158015610ca4573d6000803e3d6000fd5b505050506040513d6060811015610cba57600080fd5b810190808051906020019092919080519060200190929190805190602001909291905050509250925092509193909250565b60008060009054906101000a900473ffffffffffffffffffffffffffffffffffffffff1673ffffffffffffffffffffffffffffffffffffffff1663bd02d0f56040518163ffffffff167c010000000000000000000000000000000000000000000000000000000002815260040180807f746f74616c546f6b656e730000000000000000000000000000000000000000008152506020019050602060405180830381600087803b158015610d9e57600080fd5b505af1158015610db2573d6000803e3d6000fd5b505050506040513d6020811015610dc857600080fd5b8101908080519060200190929190505050905090565b6000806000806000610def86611b1d565b9450610dfa86611fa4565b9350610e0586610bb6565b80935081945082955050505091939590929450565b60008060009054906101000a900473ffffffffffffffffffffffffffffffffffffffff1673ffffffffffffffffffffffffffffffffffffffff16637ae1cfca8360405180807f617070726f76616c537461747573000000000000000000000000000000000000815250600e0182815260200191505060405180910390206040518263ffffffff167c0100000000000000000000000000000000000000000000000000000000028152600401808260001916600019168152602001915050602060405180830381600087803b158015610ef157600080fd5b505af1158015610f05573d6000803e3d6000fd5b505050506040513d6020811015610f1b57600080fd5b81019080805190602001909291905050509050919050565b600080610f3f83612299565b905060008114151515610f5157600080fd5b80915050919050565b60008060009054906101000a900473ffffffffffffffffffffffffffffffffffffffff1673ffffffffffffffffffffffffffffffffffffffff166321f8a7216040518163ffffffff167c010000000000000000000000000000000000000000000000000000000002815260040180807f74616c6c6157616c6c65740000000000000000000000000000000000000000008152506020019050602060405180830381600087803b15801561100c57600080fd5b505af1158015611020573d6000803e3d6000fd5b505050506040513d602081101561103657600080fd5b8101908080519060200190929190505050905090565b6000611056610ac4565b73ffffffffffffffffffffffffffffffffffffffff16639bf4e32433886040518363ffffffff167c0100000000000000000000000000000000000000000000000000000000028152600401808373ffffffffffffffffffffffffffffffffffffffff1673ffffffffffffffffffffffffffffffffffffffff16815260200182815260200192505050602060405180830381600087803b1580156110f857600080fd5b505af115801561110c573d6000803e3d6000fd5b505050506040513d602081101561112257600080fd5b8101908080519060200190929190505050151561113e57600080fd5b60008573ffffffffffffffffffffffffffffffffffffffff161415151561116457600080fd5b61116d85611e3c565b15151561117957600080fd5b600060010284600019161415151561119057600080fd5b60008360ff16141515156111a357600080fd5b60008260ff16141515156111b657600080fd5b6111d160016111c3610cec565b6123b290919063ffffffff16565b90506111db6123d0565b6111e586826124fa565b6111ef8186612518565b6111f9858261263d565b61120581858585612771565b611210816001612890565b61121b81600161298d565b7f7754b8c4cb359b91e1f3ec866eda6039f5b1442d03bab5859feea1cdbb120e1381873388888888604051808881526020018781526020018673ffffffffffffffffffffffffffffffffffffffff1673ffffffffffffffffffffffffffffffffffffffff1681526020018573ffffffffffffffffffffffffffffffffffffffff1673ffffffffffffffffffffffffffffffffffffffff16815260200184600019166000191681526020018360ff1660ff1681526020018260ff1660ff16815260200197505050505050505060405180910390a1505050505050565b6112fe6115e5565b73ffffffffffffffffffffffffffffffffffffffff163373ffffffffffffffffffffffffffffffffffffffff1614151561133757600080fd5b600073ffffffffffffffffffffffffffffffffffffffff168173ffffffffffffffffffffffffffffffffffffffff161415151561137357600080fd5b8073ffffffffffffffffffffffffffffffffffffffff16611392611be4565b73ffffffffffffffffffffffffffffffffffffffff167f0235cc560a61b22b1b05325679baabe0bfed9269fa7337232e6de194c90fcca560405160405180910390a36113dd81612a8a565b50565b6113e86115e5565b73ffffffffffffffffffffffffffffffffffffffff163373ffffffffffffffffffffffffffffffffffffffff1614806114535750611424611be4565b73ffffffffffffffffffffffffffffffffffffffff163373ffffffffffffffffffffffffffffffffffffffff16145b151561145e57600080fd5b61146781612b89565b151561147257600080fd5b61147b81610e1a565b15151561148757600080fd5b611492816001612890565b7ffd9d9585c7e646ed46689240252bb11f3229ac41fd7e8ef6a81c9e5e14760802816040518082815260200191505060405180910390a150565b60008060009054906101000a900473ffffffffffffffffffffffffffffffffffffffff1673ffffffffffffffffffffffffffffffffffffffff16637ae1cfca8360405180807f6163746976655374617475730000000000000000000000000000000000000000815250600c0182815260200191505060405180910390206040518263ffffffff167c0100000000000000000000000000000000000000000000000000000000028152600401808260001916600019168152602001915050602060405180830381600087803b1580156115a357600080fd5b505af11580156115b7573d6000803e3d6000fd5b505050506040513d60208110156115cd57600080fd5b81019080805190602001909291905050509050919050565b60008060009054906101000a900473ffffffffffffffffffffffffffffffffffffffff1673ffffffffffffffffffffffffffffffffffffffff166321f8a7216040518163ffffffff167c010000000000000000000000000000000000000000000000000000000002815260040180807f6f776e65720000000000000000000000000000000000000000000000000000008152506020019050602060405180830381600087803b15801561169757600080fd5b505af11580156116ab573d6000803e3d6000fd5b505050506040513d60208110156116c157600080fd5b8101908080519060200190929190505050905090565b6116e081612bb4565b15156116eb57600080fd5b6116f4816114cc565b15156116ff57600080fd5b61170a81600061298d565b7f642028127038cd17804be50978266c980dbd2234656c49d7f9c43f15985cf0ad816040518082815260200191505060405180910390a150565b60008060009054906101000a900473ffffffffffffffffffffffffffffffffffffffff1673ffffffffffffffffffffffffffffffffffffffff1663bd02d0f58360405180807f6f776e657242616c616e63657300000000000000000000000000000000000000815250600d0182815260200191505060405180910390206040518263ffffffff167c0100000000000000000000000000000000000000000000000000000000028152600401808260001916600019168152602001915050602060405180830381600087803b15801561181b57600080fd5b505af115801561182f573d6000803e3d6000fd5b505050506040513d602081101561184557600080fd5b81019080805190602001909291905050509050919050565b606060006060600061186e85611744565b92508260405190808252806020026020018201604052801561189f5781602001602082028038833980820191505090505b509150600090505b828110156118e2576118b98582612bf4565b82828151811015156118c757fe5b906020019060200201818152505080806001019150506118a7565b819350505050919050565b6118f56115e5565b73ffffffffffffffffffffffffffffffffffffffff163373ffffffffffffffffffffffffffffffffffffffff1614151561192e57600080fd5b6000809054906101000a900473ffffffffffffffffffffffffffffffffffffffff1673ffffffffffffffffffffffffffffffffffffffff1663e2a4853a826040518263ffffffff167c010000000000000000000000000000000000000000000000000000000002815260040180807f656e747279507269636500000000000000000000000000000000000000000000815250602001828152602001915050600060405180830381600087803b1580156119e657600080fd5b505af11580156119fa573d6000803e3d6000fd5b5050505050565b611a096115e5565b73ffffffffffffffffffffffffffffffffffffffff163373ffffffffffffffffffffffffffffffffffffffff16141515611a4257600080fd5b611a4b81612b89565b1515611a5657600080fd5b611a5f81610e1a565b1515611a6a57600080fd5b611a75816000612890565b7fb6718bd6b02cdd14f759530c19e5a31b0e130155a6b0df289a78a46aabbeebc4816040518082815260200191505060405180910390a150565b611ab881612bb4565b1515611ac357600080fd5b611acc816114cc565b151515611ad857600080fd5b611ae381600161298d565b7f973e7e4090a8638950965c1497c763e51c4264196dc51b8b7a0bac812917dbe7816040518082815260200191505060405180910390a150565b600080611b2983610f33565b9050611b33610ac4565b73ffffffffffffffffffffffffffffffffffffffff1663ce03ffc9826040518263ffffffff167c010000000000000000000000000000000000000000000000000000000002815260040180828152602001915050602060405180830381600087803b158015611ba157600080fd5b505af1158015611bb5573d6000803e3d6000fd5b505050506040513d6020811015611bcb57600080fd5b8101908080519060200190929190505050915050919050565b60008060009054906101000a900473ffffffffffffffffffffffffffffffffffffffff1673ffffffffffffffffffffffffffffffffffffffff166321f8a7216040518163ffffffff167c010000000000000000000000000000000000000000000000000000000002815260040180807f61726269746572000000000000000000000000000000000000000000000000008152506020019050602060405180830381600087803b158015611c9657600080fd5b505af1158015611caa573d6000803e3d6000fd5b505050506040513d6020811015611cc057600080fd5b8101908080519060200190929190505050905090565b611cde6115e5565b73ffffffffffffffffffffffffffffffffffffffff163373ffffffffffffffffffffffffffffffffffffffff16141515611d1757600080fd5b60008173ffffffffffffffffffffffffffffffffffffffff1614151515611d3d57600080fd5b6000809054906101000a900473ffffffffffffffffffffffffffffffffffffffff1673ffffffffffffffffffffffffffffffffffffffff1663ca446dd9826040518263ffffffff167c010000000000000000000000000000000000000000000000000000000002815260040180807f74616c6c6157616c6c65740000000000000000000000000000000000000000008152506020018273ffffffffffffffffffffffffffffffffffffffff1673ffffffffffffffffffffffffffffffffffffffff168152602001915050600060405180830381600087803b158015611e2157600080fd5b505af1158015611e35573d6000803e3d6000fd5b5050505050565b600080611e4883611e50565b119050919050565b60008060009054906101000a900473ffffffffffffffffffffffffffffffffffffffff1673ffffffffffffffffffffffffffffffffffffffff1663bd02d0f58360405180807f626f74456e7472794964734279416464726573730000000000000000000000008152506014018273ffffffffffffffffffffffffffffffffffffffff1673ffffffffffffffffffffffffffffffffffffffff166c0100000000000000000000000002815260140191505060405180910390206040518263ffffffff167c0100000000000000000000000000000000000000000000000000000000028152600401808260001916600019168152602001915050602060405180830381600087803b158015611f6257600080fd5b505af1158015611f76573d6000803e3d6000fd5b505050506040513d6020811015611f8c57600080fd5b81019080805190602001909291905050509050919050565b60008060009054906101000a900473ffffffffffffffffffffffffffffffffffffffff1673ffffffffffffffffffffffffffffffffffffffff166321f8a7218360405180807f626f74456e74727941646472657373657300000000000000000000000000000081525060110182815260200191505060405180910390206040518263ffffffff167c0100000000000000000000000000000000000000000000000000000000028152600401808260001916600019168152602001915050602060405180830381600087803b15801561207b57600080fd5b505af115801561208f573d6000803e3d6000fd5b505050506040513d60208110156120a557600080fd5b81019080805190602001909291905050509050919050565b6120c56115e5565b73ffffffffffffffffffffffffffffffffffffffff163373ffffffffffffffffffffffffffffffffffffffff161415156120fe57600080fd5b600073ffffffffffffffffffffffffffffffffffffffff168173ffffffffffffffffffffffffffffffffffffffff161415151561213a57600080fd5b8073ffffffffffffffffffffffffffffffffffffffff166121596115e5565b73ffffffffffffffffffffffffffffffffffffffff167f8be0079c531659141344cd1fd0a4f28419497f9722a3daafe3b4186f6b6457e060405160405180910390a36121a481612d16565b50565b60008060009054906101000a900473ffffffffffffffffffffffffffffffffffffffff1673ffffffffffffffffffffffffffffffffffffffff1663bd02d0f56040518163ffffffff167c010000000000000000000000000000000000000000000000000000000002815260040180807f656e7472795072696365000000000000000000000000000000000000000000008152506020019050602060405180830381600087803b15801561225957600080fd5b505af115801561226d573d6000803e3d6000fd5b505050506040513d602081101561228357600080fd5b8101908080519060200190929190505050905090565b60008060009054906101000a900473ffffffffffffffffffffffffffffffffffffffff1673ffffffffffffffffffffffffffffffffffffffff1663bd02d0f58360405180807f746f6b656e4f776e657273000000000000000000000000000000000000000000815250600b0182815260200191505060405180910390206040518263ffffffff167c0100000000000000000000000000000000000000000000000000000000028152600401808260001916600019168152602001915050602060405180830381600087803b15801561237057600080fd5b505af1158015612384573d6000803e3d6000fd5b505050506040513d602081101561239a57600080fd5b81019080805190602001909291905050509050919050565b60008082840190508381101515156123c657fe5b8091505092915050565b6123d86109d2565b73ffffffffffffffffffffffffffffffffffffffff166323b872dd336123fc610f5a565b6124046121a7565b6040518463ffffffff167c0100000000000000000000000000000000000000000000000000000000028152600401808473ffffffffffffffffffffffffffffffffffffffff1673ffffffffffffffffffffffffffffffffffffffff1681526020018373ffffffffffffffffffffffffffffffffffffffff1673ffffffffffffffffffffffffffffffffffffffff1681526020018281526020019350505050602060405180830381600087803b1580156124bc57600080fd5b505af11580156124d0573d6000803e3d6000fd5b505050506040513d60208110156124e657600080fd5b810190808051906020019092919050505050565b6000821415151561250a57600080fd5b6125148282612e15565b5050565b6000809054906101000a900473ffffffffffffffffffffffffffffffffffffffff1673ffffffffffffffffffffffffffffffffffffffff1663ca446dd98360405180807f626f74456e7472794164647265737365730000000000000000000000000000008152506011018281526020019150506040518091039020836040518363ffffffff167c01000000000000000000000000000000000000000000000000000000000281526004018083600019166000191681526020018273ffffffffffffffffffffffffffffffffffffffff1673ffffffffffffffffffffffffffffffffffffffff16815260200192505050600060405180830381600087803b15801561262157600080fd5b505af1158015612635573d6000803e3d6000fd5b505050505050565b6000809054906101000a900473ffffffffffffffffffffffffffffffffffffffff1673ffffffffffffffffffffffffffffffffffffffff1663e2a4853a8360405180807f626f74456e7472794964734279416464726573730000000000000000000000008152506014018273ffffffffffffffffffffffffffffffffffffffff1673ffffffffffffffffffffffffffffffffffffffff166c010000000000000000000000000281526014019150506040518091039020836040518363ffffffff167c010000000000000000000000000000000000000000000000000000000002815260040180836000191660001916815260200182815260200192505050600060405180830381600087803b15801561275557600080fd5b505af1158015612769573d6000803e3d6000fd5b505050505050565b6000809054906101000a900473ffffffffffffffffffffffffffffffffffffffff1673ffffffffffffffffffffffffffffffffffffffff16634261ff6a8560405180807f626f74456e74727949706673486173680000000000000000000000000000000081525060100182815260200191505060405180910390208585856040518563ffffffff167c010000000000000000000000000000000000000000000000000000000002815260040180856000191660001916815260200184600019166000191681526020018360ff1660ff1681526020018260ff1660ff168152602001945050505050600060405180830381600087803b15801561287257600080fd5b505af1158015612886573d6000803e3d6000fd5b5050505050505050565b6000809054906101000a900473ffffffffffffffffffffffffffffffffffffffff1673ffffffffffffffffffffffffffffffffffffffff1663abfdcced8360405180807f617070726f76616c537461747573000000000000000000000000000000000000815250600e018281526020019150506040518091039020836040518363ffffffff167c01000000000000000000000000000000000000000000000000000000000281526004018083600019166000191681526020018215151515815260200192505050600060405180830381600087803b15801561297157600080fd5b505af1158015612985573d6000803e3d6000fd5b505050505050565b6000809054906101000a900473ffffffffffffffffffffffffffffffffffffffff1673ffffffffffffffffffffffffffffffffffffffff1663abfdcced8360405180807f6163746976655374617475730000000000000000000000000000000000000000815250600c018281526020019150506040518091039020836040518363ffffffff167c01000000000000000000000000000000000000000000000000000000000281526004018083600019166000191681526020018215151515815260200192505050600060405180830381600087803b158015612a6e57600080fd5b505af1158015612a82573d6000803e3d6000fd5b505050505050565b6000809054906101000a900473ffffffffffffffffffffffffffffffffffffffff1673ffffffffffffffffffffffffffffffffffffffff1663ca446dd9826040518263ffffffff167c010000000000000000000000000000000000000000000000000000000002815260040180807f61726269746572000000000000000000000000000000000000000000000000008152506020018273ffffffffffffffffffffffffffffffffffffffff1673ffffffffffffffffffffffffffffffffffffffff168152602001915050600060405180830381600087803b158015612b6e57600080fd5b505af1158015612b82573d6000803e3d6000fd5b5050505050565b600080612b9583611b1d565b73ffffffffffffffffffffffffffffffffffffffff1614159050919050565b60003373ffffffffffffffffffffffffffffffffffffffff16612bd683611b1d565b73ffffffffffffffffffffffffffffffffffffffff16149050919050565b60008060009054906101000a900473ffffffffffffffffffffffffffffffffffffffff1673ffffffffffffffffffffffffffffffffffffffff1663bd02d0f5848460405180807f6f776e6564546f6b656e73000000000000000000000000000000000000000000815250600b018381526020018281526020019250505060405180910390206040518263ffffffff167c0100000000000000000000000000000000000000000000000000000000028152600401808260001916600019168152602001915050602060405180830381600087803b158015612cd357600080fd5b505af1158015612ce7573d6000803e3d6000fd5b505050506040513d6020811015612cfd57600080fd5b8101908080519060200190929190505050905092915050565b6000809054906101000a900473ffffffffffffffffffffffffffffffffffffffff1673ffffffffffffffffffffffffffffffffffffffff1663ca446dd9826040518263ffffffff167c010000000000000000000000000000000000000000000000000000000002815260040180807f6f776e65720000000000000000000000000000000000000000000000000000008152506020018273ffffffffffffffffffffffffffffffffffffffff1673ffffffffffffffffffffffffffffffffffffffff168152602001915050600060405180830381600087803b158015612dfa57600080fd5b505af1158015612e0e573d6000803e3d6000fd5b5050505050565b600080612e2183612299565b141515612e2d57600080fd5b612e378284612e63565b612e4083611744565b9050612e4c8383612f5c565b612e56828261306e565b612e5e613167565b505050565b6000809054906101000a900473ffffffffffffffffffffffffffffffffffffffff1673ffffffffffffffffffffffffffffffffffffffff1663e2a4853a8360405180807f746f6b656e4f776e657273000000000000000000000000000000000000000000815250600b018281526020019150506040518091039020836040518363ffffffff167c010000000000000000000000000000000000000000000000000000000002815260040180836000191660001916815260200182815260200192505050600060405180830381600087803b158015612f4057600080fd5b505af1158015612f54573d6000803e3d6000fd5b505050505050565b6000809054906101000a900473ffffffffffffffffffffffffffffffffffffffff1673ffffffffffffffffffffffffffffffffffffffff1663e2a4853a83612fa385611744565b60405180807f6f776e6564546f6b656e73000000000000000000000000000000000000000000815250600b01838152602001828152602001925050506040518091039020836040518363ffffffff167c010000000000000000000000000000000000000000000000000000000002815260040180836000191660001916815260200182815260200192505050600060405180830381600087803b15801561304957600080fd5b505af115801561305d573d6000803e3d6000fd5b5050505061306a82613253565b5050565b6000809054906101000a900473ffffffffffffffffffffffffffffffffffffffff1673ffffffffffffffffffffffffffffffffffffffff1663e2a4853a8360405180807f6f776e6564546f6b656e73496e646578000000000000000000000000000000008152506010018281526020019150506040518091039020836040518363ffffffff167c010000000000000000000000000000000000000000000000000000000002815260040180836000191660001916815260200182815260200192505050600060405180830381600087803b15801561314b57600080fd5b505af115801561315f573d6000803e3d6000fd5b505050505050565b6000809054906101000a900473ffffffffffffffffffffffffffffffffffffffff1673ffffffffffffffffffffffffffffffffffffffff1663e2a4853a6131bf60016131b1610cec565b6123b290919063ffffffff16565b6040518263ffffffff167c010000000000000000000000000000000000000000000000000000000002815260040180807f746f74616c546f6b656e73000000000000000000000000000000000000000000815250602001828152602001915050600060405180830381600087803b15801561323957600080fd5b505af115801561324d573d6000803e3d6000fd5b50505050565b6000809054906101000a900473ffffffffffffffffffffffffffffffffffffffff1673ffffffffffffffffffffffffffffffffffffffff1663e2a4853a8260405180807f6f776e657242616c616e63657300000000000000000000000000000000000000815250600d0182815260200191505060405180910390206132ea60016132dc86611744565b6123b290919063ffffffff16565b6040518363ffffffff167c010000000000000000000000000000000000000000000000000000000002815260040180836000191660001916815260200182815260200192505050600060405180830381600087803b15801561334b57600080fd5b505af115801561335f573d6000803e3d6000fd5b50505050505600a165627a7a723058202b85288d7c775ae617985c7f4f6b0a389efa5e9dbaf7ee8306e060ca650b0d580029",
  "source": "pragma solidity ^0.4.18;\n\nimport 'zeppelin-solidity/contracts/math/SafeMath.sol';\nimport \"./OwnableRegistry.sol\";\nimport \"./OwnerRegistry.sol\";\nimport \"./ActivatableRegistry.sol\";\nimport \"./ApprovableRegistry.sol\";\nimport './BotCoinPayableRegistry.sol';\n\n/**\n* @title BotEntryStorableRegistry\n*/\ncontract BotEntryStorableRegistry is BotCoinPayableRegistry, ApprovableRegistry, ActivatableRegistry, OwnableRegistry {\n  using SafeMath for uint256;\n\n  /**\n  * @dev Event for when bot entry is created\n  * @param botEntryId An id associated with the bot entry  \n  * @param parentEntryId An id associated with the developer\n  * @param developerOwnerAddress An address associated with the developer owner\n  * @param botEntryAddress An address associated with the bot entry\n  * @param IpfsDigest IPFS Digest of the data associated with the new bot\n  * @param IpfsFnCode IPFS Function Code associated with the new bot\n  * @param IpfsSize IPFS Digest size associated with the new bot\n  */\n  event BotEntryCreated(\n    uint256 botEntryId, \n    uint256 parentEntryId, \n    address developerOwnerAddress, \n    address botEntryAddress, \n    bytes32 IpfsDigest,\n    uint8 IpfsFnCode,\n    uint8 IpfsSize\n  );\n\n  /** @dev Constructor for BotEntryStorableRegistry */\n  function BotEntryStorableRegistry(BaseStorage storage_)\n    BotCoinPayableRegistry(storage_)\n    OwnableRegistry(storage_)\n    ApprovableRegistry(storage_, this)\n    ActivatableRegistry(storage_)\n    public\n  {}\n\n  /**\n  * @dev Returns address of bot entry\n  * @param botEntryId An id associated with the bot entry\n  */\n  function botEntryAddress(uint256 botEntryId) public view returns (address) {\n    return _storage.getAddress(keccak256(\"botEntryAddresses\", botEntryId));\n  }\n\n  /**\n  * @dev Returns bot entry url of botEntryId \n  * @param botEntryId An id associated with the bot entry\n  */\n  function botEntryIpfs(uint256 botEntryId) public view returns (bytes32 digest, uint8 fnCode, uint8 size) {\n    return _storage.getIpfs(keccak256(\"botEntryIpfsHash\", botEntryId));\n  }\n\n  /**\n  * @dev Gets id of bot entry address\n  * @param botEntryAddress An address associated with the bot entry\n  */\n  function botEntryIdForAddress(address botEntryAddress) public view returns (uint256) {\n    return _storage.getUint(keccak256(\"botEntryIdsByAddress\", botEntryAddress));\n  }\n\n  /**\n  * @dev Checks if botEntryAddress exists\n  * @param botEntryAddress An address associated with the bot entry\n  */\n  function botEntryAddressExists(address botEntryAddress) public view returns (bool) {\n    return botEntryIdForAddress(botEntryAddress) > 0;\n  }\n\n  /**\n  * @dev Returns bot entry associated with a bot entry id\n  * @param botEntryId An id associated with the bot entry\n  */\n  function getBotEntry(uint256 botEntryId) public view returns\n  (\n    address _owner,\n    address _botEntryAddress,\n    bytes32 _digest,\n    uint8 _fnCode, \n    uint8 _size\n  ) {\n    _owner = ownerOfEntry(botEntryId); \n    _botEntryAddress = botEntryAddress(botEntryId);\n    (_digest, _fnCode, _size) = botEntryIpfs(botEntryId);\n  }\n\n  /**\n  * @dev Creates a new bot entry.\n  * @param parentEntryId ID of the developer that will own this bot entry\n  * @param botEntryAddress Address of the bot\n  * @param IpfsDigest IPFS Digest of the data associated with the new bot\n  * @param IpfsFnCode IPFS Function Code associated with the new bot\n  * @param IpfsSize IPFS Digest size associated with the new bot\n  */\n  function createBotEntry(\n    uint256 parentEntryId, \n    address botEntryAddress, \n    bytes32 IpfsDigest,\n    uint8 IpfsFnCode,\n    uint8 IpfsSize\n  )\n    public \n  {\n    require(ownerRegistry().mintingAllowed(msg.sender, parentEntryId));\n    require(botEntryAddress != 0x0);\n    require(!botEntryAddressExists(botEntryAddress));\n    require(IpfsDigest != 0x0);\n    require(IpfsFnCode != 0);\n    require(IpfsSize != 0);\n\n    uint256 botEntryId = totalSupply().add(1);\n\n    transferBotCoin();\n\n    _mint(parentEntryId, botEntryId);\n    setBotEntryData(botEntryId, botEntryAddress);\n    setBotEntryIdForAddress(botEntryAddress, botEntryId);\n    setBotEntryIpfs(botEntryId, IpfsDigest, IpfsFnCode, IpfsSize);\n    setApprovalStatus(botEntryId, true);\n    setActiveStatus(botEntryId, true);\n\n    BotEntryCreated(botEntryId, parentEntryId, msg.sender, botEntryAddress, IpfsDigest, IpfsFnCode, IpfsSize);\n  }\n\n  /**\n  * @dev Sets bot entry data\n  * @param botEntryId An id associated with the bot entry\n  * @param botEntryAddress An address associated with the bot entry\n  */\n  function setBotEntryData(uint256 botEntryId, address botEntryAddress) private {\n    _storage.setAddress(keccak256(\"botEntryAddresses\", botEntryId), botEntryAddress);\n  }\n\n  /**\n  * @dev Sets bot entry id for address\n  * param botEntryAddress An address associated with the bot entry\n  * @param botEntryId An id associated with the bot entry\n  */\n  function setBotEntryIdForAddress(address botEntryAddress, uint256 botEntryId) private {\n    _storage.setUint(keccak256(\"botEntryIdsByAddress\", botEntryAddress), botEntryId);\n  }\n\n  /**\n  * @dev Sets url of botEntryId \n  * @param botEntryId An id associated with the bot entry\n  * @param digest bytes32 Multihash digest\n  * @param fnCode uint8 Multihash function code\n  * @param size uint8 URL Multihash digest size\n  */\n  function setBotEntryIpfs(uint256 botEntryId, bytes32 digest, uint8 fnCode, uint8 size) private {\n    _storage.setIpfs(keccak256(\"botEntryIpfsHash\", botEntryId), digest, fnCode, size);\n  }\n\n  /**\n  * @dev Checks if msg.sender owns the given bot entry\n  * @param _botEntryId A bot entry id\n  * @return true if msg.sender owns the given bot entry\n  */\n  function checkEntryOwnership(uint256 _botEntryId) private view returns (bool) {\n    return ownerOfEntry(_botEntryId) == msg.sender;\n  }\n\n  /**\n  * @dev Checks if an entry exists\n  * @param _entryId An entry id\n  * @return true if an entry with the given id exists\n  */\n  function entryExists(uint256 _entryId) private view returns (bool) {\n    return ownerOfEntry(_entryId) != 0x0;\n  }\n\n}\n",
  "sourcePath": "/home/henry/ws/botchain/contracts/Registry/BotEntryStorableRegistry.sol",
  "compiler": {
    "name": "solc",
    "version": "0.4.24+commit.e67f0147.Emscripten.clang"
  },
  "schemaVersion": "2.0.1",
  "updatedAt": "2018-11-01T15:08:00.538Z"
}