{
  "contractName": "BotInstanceRegistryDelegate",
  "abi": [
    {
      "constant": true,
      "inputs": [],
      "name": "botCoin",
      "outputs": [
        {
          "name": "",
          "type": "address"
        }
      ],
      "payable": false,
      "stateMutability": "view",
      "type": "function"
    },
    {
      "constant": true,
      "inputs": [],
      "name": "name",
      "outputs": [
        {
          "name": "",
          "type": "string"
        }
      ],
      "payable": false,
      "stateMutability": "view",
      "type": "function"
    },
    {
      "constant": true,
      "inputs": [],
      "name": "ownerRegistry",
      "outputs": [
        {
          "name": "",
          "type": "address"
        }
      ],
      "payable": false,
      "stateMutability": "view",
      "type": "function"
    },
    {
      "constant": true,
      "inputs": [
        {
          "name": "botEntryId",
          "type": "uint256"
        }
      ],
      "name": "botEntryIpfs",
      "outputs": [
        {
          "name": "digest",
          "type": "bytes32"
        },
        {
          "name": "fnCode",
          "type": "uint8"
        },
        {
          "name": "size",
          "type": "uint8"
        }
      ],
      "payable": false,
      "stateMutability": "view",
      "type": "function"
    },
    {
      "constant": true,
      "inputs": [],
      "name": "totalSupply",
      "outputs": [
        {
          "name": "",
          "type": "uint256"
        }
      ],
      "payable": false,
      "stateMutability": "view",
      "type": "function"
    },
    {
      "constant": true,
      "inputs": [
        {
          "name": "botEntryId",
          "type": "uint256"
        }
      ],
      "name": "getBotEntry",
      "outputs": [
        {
          "name": "_owner",
          "type": "address"
        },
        {
          "name": "_botEntryAddress",
          "type": "address"
        },
        {
          "name": "_digest",
          "type": "bytes32"
        },
        {
          "name": "_fnCode",
          "type": "uint8"
        },
        {
          "name": "_size",
          "type": "uint8"
        }
      ],
      "payable": false,
      "stateMutability": "view",
      "type": "function"
    },
    {
      "constant": true,
      "inputs": [
        {
          "name": "_entryId",
          "type": "uint256"
        }
      ],
      "name": "approvalStatus",
      "outputs": [
        {
          "name": "",
          "type": "bool"
        }
      ],
      "payable": false,
      "stateMutability": "view",
      "type": "function"
    },
    {
      "constant": true,
      "inputs": [
        {
          "name": "_tokenId",
          "type": "uint256"
        }
      ],
      "name": "ownerOf",
      "outputs": [
        {
          "name": "",
          "type": "uint256"
        }
      ],
      "payable": false,
      "stateMutability": "view",
      "type": "function"
    },
    {
      "constant": true,
      "inputs": [],
      "name": "tallaWallet",
      "outputs": [
        {
          "name": "",
          "type": "address"
        }
      ],
      "payable": false,
      "stateMutability": "view",
      "type": "function"
    },
    {
      "constant": false,
      "inputs": [
        {
          "name": "parentEntryId",
          "type": "uint256"
        },
        {
          "name": "botEntryAddress",
          "type": "address"
        },
        {
          "name": "IpfsDigest",
          "type": "bytes32"
        },
        {
          "name": "IpfsFnCode",
          "type": "uint8"
        },
        {
          "name": "IpfsSize",
          "type": "uint8"
        }
      ],
      "name": "createBotEntry",
      "outputs": [],
      "payable": false,
      "stateMutability": "nonpayable",
      "type": "function"
    },
    {
      "constant": false,
      "inputs": [
        {
          "name": "newArbiter",
          "type": "address"
        }
      ],
      "name": "changeArbiter",
      "outputs": [],
      "payable": false,
      "stateMutability": "nonpayable",
      "type": "function"
    },
    {
      "constant": false,
      "inputs": [
        {
          "name": "_entryId",
          "type": "uint256"
        }
      ],
      "name": "grantApproval",
      "outputs": [],
      "payable": false,
      "stateMutability": "nonpayable",
      "type": "function"
    },
    {
      "constant": true,
      "inputs": [
        {
          "name": "_entryId",
          "type": "uint256"
        }
      ],
      "name": "active",
      "outputs": [
        {
          "name": "",
          "type": "bool"
        }
      ],
      "payable": false,
      "stateMutability": "view",
      "type": "function"
    },
    {
      "constant": true,
      "inputs": [],
      "name": "getOwner",
      "outputs": [
        {
          "name": "",
          "type": "address"
        }
      ],
      "payable": false,
      "stateMutability": "view",
      "type": "function"
    },
    {
      "constant": false,
      "inputs": [
        {
          "name": "_entryId",
          "type": "uint256"
        }
      ],
      "name": "deactivate",
      "outputs": [],
      "payable": false,
      "stateMutability": "nonpayable",
      "type": "function"
    },
    {
      "constant": true,
      "inputs": [
        {
          "name": "_ownerTokenId",
          "type": "uint256"
        }
      ],
      "name": "balanceOf",
      "outputs": [
        {
          "name": "",
          "type": "uint256"
        }
      ],
      "payable": false,
      "stateMutability": "view",
      "type": "function"
    },
    {
      "constant": true,
      "inputs": [
        {
          "name": "_ownerTokenId",
          "type": "uint256"
        }
      ],
      "name": "tokensOf",
      "outputs": [
        {
          "name": "",
          "type": "uint256[]"
        }
      ],
      "payable": false,
      "stateMutability": "view",
      "type": "function"
    },
    {
      "constant": false,
      "inputs": [
        {
          "name": "entryPrice",
          "type": "uint256"
        }
      ],
      "name": "setEntryPrice",
      "outputs": [],
      "payable": false,
      "stateMutability": "nonpayable",
      "type": "function"
    },
    {
      "constant": false,
      "inputs": [
        {
          "name": "_entryId",
          "type": "uint256"
        }
      ],
      "name": "revokeApproval",
      "outputs": [],
      "payable": false,
      "stateMutability": "nonpayable",
      "type": "function"
    },
    {
      "constant": false,
      "inputs": [
        {
          "name": "_entryId",
          "type": "uint256"
        }
      ],
      "name": "activate",
      "outputs": [],
      "payable": false,
      "stateMutability": "nonpayable",
      "type": "function"
    },
    {
      "constant": true,
      "inputs": [
        {
          "name": "_entryId",
          "type": "uint256"
        }
      ],
      "name": "ownerOfEntry",
      "outputs": [
        {
          "name": "",
          "type": "address"
        }
      ],
      "payable": false,
      "stateMutability": "view",
      "type": "function"
    },
    {
      "constant": true,
      "inputs": [],
      "name": "getArbiter",
      "outputs": [
        {
          "name": "",
          "type": "address"
        }
      ],
      "payable": false,
      "stateMutability": "view",
      "type": "function"
    },
    {
      "constant": false,
      "inputs": [
        {
          "name": "tallaWallet",
          "type": "address"
        }
      ],
      "name": "setTallaWallet",
      "outputs": [],
      "payable": false,
      "stateMutability": "nonpayable",
      "type": "function"
    },
    {
      "constant": true,
      "inputs": [
        {
          "name": "botEntryAddress",
          "type": "address"
        }
      ],
      "name": "botEntryAddressExists",
      "outputs": [
        {
          "name": "",
          "type": "bool"
        }
      ],
      "payable": false,
      "stateMutability": "view",
      "type": "function"
    },
    {
      "constant": true,
      "inputs": [
        {
          "name": "botEntryAddress",
          "type": "address"
        }
      ],
      "name": "botEntryIdForAddress",
      "outputs": [
        {
          "name": "",
          "type": "uint256"
        }
      ],
      "payable": false,
      "stateMutability": "view",
      "type": "function"
    },
    {
      "constant": true,
      "inputs": [
        {
          "name": "botEntryId",
          "type": "uint256"
        }
      ],
      "name": "botEntryAddress",
      "outputs": [
        {
          "name": "",
          "type": "address"
        }
      ],
      "payable": false,
      "stateMutability": "view",
      "type": "function"
    },
    {
      "constant": false,
      "inputs": [
        {
          "name": "newOwner",
          "type": "address"
        }
      ],
      "name": "transferOwnership",
      "outputs": [],
      "payable": false,
      "stateMutability": "nonpayable",
      "type": "function"
    },
    {
      "constant": true,
      "inputs": [],
      "name": "entryPrice",
      "outputs": [
        {
          "name": "",
          "type": "uint256"
        }
      ],
      "payable": false,
      "stateMutability": "view",
      "type": "function"
    },
    {
      "inputs": [
        {
          "name": "storage_",
          "type": "address"
        }
      ],
      "payable": false,
      "stateMutability": "nonpayable",
      "type": "constructor"
    },
    {
      "anonymous": false,
      "inputs": [
        {
          "indexed": false,
          "name": "botEntryId",
          "type": "uint256"
        },
        {
          "indexed": false,
          "name": "parentEntryId",
          "type": "uint256"
        },
        {
          "indexed": false,
          "name": "developerOwnerAddress",
          "type": "address"
        },
        {
          "indexed": false,
          "name": "botEntryAddress",
          "type": "address"
        },
        {
          "indexed": false,
          "name": "IpfsDigest",
          "type": "bytes32"
        },
        {
          "indexed": false,
          "name": "IpfsFnCode",
          "type": "uint8"
        },
        {
          "indexed": false,
          "name": "IpfsSize",
          "type": "uint8"
        }
      ],
      "name": "BotEntryCreated",
      "type": "event"
    },
    {
      "anonymous": false,
      "inputs": [
        {
          "indexed": false,
          "name": "entryId",
          "type": "uint256"
        }
      ],
      "name": "Activate",
      "type": "event"
    },
    {
      "anonymous": false,
      "inputs": [
        {
          "indexed": false,
          "name": "entryId",
          "type": "uint256"
        }
      ],
      "name": "Deactivate",
      "type": "event"
    },
    {
      "anonymous": false,
      "inputs": [
        {
          "indexed": false,
          "name": "entryId",
          "type": "uint256"
        }
      ],
      "name": "ApprovalGranted",
      "type": "event"
    },
    {
      "anonymous": false,
      "inputs": [
        {
          "indexed": false,
          "name": "entryId",
          "type": "uint256"
        }
      ],
      "name": "ApprovalRevoked",
      "type": "event"
    },
    {
      "anonymous": false,
      "inputs": [
        {
          "indexed": true,
          "name": "previousArbiter",
          "type": "address"
        },
        {
          "indexed": true,
          "name": "newArbiter",
          "type": "address"
        }
      ],
      "name": "ArbiterChange",
      "type": "event"
    },
    {
      "anonymous": false,
      "inputs": [
        {
          "indexed": true,
          "name": "previousOwner",
          "type": "address"
        },
        {
          "indexed": true,
          "name": "newOwner",
          "type": "address"
        }
      ],
      "name": "OwnershipTransferred",
      "type": "event"
    },
    {
      "constant": true,
      "inputs": [
        {
          "name": "botInstanceId",
          "type": "uint256"
        }
      ],
      "name": "getBotInstance",
      "outputs": [
        {
          "name": "_owner",
          "type": "address"
        },
        {
          "name": "_botEntryAddress",
          "type": "address"
        },
        {
          "name": "_digest",
          "type": "bytes32"
        },
        {
          "name": "_fnCode",
          "type": "uint8"
        },
        {
          "name": "_size",
          "type": "uint8"
        }
      ],
      "payable": false,
      "stateMutability": "view",
      "type": "function"
    },
    {
      "constant": false,
      "inputs": [
        {
          "name": "botProductId",
          "type": "uint256"
        },
        {
          "name": "botInstanceAddress",
          "type": "address"
        },
        {
          "name": "IpfsDigest",
          "type": "bytes32"
        },
        {
          "name": "IpfsFnCode",
          "type": "uint8"
        },
        {
          "name": "IpfsSize",
          "type": "uint8"
        }
      ],
      "name": "createBotInstance",
      "outputs": [],
      "payable": false,
      "stateMutability": "nonpayable",
      "type": "function"
    }
  ],
  "bytecode": "0x60806040523480156200001157600080fd5b506040516020806200390c8339810180604052810190808051906020019092919050505080808182308181868287806000806101000a81548173ffffffffffffffffffffffffffffffffffffffff021916908373ffffffffffffffffffffffffffffffffffffffff1602179055505060008173ffffffffffffffffffffffffffffffffffffffff16141515620000bc57620000bb3362000108640100000000026401000000009004565b5b505060008173ffffffffffffffffffffffffffffffffffffffff16141515620000fa57620000f98162000209640100000000026401000000009004565b5b50505050505050506200030a565b6000809054906101000a900473ffffffffffffffffffffffffffffffffffffffff1673ffffffffffffffffffffffffffffffffffffffff1663ca446dd9826040518263ffffffff167c010000000000000000000000000000000000000000000000000000000002815260040180807f6f776e65720000000000000000000000000000000000000000000000000000008152506020018273ffffffffffffffffffffffffffffffffffffffff1673ffffffffffffffffffffffffffffffffffffffff168152602001915050600060405180830381600087803b158015620001ed57600080fd5b505af115801562000202573d6000803e3d6000fd5b5050505050565b6000809054906101000a900473ffffffffffffffffffffffffffffffffffffffff1673ffffffffffffffffffffffffffffffffffffffff1663ca446dd9826040518263ffffffff167c010000000000000000000000000000000000000000000000000000000002815260040180807f61726269746572000000000000000000000000000000000000000000000000008152506020018273ffffffffffffffffffffffffffffffffffffffff1673ffffffffffffffffffffffffffffffffffffffff168152602001915050600060405180830381600087803b158015620002ee57600080fd5b505af115801562000303573d6000803e3d6000fd5b5050505050565b6135f2806200031a6000396000f300608060405260043610610180576000357c0100000000000000000000000000000000000000000000000000000000900463ffffffff168063047913ce1461018557806306fdde03146101dc5780630c54a71a1461026c578063143e149c146102c357806318160ddd1461032657806339ce8e52146103515780633f0c3484146103c65780634bf5efe61461048f5780636352211e146104d45780636f1d88841461051557806373ec533f1461056c57806376cfa312146105e15780637ca62997146106245780638033d58114610651578063893d20e814610696578063916b9bef146106ed5780639cc7f7081461071a578063a2eb89271461075b578063a6e77af1146107dd578063b1e130fc1461080a578063b260c42a14610837578063ce03ffc914610864578063cffe00f9146108d1578063dcbd32fe14610928578063e05a12201461096b578063eab3afe9146109c6578063eb84cae614610a1d578063f215f88e14610a8a578063f2fde38b14610b53578063f745adfc14610b96575b600080fd5b34801561019157600080fd5b5061019a610bc1565b604051808273ffffffffffffffffffffffffffffffffffffffff1673ffffffffffffffffffffffffffffffffffffffff16815260200191505060405180910390f35b3480156101e857600080fd5b506101f1610cb3565b6040518080602001828103825283818151815260200191508051906020019080838360005b83811015610231578082015181840152602081019050610216565b50505050905090810190601f16801561025e5780820380516001836020036101000a031916815260200191505b509250505060405180910390f35b34801561027857600080fd5b50610281610cec565b604051808273ffffffffffffffffffffffffffffffffffffffff1673ffffffffffffffffffffffffffffffffffffffff16815260200191505060405180910390f35b3480156102cf57600080fd5b506102ee60048036038101908080359060200190929190505050610dde565b6040518084600019166000191681526020018360ff1660ff1681526020018260ff1660ff168152602001935050505060405180910390f35b34801561033257600080fd5b5061033b610f14565b6040518082815260200191505060405180910390f35b34801561035d57600080fd5b506103c460048036038101908080359060200190929190803573ffffffffffffffffffffffffffffffffffffffff1690602001909291908035600019169060200190929190803560ff169060200190929190803560ff169060200190929190505050611006565b005b3480156103d257600080fd5b506103f16004803603810190808035906020019092919050505061101a565b604051808673ffffffffffffffffffffffffffffffffffffffff1673ffffffffffffffffffffffffffffffffffffffff1681526020018573ffffffffffffffffffffffffffffffffffffffff1673ffffffffffffffffffffffffffffffffffffffff16815260200184600019166000191681526020018360ff1660ff1681526020018260ff1660ff1681526020019550505050505060405180910390f35b34801561049b57600080fd5b506104ba60048036038101908080359060200190929190505050611056565b604051808215151515815260200191505060405180910390f35b3480156104e057600080fd5b506104ff6004803603810190808035906020019092919050505061116f565b6040518082815260200191505060405180910390f35b34801561052157600080fd5b5061052a611196565b604051808273ffffffffffffffffffffffffffffffffffffffff1673ffffffffffffffffffffffffffffffffffffffff16815260200191505060405180910390f35b34801561057857600080fd5b506105df60048036038101908080359060200190929190803573ffffffffffffffffffffffffffffffffffffffff1690602001909291908035600019169060200190929190803560ff169060200190929190803560ff169060200190929190505050611288565b005b3480156105ed57600080fd5b50610622600480360381019080803573ffffffffffffffffffffffffffffffffffffffff169060200190929190505050611532565b005b34801561063057600080fd5b5061064f6004803603810190808035906020019092919050505061161c565b005b34801561065d57600080fd5b5061067c60048036038101908080359060200190929190505050611708565b604051808215151515815260200191505060405180910390f35b3480156106a257600080fd5b506106ab611821565b604051808273ffffffffffffffffffffffffffffffffffffffff1673ffffffffffffffffffffffffffffffffffffffff16815260200191505060405180910390f35b3480156106f957600080fd5b5061071860048036038101908080359060200190929190505050611913565b005b34801561072657600080fd5b5061074560048036038101908080359060200190929190505050611980565b6040518082815260200191505060405180910390f35b34801561076757600080fd5b5061078660048036038101908080359060200190929190505050611a99565b6040518080602001828103825283818151815260200191508051906020019060200280838360005b838110156107c95780820151818401526020810190506107ae565b505050509050019250505060405180910390f35b3480156107e957600080fd5b5061080860048036038101908080359060200190929190505050611b29565b005b34801561081657600080fd5b5061083560048036038101908080359060200190929190505050611c3d565b005b34801561084357600080fd5b5061086260048036038101908080359060200190929190505050611ceb565b005b34801561087057600080fd5b5061088f60048036038101908080359060200190929190505050611d59565b604051808273ffffffffffffffffffffffffffffffffffffffff1673ffffffffffffffffffffffffffffffffffffffff16815260200191505060405180910390f35b3480156108dd57600080fd5b506108e6611e20565b604051808273ffffffffffffffffffffffffffffffffffffffff1673ffffffffffffffffffffffffffffffffffffffff16815260200191505060405180910390f35b34801561093457600080fd5b50610969600480360381019080803573ffffffffffffffffffffffffffffffffffffffff169060200190929190505050611f12565b005b34801561097757600080fd5b506109ac600480360381019080803573ffffffffffffffffffffffffffffffffffffffff169060200190929190505050612078565b604051808215151515815260200191505060405180910390f35b3480156109d257600080fd5b50610a07600480360381019080803573ffffffffffffffffffffffffffffffffffffffff16906020019092919050505061208c565b6040518082815260200191505060405180910390f35b348015610a2957600080fd5b50610a48600480360381019080803590602001909291905050506121e0565b604051808273ffffffffffffffffffffffffffffffffffffffff1673ffffffffffffffffffffffffffffffffffffffff16815260200191505060405180910390f35b348015610a9657600080fd5b50610ab5600480360381019080803590602001909291905050506122f9565b604051808673ffffffffffffffffffffffffffffffffffffffff1673ffffffffffffffffffffffffffffffffffffffff1681526020018573ffffffffffffffffffffffffffffffffffffffff1673ffffffffffffffffffffffffffffffffffffffff16815260200184600019166000191681526020018360ff1660ff1681526020018260ff1660ff1681526020019550505050505060405180910390f35b348015610b5f57600080fd5b50610b94600480360381019080803573ffffffffffffffffffffffffffffffffffffffff16906020019092919050505061231d565b005b348015610ba257600080fd5b50610bab612407565b6040518082815260200191505060405180910390f35b60008060009054906101000a900473ffffffffffffffffffffffffffffffffffffffff1673ffffffffffffffffffffffffffffffffffffffff166321f8a7216040518163ffffffff167c010000000000000000000000000000000000000000000000000000000002815260040180807f626f74436f696e416464726573730000000000000000000000000000000000008152506020019050602060405180830381600087803b158015610c7357600080fd5b505af1158015610c87573d6000803e3d6000fd5b505050506040513d6020811015610c9d57600080fd5b8101908080519060200190929190505050905090565b6040805190810160405280601381526020017f426f74496e7374616e636552656769737472790000000000000000000000000081525081565b60008060009054906101000a900473ffffffffffffffffffffffffffffffffffffffff1673ffffffffffffffffffffffffffffffffffffffff166321f8a7216040518163ffffffff167c010000000000000000000000000000000000000000000000000000000002815260040180807f6f776e65725265676973747279416464726573730000000000000000000000008152506020019050602060405180830381600087803b158015610d9e57600080fd5b505af1158015610db2573d6000803e3d6000fd5b505050506040513d6020811015610dc857600080fd5b8101908080519060200190929190505050905090565b60008060008060009054906101000a900473ffffffffffffffffffffffffffffffffffffffff1673ffffffffffffffffffffffffffffffffffffffff16636d448c948560405180807f626f74456e74727949706673486173680000000000000000000000000000000081525060100182815260200191505060405180910390206040518263ffffffff167c0100000000000000000000000000000000000000000000000000000000028152600401808260001916600019168152602001915050606060405180830381600087803b158015610eb857600080fd5b505af1158015610ecc573d6000803e3d6000fd5b505050506040513d6060811015610ee257600080fd5b810190808051906020019092919080519060200190929190805190602001909291905050509250925092509193909250565b60008060009054906101000a900473ffffffffffffffffffffffffffffffffffffffff1673ffffffffffffffffffffffffffffffffffffffff1663bd02d0f56040518163ffffffff167c010000000000000000000000000000000000000000000000000000000002815260040180807f746f74616c546f6b656e730000000000000000000000000000000000000000008152506020019050602060405180830381600087803b158015610fc657600080fd5b505af1158015610fda573d6000803e3d6000fd5b505050506040513d6020811015610ff057600080fd5b8101908080519060200190929190505050905090565b6110138585858585611288565b5050505050565b600080600080600061102b86611d59565b9450611036866121e0565b935061104186610dde565b80935081945082955050505091939590929450565b60008060009054906101000a900473ffffffffffffffffffffffffffffffffffffffff1673ffffffffffffffffffffffffffffffffffffffff16637ae1cfca8360405180807f617070726f76616c537461747573000000000000000000000000000000000000815250600e0182815260200191505060405180910390206040518263ffffffff167c0100000000000000000000000000000000000000000000000000000000028152600401808260001916600019168152602001915050602060405180830381600087803b15801561112d57600080fd5b505af1158015611141573d6000803e3d6000fd5b505050506040513d602081101561115757600080fd5b81019080805190602001909291905050509050919050565b60008061117b836124f9565b90506000811415151561118d57600080fd5b80915050919050565b60008060009054906101000a900473ffffffffffffffffffffffffffffffffffffffff1673ffffffffffffffffffffffffffffffffffffffff166321f8a7216040518163ffffffff167c010000000000000000000000000000000000000000000000000000000002815260040180807f74616c6c6157616c6c65740000000000000000000000000000000000000000008152506020019050602060405180830381600087803b15801561124857600080fd5b505af115801561125c573d6000803e3d6000fd5b505050506040513d602081101561127257600080fd5b8101908080519060200190929190505050905090565b6000611292610cec565b73ffffffffffffffffffffffffffffffffffffffff16639bf4e32433886040518363ffffffff167c0100000000000000000000000000000000000000000000000000000000028152600401808373ffffffffffffffffffffffffffffffffffffffff1673ffffffffffffffffffffffffffffffffffffffff16815260200182815260200192505050602060405180830381600087803b15801561133457600080fd5b505af1158015611348573d6000803e3d6000fd5b505050506040513d602081101561135e57600080fd5b8101908080519060200190929190505050151561137a57600080fd5b60008573ffffffffffffffffffffffffffffffffffffffff16141515156113a057600080fd5b6113a985612078565b1515156113b557600080fd5b60006001028460001916141515156113cc57600080fd5b60008360ff16141515156113df57600080fd5b60008260ff16141515156113f257600080fd5b61140d60016113ff610f14565b61261290919063ffffffff16565b9050611417612630565b611421868261275a565b61142b8186612778565b611435858261289d565b611441818585856129d1565b61144c816001612af0565b611457816001612bed565b7f7754b8c4cb359b91e1f3ec866eda6039f5b1442d03bab5859feea1cdbb120e1381873388888888604051808881526020018781526020018673ffffffffffffffffffffffffffffffffffffffff1673ffffffffffffffffffffffffffffffffffffffff1681526020018573ffffffffffffffffffffffffffffffffffffffff1673ffffffffffffffffffffffffffffffffffffffff16815260200184600019166000191681526020018360ff1660ff1681526020018260ff1660ff16815260200197505050505050505060405180910390a1505050505050565b61153a611821565b73ffffffffffffffffffffffffffffffffffffffff163373ffffffffffffffffffffffffffffffffffffffff1614151561157357600080fd5b600073ffffffffffffffffffffffffffffffffffffffff168173ffffffffffffffffffffffffffffffffffffffff16141515156115af57600080fd5b8073ffffffffffffffffffffffffffffffffffffffff166115ce611e20565b73ffffffffffffffffffffffffffffffffffffffff167f0235cc560a61b22b1b05325679baabe0bfed9269fa7337232e6de194c90fcca560405160405180910390a361161981612cea565b50565b611624611821565b73ffffffffffffffffffffffffffffffffffffffff163373ffffffffffffffffffffffffffffffffffffffff16148061168f5750611660611e20565b73ffffffffffffffffffffffffffffffffffffffff163373ffffffffffffffffffffffffffffffffffffffff16145b151561169a57600080fd5b6116a381612de9565b15156116ae57600080fd5b6116b781611056565b1515156116c357600080fd5b6116ce816001612af0565b7ffd9d9585c7e646ed46689240252bb11f3229ac41fd7e8ef6a81c9e5e14760802816040518082815260200191505060405180910390a150565b60008060009054906101000a900473ffffffffffffffffffffffffffffffffffffffff1673ffffffffffffffffffffffffffffffffffffffff16637ae1cfca8360405180807f6163746976655374617475730000000000000000000000000000000000000000815250600c0182815260200191505060405180910390206040518263ffffffff167c0100000000000000000000000000000000000000000000000000000000028152600401808260001916600019168152602001915050602060405180830381600087803b1580156117df57600080fd5b505af11580156117f3573d6000803e3d6000fd5b505050506040513d602081101561180957600080fd5b81019080805190602001909291905050509050919050565b60008060009054906101000a900473ffffffffffffffffffffffffffffffffffffffff1673ffffffffffffffffffffffffffffffffffffffff166321f8a7216040518163ffffffff167c010000000000000000000000000000000000000000000000000000000002815260040180807f6f776e65720000000000000000000000000000000000000000000000000000008152506020019050602060405180830381600087803b1580156118d357600080fd5b505af11580156118e7573d6000803e3d6000fd5b505050506040513d60208110156118fd57600080fd5b8101908080519060200190929190505050905090565b61191c81612e14565b151561192757600080fd5b61193081611708565b151561193b57600080fd5b611946816000612bed565b7f642028127038cd17804be50978266c980dbd2234656c49d7f9c43f15985cf0ad816040518082815260200191505060405180910390a150565b60008060009054906101000a900473ffffffffffffffffffffffffffffffffffffffff1673ffffffffffffffffffffffffffffffffffffffff1663bd02d0f58360405180807f6f776e657242616c616e63657300000000000000000000000000000000000000815250600d0182815260200191505060405180910390206040518263ffffffff167c0100000000000000000000000000000000000000000000000000000000028152600401808260001916600019168152602001915050602060405180830381600087803b158015611a5757600080fd5b505af1158015611a6b573d6000803e3d6000fd5b505050506040513d6020811015611a8157600080fd5b81019080805190602001909291905050509050919050565b6060600060606000611aaa85611980565b925082604051908082528060200260200182016040528015611adb5781602001602082028038833980820191505090505b509150600090505b82811015611b1e57611af58582612e54565b8282815181101515611b0357fe5b90602001906020020181815250508080600101915050611ae3565b819350505050919050565b611b31611821565b73ffffffffffffffffffffffffffffffffffffffff163373ffffffffffffffffffffffffffffffffffffffff16141515611b6a57600080fd5b6000809054906101000a900473ffffffffffffffffffffffffffffffffffffffff1673ffffffffffffffffffffffffffffffffffffffff1663e2a4853a826040518263ffffffff167c010000000000000000000000000000000000000000000000000000000002815260040180807f656e747279507269636500000000000000000000000000000000000000000000815250602001828152602001915050600060405180830381600087803b158015611c2257600080fd5b505af1158015611c36573d6000803e3d6000fd5b5050505050565b611c45611821565b73ffffffffffffffffffffffffffffffffffffffff163373ffffffffffffffffffffffffffffffffffffffff16141515611c7e57600080fd5b611c8781612de9565b1515611c9257600080fd5b611c9b81611056565b1515611ca657600080fd5b611cb1816000612af0565b7fb6718bd6b02cdd14f759530c19e5a31b0e130155a6b0df289a78a46aabbeebc4816040518082815260200191505060405180910390a150565b611cf481612e14565b1515611cff57600080fd5b611d0881611708565b151515611d1457600080fd5b611d1f816001612bed565b7f973e7e4090a8638950965c1497c763e51c4264196dc51b8b7a0bac812917dbe7816040518082815260200191505060405180910390a150565b600080611d658361116f565b9050611d6f610cec565b73ffffffffffffffffffffffffffffffffffffffff1663ce03ffc9826040518263ffffffff167c010000000000000000000000000000000000000000000000000000000002815260040180828152602001915050602060405180830381600087803b158015611ddd57600080fd5b505af1158015611df1573d6000803e3d6000fd5b505050506040513d6020811015611e0757600080fd5b8101908080519060200190929190505050915050919050565b60008060009054906101000a900473ffffffffffffffffffffffffffffffffffffffff1673ffffffffffffffffffffffffffffffffffffffff166321f8a7216040518163ffffffff167c010000000000000000000000000000000000000000000000000000000002815260040180807f61726269746572000000000000000000000000000000000000000000000000008152506020019050602060405180830381600087803b158015611ed257600080fd5b505af1158015611ee6573d6000803e3d6000fd5b505050506040513d6020811015611efc57600080fd5b8101908080519060200190929190505050905090565b611f1a611821565b73ffffffffffffffffffffffffffffffffffffffff163373ffffffffffffffffffffffffffffffffffffffff16141515611f5357600080fd5b60008173ffffffffffffffffffffffffffffffffffffffff1614151515611f7957600080fd5b6000809054906101000a900473ffffffffffffffffffffffffffffffffffffffff1673ffffffffffffffffffffffffffffffffffffffff1663ca446dd9826040518263ffffffff167c010000000000000000000000000000000000000000000000000000000002815260040180807f74616c6c6157616c6c65740000000000000000000000000000000000000000008152506020018273ffffffffffffffffffffffffffffffffffffffff1673ffffffffffffffffffffffffffffffffffffffff168152602001915050600060405180830381600087803b15801561205d57600080fd5b505af1158015612071573d6000803e3d6000fd5b5050505050565b6000806120848361208c565b119050919050565b60008060009054906101000a900473ffffffffffffffffffffffffffffffffffffffff1673ffffffffffffffffffffffffffffffffffffffff1663bd02d0f58360405180807f626f74456e7472794964734279416464726573730000000000000000000000008152506014018273ffffffffffffffffffffffffffffffffffffffff1673ffffffffffffffffffffffffffffffffffffffff166c0100000000000000000000000002815260140191505060405180910390206040518263ffffffff167c0100000000000000000000000000000000000000000000000000000000028152600401808260001916600019168152602001915050602060405180830381600087803b15801561219e57600080fd5b505af11580156121b2573d6000803e3d6000fd5b505050506040513d60208110156121c857600080fd5b81019080805190602001909291905050509050919050565b60008060009054906101000a900473ffffffffffffffffffffffffffffffffffffffff1673ffffffffffffffffffffffffffffffffffffffff166321f8a7218360405180807f626f74456e74727941646472657373657300000000000000000000000000000081525060110182815260200191505060405180910390206040518263ffffffff167c0100000000000000000000000000000000000000000000000000000000028152600401808260001916600019168152602001915050602060405180830381600087803b1580156122b757600080fd5b505af11580156122cb573d6000803e3d6000fd5b505050506040513d60208110156122e157600080fd5b81019080805190602001909291905050509050919050565b600080600080600061230a8661101a565b9450945094509450945091939590929450565b612325611821565b73ffffffffffffffffffffffffffffffffffffffff163373ffffffffffffffffffffffffffffffffffffffff1614151561235e57600080fd5b600073ffffffffffffffffffffffffffffffffffffffff168173ffffffffffffffffffffffffffffffffffffffff161415151561239a57600080fd5b8073ffffffffffffffffffffffffffffffffffffffff166123b9611821565b73ffffffffffffffffffffffffffffffffffffffff167f8be0079c531659141344cd1fd0a4f28419497f9722a3daafe3b4186f6b6457e060405160405180910390a361240481612f76565b50565b60008060009054906101000a900473ffffffffffffffffffffffffffffffffffffffff1673ffffffffffffffffffffffffffffffffffffffff1663bd02d0f56040518163ffffffff167c010000000000000000000000000000000000000000000000000000000002815260040180807f656e7472795072696365000000000000000000000000000000000000000000008152506020019050602060405180830381600087803b1580156124b957600080fd5b505af11580156124cd573d6000803e3d6000fd5b505050506040513d60208110156124e357600080fd5b8101908080519060200190929190505050905090565b60008060009054906101000a900473ffffffffffffffffffffffffffffffffffffffff1673ffffffffffffffffffffffffffffffffffffffff1663bd02d0f58360405180807f746f6b656e4f776e657273000000000000000000000000000000000000000000815250600b0182815260200191505060405180910390206040518263ffffffff167c0100000000000000000000000000000000000000000000000000000000028152600401808260001916600019168152602001915050602060405180830381600087803b1580156125d057600080fd5b505af11580156125e4573d6000803e3d6000fd5b505050506040513d60208110156125fa57600080fd5b81019080805190602001909291905050509050919050565b600080828401905083811015151561262657fe5b8091505092915050565b612638610bc1565b73ffffffffffffffffffffffffffffffffffffffff166323b872dd3361265c611196565b612664612407565b6040518463ffffffff167c0100000000000000000000000000000000000000000000000000000000028152600401808473ffffffffffffffffffffffffffffffffffffffff1673ffffffffffffffffffffffffffffffffffffffff1681526020018373ffffffffffffffffffffffffffffffffffffffff1673ffffffffffffffffffffffffffffffffffffffff1681526020018281526020019350505050602060405180830381600087803b15801561271c57600080fd5b505af1158015612730573d6000803e3d6000fd5b505050506040513d602081101561274657600080fd5b810190808051906020019092919050505050565b6000821415151561276a57600080fd5b6127748282613075565b5050565b6000809054906101000a900473ffffffffffffffffffffffffffffffffffffffff1673ffffffffffffffffffffffffffffffffffffffff1663ca446dd98360405180807f626f74456e7472794164647265737365730000000000000000000000000000008152506011018281526020019150506040518091039020836040518363ffffffff167c01000000000000000000000000000000000000000000000000000000000281526004018083600019166000191681526020018273ffffffffffffffffffffffffffffffffffffffff1673ffffffffffffffffffffffffffffffffffffffff16815260200192505050600060405180830381600087803b15801561288157600080fd5b505af1158015612895573d6000803e3d6000fd5b505050505050565b6000809054906101000a900473ffffffffffffffffffffffffffffffffffffffff1673ffffffffffffffffffffffffffffffffffffffff1663e2a4853a8360405180807f626f74456e7472794964734279416464726573730000000000000000000000008152506014018273ffffffffffffffffffffffffffffffffffffffff1673ffffffffffffffffffffffffffffffffffffffff166c010000000000000000000000000281526014019150506040518091039020836040518363ffffffff167c010000000000000000000000000000000000000000000000000000000002815260040180836000191660001916815260200182815260200192505050600060405180830381600087803b1580156129b557600080fd5b505af11580156129c9573d6000803e3d6000fd5b505050505050565b6000809054906101000a900473ffffffffffffffffffffffffffffffffffffffff1673ffffffffffffffffffffffffffffffffffffffff16634261ff6a8560405180807f626f74456e74727949706673486173680000000000000000000000000000000081525060100182815260200191505060405180910390208585856040518563ffffffff167c010000000000000000000000000000000000000000000000000000000002815260040180856000191660001916815260200184600019166000191681526020018360ff1660ff1681526020018260ff1660ff168152602001945050505050600060405180830381600087803b158015612ad257600080fd5b505af1158015612ae6573d6000803e3d6000fd5b5050505050505050565b6000809054906101000a900473ffffffffffffffffffffffffffffffffffffffff1673ffffffffffffffffffffffffffffffffffffffff1663abfdcced8360405180807f617070726f76616c537461747573000000000000000000000000000000000000815250600e018281526020019150506040518091039020836040518363ffffffff167c01000000000000000000000000000000000000000000000000000000000281526004018083600019166000191681526020018215151515815260200192505050600060405180830381600087803b158015612bd157600080fd5b505af1158015612be5573d6000803e3d6000fd5b505050505050565b6000809054906101000a900473ffffffffffffffffffffffffffffffffffffffff1673ffffffffffffffffffffffffffffffffffffffff1663abfdcced8360405180807f6163746976655374617475730000000000000000000000000000000000000000815250600c018281526020019150506040518091039020836040518363ffffffff167c01000000000000000000000000000000000000000000000000000000000281526004018083600019166000191681526020018215151515815260200192505050600060405180830381600087803b158015612cce57600080fd5b505af1158015612ce2573d6000803e3d6000fd5b505050505050565b6000809054906101000a900473ffffffffffffffffffffffffffffffffffffffff1673ffffffffffffffffffffffffffffffffffffffff1663ca446dd9826040518263ffffffff167c010000000000000000000000000000000000000000000000000000000002815260040180807f61726269746572000000000000000000000000000000000000000000000000008152506020018273ffffffffffffffffffffffffffffffffffffffff1673ffffffffffffffffffffffffffffffffffffffff168152602001915050600060405180830381600087803b158015612dce57600080fd5b505af1158015612de2573d6000803e3d6000fd5b5050505050565b600080612df583611d59565b73ffffffffffffffffffffffffffffffffffffffff1614159050919050565b60003373ffffffffffffffffffffffffffffffffffffffff16612e3683611d59565b73ffffffffffffffffffffffffffffffffffffffff16149050919050565b60008060009054906101000a900473ffffffffffffffffffffffffffffffffffffffff1673ffffffffffffffffffffffffffffffffffffffff1663bd02d0f5848460405180807f6f776e6564546f6b656e73000000000000000000000000000000000000000000815250600b018381526020018281526020019250505060405180910390206040518263ffffffff167c0100000000000000000000000000000000000000000000000000000000028152600401808260001916600019168152602001915050602060405180830381600087803b158015612f3357600080fd5b505af1158015612f47573d6000803e3d6000fd5b505050506040513d6020811015612f5d57600080fd5b8101908080519060200190929190505050905092915050565b6000809054906101000a900473ffffffffffffffffffffffffffffffffffffffff1673ffffffffffffffffffffffffffffffffffffffff1663ca446dd9826040518263ffffffff167c010000000000000000000000000000000000000000000000000000000002815260040180807f6f776e65720000000000000000000000000000000000000000000000000000008152506020018273ffffffffffffffffffffffffffffffffffffffff1673ffffffffffffffffffffffffffffffffffffffff168152602001915050600060405180830381600087803b15801561305a57600080fd5b505af115801561306e573d6000803e3d6000fd5b5050505050565b600080613081836124f9565b14151561308d57600080fd5b61309782846130c3565b6130a083611980565b90506130ac83836131bc565b6130b682826132ce565b6130be6133c7565b505050565b6000809054906101000a900473ffffffffffffffffffffffffffffffffffffffff1673ffffffffffffffffffffffffffffffffffffffff1663e2a4853a8360405180807f746f6b656e4f776e657273000000000000000000000000000000000000000000815250600b018281526020019150506040518091039020836040518363ffffffff167c010000000000000000000000000000000000000000000000000000000002815260040180836000191660001916815260200182815260200192505050600060405180830381600087803b1580156131a057600080fd5b505af11580156131b4573d6000803e3d6000fd5b505050505050565b6000809054906101000a900473ffffffffffffffffffffffffffffffffffffffff1673ffffffffffffffffffffffffffffffffffffffff1663e2a4853a8361320385611980565b60405180807f6f776e6564546f6b656e73000000000000000000000000000000000000000000815250600b01838152602001828152602001925050506040518091039020836040518363ffffffff167c010000000000000000000000000000000000000000000000000000000002815260040180836000191660001916815260200182815260200192505050600060405180830381600087803b1580156132a957600080fd5b505af11580156132bd573d6000803e3d6000fd5b505050506132ca826134b3565b5050565b6000809054906101000a900473ffffffffffffffffffffffffffffffffffffffff1673ffffffffffffffffffffffffffffffffffffffff1663e2a4853a8360405180807f6f776e6564546f6b656e73496e646578000000000000000000000000000000008152506010018281526020019150506040518091039020836040518363ffffffff167c010000000000000000000000000000000000000000000000000000000002815260040180836000191660001916815260200182815260200192505050600060405180830381600087803b1580156133ab57600080fd5b505af11580156133bf573d6000803e3d6000fd5b505050505050565b6000809054906101000a900473ffffffffffffffffffffffffffffffffffffffff1673ffffffffffffffffffffffffffffffffffffffff1663e2a4853a61341f6001613411610f14565b61261290919063ffffffff16565b6040518263ffffffff167c010000000000000000000000000000000000000000000000000000000002815260040180807f746f74616c546f6b656e73000000000000000000000000000000000000000000815250602001828152602001915050600060405180830381600087803b15801561349957600080fd5b505af11580156134ad573d6000803e3d6000fd5b50505050565b6000809054906101000a900473ffffffffffffffffffffffffffffffffffffffff1673ffffffffffffffffffffffffffffffffffffffff1663e2a4853a8260405180807f6f776e657242616c616e63657300000000000000000000000000000000000000815250600d01828152602001915050604051809103902061354a600161353c86611980565b61261290919063ffffffff16565b6040518363ffffffff167c010000000000000000000000000000000000000000000000000000000002815260040180836000191660001916815260200182815260200192505050600060405180830381600087803b1580156135ab57600080fd5b505af11580156135bf573d6000803e3d6000fd5b50505050505600a165627a7a72305820e3005386c1f3aa875ef1967cc9919ce9f28955d034bcd9366deb8bb33b2b976d0029",
  "source": "pragma solidity ^0.4.18;\n\nimport \"../Registry/BotEntryStorableRegistry.sol\";\n\n/**\n * @title BotInstanceRegistryDelegate\n * @dev Delegate contract for functionality that handles ownership of bot instances.\n *  Bot instances belong to a bot product. Ownership of a bot instance is determined\n *  by the developer that owns the bot product that the instance belongs to.\n */\ncontract BotInstanceRegistryDelegate is BotEntryStorableRegistry {\n\n  string public constant name = \"BotInstanceRegistry\";\n\n  /**\n  * @dev Constructor for BotInstanceRegistryDelegate\n  * @param storage_ address of a BaseStorage contract\n  */\n  function BotInstanceRegistryDelegate(BaseStorage storage_)\n    BotEntryStorableRegistry(storage_)\n    public\n  {}\n\n  /**\n  * @dev Returns bot instance data for a given bot instance ID\n  * @param botInstanceId ID of the bot instance\n  * @return _owner The address that owns the bot instance\n  * @return IpfsDigest IPFS Digest of the data associated with the bot\n  * @return IpfsFnCode IPFS Function Code associated with the bot\n  * @return IpfsSize IPFS Digest size associated with the bot\n  */\n  function getBotInstance(uint256 botInstanceId) public view returns\n  (\n    address _owner,\n    address _botEntryAddress,\n    bytes32 _digest,\n    uint8 _fnCode, \n    uint8 _size\n  ) {\n    return getBotEntry(botInstanceId);\n  }\n\n  /**\n  * @dev Creates a new bot instance.\n  * @param botProductId ID of the bot product that will own this bot instance\n  * @param botInstanceAddress Address of the bot instance\n  * @param IpfsDigest IPFS Digest of the data associated with the new bot\n  * @param IpfsFnCode IPFS Function Code associated with the new bot\n  * @param IpfsSize IPFS Digest size associated with the new bot\n  */\n  function createBotInstance(\n    uint256 botProductId, \n    address botInstanceAddress, \n    bytes32 IpfsDigest,\n    uint8 IpfsFnCode,\n    uint8 IpfsSize\n  )\n    public \n  {\n    createBotEntry(botProductId, botInstanceAddress, IpfsDigest, IpfsFnCode, IpfsSize);\n  }\n\n}\n",
  "sourcePath": "/home/henry/ws/botchain/contracts/Delegates/BotInstanceRegistryDelegate.sol",
  "compiler": {
    "name": "solc",
    "version": "0.4.24+commit.e67f0147.Emscripten.clang"
  },
  "schemaVersion": "2.0.1",
  "updatedAt": "2018-11-01T15:08:00.530Z"
}