{
  "contractName": "BotProductRegistryDelegate",
  "abi": [
    {
      "constant": true,
      "inputs": [],
      "name": "botCoin",
      "outputs": [
        {
          "name": "",
          "type": "address"
        }
      ],
      "payable": false,
      "stateMutability": "view",
      "type": "function"
    },
    {
      "constant": true,
      "inputs": [],
      "name": "name",
      "outputs": [
        {
          "name": "",
          "type": "string"
        }
      ],
      "payable": false,
      "stateMutability": "view",
      "type": "function"
    },
    {
      "constant": true,
      "inputs": [],
      "name": "ownerRegistry",
      "outputs": [
        {
          "name": "",
          "type": "address"
        }
      ],
      "payable": false,
      "stateMutability": "view",
      "type": "function"
    },
    {
      "constant": true,
      "inputs": [
        {
          "name": "botEntryId",
          "type": "uint256"
        }
      ],
      "name": "botEntryIpfs",
      "outputs": [
        {
          "name": "digest",
          "type": "bytes32"
        },
        {
          "name": "fnCode",
          "type": "uint8"
        },
        {
          "name": "size",
          "type": "uint8"
        }
      ],
      "payable": false,
      "stateMutability": "view",
      "type": "function"
    },
    {
      "constant": true,
      "inputs": [],
      "name": "totalSupply",
      "outputs": [
        {
          "name": "",
          "type": "uint256"
        }
      ],
      "payable": false,
      "stateMutability": "view",
      "type": "function"
    },
    {
      "constant": true,
      "inputs": [
        {
          "name": "botEntryId",
          "type": "uint256"
        }
      ],
      "name": "getBotEntry",
      "outputs": [
        {
          "name": "_owner",
          "type": "address"
        },
        {
          "name": "_botEntryAddress",
          "type": "address"
        },
        {
          "name": "_digest",
          "type": "bytes32"
        },
        {
          "name": "_fnCode",
          "type": "uint8"
        },
        {
          "name": "_size",
          "type": "uint8"
        }
      ],
      "payable": false,
      "stateMutability": "view",
      "type": "function"
    },
    {
      "constant": true,
      "inputs": [
        {
          "name": "_entryId",
          "type": "uint256"
        }
      ],
      "name": "approvalStatus",
      "outputs": [
        {
          "name": "",
          "type": "bool"
        }
      ],
      "payable": false,
      "stateMutability": "view",
      "type": "function"
    },
    {
      "constant": true,
      "inputs": [
        {
          "name": "_tokenId",
          "type": "uint256"
        }
      ],
      "name": "ownerOf",
      "outputs": [
        {
          "name": "",
          "type": "uint256"
        }
      ],
      "payable": false,
      "stateMutability": "view",
      "type": "function"
    },
    {
      "constant": true,
      "inputs": [],
      "name": "tallaWallet",
      "outputs": [
        {
          "name": "",
          "type": "address"
        }
      ],
      "payable": false,
      "stateMutability": "view",
      "type": "function"
    },
    {
      "constant": false,
      "inputs": [
        {
          "name": "newArbiter",
          "type": "address"
        }
      ],
      "name": "changeArbiter",
      "outputs": [],
      "payable": false,
      "stateMutability": "nonpayable",
      "type": "function"
    },
    {
      "constant": false,
      "inputs": [
        {
          "name": "_entryId",
          "type": "uint256"
        }
      ],
      "name": "grantApproval",
      "outputs": [],
      "payable": false,
      "stateMutability": "nonpayable",
      "type": "function"
    },
    {
      "constant": true,
      "inputs": [
        {
          "name": "_entryId",
          "type": "uint256"
        }
      ],
      "name": "active",
      "outputs": [
        {
          "name": "",
          "type": "bool"
        }
      ],
      "payable": false,
      "stateMutability": "view",
      "type": "function"
    },
    {
      "constant": true,
      "inputs": [],
      "name": "getOwner",
      "outputs": [
        {
          "name": "",
          "type": "address"
        }
      ],
      "payable": false,
      "stateMutability": "view",
      "type": "function"
    },
    {
      "constant": false,
      "inputs": [
        {
          "name": "_entryId",
          "type": "uint256"
        }
      ],
      "name": "deactivate",
      "outputs": [],
      "payable": false,
      "stateMutability": "nonpayable",
      "type": "function"
    },
    {
      "constant": true,
      "inputs": [
        {
          "name": "_ownerTokenId",
          "type": "uint256"
        }
      ],
      "name": "balanceOf",
      "outputs": [
        {
          "name": "",
          "type": "uint256"
        }
      ],
      "payable": false,
      "stateMutability": "view",
      "type": "function"
    },
    {
      "constant": true,
      "inputs": [
        {
          "name": "_ownerTokenId",
          "type": "uint256"
        }
      ],
      "name": "tokensOf",
      "outputs": [
        {
          "name": "",
          "type": "uint256[]"
        }
      ],
      "payable": false,
      "stateMutability": "view",
      "type": "function"
    },
    {
      "constant": false,
      "inputs": [
        {
          "name": "entryPrice",
          "type": "uint256"
        }
      ],
      "name": "setEntryPrice",
      "outputs": [],
      "payable": false,
      "stateMutability": "nonpayable",
      "type": "function"
    },
    {
      "constant": false,
      "inputs": [
        {
          "name": "_entryId",
          "type": "uint256"
        }
      ],
      "name": "revokeApproval",
      "outputs": [],
      "payable": false,
      "stateMutability": "nonpayable",
      "type": "function"
    },
    {
      "constant": false,
      "inputs": [
        {
          "name": "_entryId",
          "type": "uint256"
        }
      ],
      "name": "activate",
      "outputs": [],
      "payable": false,
      "stateMutability": "nonpayable",
      "type": "function"
    },
    {
      "constant": true,
      "inputs": [
        {
          "name": "_entryId",
          "type": "uint256"
        }
      ],
      "name": "ownerOfEntry",
      "outputs": [
        {
          "name": "",
          "type": "address"
        }
      ],
      "payable": false,
      "stateMutability": "view",
      "type": "function"
    },
    {
      "constant": true,
      "inputs": [],
      "name": "getArbiter",
      "outputs": [
        {
          "name": "",
          "type": "address"
        }
      ],
      "payable": false,
      "stateMutability": "view",
      "type": "function"
    },
    {
      "constant": false,
      "inputs": [
        {
          "name": "tallaWallet",
          "type": "address"
        }
      ],
      "name": "setTallaWallet",
      "outputs": [],
      "payable": false,
      "stateMutability": "nonpayable",
      "type": "function"
    },
    {
      "constant": true,
      "inputs": [
        {
          "name": "botEntryAddress",
          "type": "address"
        }
      ],
      "name": "botEntryAddressExists",
      "outputs": [
        {
          "name": "",
          "type": "bool"
        }
      ],
      "payable": false,
      "stateMutability": "view",
      "type": "function"
    },
    {
      "constant": true,
      "inputs": [
        {
          "name": "botEntryAddress",
          "type": "address"
        }
      ],
      "name": "botEntryIdForAddress",
      "outputs": [
        {
          "name": "",
          "type": "uint256"
        }
      ],
      "payable": false,
      "stateMutability": "view",
      "type": "function"
    },
    {
      "constant": true,
      "inputs": [
        {
          "name": "botEntryId",
          "type": "uint256"
        }
      ],
      "name": "botEntryAddress",
      "outputs": [
        {
          "name": "",
          "type": "address"
        }
      ],
      "payable": false,
      "stateMutability": "view",
      "type": "function"
    },
    {
      "constant": false,
      "inputs": [
        {
          "name": "newOwner",
          "type": "address"
        }
      ],
      "name": "transferOwnership",
      "outputs": [],
      "payable": false,
      "stateMutability": "nonpayable",
      "type": "function"
    },
    {
      "constant": true,
      "inputs": [],
      "name": "entryPrice",
      "outputs": [
        {
          "name": "",
          "type": "uint256"
        }
      ],
      "payable": false,
      "stateMutability": "view",
      "type": "function"
    },
    {
      "inputs": [
        {
          "name": "storage_",
          "type": "address"
        }
      ],
      "payable": false,
      "stateMutability": "nonpayable",
      "type": "constructor"
    },
    {
      "anonymous": false,
      "inputs": [
        {
          "indexed": false,
          "name": "botEntryId",
          "type": "uint256"
        },
        {
          "indexed": false,
          "name": "parentEntryId",
          "type": "uint256"
        },
        {
          "indexed": false,
          "name": "developerOwnerAddress",
          "type": "address"
        },
        {
          "indexed": false,
          "name": "botEntryAddress",
          "type": "address"
        },
        {
          "indexed": false,
          "name": "IpfsDigest",
          "type": "bytes32"
        },
        {
          "indexed": false,
          "name": "IpfsFnCode",
          "type": "uint8"
        },
        {
          "indexed": false,
          "name": "IpfsSize",
          "type": "uint8"
        }
      ],
      "name": "BotEntryCreated",
      "type": "event"
    },
    {
      "anonymous": false,
      "inputs": [
        {
          "indexed": false,
          "name": "entryId",
          "type": "uint256"
        }
      ],
      "name": "Activate",
      "type": "event"
    },
    {
      "anonymous": false,
      "inputs": [
        {
          "indexed": false,
          "name": "entryId",
          "type": "uint256"
        }
      ],
      "name": "Deactivate",
      "type": "event"
    },
    {
      "anonymous": false,
      "inputs": [
        {
          "indexed": false,
          "name": "entryId",
          "type": "uint256"
        }
      ],
      "name": "ApprovalGranted",
      "type": "event"
    },
    {
      "anonymous": false,
      "inputs": [
        {
          "indexed": false,
          "name": "entryId",
          "type": "uint256"
        }
      ],
      "name": "ApprovalRevoked",
      "type": "event"
    },
    {
      "anonymous": false,
      "inputs": [
        {
          "indexed": true,
          "name": "previousArbiter",
          "type": "address"
        },
        {
          "indexed": true,
          "name": "newArbiter",
          "type": "address"
        }
      ],
      "name": "ArbiterChange",
      "type": "event"
    },
    {
      "anonymous": false,
      "inputs": [
        {
          "indexed": true,
          "name": "previousOwner",
          "type": "address"
        },
        {
          "indexed": true,
          "name": "newOwner",
          "type": "address"
        }
      ],
      "name": "OwnershipTransferred",
      "type": "event"
    },
    {
      "constant": true,
      "inputs": [
        {
          "name": "botProductId",
          "type": "uint256"
        }
      ],
      "name": "getBotProduct",
      "outputs": [
        {
          "name": "_owner",
          "type": "address"
        },
        {
          "name": "_botEntryAddress",
          "type": "address"
        },
        {
          "name": "IpfsDigest",
          "type": "bytes32"
        },
        {
          "name": "IpfsFnCode",
          "type": "uint8"
        },
        {
          "name": "IpfsSize",
          "type": "uint8"
        }
      ],
      "payable": false,
      "stateMutability": "view",
      "type": "function"
    },
    {
      "constant": false,
      "inputs": [
        {
          "name": "developerId",
          "type": "uint256"
        },
        {
          "name": "botProductAddress",
          "type": "address"
        },
        {
          "name": "IpfsDigest",
          "type": "bytes32"
        },
        {
          "name": "IpfsFnCode",
          "type": "uint8"
        },
        {
          "name": "IpfsSize",
          "type": "uint8"
        }
      ],
      "name": "createBotProduct",
      "outputs": [],
      "payable": false,
      "stateMutability": "nonpayable",
      "type": "function"
    },
    {
      "constant": false,
      "inputs": [
        {
          "name": "developerId",
          "type": "uint256"
        },
        {
          "name": "botProductAddress",
          "type": "address"
        },
        {
          "name": "IpfsDigest",
          "type": "bytes32"
        },
        {
          "name": "IpfsFnCode",
          "type": "uint8"
        },
        {
          "name": "IpfsSize",
          "type": "uint8"
        }
      ],
      "name": "createBotEntry",
      "outputs": [],
      "payable": false,
      "stateMutability": "nonpayable",
      "type": "function"
    },
    {
      "constant": true,
      "inputs": [
        {
          "name": "_minter",
          "type": "address"
        },
        {
          "name": "_botProductId",
          "type": "uint256"
        }
      ],
      "name": "mintingAllowed",
      "outputs": [
        {
          "name": "",
          "type": "bool"
        }
      ],
      "payable": false,
      "stateMutability": "view",
      "type": "function"
    }
  ],
  "bytecode": "0x60806040523480156200001157600080fd5b5060405160208062003afb8339810180604052810190808051906020019092919050505080808182308181868287806000806101000a81548173ffffffffffffffffffffffffffffffffffffffff021916908373ffffffffffffffffffffffffffffffffffffffff1602179055505060008173ffffffffffffffffffffffffffffffffffffffff16141515620000bc57620000bb3362000108640100000000026401000000009004565b5b505060008173ffffffffffffffffffffffffffffffffffffffff16141515620000fa57620000f98162000209640100000000026401000000009004565b5b50505050505050506200030a565b6000809054906101000a900473ffffffffffffffffffffffffffffffffffffffff1673ffffffffffffffffffffffffffffffffffffffff1663ca446dd9826040518263ffffffff167c010000000000000000000000000000000000000000000000000000000002815260040180807f6f776e65720000000000000000000000000000000000000000000000000000008152506020018273ffffffffffffffffffffffffffffffffffffffff1673ffffffffffffffffffffffffffffffffffffffff168152602001915050600060405180830381600087803b158015620001ed57600080fd5b505af115801562000202573d6000803e3d6000fd5b5050505050565b6000809054906101000a900473ffffffffffffffffffffffffffffffffffffffff1673ffffffffffffffffffffffffffffffffffffffff1663ca446dd9826040518263ffffffff167c010000000000000000000000000000000000000000000000000000000002815260040180807f61726269746572000000000000000000000000000000000000000000000000008152506020018273ffffffffffffffffffffffffffffffffffffffff1673ffffffffffffffffffffffffffffffffffffffff168152602001915050600060405180830381600087803b158015620002ee57600080fd5b505af115801562000303573d6000803e3d6000fd5b5050505050565b6137e1806200031a6000396000f30060806040526004361061018b576000357c0100000000000000000000000000000000000000000000000000000000900463ffffffff168063047913ce1461019057806306fdde03146101e75780630c54a71a14610277578063143e149c146102ce57806318160ddd146103315780633f0c34841461035c5780634bf5efe6146104255780636352211e1461046a5780636f1d8884146104ab57806373ec533f1461050257806376cfa312146105775780637ca62997146105ba5780637e8bc47e146105e75780637fe7c9b81461065c5780638033d58114610725578063893d20e81461076a578063916b9bef146107c15780639bf4e324146107ee5780639cc7f70814610853578063a2eb892714610894578063a6e77af114610916578063b1e130fc14610943578063b260c42a14610970578063ce03ffc91461099d578063cffe00f914610a0a578063dcbd32fe14610a61578063e05a122014610aa4578063eab3afe914610aff578063eb84cae614610b56578063f2fde38b14610bc3578063f745adfc14610c06575b600080fd5b34801561019c57600080fd5b506101a5610c31565b604051808273ffffffffffffffffffffffffffffffffffffffff1673ffffffffffffffffffffffffffffffffffffffff16815260200191505060405180910390f35b3480156101f357600080fd5b506101fc610d23565b6040518080602001828103825283818151815260200191508051906020019080838360005b8381101561023c578082015181840152602081019050610221565b50505050905090810190601f1680156102695780820380516001836020036101000a031916815260200191505b509250505060405180910390f35b34801561028357600080fd5b5061028c610d5c565b604051808273ffffffffffffffffffffffffffffffffffffffff1673ffffffffffffffffffffffffffffffffffffffff16815260200191505060405180910390f35b3480156102da57600080fd5b506102f960048036038101908080359060200190929190505050610e4e565b6040518084600019166000191681526020018360ff1660ff1681526020018260ff1660ff168152602001935050505060405180910390f35b34801561033d57600080fd5b50610346610f84565b6040518082815260200191505060405180910390f35b34801561036857600080fd5b5061038760048036038101908080359060200190929190505050611076565b604051808673ffffffffffffffffffffffffffffffffffffffff1673ffffffffffffffffffffffffffffffffffffffff1681526020018573ffffffffffffffffffffffffffffffffffffffff1673ffffffffffffffffffffffffffffffffffffffff16815260200184600019166000191681526020018360ff1660ff1681526020018260ff1660ff1681526020019550505050505060405180910390f35b34801561043157600080fd5b50610450600480360381019080803590602001909291905050506110b2565b604051808215151515815260200191505060405180910390f35b34801561047657600080fd5b50610495600480360381019080803590602001909291905050506111cb565b6040518082815260200191505060405180910390f35b3480156104b757600080fd5b506104c06111f2565b604051808273ffffffffffffffffffffffffffffffffffffffff1673ffffffffffffffffffffffffffffffffffffffff16815260200191505060405180910390f35b34801561050e57600080fd5b5061057560048036038101908080359060200190929190803573ffffffffffffffffffffffffffffffffffffffff1690602001909291908035600019169060200190929190803560ff169060200190929190803560ff1690602001909291905050506112e4565b005b34801561058357600080fd5b506105b8600480360381019080803573ffffffffffffffffffffffffffffffffffffffff1690602001909291905050506112f8565b005b3480156105c657600080fd5b506105e5600480360381019080803590602001909291905050506113e2565b005b3480156105f357600080fd5b5061065a60048036038101908080359060200190929190803573ffffffffffffffffffffffffffffffffffffffff1690602001909291908035600019169060200190929190803560ff169060200190929190803560ff1690602001909291905050506114ce565b005b34801561066857600080fd5b50610687600480360381019080803590602001909291905050506114e2565b604051808673ffffffffffffffffffffffffffffffffffffffff1673ffffffffffffffffffffffffffffffffffffffff1681526020018573ffffffffffffffffffffffffffffffffffffffff1673ffffffffffffffffffffffffffffffffffffffff16815260200184600019166000191681526020018360ff1660ff1681526020018260ff1660ff1681526020019550505050505060405180910390f35b34801561073157600080fd5b5061075060048036038101908080359060200190929190505050611506565b604051808215151515815260200191505060405180910390f35b34801561077657600080fd5b5061077f61161f565b604051808273ffffffffffffffffffffffffffffffffffffffff1673ffffffffffffffffffffffffffffffffffffffff16815260200191505060405180910390f35b3480156107cd57600080fd5b506107ec60048036038101908080359060200190929190505050611711565b005b3480156107fa57600080fd5b50610839600480360381019080803573ffffffffffffffffffffffffffffffffffffffff1690602001909291908035906020019092919050505061177e565b604051808215151515815260200191505060405180910390f35b34801561085f57600080fd5b5061087e600480360381019080803590602001909291905050506118e9565b6040518082815260200191505060405180910390f35b3480156108a057600080fd5b506108bf60048036038101908080359060200190929190505050611a02565b6040518080602001828103825283818151815260200191508051906020019060200280838360005b838110156109025780820151818401526020810190506108e7565b505050509050019250505060405180910390f35b34801561092257600080fd5b5061094160048036038101908080359060200190929190505050611a92565b005b34801561094f57600080fd5b5061096e60048036038101908080359060200190929190505050611ba6565b005b34801561097c57600080fd5b5061099b60048036038101908080359060200190929190505050611c54565b005b3480156109a957600080fd5b506109c860048036038101908080359060200190929190505050611cc2565b604051808273ffffffffffffffffffffffffffffffffffffffff1673ffffffffffffffffffffffffffffffffffffffff16815260200191505060405180910390f35b348015610a1657600080fd5b50610a1f611d89565b604051808273ffffffffffffffffffffffffffffffffffffffff1673ffffffffffffffffffffffffffffffffffffffff16815260200191505060405180910390f35b348015610a6d57600080fd5b50610aa2600480360381019080803573ffffffffffffffffffffffffffffffffffffffff169060200190929190505050611e7b565b005b348015610ab057600080fd5b50610ae5600480360381019080803573ffffffffffffffffffffffffffffffffffffffff169060200190929190505050611fe1565b604051808215151515815260200191505060405180910390f35b348015610b0b57600080fd5b50610b40600480360381019080803573ffffffffffffffffffffffffffffffffffffffff169060200190929190505050611ff5565b6040518082815260200191505060405180910390f35b348015610b6257600080fd5b50610b8160048036038101908080359060200190929190505050612149565b604051808273ffffffffffffffffffffffffffffffffffffffff1673ffffffffffffffffffffffffffffffffffffffff16815260200191505060405180910390f35b348015610bcf57600080fd5b50610c04600480360381019080803573ffffffffffffffffffffffffffffffffffffffff169060200190929190505050612262565b005b348015610c1257600080fd5b50610c1b61234c565b6040518082815260200191505060405180910390f35b60008060009054906101000a900473ffffffffffffffffffffffffffffffffffffffff1673ffffffffffffffffffffffffffffffffffffffff166321f8a7216040518163ffffffff167c010000000000000000000000000000000000000000000000000000000002815260040180807f626f74436f696e416464726573730000000000000000000000000000000000008152506020019050602060405180830381600087803b158015610ce357600080fd5b505af1158015610cf7573d6000803e3d6000fd5b505050506040513d6020811015610d0d57600080fd5b8101908080519060200190929190505050905090565b6040805190810160405280601281526020017f426f7450726f647563745265676973747279000000000000000000000000000081525081565b60008060009054906101000a900473ffffffffffffffffffffffffffffffffffffffff1673ffffffffffffffffffffffffffffffffffffffff166321f8a7216040518163ffffffff167c010000000000000000000000000000000000000000000000000000000002815260040180807f6f776e65725265676973747279416464726573730000000000000000000000008152506020019050602060405180830381600087803b158015610e0e57600080fd5b505af1158015610e22573d6000803e3d6000fd5b505050506040513d6020811015610e3857600080fd5b8101908080519060200190929190505050905090565b60008060008060009054906101000a900473ffffffffffffffffffffffffffffffffffffffff1673ffffffffffffffffffffffffffffffffffffffff16636d448c948560405180807f626f74456e74727949706673486173680000000000000000000000000000000081525060100182815260200191505060405180910390206040518263ffffffff167c0100000000000000000000000000000000000000000000000000000000028152600401808260001916600019168152602001915050606060405180830381600087803b158015610f2857600080fd5b505af1158015610f3c573d6000803e3d6000fd5b505050506040513d6060811015610f5257600080fd5b810190808051906020019092919080519060200190929190805190602001909291905050509250925092509193909250565b60008060009054906101000a900473ffffffffffffffffffffffffffffffffffffffff1673ffffffffffffffffffffffffffffffffffffffff1663bd02d0f56040518163ffffffff167c010000000000000000000000000000000000000000000000000000000002815260040180807f746f74616c546f6b656e730000000000000000000000000000000000000000008152506020019050602060405180830381600087803b15801561103657600080fd5b505af115801561104a573d6000803e3d6000fd5b505050506040513d602081101561106057600080fd5b8101908080519060200190929190505050905090565b600080600080600061108786611cc2565b945061109286612149565b935061109d86610e4e565b80935081945082955050505091939590929450565b60008060009054906101000a900473ffffffffffffffffffffffffffffffffffffffff1673ffffffffffffffffffffffffffffffffffffffff16637ae1cfca8360405180807f617070726f76616c537461747573000000000000000000000000000000000000815250600e0182815260200191505060405180910390206040518263ffffffff167c0100000000000000000000000000000000000000000000000000000000028152600401808260001916600019168152602001915050602060405180830381600087803b15801561118957600080fd5b505af115801561119d573d6000803e3d6000fd5b505050506040513d60208110156111b357600080fd5b81019080805190602001909291905050509050919050565b6000806111d78361243e565b9050600081141515156111e957600080fd5b80915050919050565b60008060009054906101000a900473ffffffffffffffffffffffffffffffffffffffff1673ffffffffffffffffffffffffffffffffffffffff166321f8a7216040518163ffffffff167c010000000000000000000000000000000000000000000000000000000002815260040180807f74616c6c6157616c6c65740000000000000000000000000000000000000000008152506020019050602060405180830381600087803b1580156112a457600080fd5b505af11580156112b8573d6000803e3d6000fd5b505050506040513d60208110156112ce57600080fd5b8101908080519060200190929190505050905090565b6112f18585858585612557565b5050505050565b61130061161f565b73ffffffffffffffffffffffffffffffffffffffff163373ffffffffffffffffffffffffffffffffffffffff1614151561133957600080fd5b600073ffffffffffffffffffffffffffffffffffffffff168173ffffffffffffffffffffffffffffffffffffffff161415151561137557600080fd5b8073ffffffffffffffffffffffffffffffffffffffff16611394611d89565b73ffffffffffffffffffffffffffffffffffffffff167f0235cc560a61b22b1b05325679baabe0bfed9269fa7337232e6de194c90fcca560405160405180910390a36113df81612801565b50565b6113ea61161f565b73ffffffffffffffffffffffffffffffffffffffff163373ffffffffffffffffffffffffffffffffffffffff1614806114555750611426611d89565b73ffffffffffffffffffffffffffffffffffffffff163373ffffffffffffffffffffffffffffffffffffffff16145b151561146057600080fd5b61146981612900565b151561147457600080fd5b61147d816110b2565b15151561148957600080fd5b61149481600161292b565b7ffd9d9585c7e646ed46689240252bb11f3229ac41fd7e8ef6a81c9e5e14760802816040518082815260200191505060405180910390a150565b6114db85858585856112e4565b5050505050565b60008060008060006114f386611076565b9450945094509450945091939590929450565b60008060009054906101000a900473ffffffffffffffffffffffffffffffffffffffff1673ffffffffffffffffffffffffffffffffffffffff16637ae1cfca8360405180807f6163746976655374617475730000000000000000000000000000000000000000815250600c0182815260200191505060405180910390206040518263ffffffff167c0100000000000000000000000000000000000000000000000000000000028152600401808260001916600019168152602001915050602060405180830381600087803b1580156115dd57600080fd5b505af11580156115f1573d6000803e3d6000fd5b505050506040513d602081101561160757600080fd5b81019080805190602001909291905050509050919050565b60008060009054906101000a900473ffffffffffffffffffffffffffffffffffffffff1673ffffffffffffffffffffffffffffffffffffffff166321f8a7216040518163ffffffff167c010000000000000000000000000000000000000000000000000000000002815260040180807f6f776e65720000000000000000000000000000000000000000000000000000008152506020019050602060405180830381600087803b1580156116d157600080fd5b505af11580156116e5573d6000803e3d6000fd5b505050506040513d60208110156116fb57600080fd5b8101908080519060200190929190505050905090565b61171a81612a28565b151561172557600080fd5b61172e81611506565b151561173957600080fd5b611744816000612a68565b7f642028127038cd17804be50978266c980dbd2234656c49d7f9c43f15985cf0ad816040518082815260200191505060405180910390a150565b60008061178a836111cb565b9050611794610d5c565b73ffffffffffffffffffffffffffffffffffffffff16639bf4e32485836040518363ffffffff167c0100000000000000000000000000000000000000000000000000000000028152600401808373ffffffffffffffffffffffffffffffffffffffff1673ffffffffffffffffffffffffffffffffffffffff16815260200182815260200192505050602060405180830381600087803b15801561183657600080fd5b505af115801561184a573d6000803e3d6000fd5b505050506040513d602081101561186057600080fd5b810190808051906020019092919050505080156118b057508373ffffffffffffffffffffffffffffffffffffffff1661189884611cc2565b73ffffffffffffffffffffffffffffffffffffffff16145b80156118c85750600115156118c4846110b2565b1515145b80156118e05750600115156118dc84611506565b1515145b91505092915050565b60008060009054906101000a900473ffffffffffffffffffffffffffffffffffffffff1673ffffffffffffffffffffffffffffffffffffffff1663bd02d0f58360405180807f6f776e657242616c616e63657300000000000000000000000000000000000000815250600d0182815260200191505060405180910390206040518263ffffffff167c0100000000000000000000000000000000000000000000000000000000028152600401808260001916600019168152602001915050602060405180830381600087803b1580156119c057600080fd5b505af11580156119d4573d6000803e3d6000fd5b505050506040513d60208110156119ea57600080fd5b81019080805190602001909291905050509050919050565b6060600060606000611a13856118e9565b925082604051908082528060200260200182016040528015611a445781602001602082028038833980820191505090505b509150600090505b82811015611a8757611a5e8582612b65565b8282815181101515611a6c57fe5b90602001906020020181815250508080600101915050611a4c565b819350505050919050565b611a9a61161f565b73ffffffffffffffffffffffffffffffffffffffff163373ffffffffffffffffffffffffffffffffffffffff16141515611ad357600080fd5b6000809054906101000a900473ffffffffffffffffffffffffffffffffffffffff1673ffffffffffffffffffffffffffffffffffffffff1663e2a4853a826040518263ffffffff167c010000000000000000000000000000000000000000000000000000000002815260040180807f656e747279507269636500000000000000000000000000000000000000000000815250602001828152602001915050600060405180830381600087803b158015611b8b57600080fd5b505af1158015611b9f573d6000803e3d6000fd5b5050505050565b611bae61161f565b73ffffffffffffffffffffffffffffffffffffffff163373ffffffffffffffffffffffffffffffffffffffff16141515611be757600080fd5b611bf081612900565b1515611bfb57600080fd5b611c04816110b2565b1515611c0f57600080fd5b611c1a81600061292b565b7fb6718bd6b02cdd14f759530c19e5a31b0e130155a6b0df289a78a46aabbeebc4816040518082815260200191505060405180910390a150565b611c5d81612a28565b1515611c6857600080fd5b611c7181611506565b151515611c7d57600080fd5b611c88816001612a68565b7f973e7e4090a8638950965c1497c763e51c4264196dc51b8b7a0bac812917dbe7816040518082815260200191505060405180910390a150565b600080611cce836111cb565b9050611cd8610d5c565b73ffffffffffffffffffffffffffffffffffffffff1663ce03ffc9826040518263ffffffff167c010000000000000000000000000000000000000000000000000000000002815260040180828152602001915050602060405180830381600087803b158015611d4657600080fd5b505af1158015611d5a573d6000803e3d6000fd5b505050506040513d6020811015611d7057600080fd5b8101908080519060200190929190505050915050919050565b60008060009054906101000a900473ffffffffffffffffffffffffffffffffffffffff1673ffffffffffffffffffffffffffffffffffffffff166321f8a7216040518163ffffffff167c010000000000000000000000000000000000000000000000000000000002815260040180807f61726269746572000000000000000000000000000000000000000000000000008152506020019050602060405180830381600087803b158015611e3b57600080fd5b505af1158015611e4f573d6000803e3d6000fd5b505050506040513d6020811015611e6557600080fd5b8101908080519060200190929190505050905090565b611e8361161f565b73ffffffffffffffffffffffffffffffffffffffff163373ffffffffffffffffffffffffffffffffffffffff16141515611ebc57600080fd5b60008173ffffffffffffffffffffffffffffffffffffffff1614151515611ee257600080fd5b6000809054906101000a900473ffffffffffffffffffffffffffffffffffffffff1673ffffffffffffffffffffffffffffffffffffffff1663ca446dd9826040518263ffffffff167c010000000000000000000000000000000000000000000000000000000002815260040180807f74616c6c6157616c6c65740000000000000000000000000000000000000000008152506020018273ffffffffffffffffffffffffffffffffffffffff1673ffffffffffffffffffffffffffffffffffffffff168152602001915050600060405180830381600087803b158015611fc657600080fd5b505af1158015611fda573d6000803e3d6000fd5b5050505050565b600080611fed83611ff5565b119050919050565b60008060009054906101000a900473ffffffffffffffffffffffffffffffffffffffff1673ffffffffffffffffffffffffffffffffffffffff1663bd02d0f58360405180807f626f74456e7472794964734279416464726573730000000000000000000000008152506014018273ffffffffffffffffffffffffffffffffffffffff1673ffffffffffffffffffffffffffffffffffffffff166c0100000000000000000000000002815260140191505060405180910390206040518263ffffffff167c0100000000000000000000000000000000000000000000000000000000028152600401808260001916600019168152602001915050602060405180830381600087803b15801561210757600080fd5b505af115801561211b573d6000803e3d6000fd5b505050506040513d602081101561213157600080fd5b81019080805190602001909291905050509050919050565b60008060009054906101000a900473ffffffffffffffffffffffffffffffffffffffff1673ffffffffffffffffffffffffffffffffffffffff166321f8a7218360405180807f626f74456e74727941646472657373657300000000000000000000000000000081525060110182815260200191505060405180910390206040518263ffffffff167c0100000000000000000000000000000000000000000000000000000000028152600401808260001916600019168152602001915050602060405180830381600087803b15801561222057600080fd5b505af1158015612234573d6000803e3d6000fd5b505050506040513d602081101561224a57600080fd5b81019080805190602001909291905050509050919050565b61226a61161f565b73ffffffffffffffffffffffffffffffffffffffff163373ffffffffffffffffffffffffffffffffffffffff161415156122a357600080fd5b600073ffffffffffffffffffffffffffffffffffffffff168173ffffffffffffffffffffffffffffffffffffffff16141515156122df57600080fd5b8073ffffffffffffffffffffffffffffffffffffffff166122fe61161f565b73ffffffffffffffffffffffffffffffffffffffff167f8be0079c531659141344cd1fd0a4f28419497f9722a3daafe3b4186f6b6457e060405160405180910390a361234981612c87565b50565b60008060009054906101000a900473ffffffffffffffffffffffffffffffffffffffff1673ffffffffffffffffffffffffffffffffffffffff1663bd02d0f56040518163ffffffff167c010000000000000000000000000000000000000000000000000000000002815260040180807f656e7472795072696365000000000000000000000000000000000000000000008152506020019050602060405180830381600087803b1580156123fe57600080fd5b505af1158015612412573d6000803e3d6000fd5b505050506040513d602081101561242857600080fd5b8101908080519060200190929190505050905090565b60008060009054906101000a900473ffffffffffffffffffffffffffffffffffffffff1673ffffffffffffffffffffffffffffffffffffffff1663bd02d0f58360405180807f746f6b656e4f776e657273000000000000000000000000000000000000000000815250600b0182815260200191505060405180910390206040518263ffffffff167c0100000000000000000000000000000000000000000000000000000000028152600401808260001916600019168152602001915050602060405180830381600087803b15801561251557600080fd5b505af1158015612529573d6000803e3d6000fd5b505050506040513d602081101561253f57600080fd5b81019080805190602001909291905050509050919050565b6000612561610d5c565b73ffffffffffffffffffffffffffffffffffffffff16639bf4e32433886040518363ffffffff167c0100000000000000000000000000000000000000000000000000000000028152600401808373ffffffffffffffffffffffffffffffffffffffff1673ffffffffffffffffffffffffffffffffffffffff16815260200182815260200192505050602060405180830381600087803b15801561260357600080fd5b505af1158015612617573d6000803e3d6000fd5b505050506040513d602081101561262d57600080fd5b8101908080519060200190929190505050151561264957600080fd5b60008573ffffffffffffffffffffffffffffffffffffffff161415151561266f57600080fd5b61267885611fe1565b15151561268457600080fd5b600060010284600019161415151561269b57600080fd5b60008360ff16141515156126ae57600080fd5b60008260ff16141515156126c157600080fd5b6126dc60016126ce610f84565b612d8690919063ffffffff16565b90506126e6612da4565b6126f08682612ece565b6126fa8186612eec565b6127048582613011565b61271081858585613145565b61271b81600161292b565b612726816001612a68565b7f7754b8c4cb359b91e1f3ec866eda6039f5b1442d03bab5859feea1cdbb120e1381873388888888604051808881526020018781526020018673ffffffffffffffffffffffffffffffffffffffff1673ffffffffffffffffffffffffffffffffffffffff1681526020018573ffffffffffffffffffffffffffffffffffffffff1673ffffffffffffffffffffffffffffffffffffffff16815260200184600019166000191681526020018360ff1660ff1681526020018260ff1660ff16815260200197505050505050505060405180910390a1505050505050565b6000809054906101000a900473ffffffffffffffffffffffffffffffffffffffff1673ffffffffffffffffffffffffffffffffffffffff1663ca446dd9826040518263ffffffff167c010000000000000000000000000000000000000000000000000000000002815260040180807f61726269746572000000000000000000000000000000000000000000000000008152506020018273ffffffffffffffffffffffffffffffffffffffff1673ffffffffffffffffffffffffffffffffffffffff168152602001915050600060405180830381600087803b1580156128e557600080fd5b505af11580156128f9573d6000803e3d6000fd5b5050505050565b60008061290c83611cc2565b73ffffffffffffffffffffffffffffffffffffffff1614159050919050565b6000809054906101000a900473ffffffffffffffffffffffffffffffffffffffff1673ffffffffffffffffffffffffffffffffffffffff1663abfdcced8360405180807f617070726f76616c537461747573000000000000000000000000000000000000815250600e018281526020019150506040518091039020836040518363ffffffff167c01000000000000000000000000000000000000000000000000000000000281526004018083600019166000191681526020018215151515815260200192505050600060405180830381600087803b158015612a0c57600080fd5b505af1158015612a20573d6000803e3d6000fd5b505050505050565b60003373ffffffffffffffffffffffffffffffffffffffff16612a4a83611cc2565b73ffffffffffffffffffffffffffffffffffffffff16149050919050565b6000809054906101000a900473ffffffffffffffffffffffffffffffffffffffff1673ffffffffffffffffffffffffffffffffffffffff1663abfdcced8360405180807f6163746976655374617475730000000000000000000000000000000000000000815250600c018281526020019150506040518091039020836040518363ffffffff167c01000000000000000000000000000000000000000000000000000000000281526004018083600019166000191681526020018215151515815260200192505050600060405180830381600087803b158015612b4957600080fd5b505af1158015612b5d573d6000803e3d6000fd5b505050505050565b60008060009054906101000a900473ffffffffffffffffffffffffffffffffffffffff1673ffffffffffffffffffffffffffffffffffffffff1663bd02d0f5848460405180807f6f776e6564546f6b656e73000000000000000000000000000000000000000000815250600b018381526020018281526020019250505060405180910390206040518263ffffffff167c0100000000000000000000000000000000000000000000000000000000028152600401808260001916600019168152602001915050602060405180830381600087803b158015612c4457600080fd5b505af1158015612c58573d6000803e3d6000fd5b505050506040513d6020811015612c6e57600080fd5b8101908080519060200190929190505050905092915050565b6000809054906101000a900473ffffffffffffffffffffffffffffffffffffffff1673ffffffffffffffffffffffffffffffffffffffff1663ca446dd9826040518263ffffffff167c010000000000000000000000000000000000000000000000000000000002815260040180807f6f776e65720000000000000000000000000000000000000000000000000000008152506020018273ffffffffffffffffffffffffffffffffffffffff1673ffffffffffffffffffffffffffffffffffffffff168152602001915050600060405180830381600087803b158015612d6b57600080fd5b505af1158015612d7f573d6000803e3d6000fd5b5050505050565b6000808284019050838110151515612d9a57fe5b8091505092915050565b612dac610c31565b73ffffffffffffffffffffffffffffffffffffffff166323b872dd33612dd06111f2565b612dd861234c565b6040518463ffffffff167c0100000000000000000000000000000000000000000000000000000000028152600401808473ffffffffffffffffffffffffffffffffffffffff1673ffffffffffffffffffffffffffffffffffffffff1681526020018373ffffffffffffffffffffffffffffffffffffffff1673ffffffffffffffffffffffffffffffffffffffff1681526020018281526020019350505050602060405180830381600087803b158015612e9057600080fd5b505af1158015612ea4573d6000803e3d6000fd5b505050506040513d6020811015612eba57600080fd5b810190808051906020019092919050505050565b60008214151515612ede57600080fd5b612ee88282613264565b5050565b6000809054906101000a900473ffffffffffffffffffffffffffffffffffffffff1673ffffffffffffffffffffffffffffffffffffffff1663ca446dd98360405180807f626f74456e7472794164647265737365730000000000000000000000000000008152506011018281526020019150506040518091039020836040518363ffffffff167c01000000000000000000000000000000000000000000000000000000000281526004018083600019166000191681526020018273ffffffffffffffffffffffffffffffffffffffff1673ffffffffffffffffffffffffffffffffffffffff16815260200192505050600060405180830381600087803b158015612ff557600080fd5b505af1158015613009573d6000803e3d6000fd5b505050505050565b6000809054906101000a900473ffffffffffffffffffffffffffffffffffffffff1673ffffffffffffffffffffffffffffffffffffffff1663e2a4853a8360405180807f626f74456e7472794964734279416464726573730000000000000000000000008152506014018273ffffffffffffffffffffffffffffffffffffffff1673ffffffffffffffffffffffffffffffffffffffff166c010000000000000000000000000281526014019150506040518091039020836040518363ffffffff167c010000000000000000000000000000000000000000000000000000000002815260040180836000191660001916815260200182815260200192505050600060405180830381600087803b15801561312957600080fd5b505af115801561313d573d6000803e3d6000fd5b505050505050565b6000809054906101000a900473ffffffffffffffffffffffffffffffffffffffff1673ffffffffffffffffffffffffffffffffffffffff16634261ff6a8560405180807f626f74456e74727949706673486173680000000000000000000000000000000081525060100182815260200191505060405180910390208585856040518563ffffffff167c010000000000000000000000000000000000000000000000000000000002815260040180856000191660001916815260200184600019166000191681526020018360ff1660ff1681526020018260ff1660ff168152602001945050505050600060405180830381600087803b15801561324657600080fd5b505af115801561325a573d6000803e3d6000fd5b5050505050505050565b6000806132708361243e565b14151561327c57600080fd5b61328682846132b2565b61328f836118e9565b905061329b83836133ab565b6132a582826134bd565b6132ad6135b6565b505050565b6000809054906101000a900473ffffffffffffffffffffffffffffffffffffffff1673ffffffffffffffffffffffffffffffffffffffff1663e2a4853a8360405180807f746f6b656e4f776e657273000000000000000000000000000000000000000000815250600b018281526020019150506040518091039020836040518363ffffffff167c010000000000000000000000000000000000000000000000000000000002815260040180836000191660001916815260200182815260200192505050600060405180830381600087803b15801561338f57600080fd5b505af11580156133a3573d6000803e3d6000fd5b505050505050565b6000809054906101000a900473ffffffffffffffffffffffffffffffffffffffff1673ffffffffffffffffffffffffffffffffffffffff1663e2a4853a836133f2856118e9565b60405180807f6f776e6564546f6b656e73000000000000000000000000000000000000000000815250600b01838152602001828152602001925050506040518091039020836040518363ffffffff167c010000000000000000000000000000000000000000000000000000000002815260040180836000191660001916815260200182815260200192505050600060405180830381600087803b15801561349857600080fd5b505af11580156134ac573d6000803e3d6000fd5b505050506134b9826136a2565b5050565b6000809054906101000a900473ffffffffffffffffffffffffffffffffffffffff1673ffffffffffffffffffffffffffffffffffffffff1663e2a4853a8360405180807f6f776e6564546f6b656e73496e646578000000000000000000000000000000008152506010018281526020019150506040518091039020836040518363ffffffff167c010000000000000000000000000000000000000000000000000000000002815260040180836000191660001916815260200182815260200192505050600060405180830381600087803b15801561359a57600080fd5b505af11580156135ae573d6000803e3d6000fd5b505050505050565b6000809054906101000a900473ffffffffffffffffffffffffffffffffffffffff1673ffffffffffffffffffffffffffffffffffffffff1663e2a4853a61360e6001613600610f84565b612d8690919063ffffffff16565b6040518263ffffffff167c010000000000000000000000000000000000000000000000000000000002815260040180807f746f74616c546f6b656e73000000000000000000000000000000000000000000815250602001828152602001915050600060405180830381600087803b15801561368857600080fd5b505af115801561369c573d6000803e3d6000fd5b50505050565b6000809054906101000a900473ffffffffffffffffffffffffffffffffffffffff1673ffffffffffffffffffffffffffffffffffffffff1663e2a4853a8260405180807f6f776e657242616c616e63657300000000000000000000000000000000000000815250600d018281526020019150506040518091039020613739600161372b866118e9565b612d8690919063ffffffff16565b6040518363ffffffff167c010000000000000000000000000000000000000000000000000000000002815260040180836000191660001916815260200182815260200192505050600060405180830381600087803b15801561379a57600080fd5b505af11580156137ae573d6000803e3d6000fd5b50505050505600a165627a7a72305820f636ac49d7ab161866c58073933694612bd66446453d3eae0e0044446b6789960029",
  "source": "pragma solidity ^0.4.18;\n\nimport \"../Registry/BotEntryStorableRegistry.sol\";\nimport \"../Registry/OwnerRegistry.sol\";\n\n/**\n * @title BotProductRegistryDelegate\n * @dev Delegate contract for functionality that handles ownership of bot products.\n *  Bot products belong to a developer. Bot instances can be minted for a bot product.\n *  Ownership of a bot product is determined by the developer that the bot product belongs to.\n */\ncontract BotProductRegistryDelegate is BotEntryStorableRegistry, OwnerRegistry {\n\n  string public constant name = \"BotProductRegistry\";\n\n  /**\n  * @dev Constructor for BotProductRegistryDelegate\n  * @param storage_ address of a BaseStorage contract\n  */\n  function BotProductRegistryDelegate(BaseStorage storage_)\n    BotEntryStorableRegistry(storage_)\n    public\n  {}\n\n  /**\n  * @dev Returns bot product data for the given bot product ID\n  * @param botProductId A bot product ID\n  * @return _owner The address that owns the bot product\n  * @return _botEntryAddress The address of the bot product\n  * @return IpfsDigest IPFS Digest of the data associated with the bot\n  * @return IpfsFnCode IPFS Function Code associated with the bot\n  * @return IpfsSize IPFS Digest size associated with the bot\n  */\n  function getBotProduct(uint256 botProductId) public view returns\n  (\n    address _owner,\n    address _botEntryAddress,\n    bytes32 IpfsDigest,\n    uint8 IpfsFnCode,\n    uint8 IpfsSize\n  ) {\n    return getBotEntry(botProductId);\n  }\n\n  /**\n  * @dev Creates a new bot product.\n  * @param developerId ID of the developer that will own this bot product\n  * @param botProductAddress Address of the bot product\n  * @param IpfsDigest IPFS Digest of the data associated with the new bot\n  * @param IpfsFnCode IPFS Function Code associated with the new bot\n  * @param IpfsSize IPFS Digest size associated with the new bot\n  */\n  function createBotProduct(\n    uint256 developerId, \n    address botProductAddress, \n    bytes32 IpfsDigest,\n    uint8 IpfsFnCode,\n    uint8 IpfsSize\n  )\n    public \n  {\n    createBotEntry(developerId, botProductAddress, IpfsDigest, IpfsFnCode, IpfsSize);\n  }\n\n  /**\n  * @dev Override for BotEntryStorableRegistry.createBotEntry()\n  */\n  function createBotEntry(\n    uint256 developerId, \n    address botProductAddress, \n    bytes32 IpfsDigest,\n    uint8 IpfsFnCode,\n    uint8 IpfsSize\n  )\n    public\n  {\n    super.createBotEntry(developerId, botProductAddress, IpfsDigest, IpfsFnCode, IpfsSize);\n  }\n\n  /**\n  * @dev Returns true if the given address is allowed to mint bot instances under the\n  *  given bot product ID. Implementation for OwnerRegistry abstract.\n  * @param _minter Address of minter\n  * @param _botProductId A bot product ID\n  * @return True if minting is allowed\n  */\n  function mintingAllowed(address _minter, uint256 _botProductId) public view returns (bool) {\n    uint256 developerId = ownerOf(_botProductId);\n    return ownerRegistry().mintingAllowed(_minter, developerId) && ownerOfEntry(_botProductId) == _minter && approvalStatus(_botProductId) == true && active(_botProductId) == true;\n  }\n\n}\n",
  "sourcePath": "/home/henry/ws/botchain/contracts/Delegates/BotProductRegistryDelegate.sol",
  "compiler": {
    "name": "solc",
    "version": "0.4.24+commit.e67f0147.Emscripten.clang"
  },
  "schemaVersion": "2.0.1",
  "updatedAt": "2018-11-01T15:08:00.531Z"
}