{
  "contractName": "BotServiceRegistryDelegate",
  "abi": [
    {
      "constant": true,
      "inputs": [],
      "name": "botCoin",
      "outputs": [
        {
          "name": "",
          "type": "address"
        }
      ],
      "payable": false,
      "stateMutability": "view",
      "type": "function"
    },
    {
      "constant": true,
      "inputs": [],
      "name": "name",
      "outputs": [
        {
          "name": "",
          "type": "string"
        }
      ],
      "payable": false,
      "stateMutability": "view",
      "type": "function"
    },
    {
      "constant": true,
      "inputs": [],
      "name": "ownerRegistry",
      "outputs": [
        {
          "name": "",
          "type": "address"
        }
      ],
      "payable": false,
      "stateMutability": "view",
      "type": "function"
    },
    {
      "constant": true,
      "inputs": [
        {
          "name": "botEntryId",
          "type": "uint256"
        }
      ],
      "name": "botEntryIpfs",
      "outputs": [
        {
          "name": "digest",
          "type": "bytes32"
        },
        {
          "name": "fnCode",
          "type": "uint8"
        },
        {
          "name": "size",
          "type": "uint8"
        }
      ],
      "payable": false,
      "stateMutability": "view",
      "type": "function"
    },
    {
      "constant": true,
      "inputs": [],
      "name": "totalSupply",
      "outputs": [
        {
          "name": "",
          "type": "uint256"
        }
      ],
      "payable": false,
      "stateMutability": "view",
      "type": "function"
    },
    {
      "constant": true,
      "inputs": [
        {
          "name": "botEntryId",
          "type": "uint256"
        }
      ],
      "name": "getBotEntry",
      "outputs": [
        {
          "name": "_owner",
          "type": "address"
        },
        {
          "name": "_botEntryAddress",
          "type": "address"
        },
        {
          "name": "_digest",
          "type": "bytes32"
        },
        {
          "name": "_fnCode",
          "type": "uint8"
        },
        {
          "name": "_size",
          "type": "uint8"
        }
      ],
      "payable": false,
      "stateMutability": "view",
      "type": "function"
    },
    {
      "constant": true,
      "inputs": [
        {
          "name": "_entryId",
          "type": "uint256"
        }
      ],
      "name": "approvalStatus",
      "outputs": [
        {
          "name": "",
          "type": "bool"
        }
      ],
      "payable": false,
      "stateMutability": "view",
      "type": "function"
    },
    {
      "constant": true,
      "inputs": [
        {
          "name": "_tokenId",
          "type": "uint256"
        }
      ],
      "name": "ownerOf",
      "outputs": [
        {
          "name": "",
          "type": "uint256"
        }
      ],
      "payable": false,
      "stateMutability": "view",
      "type": "function"
    },
    {
      "constant": true,
      "inputs": [],
      "name": "tallaWallet",
      "outputs": [
        {
          "name": "",
          "type": "address"
        }
      ],
      "payable": false,
      "stateMutability": "view",
      "type": "function"
    },
    {
      "constant": false,
      "inputs": [
        {
          "name": "newArbiter",
          "type": "address"
        }
      ],
      "name": "changeArbiter",
      "outputs": [],
      "payable": false,
      "stateMutability": "nonpayable",
      "type": "function"
    },
    {
      "constant": false,
      "inputs": [
        {
          "name": "_entryId",
          "type": "uint256"
        }
      ],
      "name": "grantApproval",
      "outputs": [],
      "payable": false,
      "stateMutability": "nonpayable",
      "type": "function"
    },
    {
      "constant": true,
      "inputs": [
        {
          "name": "_entryId",
          "type": "uint256"
        }
      ],
      "name": "active",
      "outputs": [
        {
          "name": "",
          "type": "bool"
        }
      ],
      "payable": false,
      "stateMutability": "view",
      "type": "function"
    },
    {
      "constant": true,
      "inputs": [],
      "name": "getOwner",
      "outputs": [
        {
          "name": "",
          "type": "address"
        }
      ],
      "payable": false,
      "stateMutability": "view",
      "type": "function"
    },
    {
      "constant": false,
      "inputs": [
        {
          "name": "_entryId",
          "type": "uint256"
        }
      ],
      "name": "deactivate",
      "outputs": [],
      "payable": false,
      "stateMutability": "nonpayable",
      "type": "function"
    },
    {
      "constant": true,
      "inputs": [
        {
          "name": "_ownerTokenId",
          "type": "uint256"
        }
      ],
      "name": "balanceOf",
      "outputs": [
        {
          "name": "",
          "type": "uint256"
        }
      ],
      "payable": false,
      "stateMutability": "view",
      "type": "function"
    },
    {
      "constant": true,
      "inputs": [
        {
          "name": "_ownerTokenId",
          "type": "uint256"
        }
      ],
      "name": "tokensOf",
      "outputs": [
        {
          "name": "",
          "type": "uint256[]"
        }
      ],
      "payable": false,
      "stateMutability": "view",
      "type": "function"
    },
    {
      "constant": false,
      "inputs": [
        {
          "name": "entryPrice",
          "type": "uint256"
        }
      ],
      "name": "setEntryPrice",
      "outputs": [],
      "payable": false,
      "stateMutability": "nonpayable",
      "type": "function"
    },
    {
      "constant": false,
      "inputs": [
        {
          "name": "_entryId",
          "type": "uint256"
        }
      ],
      "name": "revokeApproval",
      "outputs": [],
      "payable": false,
      "stateMutability": "nonpayable",
      "type": "function"
    },
    {
      "constant": false,
      "inputs": [
        {
          "name": "_entryId",
          "type": "uint256"
        }
      ],
      "name": "activate",
      "outputs": [],
      "payable": false,
      "stateMutability": "nonpayable",
      "type": "function"
    },
    {
      "constant": true,
      "inputs": [
        {
          "name": "_entryId",
          "type": "uint256"
        }
      ],
      "name": "ownerOfEntry",
      "outputs": [
        {
          "name": "",
          "type": "address"
        }
      ],
      "payable": false,
      "stateMutability": "view",
      "type": "function"
    },
    {
      "constant": true,
      "inputs": [],
      "name": "getArbiter",
      "outputs": [
        {
          "name": "",
          "type": "address"
        }
      ],
      "payable": false,
      "stateMutability": "view",
      "type": "function"
    },
    {
      "constant": false,
      "inputs": [
        {
          "name": "tallaWallet",
          "type": "address"
        }
      ],
      "name": "setTallaWallet",
      "outputs": [],
      "payable": false,
      "stateMutability": "nonpayable",
      "type": "function"
    },
    {
      "constant": true,
      "inputs": [
        {
          "name": "botEntryAddress",
          "type": "address"
        }
      ],
      "name": "botEntryAddressExists",
      "outputs": [
        {
          "name": "",
          "type": "bool"
        }
      ],
      "payable": false,
      "stateMutability": "view",
      "type": "function"
    },
    {
      "constant": true,
      "inputs": [
        {
          "name": "botEntryAddress",
          "type": "address"
        }
      ],
      "name": "botEntryIdForAddress",
      "outputs": [
        {
          "name": "",
          "type": "uint256"
        }
      ],
      "payable": false,
      "stateMutability": "view",
      "type": "function"
    },
    {
      "constant": true,
      "inputs": [
        {
          "name": "botEntryId",
          "type": "uint256"
        }
      ],
      "name": "botEntryAddress",
      "outputs": [
        {
          "name": "",
          "type": "address"
        }
      ],
      "payable": false,
      "stateMutability": "view",
      "type": "function"
    },
    {
      "constant": false,
      "inputs": [
        {
          "name": "newOwner",
          "type": "address"
        }
      ],
      "name": "transferOwnership",
      "outputs": [],
      "payable": false,
      "stateMutability": "nonpayable",
      "type": "function"
    },
    {
      "constant": true,
      "inputs": [],
      "name": "entryPrice",
      "outputs": [
        {
          "name": "",
          "type": "uint256"
        }
      ],
      "payable": false,
      "stateMutability": "view",
      "type": "function"
    },
    {
      "inputs": [
        {
          "name": "storage_",
          "type": "address"
        }
      ],
      "payable": false,
      "stateMutability": "nonpayable",
      "type": "constructor"
    },
    {
      "anonymous": false,
      "inputs": [
        {
          "indexed": false,
          "name": "botEntryId",
          "type": "uint256"
        },
        {
          "indexed": false,
          "name": "parentEntryId",
          "type": "uint256"
        },
        {
          "indexed": false,
          "name": "developerOwnerAddress",
          "type": "address"
        },
        {
          "indexed": false,
          "name": "botEntryAddress",
          "type": "address"
        },
        {
          "indexed": false,
          "name": "IpfsDigest",
          "type": "bytes32"
        },
        {
          "indexed": false,
          "name": "IpfsFnCode",
          "type": "uint8"
        },
        {
          "indexed": false,
          "name": "IpfsSize",
          "type": "uint8"
        }
      ],
      "name": "BotEntryCreated",
      "type": "event"
    },
    {
      "anonymous": false,
      "inputs": [
        {
          "indexed": false,
          "name": "entryId",
          "type": "uint256"
        }
      ],
      "name": "Activate",
      "type": "event"
    },
    {
      "anonymous": false,
      "inputs": [
        {
          "indexed": false,
          "name": "entryId",
          "type": "uint256"
        }
      ],
      "name": "Deactivate",
      "type": "event"
    },
    {
      "anonymous": false,
      "inputs": [
        {
          "indexed": false,
          "name": "entryId",
          "type": "uint256"
        }
      ],
      "name": "ApprovalGranted",
      "type": "event"
    },
    {
      "anonymous": false,
      "inputs": [
        {
          "indexed": false,
          "name": "entryId",
          "type": "uint256"
        }
      ],
      "name": "ApprovalRevoked",
      "type": "event"
    },
    {
      "anonymous": false,
      "inputs": [
        {
          "indexed": true,
          "name": "previousArbiter",
          "type": "address"
        },
        {
          "indexed": true,
          "name": "newArbiter",
          "type": "address"
        }
      ],
      "name": "ArbiterChange",
      "type": "event"
    },
    {
      "anonymous": false,
      "inputs": [
        {
          "indexed": true,
          "name": "previousOwner",
          "type": "address"
        },
        {
          "indexed": true,
          "name": "newOwner",
          "type": "address"
        }
      ],
      "name": "OwnershipTransferred",
      "type": "event"
    },
    {
      "constant": true,
      "inputs": [
        {
          "name": "botServiceId",
          "type": "uint256"
        }
      ],
      "name": "getBotService",
      "outputs": [
        {
          "name": "_owner",
          "type": "address"
        },
        {
          "name": "_botServiceAddress",
          "type": "address"
        },
        {
          "name": "IpfsDigest",
          "type": "bytes32"
        },
        {
          "name": "IpfsFnCode",
          "type": "uint8"
        },
        {
          "name": "IpfsSize",
          "type": "uint8"
        }
      ],
      "payable": false,
      "stateMutability": "view",
      "type": "function"
    },
    {
      "constant": false,
      "inputs": [
        {
          "name": "developerId",
          "type": "uint256"
        },
        {
          "name": "botServiceAddress",
          "type": "address"
        },
        {
          "name": "IpfsDigest",
          "type": "bytes32"
        },
        {
          "name": "IpfsFnCode",
          "type": "uint8"
        },
        {
          "name": "IpfsSize",
          "type": "uint8"
        }
      ],
      "name": "createBotService",
      "outputs": [],
      "payable": false,
      "stateMutability": "nonpayable",
      "type": "function"
    },
    {
      "constant": false,
      "inputs": [
        {
          "name": "developerId",
          "type": "uint256"
        },
        {
          "name": "botServiceAddress",
          "type": "address"
        },
        {
          "name": "IpfsDigest",
          "type": "bytes32"
        },
        {
          "name": "IpfsFnCode",
          "type": "uint8"
        },
        {
          "name": "IpfsSize",
          "type": "uint8"
        }
      ],
      "name": "createBotEntry",
      "outputs": [],
      "payable": false,
      "stateMutability": "nonpayable",
      "type": "function"
    }
  ],
  "bytecode": "0x60806040523480156200001157600080fd5b50604051602080620039208339810180604052810190808051906020019092919050505080808182308181868287806000806101000a81548173ffffffffffffffffffffffffffffffffffffffff021916908373ffffffffffffffffffffffffffffffffffffffff1602179055505060008173ffffffffffffffffffffffffffffffffffffffff16141515620000bc57620000bb3362000108640100000000026401000000009004565b5b505060008173ffffffffffffffffffffffffffffffffffffffff16141515620000fa57620000f98162000209640100000000026401000000009004565b5b50505050505050506200030a565b6000809054906101000a900473ffffffffffffffffffffffffffffffffffffffff1673ffffffffffffffffffffffffffffffffffffffff1663ca446dd9826040518263ffffffff167c010000000000000000000000000000000000000000000000000000000002815260040180807f6f776e65720000000000000000000000000000000000000000000000000000008152506020018273ffffffffffffffffffffffffffffffffffffffff1673ffffffffffffffffffffffffffffffffffffffff168152602001915050600060405180830381600087803b158015620001ed57600080fd5b505af115801562000202573d6000803e3d6000fd5b5050505050565b6000809054906101000a900473ffffffffffffffffffffffffffffffffffffffff1673ffffffffffffffffffffffffffffffffffffffff1663ca446dd9826040518263ffffffff167c010000000000000000000000000000000000000000000000000000000002815260040180807f61726269746572000000000000000000000000000000000000000000000000008152506020018273ffffffffffffffffffffffffffffffffffffffff1673ffffffffffffffffffffffffffffffffffffffff168152602001915050600060405180830381600087803b158015620002ee57600080fd5b505af115801562000303573d6000803e3d6000fd5b5050505050565b613606806200031a6000396000f300608060405260043610610180576000357c0100000000000000000000000000000000000000000000000000000000900463ffffffff168063047913ce1461018557806306fdde03146101dc5780630c54a71a1461026c578063143e149c146102c357806318160ddd146103265780633f0c3484146103515780634bf5efe61461041a5780635bd6feec1461045f5780636352211e146105285780636f1d88841461056957806373ec533f146105c057806376cfa312146106355780637ca62997146106785780638033d581146106a557806383a98ac8146106ea578063893d20e81461075f578063916b9bef146107b65780639cc7f708146107e3578063a2eb892714610824578063a6e77af1146108a6578063b1e130fc146108d3578063b260c42a14610900578063ce03ffc91461092d578063cffe00f91461099a578063dcbd32fe146109f1578063e05a122014610a34578063eab3afe914610a8f578063eb84cae614610ae6578063f2fde38b14610b53578063f745adfc14610b96575b600080fd5b34801561019157600080fd5b5061019a610bc1565b604051808273ffffffffffffffffffffffffffffffffffffffff1673ffffffffffffffffffffffffffffffffffffffff16815260200191505060405180910390f35b3480156101e857600080fd5b506101f1610cb3565b6040518080602001828103825283818151815260200191508051906020019080838360005b83811015610231578082015181840152602081019050610216565b50505050905090810190601f16801561025e5780820380516001836020036101000a031916815260200191505b509250505060405180910390f35b34801561027857600080fd5b50610281610cec565b604051808273ffffffffffffffffffffffffffffffffffffffff1673ffffffffffffffffffffffffffffffffffffffff16815260200191505060405180910390f35b3480156102cf57600080fd5b506102ee60048036038101908080359060200190929190505050610dde565b6040518084600019166000191681526020018360ff1660ff1681526020018260ff1660ff168152602001935050505060405180910390f35b34801561033257600080fd5b5061033b610f14565b6040518082815260200191505060405180910390f35b34801561035d57600080fd5b5061037c60048036038101908080359060200190929190505050611006565b604051808673ffffffffffffffffffffffffffffffffffffffff1673ffffffffffffffffffffffffffffffffffffffff1681526020018573ffffffffffffffffffffffffffffffffffffffff1673ffffffffffffffffffffffffffffffffffffffff16815260200184600019166000191681526020018360ff1660ff1681526020018260ff1660ff1681526020019550505050505060405180910390f35b34801561042657600080fd5b5061044560048036038101908080359060200190929190505050611042565b604051808215151515815260200191505060405180910390f35b34801561046b57600080fd5b5061048a6004803603810190808035906020019092919050505061115b565b604051808673ffffffffffffffffffffffffffffffffffffffff1673ffffffffffffffffffffffffffffffffffffffff1681526020018573ffffffffffffffffffffffffffffffffffffffff1673ffffffffffffffffffffffffffffffffffffffff16815260200184600019166000191681526020018360ff1660ff1681526020018260ff1660ff1681526020019550505050505060405180910390f35b34801561053457600080fd5b506105536004803603810190808035906020019092919050505061117f565b6040518082815260200191505060405180910390f35b34801561057557600080fd5b5061057e6111a6565b604051808273ffffffffffffffffffffffffffffffffffffffff1673ffffffffffffffffffffffffffffffffffffffff16815260200191505060405180910390f35b3480156105cc57600080fd5b5061063360048036038101908080359060200190929190803573ffffffffffffffffffffffffffffffffffffffff1690602001909291908035600019169060200190929190803560ff169060200190929190803560ff169060200190929190505050611298565b005b34801561064157600080fd5b50610676600480360381019080803573ffffffffffffffffffffffffffffffffffffffff1690602001909291905050506112ac565b005b34801561068457600080fd5b506106a360048036038101908080359060200190929190505050611396565b005b3480156106b157600080fd5b506106d060048036038101908080359060200190929190505050611482565b604051808215151515815260200191505060405180910390f35b3480156106f657600080fd5b5061075d60048036038101908080359060200190929190803573ffffffffffffffffffffffffffffffffffffffff1690602001909291908035600019169060200190929190803560ff169060200190929190803560ff16906020019092919050505061159b565b005b34801561076b57600080fd5b506107746115af565b604051808273ffffffffffffffffffffffffffffffffffffffff1673ffffffffffffffffffffffffffffffffffffffff16815260200191505060405180910390f35b3480156107c257600080fd5b506107e1600480360381019080803590602001909291905050506116a1565b005b3480156107ef57600080fd5b5061080e6004803603810190808035906020019092919050505061170e565b6040518082815260200191505060405180910390f35b34801561083057600080fd5b5061084f60048036038101908080359060200190929190505050611827565b6040518080602001828103825283818151815260200191508051906020019060200280838360005b83811015610892578082015181840152602081019050610877565b505050509050019250505060405180910390f35b3480156108b257600080fd5b506108d1600480360381019080803590602001909291905050506118b7565b005b3480156108df57600080fd5b506108fe600480360381019080803590602001909291905050506119cb565b005b34801561090c57600080fd5b5061092b60048036038101908080359060200190929190505050611a79565b005b34801561093957600080fd5b5061095860048036038101908080359060200190929190505050611ae7565b604051808273ffffffffffffffffffffffffffffffffffffffff1673ffffffffffffffffffffffffffffffffffffffff16815260200191505060405180910390f35b3480156109a657600080fd5b506109af611bae565b604051808273ffffffffffffffffffffffffffffffffffffffff1673ffffffffffffffffffffffffffffffffffffffff16815260200191505060405180910390f35b3480156109fd57600080fd5b50610a32600480360381019080803573ffffffffffffffffffffffffffffffffffffffff169060200190929190505050611ca0565b005b348015610a4057600080fd5b50610a75600480360381019080803573ffffffffffffffffffffffffffffffffffffffff169060200190929190505050611e06565b604051808215151515815260200191505060405180910390f35b348015610a9b57600080fd5b50610ad0600480360381019080803573ffffffffffffffffffffffffffffffffffffffff169060200190929190505050611e1a565b6040518082815260200191505060405180910390f35b348015610af257600080fd5b50610b1160048036038101908080359060200190929190505050611f6e565b604051808273ffffffffffffffffffffffffffffffffffffffff1673ffffffffffffffffffffffffffffffffffffffff16815260200191505060405180910390f35b348015610b5f57600080fd5b50610b94600480360381019080803573ffffffffffffffffffffffffffffffffffffffff169060200190929190505050612087565b005b348015610ba257600080fd5b50610bab612171565b6040518082815260200191505060405180910390f35b60008060009054906101000a900473ffffffffffffffffffffffffffffffffffffffff1673ffffffffffffffffffffffffffffffffffffffff166321f8a7216040518163ffffffff167c010000000000000000000000000000000000000000000000000000000002815260040180807f626f74436f696e416464726573730000000000000000000000000000000000008152506020019050602060405180830381600087803b158015610c7357600080fd5b505af1158015610c87573d6000803e3d6000fd5b505050506040513d6020811015610c9d57600080fd5b8101908080519060200190929190505050905090565b6040805190810160405280601281526020017f426f74536572766963655265676973747279000000000000000000000000000081525081565b60008060009054906101000a900473ffffffffffffffffffffffffffffffffffffffff1673ffffffffffffffffffffffffffffffffffffffff166321f8a7216040518163ffffffff167c010000000000000000000000000000000000000000000000000000000002815260040180807f6f776e65725265676973747279416464726573730000000000000000000000008152506020019050602060405180830381600087803b158015610d9e57600080fd5b505af1158015610db2573d6000803e3d6000fd5b505050506040513d6020811015610dc857600080fd5b8101908080519060200190929190505050905090565b60008060008060009054906101000a900473ffffffffffffffffffffffffffffffffffffffff1673ffffffffffffffffffffffffffffffffffffffff16636d448c948560405180807f626f74456e74727949706673486173680000000000000000000000000000000081525060100182815260200191505060405180910390206040518263ffffffff167c0100000000000000000000000000000000000000000000000000000000028152600401808260001916600019168152602001915050606060405180830381600087803b158015610eb857600080fd5b505af1158015610ecc573d6000803e3d6000fd5b505050506040513d6060811015610ee257600080fd5b810190808051906020019092919080519060200190929190805190602001909291905050509250925092509193909250565b60008060009054906101000a900473ffffffffffffffffffffffffffffffffffffffff1673ffffffffffffffffffffffffffffffffffffffff1663bd02d0f56040518163ffffffff167c010000000000000000000000000000000000000000000000000000000002815260040180807f746f74616c546f6b656e730000000000000000000000000000000000000000008152506020019050602060405180830381600087803b158015610fc657600080fd5b505af1158015610fda573d6000803e3d6000fd5b505050506040513d6020811015610ff057600080fd5b8101908080519060200190929190505050905090565b600080600080600061101786611ae7565b945061102286611f6e565b935061102d86610dde565b80935081945082955050505091939590929450565b60008060009054906101000a900473ffffffffffffffffffffffffffffffffffffffff1673ffffffffffffffffffffffffffffffffffffffff16637ae1cfca8360405180807f617070726f76616c537461747573000000000000000000000000000000000000815250600e0182815260200191505060405180910390206040518263ffffffff167c0100000000000000000000000000000000000000000000000000000000028152600401808260001916600019168152602001915050602060405180830381600087803b15801561111957600080fd5b505af115801561112d573d6000803e3d6000fd5b505050506040513d602081101561114357600080fd5b81019080805190602001909291905050509050919050565b600080600080600061116c86611006565b9450945094509450945091939590929450565b60008061118b83612263565b90506000811415151561119d57600080fd5b80915050919050565b60008060009054906101000a900473ffffffffffffffffffffffffffffffffffffffff1673ffffffffffffffffffffffffffffffffffffffff166321f8a7216040518163ffffffff167c010000000000000000000000000000000000000000000000000000000002815260040180807f74616c6c6157616c6c65740000000000000000000000000000000000000000008152506020019050602060405180830381600087803b15801561125857600080fd5b505af115801561126c573d6000803e3d6000fd5b505050506040513d602081101561128257600080fd5b8101908080519060200190929190505050905090565b6112a5858585858561237c565b5050505050565b6112b46115af565b73ffffffffffffffffffffffffffffffffffffffff163373ffffffffffffffffffffffffffffffffffffffff161415156112ed57600080fd5b600073ffffffffffffffffffffffffffffffffffffffff168173ffffffffffffffffffffffffffffffffffffffff161415151561132957600080fd5b8073ffffffffffffffffffffffffffffffffffffffff16611348611bae565b73ffffffffffffffffffffffffffffffffffffffff167f0235cc560a61b22b1b05325679baabe0bfed9269fa7337232e6de194c90fcca560405160405180910390a361139381612626565b50565b61139e6115af565b73ffffffffffffffffffffffffffffffffffffffff163373ffffffffffffffffffffffffffffffffffffffff16148061140957506113da611bae565b73ffffffffffffffffffffffffffffffffffffffff163373ffffffffffffffffffffffffffffffffffffffff16145b151561141457600080fd5b61141d81612725565b151561142857600080fd5b61143181611042565b15151561143d57600080fd5b611448816001612750565b7ffd9d9585c7e646ed46689240252bb11f3229ac41fd7e8ef6a81c9e5e14760802816040518082815260200191505060405180910390a150565b60008060009054906101000a900473ffffffffffffffffffffffffffffffffffffffff1673ffffffffffffffffffffffffffffffffffffffff16637ae1cfca8360405180807f6163746976655374617475730000000000000000000000000000000000000000815250600c0182815260200191505060405180910390206040518263ffffffff167c0100000000000000000000000000000000000000000000000000000000028152600401808260001916600019168152602001915050602060405180830381600087803b15801561155957600080fd5b505af115801561156d573d6000803e3d6000fd5b505050506040513d602081101561158357600080fd5b81019080805190602001909291905050509050919050565b6115a88585858585611298565b5050505050565b60008060009054906101000a900473ffffffffffffffffffffffffffffffffffffffff1673ffffffffffffffffffffffffffffffffffffffff166321f8a7216040518163ffffffff167c010000000000000000000000000000000000000000000000000000000002815260040180807f6f776e65720000000000000000000000000000000000000000000000000000008152506020019050602060405180830381600087803b15801561166157600080fd5b505af1158015611675573d6000803e3d6000fd5b505050506040513d602081101561168b57600080fd5b8101908080519060200190929190505050905090565b6116aa8161284d565b15156116b557600080fd5b6116be81611482565b15156116c957600080fd5b6116d481600061288d565b7f642028127038cd17804be50978266c980dbd2234656c49d7f9c43f15985cf0ad816040518082815260200191505060405180910390a150565b60008060009054906101000a900473ffffffffffffffffffffffffffffffffffffffff1673ffffffffffffffffffffffffffffffffffffffff1663bd02d0f58360405180807f6f776e657242616c616e63657300000000000000000000000000000000000000815250600d0182815260200191505060405180910390206040518263ffffffff167c0100000000000000000000000000000000000000000000000000000000028152600401808260001916600019168152602001915050602060405180830381600087803b1580156117e557600080fd5b505af11580156117f9573d6000803e3d6000fd5b505050506040513d602081101561180f57600080fd5b81019080805190602001909291905050509050919050565b60606000606060006118388561170e565b9250826040519080825280602002602001820160405280156118695781602001602082028038833980820191505090505b509150600090505b828110156118ac57611883858261298a565b828281518110151561189157fe5b90602001906020020181815250508080600101915050611871565b819350505050919050565b6118bf6115af565b73ffffffffffffffffffffffffffffffffffffffff163373ffffffffffffffffffffffffffffffffffffffff161415156118f857600080fd5b6000809054906101000a900473ffffffffffffffffffffffffffffffffffffffff1673ffffffffffffffffffffffffffffffffffffffff1663e2a4853a826040518263ffffffff167c010000000000000000000000000000000000000000000000000000000002815260040180807f656e747279507269636500000000000000000000000000000000000000000000815250602001828152602001915050600060405180830381600087803b1580156119b057600080fd5b505af11580156119c4573d6000803e3d6000fd5b5050505050565b6119d36115af565b73ffffffffffffffffffffffffffffffffffffffff163373ffffffffffffffffffffffffffffffffffffffff16141515611a0c57600080fd5b611a1581612725565b1515611a2057600080fd5b611a2981611042565b1515611a3457600080fd5b611a3f816000612750565b7fb6718bd6b02cdd14f759530c19e5a31b0e130155a6b0df289a78a46aabbeebc4816040518082815260200191505060405180910390a150565b611a828161284d565b1515611a8d57600080fd5b611a9681611482565b151515611aa257600080fd5b611aad81600161288d565b7f973e7e4090a8638950965c1497c763e51c4264196dc51b8b7a0bac812917dbe7816040518082815260200191505060405180910390a150565b600080611af38361117f565b9050611afd610cec565b73ffffffffffffffffffffffffffffffffffffffff1663ce03ffc9826040518263ffffffff167c010000000000000000000000000000000000000000000000000000000002815260040180828152602001915050602060405180830381600087803b158015611b6b57600080fd5b505af1158015611b7f573d6000803e3d6000fd5b505050506040513d6020811015611b9557600080fd5b8101908080519060200190929190505050915050919050565b60008060009054906101000a900473ffffffffffffffffffffffffffffffffffffffff1673ffffffffffffffffffffffffffffffffffffffff166321f8a7216040518163ffffffff167c010000000000000000000000000000000000000000000000000000000002815260040180807f61726269746572000000000000000000000000000000000000000000000000008152506020019050602060405180830381600087803b158015611c6057600080fd5b505af1158015611c74573d6000803e3d6000fd5b505050506040513d6020811015611c8a57600080fd5b8101908080519060200190929190505050905090565b611ca86115af565b73ffffffffffffffffffffffffffffffffffffffff163373ffffffffffffffffffffffffffffffffffffffff16141515611ce157600080fd5b60008173ffffffffffffffffffffffffffffffffffffffff1614151515611d0757600080fd5b6000809054906101000a900473ffffffffffffffffffffffffffffffffffffffff1673ffffffffffffffffffffffffffffffffffffffff1663ca446dd9826040518263ffffffff167c010000000000000000000000000000000000000000000000000000000002815260040180807f74616c6c6157616c6c65740000000000000000000000000000000000000000008152506020018273ffffffffffffffffffffffffffffffffffffffff1673ffffffffffffffffffffffffffffffffffffffff168152602001915050600060405180830381600087803b158015611deb57600080fd5b505af1158015611dff573d6000803e3d6000fd5b5050505050565b600080611e1283611e1a565b119050919050565b60008060009054906101000a900473ffffffffffffffffffffffffffffffffffffffff1673ffffffffffffffffffffffffffffffffffffffff1663bd02d0f58360405180807f626f74456e7472794964734279416464726573730000000000000000000000008152506014018273ffffffffffffffffffffffffffffffffffffffff1673ffffffffffffffffffffffffffffffffffffffff166c0100000000000000000000000002815260140191505060405180910390206040518263ffffffff167c0100000000000000000000000000000000000000000000000000000000028152600401808260001916600019168152602001915050602060405180830381600087803b158015611f2c57600080fd5b505af1158015611f40573d6000803e3d6000fd5b505050506040513d6020811015611f5657600080fd5b81019080805190602001909291905050509050919050565b60008060009054906101000a900473ffffffffffffffffffffffffffffffffffffffff1673ffffffffffffffffffffffffffffffffffffffff166321f8a7218360405180807f626f74456e74727941646472657373657300000000000000000000000000000081525060110182815260200191505060405180910390206040518263ffffffff167c0100000000000000000000000000000000000000000000000000000000028152600401808260001916600019168152602001915050602060405180830381600087803b15801561204557600080fd5b505af1158015612059573d6000803e3d6000fd5b505050506040513d602081101561206f57600080fd5b81019080805190602001909291905050509050919050565b61208f6115af565b73ffffffffffffffffffffffffffffffffffffffff163373ffffffffffffffffffffffffffffffffffffffff161415156120c857600080fd5b600073ffffffffffffffffffffffffffffffffffffffff168173ffffffffffffffffffffffffffffffffffffffff161415151561210457600080fd5b8073ffffffffffffffffffffffffffffffffffffffff166121236115af565b73ffffffffffffffffffffffffffffffffffffffff167f8be0079c531659141344cd1fd0a4f28419497f9722a3daafe3b4186f6b6457e060405160405180910390a361216e81612aac565b50565b60008060009054906101000a900473ffffffffffffffffffffffffffffffffffffffff1673ffffffffffffffffffffffffffffffffffffffff1663bd02d0f56040518163ffffffff167c010000000000000000000000000000000000000000000000000000000002815260040180807f656e7472795072696365000000000000000000000000000000000000000000008152506020019050602060405180830381600087803b15801561222357600080fd5b505af1158015612237573d6000803e3d6000fd5b505050506040513d602081101561224d57600080fd5b8101908080519060200190929190505050905090565b60008060009054906101000a900473ffffffffffffffffffffffffffffffffffffffff1673ffffffffffffffffffffffffffffffffffffffff1663bd02d0f58360405180807f746f6b656e4f776e657273000000000000000000000000000000000000000000815250600b0182815260200191505060405180910390206040518263ffffffff167c0100000000000000000000000000000000000000000000000000000000028152600401808260001916600019168152602001915050602060405180830381600087803b15801561233a57600080fd5b505af115801561234e573d6000803e3d6000fd5b505050506040513d602081101561236457600080fd5b81019080805190602001909291905050509050919050565b6000612386610cec565b73ffffffffffffffffffffffffffffffffffffffff16639bf4e32433886040518363ffffffff167c0100000000000000000000000000000000000000000000000000000000028152600401808373ffffffffffffffffffffffffffffffffffffffff1673ffffffffffffffffffffffffffffffffffffffff16815260200182815260200192505050602060405180830381600087803b15801561242857600080fd5b505af115801561243c573d6000803e3d6000fd5b505050506040513d602081101561245257600080fd5b8101908080519060200190929190505050151561246e57600080fd5b60008573ffffffffffffffffffffffffffffffffffffffff161415151561249457600080fd5b61249d85611e06565b1515156124a957600080fd5b60006001028460001916141515156124c057600080fd5b60008360ff16141515156124d357600080fd5b60008260ff16141515156124e657600080fd5b61250160016124f3610f14565b612bab90919063ffffffff16565b905061250b612bc9565b6125158682612cf3565b61251f8186612d11565b6125298582612e36565b61253581858585612f6a565b612540816001612750565b61254b81600161288d565b7f7754b8c4cb359b91e1f3ec866eda6039f5b1442d03bab5859feea1cdbb120e1381873388888888604051808881526020018781526020018673ffffffffffffffffffffffffffffffffffffffff1673ffffffffffffffffffffffffffffffffffffffff1681526020018573ffffffffffffffffffffffffffffffffffffffff1673ffffffffffffffffffffffffffffffffffffffff16815260200184600019166000191681526020018360ff1660ff1681526020018260ff1660ff16815260200197505050505050505060405180910390a1505050505050565b6000809054906101000a900473ffffffffffffffffffffffffffffffffffffffff1673ffffffffffffffffffffffffffffffffffffffff1663ca446dd9826040518263ffffffff167c010000000000000000000000000000000000000000000000000000000002815260040180807f61726269746572000000000000000000000000000000000000000000000000008152506020018273ffffffffffffffffffffffffffffffffffffffff1673ffffffffffffffffffffffffffffffffffffffff168152602001915050600060405180830381600087803b15801561270a57600080fd5b505af115801561271e573d6000803e3d6000fd5b5050505050565b60008061273183611ae7565b73ffffffffffffffffffffffffffffffffffffffff1614159050919050565b6000809054906101000a900473ffffffffffffffffffffffffffffffffffffffff1673ffffffffffffffffffffffffffffffffffffffff1663abfdcced8360405180807f617070726f76616c537461747573000000000000000000000000000000000000815250600e018281526020019150506040518091039020836040518363ffffffff167c01000000000000000000000000000000000000000000000000000000000281526004018083600019166000191681526020018215151515815260200192505050600060405180830381600087803b15801561283157600080fd5b505af1158015612845573d6000803e3d6000fd5b505050505050565b60003373ffffffffffffffffffffffffffffffffffffffff1661286f83611ae7565b73ffffffffffffffffffffffffffffffffffffffff16149050919050565b6000809054906101000a900473ffffffffffffffffffffffffffffffffffffffff1673ffffffffffffffffffffffffffffffffffffffff1663abfdcced8360405180807f6163746976655374617475730000000000000000000000000000000000000000815250600c018281526020019150506040518091039020836040518363ffffffff167c01000000000000000000000000000000000000000000000000000000000281526004018083600019166000191681526020018215151515815260200192505050600060405180830381600087803b15801561296e57600080fd5b505af1158015612982573d6000803e3d6000fd5b505050505050565b60008060009054906101000a900473ffffffffffffffffffffffffffffffffffffffff1673ffffffffffffffffffffffffffffffffffffffff1663bd02d0f5848460405180807f6f776e6564546f6b656e73000000000000000000000000000000000000000000815250600b018381526020018281526020019250505060405180910390206040518263ffffffff167c0100000000000000000000000000000000000000000000000000000000028152600401808260001916600019168152602001915050602060405180830381600087803b158015612a6957600080fd5b505af1158015612a7d573d6000803e3d6000fd5b505050506040513d6020811015612a9357600080fd5b8101908080519060200190929190505050905092915050565b6000809054906101000a900473ffffffffffffffffffffffffffffffffffffffff1673ffffffffffffffffffffffffffffffffffffffff1663ca446dd9826040518263ffffffff167c010000000000000000000000000000000000000000000000000000000002815260040180807f6f776e65720000000000000000000000000000000000000000000000000000008152506020018273ffffffffffffffffffffffffffffffffffffffff1673ffffffffffffffffffffffffffffffffffffffff168152602001915050600060405180830381600087803b158015612b9057600080fd5b505af1158015612ba4573d6000803e3d6000fd5b5050505050565b6000808284019050838110151515612bbf57fe5b8091505092915050565b612bd1610bc1565b73ffffffffffffffffffffffffffffffffffffffff166323b872dd33612bf56111a6565b612bfd612171565b6040518463ffffffff167c0100000000000000000000000000000000000000000000000000000000028152600401808473ffffffffffffffffffffffffffffffffffffffff1673ffffffffffffffffffffffffffffffffffffffff1681526020018373ffffffffffffffffffffffffffffffffffffffff1673ffffffffffffffffffffffffffffffffffffffff1681526020018281526020019350505050602060405180830381600087803b158015612cb557600080fd5b505af1158015612cc9573d6000803e3d6000fd5b505050506040513d6020811015612cdf57600080fd5b810190808051906020019092919050505050565b60008214151515612d0357600080fd5b612d0d8282613089565b5050565b6000809054906101000a900473ffffffffffffffffffffffffffffffffffffffff1673ffffffffffffffffffffffffffffffffffffffff1663ca446dd98360405180807f626f74456e7472794164647265737365730000000000000000000000000000008152506011018281526020019150506040518091039020836040518363ffffffff167c01000000000000000000000000000000000000000000000000000000000281526004018083600019166000191681526020018273ffffffffffffffffffffffffffffffffffffffff1673ffffffffffffffffffffffffffffffffffffffff16815260200192505050600060405180830381600087803b158015612e1a57600080fd5b505af1158015612e2e573d6000803e3d6000fd5b505050505050565b6000809054906101000a900473ffffffffffffffffffffffffffffffffffffffff1673ffffffffffffffffffffffffffffffffffffffff1663e2a4853a8360405180807f626f74456e7472794964734279416464726573730000000000000000000000008152506014018273ffffffffffffffffffffffffffffffffffffffff1673ffffffffffffffffffffffffffffffffffffffff166c010000000000000000000000000281526014019150506040518091039020836040518363ffffffff167c010000000000000000000000000000000000000000000000000000000002815260040180836000191660001916815260200182815260200192505050600060405180830381600087803b158015612f4e57600080fd5b505af1158015612f62573d6000803e3d6000fd5b505050505050565b6000809054906101000a900473ffffffffffffffffffffffffffffffffffffffff1673ffffffffffffffffffffffffffffffffffffffff16634261ff6a8560405180807f626f74456e74727949706673486173680000000000000000000000000000000081525060100182815260200191505060405180910390208585856040518563ffffffff167c010000000000000000000000000000000000000000000000000000000002815260040180856000191660001916815260200184600019166000191681526020018360ff1660ff1681526020018260ff1660ff168152602001945050505050600060405180830381600087803b15801561306b57600080fd5b505af115801561307f573d6000803e3d6000fd5b5050505050505050565b60008061309583612263565b1415156130a157600080fd5b6130ab82846130d7565b6130b48361170e565b90506130c083836131d0565b6130ca82826132e2565b6130d26133db565b505050565b6000809054906101000a900473ffffffffffffffffffffffffffffffffffffffff1673ffffffffffffffffffffffffffffffffffffffff1663e2a4853a8360405180807f746f6b656e4f776e657273000000000000000000000000000000000000000000815250600b018281526020019150506040518091039020836040518363ffffffff167c010000000000000000000000000000000000000000000000000000000002815260040180836000191660001916815260200182815260200192505050600060405180830381600087803b1580156131b457600080fd5b505af11580156131c8573d6000803e3d6000fd5b505050505050565b6000809054906101000a900473ffffffffffffffffffffffffffffffffffffffff1673ffffffffffffffffffffffffffffffffffffffff1663e2a4853a836132178561170e565b60405180807f6f776e6564546f6b656e73000000000000000000000000000000000000000000815250600b01838152602001828152602001925050506040518091039020836040518363ffffffff167c010000000000000000000000000000000000000000000000000000000002815260040180836000191660001916815260200182815260200192505050600060405180830381600087803b1580156132bd57600080fd5b505af11580156132d1573d6000803e3d6000fd5b505050506132de826134c7565b5050565b6000809054906101000a900473ffffffffffffffffffffffffffffffffffffffff1673ffffffffffffffffffffffffffffffffffffffff1663e2a4853a8360405180807f6f776e6564546f6b656e73496e646578000000000000000000000000000000008152506010018281526020019150506040518091039020836040518363ffffffff167c010000000000000000000000000000000000000000000000000000000002815260040180836000191660001916815260200182815260200192505050600060405180830381600087803b1580156133bf57600080fd5b505af11580156133d3573d6000803e3d6000fd5b505050505050565b6000809054906101000a900473ffffffffffffffffffffffffffffffffffffffff1673ffffffffffffffffffffffffffffffffffffffff1663e2a4853a6134336001613425610f14565b612bab90919063ffffffff16565b6040518263ffffffff167c010000000000000000000000000000000000000000000000000000000002815260040180807f746f74616c546f6b656e73000000000000000000000000000000000000000000815250602001828152602001915050600060405180830381600087803b1580156134ad57600080fd5b505af11580156134c1573d6000803e3d6000fd5b50505050565b6000809054906101000a900473ffffffffffffffffffffffffffffffffffffffff1673ffffffffffffffffffffffffffffffffffffffff1663e2a4853a8260405180807f6f776e657242616c616e63657300000000000000000000000000000000000000815250600d01828152602001915050604051809103902061355e60016135508661170e565b612bab90919063ffffffff16565b6040518363ffffffff167c010000000000000000000000000000000000000000000000000000000002815260040180836000191660001916815260200182815260200192505050600060405180830381600087803b1580156135bf57600080fd5b505af11580156135d3573d6000803e3d6000fd5b50505050505600a165627a7a72305820033bd4075cd70bdc77bbb4737ce58b988dd9daf552ebdf6e2992fc01e4f0bb160029",
  "source": "pragma solidity ^0.4.18;\n\nimport '../Registry/BotEntryStorableRegistry.sol';\n\n/**\n * @title BotServiceRegistryDelegate\n * @dev Delegate contract for functionality that handles ownership of bot services.\n *  Bot services belong to a developer. Ownership of a bot service is determined by\n *  the developer that the bot services belongs to.\n */\ncontract BotServiceRegistryDelegate is BotEntryStorableRegistry {\n\n  string public constant name = \"BotServiceRegistry\";\n\n  /**\n  * @dev Constructor for BotServiceRegistryDelegate\n  * @param storage_ address of a BaseStorage contract\n  */\n  function BotServiceRegistryDelegate(BaseStorage storage_)\n    BotEntryStorableRegistry(storage_)\n    public\n  {}\n\n  /**\n  * @dev Returns data for the given bot service ID\n  * @param botServiceId A bot service ID\n  * @return _owner The address that owns the bot service\n  * @return _botServiceAddress The address of the bot service\n  * @return IpfsDigest IPFS Digest of the data associated with the bot\n  * @return IpfsFnCode IPFS Function Code associated with the bot\n  * @return IpfsSize IPFS Digest size associated with the bot\n  */\n  function getBotService(uint256 botServiceId) public view returns\n  (\n    address _owner,\n    address _botServiceAddress,\n    bytes32 IpfsDigest,\n    uint8 IpfsFnCode,\n    uint8 IpfsSize\n  ) {\n    return getBotEntry(botServiceId);\n  }\n\n  /**\n  * @dev Creates a new bot service.\n  * @param developerId ID for the developer that this bot service will belong to\n  * @param botServiceAddress Address of the bot service\n  * @param IpfsDigest IPFS Digest of the data associated with the new bot\n  * @param IpfsFnCode IPFS Function Code associated with the new bot\n  * @param IpfsSize IPFS Digest size associated with the new bot\n  */\n  function createBotService(\n    uint256 developerId, \n    address botServiceAddress, \n    bytes32 IpfsDigest,\n    uint8 IpfsFnCode,\n    uint8 IpfsSize\n  )\n    public \n  {\n    createBotEntry(developerId, botServiceAddress, IpfsDigest, IpfsFnCode, IpfsSize);\n  }\n\n  /**\n  * @dev Override for BotEntryStorableRegistry.createBotEntry()\n  */\n  function createBotEntry(\n    uint256 developerId, \n    address botServiceAddress, \n    bytes32 IpfsDigest,\n    uint8 IpfsFnCode,\n    uint8 IpfsSize\n  )\n    public\n  {\n    super.createBotEntry(developerId, botServiceAddress, IpfsDigest, IpfsFnCode, IpfsSize);\n  }\n\n}\n",
  "sourcePath": "/home/henry/ws/botchain/contracts/Delegates/BotServiceRegistryDelegate.sol",
  "compiler": {
    "name": "solc",
    "version": "0.4.24+commit.e67f0147.Emscripten.clang"
  },
  "schemaVersion": "2.0.1",
  "updatedAt": "2018-11-01T15:08:00.532Z"
}