{
  "contractName": "CurationCouncilRegistry",
  "abi": [
    {
      "constant": true,
      "inputs": [],
      "name": "botCoin",
      "outputs": [
        {
          "name": "",
          "type": "address"
        }
      ],
      "payable": false,
      "stateMutability": "view",
      "type": "function"
    },
    {
      "constant": true,
      "inputs": [
        {
          "name": "registrationVoteId",
          "type": "uint256"
        }
      ],
      "name": "getVoteFinalBlock",
      "outputs": [
        {
          "name": "",
          "type": "uint256"
        }
      ],
      "payable": false,
      "stateMutability": "view",
      "type": "function"
    },
    {
      "constant": true,
      "inputs": [],
      "name": "totalVotes",
      "outputs": [
        {
          "name": "",
          "type": "uint256"
        }
      ],
      "payable": false,
      "stateMutability": "view",
      "type": "function"
    },
    {
      "constant": true,
      "inputs": [
        {
          "name": "registrationVoteId",
          "type": "uint256"
        }
      ],
      "name": "getNayCount",
      "outputs": [
        {
          "name": "",
          "type": "uint256"
        }
      ],
      "payable": false,
      "stateMutability": "view",
      "type": "function"
    },
    {
      "constant": true,
      "inputs": [
        {
          "name": "registrationVoteId",
          "type": "uint256"
        },
        {
          "name": "memberAddress",
          "type": "address"
        }
      ],
      "name": "getVotedOnStatus",
      "outputs": [
        {
          "name": "",
          "type": "bool"
        }
      ],
      "payable": false,
      "stateMutability": "view",
      "type": "function"
    },
    {
      "constant": true,
      "inputs": [],
      "name": "tallaWallet",
      "outputs": [
        {
          "name": "",
          "type": "address"
        }
      ],
      "payable": false,
      "stateMutability": "view",
      "type": "function"
    },
    {
      "constant": true,
      "inputs": [
        {
          "name": "registrationVoteId",
          "type": "uint256"
        }
      ],
      "name": "getYayCount",
      "outputs": [
        {
          "name": "",
          "type": "uint256"
        }
      ],
      "payable": false,
      "stateMutability": "view",
      "type": "function"
    },
    {
      "constant": true,
      "inputs": [
        {
          "name": "registrationVoteId",
          "type": "uint256"
        }
      ],
      "name": "getVoteInitialBlock",
      "outputs": [
        {
          "name": "",
          "type": "uint256"
        }
      ],
      "payable": false,
      "stateMutability": "view",
      "type": "function"
    },
    {
      "constant": true,
      "inputs": [
        {
          "name": "developerAddress",
          "type": "address"
        }
      ],
      "name": "registrationVoteExists",
      "outputs": [
        {
          "name": "",
          "type": "bool"
        }
      ],
      "payable": false,
      "stateMutability": "view",
      "type": "function"
    },
    {
      "constant": true,
      "inputs": [],
      "name": "getOwner",
      "outputs": [
        {
          "name": "",
          "type": "address"
        }
      ],
      "payable": false,
      "stateMutability": "view",
      "type": "function"
    },
    {
      "constant": true,
      "inputs": [
        {
          "name": "registrationVoteId",
          "type": "uint256"
        }
      ],
      "name": "getRegistrationVoteAddressById",
      "outputs": [
        {
          "name": "",
          "type": "address"
        }
      ],
      "payable": false,
      "stateMutability": "view",
      "type": "function"
    },
    {
      "constant": false,
      "inputs": [
        {
          "name": "entryPrice",
          "type": "uint256"
        }
      ],
      "name": "setEntryPrice",
      "outputs": [],
      "payable": false,
      "stateMutability": "nonpayable",
      "type": "function"
    },
    {
      "constant": false,
      "inputs": [
        {
          "name": "registrationVoteId",
          "type": "uint256"
        }
      ],
      "name": "setVotedOnStatus",
      "outputs": [],
      "payable": false,
      "stateMutability": "nonpayable",
      "type": "function"
    },
    {
      "constant": true,
      "inputs": [
        {
          "name": "registrationVoteAddress",
          "type": "address"
        }
      ],
      "name": "getRegistrationVoteIdByAddress",
      "outputs": [
        {
          "name": "",
          "type": "uint256"
        }
      ],
      "payable": false,
      "stateMutability": "view",
      "type": "function"
    },
    {
      "constant": false,
      "inputs": [
        {
          "name": "tallaWallet",
          "type": "address"
        }
      ],
      "name": "setTallaWallet",
      "outputs": [],
      "payable": false,
      "stateMutability": "nonpayable",
      "type": "function"
    },
    {
      "constant": false,
      "inputs": [
        {
          "name": "newOwner",
          "type": "address"
        }
      ],
      "name": "transferOwnership",
      "outputs": [],
      "payable": false,
      "stateMutability": "nonpayable",
      "type": "function"
    },
    {
      "constant": true,
      "inputs": [],
      "name": "entryPrice",
      "outputs": [
        {
          "name": "",
          "type": "uint256"
        }
      ],
      "payable": false,
      "stateMutability": "view",
      "type": "function"
    },
    {
      "inputs": [
        {
          "name": "storage_",
          "type": "address"
        }
      ],
      "payable": false,
      "stateMutability": "nonpayable",
      "type": "constructor"
    },
    {
      "anonymous": false,
      "inputs": [
        {
          "indexed": false,
          "name": "registrationVoteId",
          "type": "uint256"
        },
        {
          "indexed": false,
          "name": "initialBlock",
          "type": "uint256"
        },
        {
          "indexed": false,
          "name": "finalBlock",
          "type": "uint256"
        },
        {
          "indexed": false,
          "name": "developerAddress",
          "type": "address"
        },
        {
          "indexed": false,
          "name": "yayCount",
          "type": "uint256"
        },
        {
          "indexed": false,
          "name": "nayCount",
          "type": "uint256"
        },
        {
          "indexed": false,
          "name": "veto",
          "type": "bool"
        }
      ],
      "name": "RegistrationVoteCreated",
      "type": "event"
    },
    {
      "anonymous": false,
      "inputs": [
        {
          "indexed": true,
          "name": "previousOwner",
          "type": "address"
        },
        {
          "indexed": true,
          "name": "newOwner",
          "type": "address"
        }
      ],
      "name": "OwnershipTransferred",
      "type": "event"
    },
    {
      "constant": true,
      "inputs": [],
      "name": "developerRegistry",
      "outputs": [
        {
          "name": "",
          "type": "address"
        }
      ],
      "payable": false,
      "stateMutability": "view",
      "type": "function"
    },
    {
      "constant": true,
      "inputs": [],
      "name": "developerRegistryAddress",
      "outputs": [
        {
          "name": "",
          "type": "address"
        }
      ],
      "payable": false,
      "stateMutability": "view",
      "type": "function"
    },
    {
      "constant": false,
      "inputs": [
        {
          "name": "addr",
          "type": "address"
        }
      ],
      "name": "changeDeveloperRegistry",
      "outputs": [],
      "payable": false,
      "stateMutability": "nonpayable",
      "type": "function"
    },
    {
      "constant": true,
      "inputs": [
        {
          "name": "memberAddress",
          "type": "address"
        }
      ],
      "name": "getStakeAmount",
      "outputs": [
        {
          "name": "",
          "type": "uint256"
        }
      ],
      "payable": false,
      "stateMutability": "view",
      "type": "function"
    },
    {
      "constant": true,
      "inputs": [
        {
          "name": "memberAddress",
          "type": "address"
        }
      ],
      "name": "getJoinedCouncilBlockHeight",
      "outputs": [
        {
          "name": "",
          "type": "uint256"
        }
      ],
      "payable": false,
      "stateMutability": "view",
      "type": "function"
    },
    {
      "constant": true,
      "inputs": [
        {
          "name": "memberId",
          "type": "uint256"
        }
      ],
      "name": "getMemberAddressById",
      "outputs": [
        {
          "name": "",
          "type": "address"
        }
      ],
      "payable": false,
      "stateMutability": "view",
      "type": "function"
    },
    {
      "constant": true,
      "inputs": [
        {
          "name": "memberAddress",
          "type": "address"
        }
      ],
      "name": "getMemberIdByAddress",
      "outputs": [
        {
          "name": "",
          "type": "uint256"
        }
      ],
      "payable": false,
      "stateMutability": "view",
      "type": "function"
    },
    {
      "constant": true,
      "inputs": [],
      "name": "totalMembers",
      "outputs": [
        {
          "name": "",
          "type": "uint256"
        }
      ],
      "payable": false,
      "stateMutability": "view",
      "type": "function"
    },
    {
      "constant": false,
      "inputs": [
        {
          "name": "amount",
          "type": "uint256"
        }
      ],
      "name": "setMinStake",
      "outputs": [],
      "payable": false,
      "stateMutability": "nonpayable",
      "type": "function"
    },
    {
      "constant": true,
      "inputs": [],
      "name": "getMinStake",
      "outputs": [
        {
          "name": "",
          "type": "uint256"
        }
      ],
      "payable": false,
      "stateMutability": "view",
      "type": "function"
    },
    {
      "constant": false,
      "inputs": [
        {
          "name": "stakeAmount",
          "type": "uint256"
        }
      ],
      "name": "joinCouncil",
      "outputs": [],
      "payable": false,
      "stateMutability": "nonpayable",
      "type": "function"
    },
    {
      "constant": false,
      "inputs": [],
      "name": "leaveCouncil",
      "outputs": [],
      "payable": false,
      "stateMutability": "nonpayable",
      "type": "function"
    },
    {
      "constant": false,
      "inputs": [],
      "name": "createRegistrationVote",
      "outputs": [],
      "payable": false,
      "stateMutability": "nonpayable",
      "type": "function"
    },
    {
      "constant": false,
      "inputs": [
        {
          "name": "registrationVoteId",
          "type": "uint256"
        },
        {
          "name": "vote",
          "type": "bool"
        }
      ],
      "name": "castRegistrationVote",
      "outputs": [],
      "payable": false,
      "stateMutability": "nonpayable",
      "type": "function"
    },
    {
      "constant": true,
      "inputs": [],
      "name": "getAutoApproveThreshold",
      "outputs": [
        {
          "name": "",
          "type": "uint256"
        }
      ],
      "payable": false,
      "stateMutability": "view",
      "type": "function"
    },
    {
      "constant": false,
      "inputs": [
        {
          "name": "threshold",
          "type": "uint256"
        }
      ],
      "name": "setAutoApproveThreshold",
      "outputs": [],
      "payable": false,
      "stateMutability": "nonpayable",
      "type": "function"
    }
  ],
  "bytecode": "0x60806040523480156200001157600080fd5b506040516020806200464e8339810180604052810190808051906020019092919050505080818080806000806101000a81548173ffffffffffffffffffffffffffffffffffffffff021916908373ffffffffffffffffffffffffffffffffffffffff1602179055505060008173ffffffffffffffffffffffffffffffffffffffff16141515620000b657620000b533620000c0640100000000026401000000009004565b5b50505050620001c1565b6000809054906101000a900473ffffffffffffffffffffffffffffffffffffffff1673ffffffffffffffffffffffffffffffffffffffff1663ca446dd9826040518263ffffffff167c010000000000000000000000000000000000000000000000000000000002815260040180807f6f776e65720000000000000000000000000000000000000000000000000000008152506020018273ffffffffffffffffffffffffffffffffffffffff1673ffffffffffffffffffffffffffffffffffffffff168152602001915050600060405180830381600087803b158015620001a557600080fd5b505af1158015620001ba573d6000803e3d6000fd5b5050505050565b61447d80620001d16000396000f3006080604052600436106101a1576000357c0100000000000000000000000000000000000000000000000000000000900463ffffffff168063047913ce146101a6578063063b84fc146101fd5780630c2eb4031461023e5780630d15fd7714610295578063107d0be1146102c057806314956f4414610317578063235e22261461034457806353cf05ac1461038557806356a3b5fa146103ea5780636f1d8884146104155780637202761b1461046c5780637439c42d146104ad57806376e92559146104ee5780637a31ae04146105195780637e6a72821461057457806384286eb2146105ad578063870f745814610604578063893d20e814610647578063895eedc81461069e5780638c80fd901461070b5780639075cadc14610738578063a6e77af114610763578063ab3dfb1714610790578063c04f50ec146107bd578063c720771a1461082a578063c9d6553714610881578063cfdd1ce3146108ae578063dcbd32fe14610905578063e4f3931814610948578063ea4e268d1461099f578063ed64bf29146109b6578063f2fde38b146109cd578063f745adfc14610a10575b600080fd5b3480156101b257600080fd5b506101bb610a3b565b604051808273ffffffffffffffffffffffffffffffffffffffff1673ffffffffffffffffffffffffffffffffffffffff16815260200191505060405180910390f35b34801561020957600080fd5b5061022860048036038101908080359060200190929190505050610b2d565b6040518082815260200191505060405180910390f35b34801561024a57600080fd5b5061027f600480360381019080803573ffffffffffffffffffffffffffffffffffffffff169060200190929190505050610c46565b6040518082815260200191505060405180910390f35b3480156102a157600080fd5b506102aa610d9a565b6040518082815260200191505060405180910390f35b3480156102cc57600080fd5b506102d5610ea9565b604051808273ffffffffffffffffffffffffffffffffffffffff1673ffffffffffffffffffffffffffffffffffffffff16815260200191505060405180910390f35b34801561032357600080fd5b5061034260048036038101908080359060200190929190505050610f9b565b005b34801561035057600080fd5b5061036f600480360381019080803590602001909291905050506110cc565b6040518082815260200191505060405180910390f35b34801561039157600080fd5b506103d060048036038101908080359060200190929190803573ffffffffffffffffffffffffffffffffffffffff1690602001909291905050506111e5565b604051808215151515815260200191505060405180910390f35b3480156103f657600080fd5b506103ff611342565b6040518082815260200191505060405180910390f35b34801561042157600080fd5b5061042a611451565b604051808273ffffffffffffffffffffffffffffffffffffffff1673ffffffffffffffffffffffffffffffffffffffff16815260200191505060405180910390f35b34801561047857600080fd5b5061049760048036038101908080359060200190929190505050611543565b6040518082815260200191505060405180910390f35b3480156104b957600080fd5b506104d86004803603810190808035906020019092919050505061165c565b6040518082815260200191505060405180910390f35b3480156104fa57600080fd5b50610503611775565b6040518082815260200191505060405180910390f35b34801561052557600080fd5b5061055a600480360381019080803573ffffffffffffffffffffffffffffffffffffffff169060200190929190505050611884565b604051808215151515815260200191505060405180910390f35b34801561058057600080fd5b506105ab600480360381019080803590602001909291908035151590602001909291905050506119d8565b005b3480156105b957600080fd5b506105ee600480360381019080803573ffffffffffffffffffffffffffffffffffffffff169060200190929190505050611a0d565b6040518082815260200191505060405180910390f35b34801561061057600080fd5b50610645600480360381019080803573ffffffffffffffffffffffffffffffffffffffff169060200190929190505050611b61565b005b34801561065357600080fd5b5061065c611cc7565b604051808273ffffffffffffffffffffffffffffffffffffffff1673ffffffffffffffffffffffffffffffffffffffff16815260200191505060405180910390f35b3480156106aa57600080fd5b506106c960048036038101908080359060200190929190505050611db9565b604051808273ffffffffffffffffffffffffffffffffffffffff1673ffffffffffffffffffffffffffffffffffffffff16815260200191505060405180910390f35b34801561071757600080fd5b5061073660048036038101908080359060200190929190505050611ed2565b005b34801561074457600080fd5b5061074d612003565b6040518082815260200191505060405180910390f35b34801561076f57600080fd5b5061078e60048036038101908080359060200190929190505050612112565b005b34801561079c57600080fd5b506107bb60048036038101908080359060200190929190505050612226565b005b3480156107c957600080fd5b506107e860048036038101908080359060200190929190505050612366565b604051808273ffffffffffffffffffffffffffffffffffffffff1673ffffffffffffffffffffffffffffffffffffffff16815260200191505060405180910390f35b34801561083657600080fd5b5061086b600480360381019080803573ffffffffffffffffffffffffffffffffffffffff16906020019092919050505061247f565b6040518082815260200191505060405180910390f35b34801561088d57600080fd5b506108ac600480360381019080803590602001909291905050506125d3565b005b3480156108ba57600080fd5b506108ef600480360381019080803573ffffffffffffffffffffffffffffffffffffffff169060200190929190505050612bff565b6040518082815260200191505060405180910390f35b34801561091157600080fd5b50610946600480360381019080803573ffffffffffffffffffffffffffffffffffffffff169060200190929190505050612d53565b005b34801561095457600080fd5b5061095d612eb9565b604051808273ffffffffffffffffffffffffffffffffffffffff1673ffffffffffffffffffffffffffffffffffffffff16815260200191505060405180910390f35b3480156109ab57600080fd5b506109b4612fab565b005b3480156109c257600080fd5b506109cb6130c7565b005b3480156109d957600080fd5b50610a0e600480360381019080803573ffffffffffffffffffffffffffffffffffffffff1690602001909291905050506132f2565b005b348015610a1c57600080fd5b50610a256133dc565b6040518082815260200191505060405180910390f35b60008060009054906101000a900473ffffffffffffffffffffffffffffffffffffffff1673ffffffffffffffffffffffffffffffffffffffff166321f8a7216040518163ffffffff167c010000000000000000000000000000000000000000000000000000000002815260040180807f626f74436f696e416464726573730000000000000000000000000000000000008152506020019050602060405180830381600087803b158015610aed57600080fd5b505af1158015610b01573d6000803e3d6000fd5b505050506040513d6020811015610b1757600080fd5b8101908080519060200190929190505050905090565b60008060009054906101000a900473ffffffffffffffffffffffffffffffffffffffff1673ffffffffffffffffffffffffffffffffffffffff1663bd02d0f58360405180807f726567697374726174696f6e566f746546696e616c426c6f636b000000000000815250601a0182815260200191505060405180910390206040518263ffffffff167c0100000000000000000000000000000000000000000000000000000000028152600401808260001916600019168152602001915050602060405180830381600087803b158015610c0457600080fd5b505af1158015610c18573d6000803e3d6000fd5b505050506040513d6020811015610c2e57600080fd5b81019080805190602001909291905050509050919050565b60008060009054906101000a900473ffffffffffffffffffffffffffffffffffffffff1673ffffffffffffffffffffffffffffffffffffffff1663bd02d0f58360405180807f7374616b65416d6f756e74000000000000000000000000000000000000000000815250600b018273ffffffffffffffffffffffffffffffffffffffff1673ffffffffffffffffffffffffffffffffffffffff166c0100000000000000000000000002815260140191505060405180910390206040518263ffffffff167c0100000000000000000000000000000000000000000000000000000000028152600401808260001916600019168152602001915050602060405180830381600087803b158015610d5857600080fd5b505af1158015610d6c573d6000803e3d6000fd5b505050506040513d6020811015610d8257600080fd5b81019080805190602001909291905050509050919050565b60008060009054906101000a900473ffffffffffffffffffffffffffffffffffffffff1673ffffffffffffffffffffffffffffffffffffffff1663bd02d0f560405180807f746f74616c566f74657300000000000000000000000000000000000000000000815250600a01905060405180910390206040518263ffffffff167c0100000000000000000000000000000000000000000000000000000000028152600401808260001916600019168152602001915050602060405180830381600087803b158015610e6957600080fd5b505af1158015610e7d573d6000803e3d6000fd5b505050506040513d6020811015610e9357600080fd5b8101908080519060200190929190505050905090565b60008060009054906101000a900473ffffffffffffffffffffffffffffffffffffffff1673ffffffffffffffffffffffffffffffffffffffff166321f8a7216040518163ffffffff167c010000000000000000000000000000000000000000000000000000000002815260040180807f646576656c6f70657252656769737472794164647265737300000000000000008152506020019050602060405180830381600087803b158015610f5b57600080fd5b505af1158015610f6f573d6000803e3d6000fd5b505050506040513d6020811015610f8557600080fd5b8101908080519060200190929190505050905090565b610fa3611cc7565b73ffffffffffffffffffffffffffffffffffffffff163373ffffffffffffffffffffffffffffffffffffffff16141515610fdc57600080fd5b6000809054906101000a900473ffffffffffffffffffffffffffffffffffffffff1673ffffffffffffffffffffffffffffffffffffffff1663e2a4853a60405180807f6175746f417070726f76655468726573686f6c6400000000000000000000000081525060140190506040518091039020836040518363ffffffff167c010000000000000000000000000000000000000000000000000000000002815260040180836000191660001916815260200182815260200192505050600060405180830381600087803b1580156110b157600080fd5b505af11580156110c5573d6000803e3d6000fd5b5050505050565b60008060009054906101000a900473ffffffffffffffffffffffffffffffffffffffff1673ffffffffffffffffffffffffffffffffffffffff1663bd02d0f58360405180807f726567697374726174696f6e566f74654e6179436f756e74000000000000000081525060180182815260200191505060405180910390206040518263ffffffff167c0100000000000000000000000000000000000000000000000000000000028152600401808260001916600019168152602001915050602060405180830381600087803b1580156111a357600080fd5b505af11580156111b7573d6000803e3d6000fd5b505050506040513d60208110156111cd57600080fd5b81019080805190602001909291905050509050919050565b60008060009054906101000a900473ffffffffffffffffffffffffffffffffffffffff1673ffffffffffffffffffffffffffffffffffffffff16637ae1cfca848460405180807f766f7465644f6e000000000000000000000000000000000000000000000000008152506007018381526020018273ffffffffffffffffffffffffffffffffffffffff1673ffffffffffffffffffffffffffffffffffffffff166c010000000000000000000000000281526014019250505060405180910390206040518263ffffffff167c0100000000000000000000000000000000000000000000000000000000028152600401808260001916600019168152602001915050602060405180830381600087803b1580156112ff57600080fd5b505af1158015611313573d6000803e3d6000fd5b505050506040513d602081101561132957600080fd5b8101908080519060200190929190505050905092915050565b60008060009054906101000a900473ffffffffffffffffffffffffffffffffffffffff1673ffffffffffffffffffffffffffffffffffffffff1663bd02d0f560405180807f6d696e5374616b65416d6f756e74000000000000000000000000000000000000815250600e01905060405180910390206040518263ffffffff167c0100000000000000000000000000000000000000000000000000000000028152600401808260001916600019168152602001915050602060405180830381600087803b15801561141157600080fd5b505af1158015611425573d6000803e3d6000fd5b505050506040513d602081101561143b57600080fd5b8101908080519060200190929190505050905090565b60008060009054906101000a900473ffffffffffffffffffffffffffffffffffffffff1673ffffffffffffffffffffffffffffffffffffffff166321f8a7216040518163ffffffff167c010000000000000000000000000000000000000000000000000000000002815260040180807f74616c6c6157616c6c65740000000000000000000000000000000000000000008152506020019050602060405180830381600087803b15801561150357600080fd5b505af1158015611517573d6000803e3d6000fd5b505050506040513d602081101561152d57600080fd5b8101908080519060200190929190505050905090565b60008060009054906101000a900473ffffffffffffffffffffffffffffffffffffffff1673ffffffffffffffffffffffffffffffffffffffff1663bd02d0f58360405180807f726567697374726174696f6e566f7465596179436f756e74000000000000000081525060180182815260200191505060405180910390206040518263ffffffff167c0100000000000000000000000000000000000000000000000000000000028152600401808260001916600019168152602001915050602060405180830381600087803b15801561161a57600080fd5b505af115801561162e573d6000803e3d6000fd5b505050506040513d602081101561164457600080fd5b81019080805190602001909291905050509050919050565b60008060009054906101000a900473ffffffffffffffffffffffffffffffffffffffff1673ffffffffffffffffffffffffffffffffffffffff1663bd02d0f58360405180807f726567697374726174696f6e566f7465496e697469616c426c6f636b00000000815250601c0182815260200191505060405180910390206040518263ffffffff167c0100000000000000000000000000000000000000000000000000000000028152600401808260001916600019168152602001915050602060405180830381600087803b15801561173357600080fd5b505af1158015611747573d6000803e3d6000fd5b505050506040513d602081101561175d57600080fd5b81019080805190602001909291905050509050919050565b60008060009054906101000a900473ffffffffffffffffffffffffffffffffffffffff1673ffffffffffffffffffffffffffffffffffffffff1663bd02d0f560405180807f746f74616c4d656d626572730000000000000000000000000000000000000000815250600c01905060405180910390206040518263ffffffff167c0100000000000000000000000000000000000000000000000000000000028152600401808260001916600019168152602001915050602060405180830381600087803b15801561184457600080fd5b505af1158015611858573d6000803e3d6000fd5b505050506040513d602081101561186e57600080fd5b8101908080519060200190929190505050905090565b60008060009054906101000a900473ffffffffffffffffffffffffffffffffffffffff1673ffffffffffffffffffffffffffffffffffffffff16637ae1cfca8360405180807f726567697374726174696f6e566f7465457869737473000000000000000000008152506016018273ffffffffffffffffffffffffffffffffffffffff1673ffffffffffffffffffffffffffffffffffffffff166c0100000000000000000000000002815260140191505060405180910390206040518263ffffffff167c0100000000000000000000000000000000000000000000000000000000028152600401808260001916600019168152602001915050602060405180830381600087803b15801561199657600080fd5b505af11580156119aa573d6000803e3d6000fd5b505050506040513d60208110156119c057600080fd5b81019080805190602001909291905050509050919050565b6119e18261165c565b6119ea33611a0d565b1015156119f657600080fd5b611a0082826134ce565b611a0982613538565b5050565b60008060009054906101000a900473ffffffffffffffffffffffffffffffffffffffff1673ffffffffffffffffffffffffffffffffffffffff1663bd02d0f53360405180807f6a6f696e6564436f756e63696c426c6f636b48656967687400000000000000008152506018018273ffffffffffffffffffffffffffffffffffffffff1673ffffffffffffffffffffffffffffffffffffffff166c0100000000000000000000000002815260140191505060405180910390206040518263ffffffff167c0100000000000000000000000000000000000000000000000000000000028152600401808260001916600019168152602001915050602060405180830381600087803b158015611b1f57600080fd5b505af1158015611b33573d6000803e3d6000fd5b505050506040513d6020811015611b4957600080fd5b81019080805190602001909291905050509050919050565b611b69611cc7565b73ffffffffffffffffffffffffffffffffffffffff163373ffffffffffffffffffffffffffffffffffffffff16141515611ba257600080fd5b60008173ffffffffffffffffffffffffffffffffffffffff1614151515611bc857600080fd5b6000809054906101000a900473ffffffffffffffffffffffffffffffffffffffff1673ffffffffffffffffffffffffffffffffffffffff1663ca446dd9826040518263ffffffff167c010000000000000000000000000000000000000000000000000000000002815260040180807f646576656c6f70657252656769737472794164647265737300000000000000008152506020018273ffffffffffffffffffffffffffffffffffffffff1673ffffffffffffffffffffffffffffffffffffffff168152602001915050600060405180830381600087803b158015611cac57600080fd5b505af1158015611cc0573d6000803e3d6000fd5b5050505050565b60008060009054906101000a900473ffffffffffffffffffffffffffffffffffffffff1673ffffffffffffffffffffffffffffffffffffffff166321f8a7216040518163ffffffff167c010000000000000000000000000000000000000000000000000000000002815260040180807f6f776e65720000000000000000000000000000000000000000000000000000008152506020019050602060405180830381600087803b158015611d7957600080fd5b505af1158015611d8d573d6000803e3d6000fd5b505050506040513d6020811015611da357600080fd5b8101908080519060200190929190505050905090565b60008060009054906101000a900473ffffffffffffffffffffffffffffffffffffffff1673ffffffffffffffffffffffffffffffffffffffff166321f8a7218360405180807f726567697374726174696f6e566f74654164647265737300000000000000000081525060170182815260200191505060405180910390206040518263ffffffff167c0100000000000000000000000000000000000000000000000000000000028152600401808260001916600019168152602001915050602060405180830381600087803b158015611e9057600080fd5b505af1158015611ea4573d6000803e3d6000fd5b505050506040513d6020811015611eba57600080fd5b81019080805190602001909291905050509050919050565b611eda611cc7565b73ffffffffffffffffffffffffffffffffffffffff163373ffffffffffffffffffffffffffffffffffffffff16141515611f1357600080fd5b6000809054906101000a900473ffffffffffffffffffffffffffffffffffffffff1673ffffffffffffffffffffffffffffffffffffffff1663e2a4853a60405180807f6d696e5374616b65416d6f756e74000000000000000000000000000000000000815250600e0190506040518091039020836040518363ffffffff167c010000000000000000000000000000000000000000000000000000000002815260040180836000191660001916815260200182815260200192505050600060405180830381600087803b158015611fe857600080fd5b505af1158015611ffc573d6000803e3d6000fd5b5050505050565b60008060009054906101000a900473ffffffffffffffffffffffffffffffffffffffff1673ffffffffffffffffffffffffffffffffffffffff1663bd02d0f560405180807f6175746f417070726f76655468726573686f6c64000000000000000000000000815250601401905060405180910390206040518263ffffffff167c0100000000000000000000000000000000000000000000000000000000028152600401808260001916600019168152602001915050602060405180830381600087803b1580156120d257600080fd5b505af11580156120e6573d6000803e3d6000fd5b505050506040513d60208110156120fc57600080fd5b8101908080519060200190929190505050905090565b61211a611cc7565b73ffffffffffffffffffffffffffffffffffffffff163373ffffffffffffffffffffffffffffffffffffffff1614151561215357600080fd5b6000809054906101000a900473ffffffffffffffffffffffffffffffffffffffff1673ffffffffffffffffffffffffffffffffffffffff1663e2a4853a826040518263ffffffff167c010000000000000000000000000000000000000000000000000000000002815260040180807f656e747279507269636500000000000000000000000000000000000000000000815250602001828152602001915050600060405180830381600087803b15801561220b57600080fd5b505af115801561221f573d6000803e3d6000fd5b5050505050565b6000809054906101000a900473ffffffffffffffffffffffffffffffffffffffff1673ffffffffffffffffffffffffffffffffffffffff1663abfdcced823360405180807f766f7465644f6e000000000000000000000000000000000000000000000000008152506007018381526020018273ffffffffffffffffffffffffffffffffffffffff1673ffffffffffffffffffffffffffffffffffffffff166c0100000000000000000000000002815260140192505050604051809103902060016040518363ffffffff167c01000000000000000000000000000000000000000000000000000000000281526004018083600019166000191681526020018215151515815260200192505050600060405180830381600087803b15801561234b57600080fd5b505af115801561235f573d6000803e3d6000fd5b5050505050565b60008060009054906101000a900473ffffffffffffffffffffffffffffffffffffffff1673ffffffffffffffffffffffffffffffffffffffff166321f8a7218360405180807f6d656d6265724164647265737300000000000000000000000000000000000000815250600d0182815260200191505060405180910390206040518263ffffffff167c0100000000000000000000000000000000000000000000000000000000028152600401808260001916600019168152602001915050602060405180830381600087803b15801561243d57600080fd5b505af1158015612451573d6000803e3d6000fd5b505050506040513d602081101561246757600080fd5b81019080805190602001909291905050509050919050565b60008060009054906101000a900473ffffffffffffffffffffffffffffffffffffffff1673ffffffffffffffffffffffffffffffffffffffff1663bd02d0f58360405180807f726567697374726174696f6e566f7465496400000000000000000000000000008152506012018273ffffffffffffffffffffffffffffffffffffffff1673ffffffffffffffffffffffffffffffffffffffff166c0100000000000000000000000002815260140191505060405180910390206040518263ffffffff167c0100000000000000000000000000000000000000000000000000000000028152600401808260001916600019168152602001915050602060405180830381600087803b15801561259157600080fd5b505af11580156125a5573d6000803e3d6000fd5b505050506040513d60208110156125bb57600080fd5b81019080805190602001909291905050509050919050565b6000806125df33610c46565b1415156125eb57600080fd5b6125f3610a3b565b73ffffffffffffffffffffffffffffffffffffffff166323b872dd3330856040518463ffffffff167c0100000000000000000000000000000000000000000000000000000000028152600401808473ffffffffffffffffffffffffffffffffffffffff1673ffffffffffffffffffffffffffffffffffffffff1681526020018373ffffffffffffffffffffffffffffffffffffffff1673ffffffffffffffffffffffffffffffffffffffff1681526020018281526020019350505050602060405180830381600087803b1580156126c957600080fd5b505af11580156126dd573d6000803e3d6000fd5b505050506040513d60208110156126f357600080fd5b8101908080519060200190929190505050151561270f57600080fd5b612717611342565b821015151561272557600080fd5b6127406001612732611775565b6136cc90919063ffffffff16565b90506000809054906101000a900473ffffffffffffffffffffffffffffffffffffffff1673ffffffffffffffffffffffffffffffffffffffff1663ca446dd98260405180807f6d656d6265724164647265737300000000000000000000000000000000000000815250600d018281526020019150506040518091039020336040518363ffffffff167c01000000000000000000000000000000000000000000000000000000000281526004018083600019166000191681526020018273ffffffffffffffffffffffffffffffffffffffff1673ffffffffffffffffffffffffffffffffffffffff16815260200192505050600060405180830381600087803b15801561284b57600080fd5b505af115801561285f573d6000803e3d6000fd5b505050506000809054906101000a900473ffffffffffffffffffffffffffffffffffffffff1673ffffffffffffffffffffffffffffffffffffffff1663e2a4853a3360405180807f6d656d62657249640000000000000000000000000000000000000000000000008152506008018273ffffffffffffffffffffffffffffffffffffffff1673ffffffffffffffffffffffffffffffffffffffff166c010000000000000000000000000281526014019150506040518091039020836040518363ffffffff167c010000000000000000000000000000000000000000000000000000000002815260040180836000191660001916815260200182815260200192505050600060405180830381600087803b15801561297b57600080fd5b505af115801561298f573d6000803e3d6000fd5b505050506000809054906101000a900473ffffffffffffffffffffffffffffffffffffffff1673ffffffffffffffffffffffffffffffffffffffff1663e2a4853a3360405180807f7374616b65416d6f756e74000000000000000000000000000000000000000000815250600b018273ffffffffffffffffffffffffffffffffffffffff1673ffffffffffffffffffffffffffffffffffffffff166c010000000000000000000000000281526014019150506040518091039020846040518363ffffffff167c010000000000000000000000000000000000000000000000000000000002815260040180836000191660001916815260200182815260200192505050600060405180830381600087803b158015612aab57600080fd5b505af1158015612abf573d6000803e3d6000fd5b505050506000809054906101000a900473ffffffffffffffffffffffffffffffffffffffff1673ffffffffffffffffffffffffffffffffffffffff1663e2a4853a3360405180807f6a6f696e6564436f756e63696c426c6f636b48656967687400000000000000008152506018018273ffffffffffffffffffffffffffffffffffffffff1673ffffffffffffffffffffffffffffffffffffffff166c010000000000000000000000000281526014019150506040518091039020436040518363ffffffff167c010000000000000000000000000000000000000000000000000000000002815260040180836000191660001916815260200182815260200192505050600060405180830381600087803b158015612bdb57600080fd5b505af1158015612bef573d6000803e3d6000fd5b50505050612bfb6136ea565b5050565b60008060009054906101000a900473ffffffffffffffffffffffffffffffffffffffff1673ffffffffffffffffffffffffffffffffffffffff1663bd02d0f58360405180807f6d656d62657249640000000000000000000000000000000000000000000000008152506008018273ffffffffffffffffffffffffffffffffffffffff1673ffffffffffffffffffffffffffffffffffffffff166c0100000000000000000000000002815260140191505060405180910390206040518263ffffffff167c0100000000000000000000000000000000000000000000000000000000028152600401808260001916600019168152602001915050602060405180830381600087803b158015612d1157600080fd5b505af1158015612d25573d6000803e3d6000fd5b505050506040513d6020811015612d3b57600080fd5b81019080805190602001909291905050509050919050565b612d5b611cc7565b73ffffffffffffffffffffffffffffffffffffffff163373ffffffffffffffffffffffffffffffffffffffff16141515612d9457600080fd5b60008173ffffffffffffffffffffffffffffffffffffffff1614151515612dba57600080fd5b6000809054906101000a900473ffffffffffffffffffffffffffffffffffffffff1673ffffffffffffffffffffffffffffffffffffffff1663ca446dd9826040518263ffffffff167c010000000000000000000000000000000000000000000000000000000002815260040180807f74616c6c6157616c6c65740000000000000000000000000000000000000000008152506020018273ffffffffffffffffffffffffffffffffffffffff1673ffffffffffffffffffffffffffffffffffffffff168152602001915050600060405180830381600087803b158015612e9e57600080fd5b505af1158015612eb2573d6000803e3d6000fd5b5050505050565b60008060009054906101000a900473ffffffffffffffffffffffffffffffffffffffff1673ffffffffffffffffffffffffffffffffffffffff166321f8a7216040518163ffffffff167c010000000000000000000000000000000000000000000000000000000002815260040180807f646576656c6f70657252656769737472794164647265737300000000000000008152506020019050602060405180830381600087803b158015612f6b57600080fd5b505af1158015612f7f573d6000803e3d6000fd5b505050506040513d6020811015612f9557600080fd5b8101908080519060200190929190505050905090565b60003373ffffffffffffffffffffffffffffffffffffffff1614151515612fd157600080fd5b6000612fdb610ea9565b73ffffffffffffffffffffffffffffffffffffffff1663f7bc39bf336040518263ffffffff167c0100000000000000000000000000000000000000000000000000000000028152600401808273ffffffffffffffffffffffffffffffffffffffff1673ffffffffffffffffffffffffffffffffffffffff168152602001915050602060405180830381600087803b15801561307557600080fd5b505af1158015613089573d6000803e3d6000fd5b505050506040513d602081101561309f57600080fd5b8101908080519060200190929190505050141515156130bd57600080fd5b6130c56137f3565b565b6130cf610a3b565b73ffffffffffffffffffffffffffffffffffffffff1663a9059cbb336130f433610c46565b6040518363ffffffff167c0100000000000000000000000000000000000000000000000000000000028152600401808373ffffffffffffffffffffffffffffffffffffffff1673ffffffffffffffffffffffffffffffffffffffff16815260200182815260200192505050602060405180830381600087803b15801561317957600080fd5b505af115801561318d573d6000803e3d6000fd5b505050506040513d60208110156131a357600080fd5b810190808051906020019092919050505015156131bf57600080fd5b6000809054906101000a900473ffffffffffffffffffffffffffffffffffffffff1673ffffffffffffffffffffffffffffffffffffffff1663e2a4853a3360405180807f7374616b65416d6f756e74000000000000000000000000000000000000000000815250600b018273ffffffffffffffffffffffffffffffffffffffff1673ffffffffffffffffffffffffffffffffffffffff166c01000000000000000000000000028152601401915050604051809103902060006040518363ffffffff167c010000000000000000000000000000000000000000000000000000000002815260040180836000191660001916815260200182815260200192505050600060405180830381600087803b1580156132d857600080fd5b505af11580156132ec573d6000803e3d6000fd5b50505050565b6132fa611cc7565b73ffffffffffffffffffffffffffffffffffffffff163373ffffffffffffffffffffffffffffffffffffffff1614151561333357600080fd5b600073ffffffffffffffffffffffffffffffffffffffff168173ffffffffffffffffffffffffffffffffffffffff161415151561336f57600080fd5b8073ffffffffffffffffffffffffffffffffffffffff1661338e611cc7565b73ffffffffffffffffffffffffffffffffffffffff167f8be0079c531659141344cd1fd0a4f28419497f9722a3daafe3b4186f6b6457e060405160405180910390a36133d981614037565b50565b60008060009054906101000a900473ffffffffffffffffffffffffffffffffffffffff1673ffffffffffffffffffffffffffffffffffffffff1663bd02d0f56040518163ffffffff167c010000000000000000000000000000000000000000000000000000000002815260040180807f656e7472795072696365000000000000000000000000000000000000000000008152506020019050602060405180830381600087803b15801561348e57600080fd5b505af11580156134a2573d6000803e3d6000fd5b505050506040513d60208110156134b857600080fd5b8101908080519060200190929190505050905090565b6134d882336111e5565b1515156134e457600080fd5b436134ee83610b2d565b101515156134fb57600080fd5b8015613518576135138261350e33610c46565b614136565b61352b565b61352a8261352533610c46565b61423f565b5b61353482612226565b5050565b6000613542610ea9565b73ffffffffffffffffffffffffffffffffffffffff1663f7bc39bf61356684611db9565b6040518263ffffffff167c0100000000000000000000000000000000000000000000000000000000028152600401808273ffffffffffffffffffffffffffffffffffffffff1673ffffffffffffffffffffffffffffffffffffffff168152602001915050602060405180830381600087803b1580156135e457600080fd5b505af11580156135f8573d6000803e3d6000fd5b505050506040513d602081101561360e57600080fd5b81019080805190602001909291905050509050613629612003565b61363283611543565b1015156136c857613641610ea9565b73ffffffffffffffffffffffffffffffffffffffff16637ca62997826040518263ffffffff167c010000000000000000000000000000000000000000000000000000000002815260040180828152602001915050600060405180830381600087803b1580156136af57600080fd5b505af11580156136c3573d6000803e3d6000fd5b505050505b5050565b60008082840190508381101515156136e057fe5b8091505092915050565b6000809054906101000a900473ffffffffffffffffffffffffffffffffffffffff1673ffffffffffffffffffffffffffffffffffffffff1663e2a4853a60405180807f746f74616c4d656d626572730000000000000000000000000000000000000000815250600c0190506040518091039020613778600161376a611775565b6136cc90919063ffffffff16565b6040518363ffffffff167c010000000000000000000000000000000000000000000000000000000002815260040180836000191660001916815260200182815260200192505050600060405180830381600087803b1580156137d957600080fd5b505af11580156137ed573d6000803e3d6000fd5b50505050565b600080600061380133611884565b15151561380d57600080fd5b439250620186a0830191506138336001613825610d9a565b6136cc90919063ffffffff16565b90506000809054906101000a900473ffffffffffffffffffffffffffffffffffffffff1673ffffffffffffffffffffffffffffffffffffffff1663ca446dd98260405180807f726567697374726174696f6e566f7465416464726573730000000000000000008152506017018281526020019150506040518091039020336040518363ffffffff167c01000000000000000000000000000000000000000000000000000000000281526004018083600019166000191681526020018273ffffffffffffffffffffffffffffffffffffffff1673ffffffffffffffffffffffffffffffffffffffff16815260200192505050600060405180830381600087803b15801561393e57600080fd5b505af1158015613952573d6000803e3d6000fd5b505050506000809054906101000a900473ffffffffffffffffffffffffffffffffffffffff1673ffffffffffffffffffffffffffffffffffffffff1663e2a4853a3360405180807f726567697374726174696f6e566f7465496400000000000000000000000000008152506012018273ffffffffffffffffffffffffffffffffffffffff1673ffffffffffffffffffffffffffffffffffffffff166c010000000000000000000000000281526014019150506040518091039020836040518363ffffffff167c010000000000000000000000000000000000000000000000000000000002815260040180836000191660001916815260200182815260200192505050600060405180830381600087803b158015613a6e57600080fd5b505af1158015613a82573d6000803e3d6000fd5b505050506000809054906101000a900473ffffffffffffffffffffffffffffffffffffffff1673ffffffffffffffffffffffffffffffffffffffff1663abfdcced3360405180807f726567697374726174696f6e566f7465457869737473000000000000000000008152506016018273ffffffffffffffffffffffffffffffffffffffff1673ffffffffffffffffffffffffffffffffffffffff166c01000000000000000000000000028152601401915050604051809103902060016040518363ffffffff167c01000000000000000000000000000000000000000000000000000000000281526004018083600019166000191681526020018215151515815260200192505050600060405180830381600087803b158015613ba357600080fd5b505af1158015613bb7573d6000803e3d6000fd5b505050506000809054906101000a900473ffffffffffffffffffffffffffffffffffffffff1673ffffffffffffffffffffffffffffffffffffffff1663e2a4853a8260405180807f726567697374726174696f6e566f7465496e697469616c426c6f636b00000000815250601c018281526020019150506040518091039020856040518363ffffffff167c010000000000000000000000000000000000000000000000000000000002815260040180836000191660001916815260200182815260200192505050600060405180830381600087803b158015613c9857600080fd5b505af1158015613cac573d6000803e3d6000fd5b505050506000809054906101000a900473ffffffffffffffffffffffffffffffffffffffff1673ffffffffffffffffffffffffffffffffffffffff1663e2a4853a8260405180807f726567697374726174696f6e566f746546696e616c426c6f636b000000000000815250601a018281526020019150506040518091039020846040518363ffffffff167c010000000000000000000000000000000000000000000000000000000002815260040180836000191660001916815260200182815260200192505050600060405180830381600087803b158015613d8d57600080fd5b505af1158015613da1573d6000803e3d6000fd5b505050506000809054906101000a900473ffffffffffffffffffffffffffffffffffffffff1673ffffffffffffffffffffffffffffffffffffffff1663e2a4853a8260405180807f726567697374726174696f6e566f7465596179436f756e740000000000000000815250601801828152602001915050604051809103902060006040518363ffffffff167c010000000000000000000000000000000000000000000000000000000002815260040180836000191660001916815260200182815260200192505050600060405180830381600087803b158015613e8357600080fd5b505af1158015613e97573d6000803e3d6000fd5b505050506000809054906101000a900473ffffffffffffffffffffffffffffffffffffffff1673ffffffffffffffffffffffffffffffffffffffff1663e2a4853a8260405180807f726567697374726174696f6e566f74654e6179436f756e740000000000000000815250601801828152602001915050604051809103902060006040518363ffffffff167c010000000000000000000000000000000000000000000000000000000002815260040180836000191660001916815260200182815260200192505050600060405180830381600087803b158015613f7957600080fd5b505af1158015613f8d573d6000803e3d6000fd5b50505050613f99614348565b7f7fbc806a315ef36b3174eaf05d9420464f2bb0105ac87536eb88531485457695818484336000806000604051808881526020018781526020018681526020018573ffffffffffffffffffffffffffffffffffffffff1673ffffffffffffffffffffffffffffffffffffffff1681526020018481526020018381526020018215151515815260200197505050505050505060405180910390a1505050565b6000809054906101000a900473ffffffffffffffffffffffffffffffffffffffff1673ffffffffffffffffffffffffffffffffffffffff1663ca446dd9826040518263ffffffff167c010000000000000000000000000000000000000000000000000000000002815260040180807f6f776e65720000000000000000000000000000000000000000000000000000008152506020018273ffffffffffffffffffffffffffffffffffffffff1673ffffffffffffffffffffffffffffffffffffffff168152602001915050600060405180830381600087803b15801561411b57600080fd5b505af115801561412f573d6000803e3d6000fd5b5050505050565b600061414183611543565b90506000809054906101000a900473ffffffffffffffffffffffffffffffffffffffff1673ffffffffffffffffffffffffffffffffffffffff1663e2a4853a8460405180807f726567697374726174696f6e566f7465596179436f756e74000000000000000081525060180182815260200191505060405180910390208484016040518363ffffffff167c010000000000000000000000000000000000000000000000000000000002815260040180836000191660001916815260200182815260200192505050600060405180830381600087803b15801561422257600080fd5b505af1158015614236573d6000803e3d6000fd5b50505050505050565b600061424a836110cc565b90506000809054906101000a900473ffffffffffffffffffffffffffffffffffffffff1673ffffffffffffffffffffffffffffffffffffffff1663e2a4853a8460405180807f726567697374726174696f6e566f74654e6179436f756e74000000000000000081525060180182815260200191505060405180910390208484016040518363ffffffff167c010000000000000000000000000000000000000000000000000000000002815260040180836000191660001916815260200182815260200192505050600060405180830381600087803b15801561432b57600080fd5b505af115801561433f573d6000803e3d6000fd5b50505050505050565b6000809054906101000a900473ffffffffffffffffffffffffffffffffffffffff1673ffffffffffffffffffffffffffffffffffffffff1663e2a4853a60405180807f746f74616c566f74657300000000000000000000000000000000000000000000815250600a01905060405180910390206143d660016143c8610d9a565b6136cc90919063ffffffff16565b6040518363ffffffff167c010000000000000000000000000000000000000000000000000000000002815260040180836000191660001916815260200182815260200192505050600060405180830381600087803b15801561443757600080fd5b505af115801561444b573d6000803e3d6000fd5b505050505600a165627a7a72305820caf6992e1de081f734bb29acdd3a83f7cc7c8ae7a2be1ea6320efc0df1251aff0029",
  "source": "pragma solidity ^0.4.18;\n\nimport 'zeppelin-solidity/contracts/math/SafeMath.sol';\nimport './BotCoinPayableRegistry.sol';\nimport \"../DeveloperRegistryInterface.sol\";\nimport \"./VoteRegistry.sol\";\n\n/**\n* @title CurationCouncilRegistry\n*/\ncontract CurationCouncilRegistry is BotCoinPayableRegistry, VoteRegistry {\n  using SafeMath for uint256;\n\n  /** @dev Constructor for CurationCouncilRegistry */\n  constructor(BaseStorage storage_)\n    BotCoinPayableRegistry(storage_)\n    VoteRegistry(storage_)\n    public\n  {}\n\n  function developerRegistry() public view returns (DeveloperRegistryInterface) {\n    return DeveloperRegistryInterface(_storage.getAddress('developerRegistryAddress'));\n  }\n\n  function developerRegistryAddress() public view returns (address) {\n    return _storage.getAddress('developerRegistryAddress');\n  }\n\n  function changeDeveloperRegistry(address addr) onlyOwner public {\n    require(addr != 0x0);\n    _storage.setAddress('developerRegistryAddress', addr);\n  }\n\n  /**\n  * @dev Get current stake amount for council member \n  * @param memberAddress ETH address of council member\n  * @return uint256 Amount of BOTC staked by council member\n  */\n  function getStakeAmount(address memberAddress) public view returns (uint256) {\n    return _storage.getUint(keccak256(\"stakeAmount\", memberAddress));\n  }\n\n  function getJoinedCouncilBlockHeight(address memberAddress) public view returns (uint256) {\n    return _storage.getUint(keccak256(\"joinedCouncilBlockHeight\", msg.sender));\n  }\n\n  function getMemberAddressById(uint256 memberId) public view returns (address) {\n    return _storage.getAddress(keccak256(\"memberAddress\", memberId));\n  }\n\n  function getMemberIdByAddress(address memberAddress) public view returns (uint256) {\n    return _storage.getUint(keccak256(\"memberId\", memberAddress));\n  }\n\n  function totalMembers() public view returns (uint256) {\n    return _storage.getUint(keccak256(\"totalMembers\"));\n  }\n\n  function incrementTotalMembers() internal {\n    _storage.setUint(keccak256(\"totalMembers\"), totalMembers().add(1));\n  }\n\n  function setMinStake(uint256 amount) onlyOwner public {\n    _storage.setUint(keccak256(\"minStakeAmount\"), amount);\n  }\n\n  function getMinStake() public view returns (uint256) {\n    return _storage.getUint(keccak256(\"minStakeAmount\"));\n  }\n\n  /**\n  * @dev Join council by staking BOTC \n  * @param stakeAmount amount of BOTC in wei\n  */\n  function joinCouncil(uint256 stakeAmount) public {\n    require(getStakeAmount(msg.sender) == 0);\n    require(botCoin().transferFrom(msg.sender, this, stakeAmount));\n    require(stakeAmount >= getMinStake());\n\n    uint256 memberId = totalMembers().add(1);\n    _storage.setAddress(keccak256(\"memberAddress\", memberId), msg.sender);\n    _storage.setUint(keccak256(\"memberId\", msg.sender), memberId);\n    _storage.setUint(keccak256(\"stakeAmount\", msg.sender), stakeAmount);\n    _storage.setUint(keccak256(\"joinedCouncilBlockHeight\", msg.sender), block.number);\n    incrementTotalMembers();\n  }\n\n  /**\n  * @dev Leave council staked BOTC will be returned by contract\n  */\n  function leaveCouncil() public {\n    require(botCoin().transfer(msg.sender, getStakeAmount(msg.sender)));\n    _storage.setUint(keccak256(\"stakeAmount\", msg.sender), 0);\n  }\n\n  /**\n  * @dev Creates a new registration vote\n  */\n  function createRegistrationVote() public {\n    require(msg.sender != 0x0);\n    require(developerRegistry().owns(msg.sender) != 0);\n\n    super.createRegistrationVote();\n  }\n\n  /**\n  * @dev Casts registration vote\n  * @param registrationVoteId The ID of the developer registration vote\n  * @param vote true for yay false for nay\n  */\n  function castRegistrationVote(uint256 registrationVoteId, bool vote) public {\n    require(getJoinedCouncilBlockHeight(msg.sender) < getVoteInitialBlock(registrationVoteId));\n    super.castRegistrationVote(registrationVoteId, vote);\n    checkAutoApprove(registrationVoteId);\n  }\n\n  function getAutoApproveThreshold() public view returns (uint256) {\n    return _storage.getUint(keccak256(\"autoApproveThreshold\"));\n  }\n\n  function setAutoApproveThreshold(uint256 threshold) public onlyOwner {\n    _storage.setUint(keccak256(\"autoApproveThreshold\"), threshold);\n  }\n\n  function checkAutoApprove(uint256 registrationVoteId) internal {\n    uint256 developerId = developerRegistry().owns(getRegistrationVoteAddressById(registrationVoteId));\n    if (getYayCount(registrationVoteId) >= getAutoApproveThreshold()) {\n      developerRegistry().grantApproval(developerId);\n    }\n  }\n\n\n}\n",
  "sourcePath": "/Users/jaybyoun/developer/botchain/contracts/Registry/CurationCouncilRegistry.sol",
  "compiler": {
    "name": "solc",
    "version": "0.4.24+commit.e67f0147.Emscripten.clang"
  },
  "schemaVersion": "2.0.1",
  "updatedAt": "2018-11-05T17:42:03.486Z"
}