{
  "contractName": "DeveloperRegistryDelegate",
  "abi": [
    {
      "constant": true,
      "inputs": [],
      "name": "botCoin",
      "outputs": [
        {
          "name": "",
          "type": "address"
        }
      ],
      "payable": false,
      "stateMutability": "view",
      "type": "function"
    },
    {
      "constant": false,
      "inputs": [
        {
          "name": "_to",
          "type": "address"
        },
        {
          "name": "_tokenId",
          "type": "uint256"
        }
      ],
      "name": "approve",
      "outputs": [],
      "payable": false,
      "stateMutability": "nonpayable",
      "type": "function"
    },
    {
      "constant": true,
      "inputs": [],
      "name": "totalSupply",
      "outputs": [
        {
          "name": "",
          "type": "uint256"
        }
      ],
      "payable": false,
      "stateMutability": "view",
      "type": "function"
    },
    {
      "constant": true,
      "inputs": [
        {
          "name": "_tokenId",
          "type": "uint256"
        }
      ],
      "name": "approvedFor",
      "outputs": [
        {
          "name": "",
          "type": "address"
        }
      ],
      "payable": false,
      "stateMutability": "view",
      "type": "function"
    },
    {
      "constant": true,
      "inputs": [
        {
          "name": "_entryId",
          "type": "uint256"
        }
      ],
      "name": "approvalStatus",
      "outputs": [
        {
          "name": "",
          "type": "bool"
        }
      ],
      "payable": false,
      "stateMutability": "view",
      "type": "function"
    },
    {
      "constant": true,
      "inputs": [
        {
          "name": "_owner",
          "type": "address"
        }
      ],
      "name": "tokensOf",
      "outputs": [
        {
          "name": "",
          "type": "uint256[]"
        }
      ],
      "payable": false,
      "stateMutability": "view",
      "type": "function"
    },
    {
      "constant": true,
      "inputs": [
        {
          "name": "_tokenId",
          "type": "uint256"
        }
      ],
      "name": "ownerOf",
      "outputs": [
        {
          "name": "",
          "type": "address"
        }
      ],
      "payable": false,
      "stateMutability": "view",
      "type": "function"
    },
    {
      "constant": true,
      "inputs": [],
      "name": "tallaWallet",
      "outputs": [
        {
          "name": "",
          "type": "address"
        }
      ],
      "payable": false,
      "stateMutability": "view",
      "type": "function"
    },
    {
      "constant": true,
      "inputs": [
        {
          "name": "_owner",
          "type": "address"
        }
      ],
      "name": "balanceOf",
      "outputs": [
        {
          "name": "",
          "type": "uint256"
        }
      ],
      "payable": false,
      "stateMutability": "view",
      "type": "function"
    },
    {
      "constant": false,
      "inputs": [
        {
          "name": "newArbiter",
          "type": "address"
        }
      ],
      "name": "changeArbiter",
      "outputs": [],
      "payable": false,
      "stateMutability": "nonpayable",
      "type": "function"
    },
    {
      "constant": false,
      "inputs": [
        {
          "name": "_entryId",
          "type": "uint256"
        }
      ],
      "name": "grantApproval",
      "outputs": [],
      "payable": false,
      "stateMutability": "nonpayable",
      "type": "function"
    },
    {
      "constant": true,
      "inputs": [],
      "name": "getOwner",
      "outputs": [
        {
          "name": "",
          "type": "address"
        }
      ],
      "payable": false,
      "stateMutability": "view",
      "type": "function"
    },
    {
      "constant": false,
      "inputs": [
        {
          "name": "entryPrice",
          "type": "uint256"
        }
      ],
      "name": "setEntryPrice",
      "outputs": [],
      "payable": false,
      "stateMutability": "nonpayable",
      "type": "function"
    },
    {
      "constant": false,
      "inputs": [
        {
          "name": "_to",
          "type": "address"
        },
        {
          "name": "_tokenId",
          "type": "uint256"
        }
      ],
      "name": "transfer",
      "outputs": [],
      "payable": false,
      "stateMutability": "nonpayable",
      "type": "function"
    },
    {
      "constant": false,
      "inputs": [
        {
          "name": "_entryId",
          "type": "uint256"
        }
      ],
      "name": "revokeApproval",
      "outputs": [],
      "payable": false,
      "stateMutability": "nonpayable",
      "type": "function"
    },
    {
      "constant": false,
      "inputs": [
        {
          "name": "_tokenId",
          "type": "uint256"
        }
      ],
      "name": "takeOwnership",
      "outputs": [],
      "payable": false,
      "stateMutability": "nonpayable",
      "type": "function"
    },
    {
      "constant": true,
      "inputs": [],
      "name": "getArbiter",
      "outputs": [
        {
          "name": "",
          "type": "address"
        }
      ],
      "payable": false,
      "stateMutability": "view",
      "type": "function"
    },
    {
      "constant": false,
      "inputs": [
        {
          "name": "tallaWallet",
          "type": "address"
        }
      ],
      "name": "setTallaWallet",
      "outputs": [],
      "payable": false,
      "stateMutability": "nonpayable",
      "type": "function"
    },
    {
      "constant": false,
      "inputs": [
        {
          "name": "newOwner",
          "type": "address"
        }
      ],
      "name": "transferOwnership",
      "outputs": [],
      "payable": false,
      "stateMutability": "nonpayable",
      "type": "function"
    },
    {
      "constant": true,
      "inputs": [],
      "name": "entryPrice",
      "outputs": [
        {
          "name": "",
          "type": "uint256"
        }
      ],
      "payable": false,
      "stateMutability": "view",
      "type": "function"
    },
    {
      "inputs": [
        {
          "name": "storage_",
          "type": "address"
        }
      ],
      "payable": false,
      "stateMutability": "nonpayable",
      "type": "constructor"
    },
    {
      "anonymous": false,
      "inputs": [
        {
          "indexed": false,
          "name": "owner",
          "type": "address"
        },
        {
          "indexed": false,
          "name": "developerId",
          "type": "uint256"
        },
        {
          "indexed": false,
          "name": "IpfsDigest",
          "type": "bytes32"
        },
        {
          "indexed": false,
          "name": "IpfsFnCode",
          "type": "uint8"
        },
        {
          "indexed": false,
          "name": "IpfsSize",
          "type": "uint8"
        }
      ],
      "name": "DeveloperAdded",
      "type": "event"
    },
    {
      "anonymous": false,
      "inputs": [
        {
          "indexed": true,
          "name": "_from",
          "type": "address"
        },
        {
          "indexed": true,
          "name": "_to",
          "type": "address"
        },
        {
          "indexed": false,
          "name": "_tokenId",
          "type": "uint256"
        }
      ],
      "name": "Transfer",
      "type": "event"
    },
    {
      "anonymous": false,
      "inputs": [
        {
          "indexed": true,
          "name": "_owner",
          "type": "address"
        },
        {
          "indexed": true,
          "name": "_approved",
          "type": "address"
        },
        {
          "indexed": false,
          "name": "_tokenId",
          "type": "uint256"
        }
      ],
      "name": "Approval",
      "type": "event"
    },
    {
      "anonymous": false,
      "inputs": [
        {
          "indexed": false,
          "name": "entryId",
          "type": "uint256"
        }
      ],
      "name": "ApprovalGranted",
      "type": "event"
    },
    {
      "anonymous": false,
      "inputs": [
        {
          "indexed": false,
          "name": "entryId",
          "type": "uint256"
        }
      ],
      "name": "ApprovalRevoked",
      "type": "event"
    },
    {
      "anonymous": false,
      "inputs": [
        {
          "indexed": true,
          "name": "previousArbiter",
          "type": "address"
        },
        {
          "indexed": true,
          "name": "newArbiter",
          "type": "address"
        }
      ],
      "name": "ArbiterChange",
      "type": "event"
    },
    {
      "anonymous": false,
      "inputs": [
        {
          "indexed": true,
          "name": "previousOwner",
          "type": "address"
        },
        {
          "indexed": true,
          "name": "newOwner",
          "type": "address"
        }
      ],
      "name": "OwnershipTransferred",
      "type": "event"
    },
    {
      "constant": true,
      "inputs": [
        {
          "name": "developerId",
          "type": "uint256"
        }
      ],
      "name": "developerIpfs",
      "outputs": [
        {
          "name": "digest",
          "type": "bytes32"
        },
        {
          "name": "fnCode",
          "type": "uint8"
        },
        {
          "name": "size",
          "type": "uint8"
        }
      ],
      "payable": false,
      "stateMutability": "view",
      "type": "function"
    },
    {
      "constant": true,
      "inputs": [
        {
          "name": "owner",
          "type": "address"
        }
      ],
      "name": "owns",
      "outputs": [
        {
          "name": "",
          "type": "uint256"
        }
      ],
      "payable": false,
      "stateMutability": "view",
      "type": "function"
    },
    {
      "constant": true,
      "inputs": [
        {
          "name": "_developerId",
          "type": "uint256"
        }
      ],
      "name": "ownerOfEntry",
      "outputs": [
        {
          "name": "_owner",
          "type": "address"
        }
      ],
      "payable": false,
      "stateMutability": "view",
      "type": "function"
    },
    {
      "constant": true,
      "inputs": [
        {
          "name": "minter",
          "type": "address"
        },
        {
          "name": "_developerId",
          "type": "uint256"
        }
      ],
      "name": "mintingAllowed",
      "outputs": [
        {
          "name": "",
          "type": "bool"
        }
      ],
      "payable": false,
      "stateMutability": "view",
      "type": "function"
    },
    {
      "constant": false,
      "inputs": [
        {
          "name": "IpfsDigest",
          "type": "bytes32"
        },
        {
          "name": "IpfsFnCode",
          "type": "uint8"
        },
        {
          "name": "IpfsSize",
          "type": "uint8"
        }
      ],
      "name": "addDeveloper",
      "outputs": [],
      "payable": false,
      "stateMutability": "nonpayable",
      "type": "function"
    }
  ],
  "bytecode": "0x60806040523480156200001157600080fd5b5060405160208062003af6833981018060405281019080805190602001909291905050508081823081818486806000806101000a81548173ffffffffffffffffffffffffffffffffffffffff021916908373ffffffffffffffffffffffffffffffffffffffff1602179055505060008173ffffffffffffffffffffffffffffffffffffffff16141515620000ba57620000b93362000104640100000000026401000000009004565b5b5060008173ffffffffffffffffffffffffffffffffffffffff16141515620000f757620000f68162000205640100000000026401000000009004565b5b5050505050505062000306565b6000809054906101000a900473ffffffffffffffffffffffffffffffffffffffff1673ffffffffffffffffffffffffffffffffffffffff1663ca446dd9826040518263ffffffff167c010000000000000000000000000000000000000000000000000000000002815260040180807f6f776e65720000000000000000000000000000000000000000000000000000008152506020018273ffffffffffffffffffffffffffffffffffffffff1673ffffffffffffffffffffffffffffffffffffffff168152602001915050600060405180830381600087803b158015620001e957600080fd5b505af1158015620001fe573d6000803e3d6000fd5b5050505050565b6000809054906101000a900473ffffffffffffffffffffffffffffffffffffffff1673ffffffffffffffffffffffffffffffffffffffff1663ca446dd9826040518263ffffffff167c010000000000000000000000000000000000000000000000000000000002815260040180807f61726269746572000000000000000000000000000000000000000000000000008152506020018273ffffffffffffffffffffffffffffffffffffffff1673ffffffffffffffffffffffffffffffffffffffff168152602001915050600060405180830381600087803b158015620002ea57600080fd5b505af1158015620002ff573d6000803e3d6000fd5b5050505050565b6137e080620003166000396000f300608060405260043610610149576000357c0100000000000000000000000000000000000000000000000000000000900463ffffffff168063047913ce1461014e578063095ea7b3146101a557806318160ddd146101f25780632a6dd48f1461021d5780634bf5efe61461028a5780635a3f2672146102cf5780635cebcb98146103675780636352211e146103ca5780636f1d88841461043757806370a082311461048e57806376cfa312146104e55780637ca629971461052857806381f9c85114610555578063893d20e8146105a05780639bf4e324146105f7578063a6e77af11461065c578063a9059cbb14610689578063b1e130fc146106d6578063b2e6ceeb14610703578063ce03ffc914610730578063cffe00f91461079d578063dcbd32fe146107f4578063f2fde38b14610837578063f745adfc1461087a578063f7bc39bf146108a5575b600080fd5b34801561015a57600080fd5b506101636108fc565b604051808273ffffffffffffffffffffffffffffffffffffffff1673ffffffffffffffffffffffffffffffffffffffff16815260200191505060405180910390f35b3480156101b157600080fd5b506101f0600480360381019080803573ffffffffffffffffffffffffffffffffffffffff169060200190929190803590602001909291905050506109ee565b005b3480156101fe57600080fd5b50610207610b39565b6040518082815260200191505060405180910390f35b34801561022957600080fd5b5061024860048036038101908080359060200190929190505050610c2b565b604051808273ffffffffffffffffffffffffffffffffffffffff1673ffffffffffffffffffffffffffffffffffffffff16815260200191505060405180910390f35b34801561029657600080fd5b506102b560048036038101908080359060200190929190505050610c3d565b604051808215151515815260200191505060405180910390f35b3480156102db57600080fd5b50610310600480360381019080803573ffffffffffffffffffffffffffffffffffffffff169060200190929190505050610d56565b6040518080602001828103825283818151815260200191508051906020019060200280838360005b83811015610353578082015181840152602081019050610338565b505050509050019250505060405180910390f35b34801561037357600080fd5b5061039260048036038101908080359060200190929190505050610de6565b6040518084600019166000191681526020018360ff1660ff1681526020018260ff1660ff168152602001935050505060405180910390f35b3480156103d657600080fd5b506103f560048036038101908080359060200190929190505050610f1c565b604051808273ffffffffffffffffffffffffffffffffffffffff1673ffffffffffffffffffffffffffffffffffffffff16815260200191505060405180910390f35b34801561044357600080fd5b5061044c610f6f565b604051808273ffffffffffffffffffffffffffffffffffffffff1673ffffffffffffffffffffffffffffffffffffffff16815260200191505060405180910390f35b34801561049a57600080fd5b506104cf600480360381019080803573ffffffffffffffffffffffffffffffffffffffff169060200190929190505050611061565b6040518082815260200191505060405180910390f35b3480156104f157600080fd5b50610526600480360381019080803573ffffffffffffffffffffffffffffffffffffffff1690602001909291905050506111b5565b005b34801561053457600080fd5b506105536004803603810190808035906020019092919050505061129f565b005b34801561056157600080fd5b5061059e6004803603810190808035600019169060200190929190803560ff169060200190929190803560ff16906020019092919050505061138b565b005b3480156105ac57600080fd5b506105b56114c2565b604051808273ffffffffffffffffffffffffffffffffffffffff1673ffffffffffffffffffffffffffffffffffffffff16815260200191505060405180910390f35b34801561060357600080fd5b50610642600480360381019080803573ffffffffffffffffffffffffffffffffffffffff169060200190929190803590602001909291905050506115b4565b604051808215151515815260200191505060405180910390f35b34801561066857600080fd5b506106876004803603810190808035906020019092919050505061160d565b005b34801561069557600080fd5b506106d4600480360381019080803573ffffffffffffffffffffffffffffffffffffffff16906020019092919080359060200190929190505050611721565b005b3480156106e257600080fd5b5061070160048036038101908080359060200190929190505050611774565b005b34801561070f57600080fd5b5061072e60048036038101908080359060200190929190505050611822565b005b34801561073c57600080fd5b5061075b6004803603810190808035906020019092919050505061184d565b604051808273ffffffffffffffffffffffffffffffffffffffff1673ffffffffffffffffffffffffffffffffffffffff16815260200191505060405180910390f35b3480156107a957600080fd5b506107b261185f565b604051808273ffffffffffffffffffffffffffffffffffffffff1673ffffffffffffffffffffffffffffffffffffffff16815260200191505060405180910390f35b34801561080057600080fd5b50610835600480360381019080803573ffffffffffffffffffffffffffffffffffffffff169060200190929190505050611951565b005b34801561084357600080fd5b50610878600480360381019080803573ffffffffffffffffffffffffffffffffffffffff169060200190929190505050611ab7565b005b34801561088657600080fd5b5061088f611ba1565b6040518082815260200191505060405180910390f35b3480156108b157600080fd5b506108e6600480360381019080803573ffffffffffffffffffffffffffffffffffffffff169060200190929190505050611c93565b6040518082815260200191505060405180910390f35b60008060009054906101000a900473ffffffffffffffffffffffffffffffffffffffff1673ffffffffffffffffffffffffffffffffffffffff166321f8a7216040518163ffffffff167c010000000000000000000000000000000000000000000000000000000002815260040180807f626f74436f696e416464726573730000000000000000000000000000000000008152506020019050602060405180830381600087803b1580156109ae57600080fd5b505af11580156109c2573d6000803e3d6000fd5b505050506040513d60208110156109d857600080fd5b8101908080519060200190929190505050905090565b6000813373ffffffffffffffffffffffffffffffffffffffff16610a1182610f1c565b73ffffffffffffffffffffffffffffffffffffffff16141515610a3357600080fd5b610a3c83610f1c565b91508173ffffffffffffffffffffffffffffffffffffffff168473ffffffffffffffffffffffffffffffffffffffff1614151515610a7957600080fd5b6000610a8484610c2b565b73ffffffffffffffffffffffffffffffffffffffff16141580610abe575060008473ffffffffffffffffffffffffffffffffffffffff1614155b15610b3357610acd8385611de7565b8373ffffffffffffffffffffffffffffffffffffffff168273ffffffffffffffffffffffffffffffffffffffff167f8c5be1e5ebec7d5bd14f71427d1e84f3dd0314c0f7b2291e5b200ac8c7c3b925856040518082815260200191505060405180910390a35b50505050565b60008060009054906101000a900473ffffffffffffffffffffffffffffffffffffffff1673ffffffffffffffffffffffffffffffffffffffff1663bd02d0f56040518163ffffffff167c010000000000000000000000000000000000000000000000000000000002815260040180807f746f74616c546f6b656e730000000000000000000000000000000000000000008152506020019050602060405180830381600087803b158015610beb57600080fd5b505af1158015610bff573d6000803e3d6000fd5b505050506040513d6020811015610c1557600080fd5b8101908080519060200190929190505050905090565b6000610c3682611f0c565b9050919050565b60008060009054906101000a900473ffffffffffffffffffffffffffffffffffffffff1673ffffffffffffffffffffffffffffffffffffffff16637ae1cfca8360405180807f617070726f76616c537461747573000000000000000000000000000000000000815250600e0182815260200191505060405180910390206040518263ffffffff167c0100000000000000000000000000000000000000000000000000000000028152600401808260001916600019168152602001915050602060405180830381600087803b158015610d1457600080fd5b505af1158015610d28573d6000803e3d6000fd5b505050506040513d6020811015610d3e57600080fd5b81019080805190602001909291905050509050919050565b6060600060606000610d6785611061565b925082604051908082528060200260200182016040528015610d985781602001602082028038833980820191505090505b509150600090505b82811015610ddb57610db28582612025565b8282815181101515610dc057fe5b90602001906020020181815250508080600101915050610da0565b819350505050919050565b60008060008060009054906101000a900473ffffffffffffffffffffffffffffffffffffffff1673ffffffffffffffffffffffffffffffffffffffff16636d448c948560405180807f646576656c6f706572497066734861736800000000000000000000000000000081525060110182815260200191505060405180910390206040518263ffffffff167c0100000000000000000000000000000000000000000000000000000000028152600401808260001916600019168152602001915050606060405180830381600087803b158015610ec057600080fd5b505af1158015610ed4573d6000803e3d6000fd5b505050506040513d6060811015610eea57600080fd5b810190808051906020019092919080519060200190929190805190602001909291905050509250925092509193909250565b600080610f2883612182565b9050600073ffffffffffffffffffffffffffffffffffffffff168173ffffffffffffffffffffffffffffffffffffffff1614151515610f6657600080fd5b80915050919050565b60008060009054906101000a900473ffffffffffffffffffffffffffffffffffffffff1673ffffffffffffffffffffffffffffffffffffffff166321f8a7216040518163ffffffff167c010000000000000000000000000000000000000000000000000000000002815260040180807f74616c6c6157616c6c65740000000000000000000000000000000000000000008152506020019050602060405180830381600087803b15801561102157600080fd5b505af1158015611035573d6000803e3d6000fd5b505050506040513d602081101561104b57600080fd5b8101908080519060200190929190505050905090565b60008060009054906101000a900473ffffffffffffffffffffffffffffffffffffffff1673ffffffffffffffffffffffffffffffffffffffff1663bd02d0f58360405180807f6f776e657242616c616e63657300000000000000000000000000000000000000815250600d018273ffffffffffffffffffffffffffffffffffffffff1673ffffffffffffffffffffffffffffffffffffffff166c0100000000000000000000000002815260140191505060405180910390206040518263ffffffff167c0100000000000000000000000000000000000000000000000000000000028152600401808260001916600019168152602001915050602060405180830381600087803b15801561117357600080fd5b505af1158015611187573d6000803e3d6000fd5b505050506040513d602081101561119d57600080fd5b81019080805190602001909291905050509050919050565b6111bd6114c2565b73ffffffffffffffffffffffffffffffffffffffff163373ffffffffffffffffffffffffffffffffffffffff161415156111f657600080fd5b600073ffffffffffffffffffffffffffffffffffffffff168173ffffffffffffffffffffffffffffffffffffffff161415151561123257600080fd5b8073ffffffffffffffffffffffffffffffffffffffff1661125161185f565b73ffffffffffffffffffffffffffffffffffffffff167f0235cc560a61b22b1b05325679baabe0bfed9269fa7337232e6de194c90fcca560405160405180910390a361129c8161229b565b50565b6112a76114c2565b73ffffffffffffffffffffffffffffffffffffffff163373ffffffffffffffffffffffffffffffffffffffff16148061131257506112e361185f565b73ffffffffffffffffffffffffffffffffffffffff163373ffffffffffffffffffffffffffffffffffffffff16145b151561131d57600080fd5b6113268161239a565b151561133157600080fd5b61133a81610c3d565b15151561134657600080fd5b6113518160016123c5565b7ffd9d9585c7e646ed46689240252bb11f3229ac41fd7e8ef6a81c9e5e14760802816040518082815260200191505060405180910390a150565b60008061139733611c93565b1415156113a357600080fd5b60006001028460001916141515156113ba57600080fd5b60008360ff16141515156113cd57600080fd5b60008260ff16141515156113e057600080fd5b6113fb60016113ed610b39565b6124c290919063ffffffff16565b9050611409818585856124e0565b61141333826125ff565b61141b612733565b611425338261285d565b7fe9972d1b295c836797d0b12d1f45371c4dda0f6c2c709e32212c77b515ed93673382868686604051808673ffffffffffffffffffffffffffffffffffffffff1673ffffffffffffffffffffffffffffffffffffffff16815260200185815260200184600019166000191681526020018360ff1660ff1681526020018260ff1660ff1681526020019550505050505060405180910390a150505050565b60008060009054906101000a900473ffffffffffffffffffffffffffffffffffffffff1673ffffffffffffffffffffffffffffffffffffffff166321f8a7216040518163ffffffff167c010000000000000000000000000000000000000000000000000000000002815260040180807f6f776e65720000000000000000000000000000000000000000000000000000008152506020019050602060405180830381600087803b15801561157457600080fd5b505af1158015611588573d6000803e3d6000fd5b505050506040513d602081101561159e57600080fd5b8101908080519060200190929190505050905090565b60008273ffffffffffffffffffffffffffffffffffffffff166115d683610f1c565b73ffffffffffffffffffffffffffffffffffffffff1614801561160557506001151561160183610c3d565b1515145b905092915050565b6116156114c2565b73ffffffffffffffffffffffffffffffffffffffff163373ffffffffffffffffffffffffffffffffffffffff1614151561164e57600080fd5b6000809054906101000a900473ffffffffffffffffffffffffffffffffffffffff1673ffffffffffffffffffffffffffffffffffffffff1663e2a4853a826040518263ffffffff167c010000000000000000000000000000000000000000000000000000000002815260040180807f656e747279507269636500000000000000000000000000000000000000000000815250602001828152602001915050600060405180830381600087803b15801561170657600080fd5b505af115801561171a573d6000803e3d6000fd5b5050505050565b803373ffffffffffffffffffffffffffffffffffffffff1661174282610f1c565b73ffffffffffffffffffffffffffffffffffffffff1614151561176457600080fd5b61176f3384846128f7565b505050565b61177c6114c2565b73ffffffffffffffffffffffffffffffffffffffff163373ffffffffffffffffffffffffffffffffffffffff161415156117b557600080fd5b6117be8161239a565b15156117c957600080fd5b6117d281610c3d565b15156117dd57600080fd5b6117e88160006123c5565b7fb6718bd6b02cdd14f759530c19e5a31b0e130155a6b0df289a78a46aabbeebc4816040518082815260200191505060405180910390a150565b61182c3382612a40565b151561183757600080fd5b61184a61184382610f1c565b33836128f7565b50565b600061185882610f1c565b9050919050565b60008060009054906101000a900473ffffffffffffffffffffffffffffffffffffffff1673ffffffffffffffffffffffffffffffffffffffff166321f8a7216040518163ffffffff167c010000000000000000000000000000000000000000000000000000000002815260040180807f61726269746572000000000000000000000000000000000000000000000000008152506020019050602060405180830381600087803b15801561191157600080fd5b505af1158015611925573d6000803e3d6000fd5b505050506040513d602081101561193b57600080fd5b8101908080519060200190929190505050905090565b6119596114c2565b73ffffffffffffffffffffffffffffffffffffffff163373ffffffffffffffffffffffffffffffffffffffff1614151561199257600080fd5b60008173ffffffffffffffffffffffffffffffffffffffff16141515156119b857600080fd5b6000809054906101000a900473ffffffffffffffffffffffffffffffffffffffff1673ffffffffffffffffffffffffffffffffffffffff1663ca446dd9826040518263ffffffff167c010000000000000000000000000000000000000000000000000000000002815260040180807f74616c6c6157616c6c65740000000000000000000000000000000000000000008152506020018273ffffffffffffffffffffffffffffffffffffffff1673ffffffffffffffffffffffffffffffffffffffff168152602001915050600060405180830381600087803b158015611a9c57600080fd5b505af1158015611ab0573d6000803e3d6000fd5b5050505050565b611abf6114c2565b73ffffffffffffffffffffffffffffffffffffffff163373ffffffffffffffffffffffffffffffffffffffff16141515611af857600080fd5b600073ffffffffffffffffffffffffffffffffffffffff168173ffffffffffffffffffffffffffffffffffffffff1614151515611b3457600080fd5b8073ffffffffffffffffffffffffffffffffffffffff16611b536114c2565b73ffffffffffffffffffffffffffffffffffffffff167f8be0079c531659141344cd1fd0a4f28419497f9722a3daafe3b4186f6b6457e060405160405180910390a3611b9e81612a81565b50565b60008060009054906101000a900473ffffffffffffffffffffffffffffffffffffffff1673ffffffffffffffffffffffffffffffffffffffff1663bd02d0f56040518163ffffffff167c010000000000000000000000000000000000000000000000000000000002815260040180807f656e7472795072696365000000000000000000000000000000000000000000008152506020019050602060405180830381600087803b158015611c5357600080fd5b505af1158015611c67573d6000803e3d6000fd5b505050506040513d6020811015611c7d57600080fd5b8101908080519060200190929190505050905090565b60008060009054906101000a900473ffffffffffffffffffffffffffffffffffffffff1673ffffffffffffffffffffffffffffffffffffffff1663bd02d0f58360405180807f6f776e6572546f496400000000000000000000000000000000000000000000008152506009018273ffffffffffffffffffffffffffffffffffffffff1673ffffffffffffffffffffffffffffffffffffffff166c0100000000000000000000000002815260140191505060405180910390206040518263ffffffff167c0100000000000000000000000000000000000000000000000000000000028152600401808260001916600019168152602001915050602060405180830381600087803b158015611da557600080fd5b505af1158015611db9573d6000803e3d6000fd5b505050506040513d6020811015611dcf57600080fd5b81019080805190602001909291905050509050919050565b6000809054906101000a900473ffffffffffffffffffffffffffffffffffffffff1673ffffffffffffffffffffffffffffffffffffffff1663ca446dd98360405180807f746f6b656e417070726f76616c73000000000000000000000000000000000000815250600e018281526020019150506040518091039020836040518363ffffffff167c01000000000000000000000000000000000000000000000000000000000281526004018083600019166000191681526020018273ffffffffffffffffffffffffffffffffffffffff1673ffffffffffffffffffffffffffffffffffffffff16815260200192505050600060405180830381600087803b158015611ef057600080fd5b505af1158015611f04573d6000803e3d6000fd5b505050505050565b60008060009054906101000a900473ffffffffffffffffffffffffffffffffffffffff1673ffffffffffffffffffffffffffffffffffffffff166321f8a7218360405180807f746f6b656e417070726f76616c73000000000000000000000000000000000000815250600e0182815260200191505060405180910390206040518263ffffffff167c0100000000000000000000000000000000000000000000000000000000028152600401808260001916600019168152602001915050602060405180830381600087803b158015611fe357600080fd5b505af1158015611ff7573d6000803e3d6000fd5b505050506040513d602081101561200d57600080fd5b81019080805190602001909291905050509050919050565b60008060009054906101000a900473ffffffffffffffffffffffffffffffffffffffff1673ffffffffffffffffffffffffffffffffffffffff1663bd02d0f5848460405180807f6f776e6564546f6b656e73000000000000000000000000000000000000000000815250600b018373ffffffffffffffffffffffffffffffffffffffff1673ffffffffffffffffffffffffffffffffffffffff166c010000000000000000000000000281526014018281526020019250505060405180910390206040518263ffffffff167c0100000000000000000000000000000000000000000000000000000000028152600401808260001916600019168152602001915050602060405180830381600087803b15801561213f57600080fd5b505af1158015612153573d6000803e3d6000fd5b505050506040513d602081101561216957600080fd5b8101908080519060200190929190505050905092915050565b60008060009054906101000a900473ffffffffffffffffffffffffffffffffffffffff1673ffffffffffffffffffffffffffffffffffffffff166321f8a7218360405180807f746f6b656e4f776e657273000000000000000000000000000000000000000000815250600b0182815260200191505060405180910390206040518263ffffffff167c0100000000000000000000000000000000000000000000000000000000028152600401808260001916600019168152602001915050602060405180830381600087803b15801561225957600080fd5b505af115801561226d573d6000803e3d6000fd5b505050506040513d602081101561228357600080fd5b81019080805190602001909291905050509050919050565b6000809054906101000a900473ffffffffffffffffffffffffffffffffffffffff1673ffffffffffffffffffffffffffffffffffffffff1663ca446dd9826040518263ffffffff167c010000000000000000000000000000000000000000000000000000000002815260040180807f61726269746572000000000000000000000000000000000000000000000000008152506020018273ffffffffffffffffffffffffffffffffffffffff1673ffffffffffffffffffffffffffffffffffffffff168152602001915050600060405180830381600087803b15801561237f57600080fd5b505af1158015612393573d6000803e3d6000fd5b5050505050565b6000806123a683610f1c565b73ffffffffffffffffffffffffffffffffffffffff1614159050919050565b6000809054906101000a900473ffffffffffffffffffffffffffffffffffffffff1673ffffffffffffffffffffffffffffffffffffffff1663abfdcced8360405180807f617070726f76616c537461747573000000000000000000000000000000000000815250600e018281526020019150506040518091039020836040518363ffffffff167c01000000000000000000000000000000000000000000000000000000000281526004018083600019166000191681526020018215151515815260200192505050600060405180830381600087803b1580156124a657600080fd5b505af11580156124ba573d6000803e3d6000fd5b505050505050565b60008082840190508381101515156124d657fe5b8091505092915050565b6000809054906101000a900473ffffffffffffffffffffffffffffffffffffffff1673ffffffffffffffffffffffffffffffffffffffff16634261ff6a8560405180807f646576656c6f706572497066734861736800000000000000000000000000000081525060110182815260200191505060405180910390208585856040518563ffffffff167c010000000000000000000000000000000000000000000000000000000002815260040180856000191660001916815260200184600019166000191681526020018360ff1660ff1681526020018260ff1660ff168152602001945050505050600060405180830381600087803b1580156125e157600080fd5b505af11580156125f5573d6000803e3d6000fd5b5050505050505050565b6000809054906101000a900473ffffffffffffffffffffffffffffffffffffffff1673ffffffffffffffffffffffffffffffffffffffff1663e2a4853a8360405180807f6f776e6572546f496400000000000000000000000000000000000000000000008152506009018273ffffffffffffffffffffffffffffffffffffffff1673ffffffffffffffffffffffffffffffffffffffff166c010000000000000000000000000281526014019150506040518091039020836040518363ffffffff167c010000000000000000000000000000000000000000000000000000000002815260040180836000191660001916815260200182815260200192505050600060405180830381600087803b15801561271757600080fd5b505af115801561272b573d6000803e3d6000fd5b505050505050565b61273b6108fc565b73ffffffffffffffffffffffffffffffffffffffff166323b872dd3361275f610f6f565b612767611ba1565b6040518463ffffffff167c0100000000000000000000000000000000000000000000000000000000028152600401808473ffffffffffffffffffffffffffffffffffffffff1673ffffffffffffffffffffffffffffffffffffffff1681526020018373ffffffffffffffffffffffffffffffffffffffff1673ffffffffffffffffffffffffffffffffffffffff1681526020018281526020019350505050602060405180830381600087803b15801561281f57600080fd5b505af1158015612833573d6000803e3d6000fd5b505050506040513d602081101561284957600080fd5b810190808051906020019092919050505050565b600073ffffffffffffffffffffffffffffffffffffffff168273ffffffffffffffffffffffffffffffffffffffff161415151561289957600080fd5b6128a38282612b80565b8173ffffffffffffffffffffffffffffffffffffffff1660007fddf252ad1be2c89b69c2b068fc378daa952ba7f163c4a11628f55a4df523b3ef836040518082815260200191505060405180910390a35050565b600073ffffffffffffffffffffffffffffffffffffffff168273ffffffffffffffffffffffffffffffffffffffff161415151561293357600080fd5b61293c81610f1c565b73ffffffffffffffffffffffffffffffffffffffff168273ffffffffffffffffffffffffffffffffffffffff161415151561297657600080fd5b8273ffffffffffffffffffffffffffffffffffffffff1661299682610f1c565b73ffffffffffffffffffffffffffffffffffffffff161415156129b857600080fd5b6129c28382612bfa565b6129cc8382612c9b565b6129d68282612b80565b8173ffffffffffffffffffffffffffffffffffffffff168373ffffffffffffffffffffffffffffffffffffffff167fddf252ad1be2c89b69c2b068fc378daa952ba7f163c4a11628f55a4df523b3ef836040518082815260200191505060405180910390a3505050565b60008273ffffffffffffffffffffffffffffffffffffffff16612a6283610c2b565b73ffffffffffffffffffffffffffffffffffffffff1614905092915050565b6000809054906101000a900473ffffffffffffffffffffffffffffffffffffffff1673ffffffffffffffffffffffffffffffffffffffff1663ca446dd9826040518263ffffffff167c010000000000000000000000000000000000000000000000000000000002815260040180807f6f776e65720000000000000000000000000000000000000000000000000000008152506020018273ffffffffffffffffffffffffffffffffffffffff1673ffffffffffffffffffffffffffffffffffffffff168152602001915050600060405180830381600087803b158015612b6557600080fd5b505af1158015612b79573d6000803e3d6000fd5b5050505050565b60008073ffffffffffffffffffffffffffffffffffffffff16612ba283612182565b73ffffffffffffffffffffffffffffffffffffffff16141515612bc457600080fd5b612bce8284612d66565b612bd783611061565b9050612be38383612e8b565b612bed8282612fd8565b612bf56130d1565b505050565b8173ffffffffffffffffffffffffffffffffffffffff16612c1a82610f1c565b73ffffffffffffffffffffffffffffffffffffffff16141515612c3c57600080fd5b612c47816000611de7565b60008273ffffffffffffffffffffffffffffffffffffffff167f8c5be1e5ebec7d5bd14f71427d1e84f3dd0314c0f7b2291e5b200ac8c7c3b925836040518082815260200191505060405180910390a35050565b60008060008473ffffffffffffffffffffffffffffffffffffffff16612cc085610f1c565b73ffffffffffffffffffffffffffffffffffffffff16141515612ce257600080fd5b612ceb846131bd565b9250612d096001612cfb87611061565b6132d690919063ffffffff16565b9150612d158583612025565b9050612d22846000612d66565b612d2d8584836132ef565b612d39858360006132ef565b612d428561342c565b612d4d846000612fd8565b612d578184612fd8565b612d5f61357a565b5050505050565b6000809054906101000a900473ffffffffffffffffffffffffffffffffffffffff1673ffffffffffffffffffffffffffffffffffffffff1663ca446dd98360405180807f746f6b656e4f776e657273000000000000000000000000000000000000000000815250600b018281526020019150506040518091039020836040518363ffffffff167c01000000000000000000000000000000000000000000000000000000000281526004018083600019166000191681526020018273ffffffffffffffffffffffffffffffffffffffff1673ffffffffffffffffffffffffffffffffffffffff16815260200192505050600060405180830381600087803b158015612e6f57600080fd5b505af1158015612e83573d6000803e3d6000fd5b505050505050565b6000809054906101000a900473ffffffffffffffffffffffffffffffffffffffff1673ffffffffffffffffffffffffffffffffffffffff1663e2a4853a83612ed285611061565b60405180807f6f776e6564546f6b656e73000000000000000000000000000000000000000000815250600b018373ffffffffffffffffffffffffffffffffffffffff1673ffffffffffffffffffffffffffffffffffffffff166c01000000000000000000000000028152601401828152602001925050506040518091039020836040518363ffffffff167c010000000000000000000000000000000000000000000000000000000002815260040180836000191660001916815260200182815260200192505050600060405180830381600087803b158015612fb357600080fd5b505af1158015612fc7573d6000803e3d6000fd5b50505050612fd482613666565b5050565b6000809054906101000a900473ffffffffffffffffffffffffffffffffffffffff1673ffffffffffffffffffffffffffffffffffffffff1663e2a4853a8360405180807f6f776e6564546f6b656e73496e646578000000000000000000000000000000008152506010018281526020019150506040518091039020836040518363ffffffff167c010000000000000000000000000000000000000000000000000000000002815260040180836000191660001916815260200182815260200192505050600060405180830381600087803b1580156130b557600080fd5b505af11580156130c9573d6000803e3d6000fd5b505050505050565b6000809054906101000a900473ffffffffffffffffffffffffffffffffffffffff1673ffffffffffffffffffffffffffffffffffffffff1663e2a4853a613129600161311b610b39565b6124c290919063ffffffff16565b6040518263ffffffff167c010000000000000000000000000000000000000000000000000000000002815260040180807f746f74616c546f6b656e73000000000000000000000000000000000000000000815250602001828152602001915050600060405180830381600087803b1580156131a357600080fd5b505af11580156131b7573d6000803e3d6000fd5b50505050565b60008060009054906101000a900473ffffffffffffffffffffffffffffffffffffffff1673ffffffffffffffffffffffffffffffffffffffff1663bd02d0f58360405180807f6f776e6564546f6b656e73496e6465780000000000000000000000000000000081525060100182815260200191505060405180910390206040518263ffffffff167c0100000000000000000000000000000000000000000000000000000000028152600401808260001916600019168152602001915050602060405180830381600087803b15801561329457600080fd5b505af11580156132a8573d6000803e3d6000fd5b505050506040513d60208110156132be57600080fd5b81019080805190602001909291905050509050919050565b60008282111515156132e457fe5b818303905092915050565b6000809054906101000a900473ffffffffffffffffffffffffffffffffffffffff1673ffffffffffffffffffffffffffffffffffffffff1663e2a4853a848460405180807f6f776e6564546f6b656e73000000000000000000000000000000000000000000815250600b018373ffffffffffffffffffffffffffffffffffffffff1673ffffffffffffffffffffffffffffffffffffffff166c01000000000000000000000000028152601401828152602001925050506040518091039020836040518363ffffffff167c010000000000000000000000000000000000000000000000000000000002815260040180836000191660001916815260200182815260200192505050600060405180830381600087803b15801561340f57600080fd5b505af1158015613423573d6000803e3d6000fd5b50505050505050565b6000809054906101000a900473ffffffffffffffffffffffffffffffffffffffff1673ffffffffffffffffffffffffffffffffffffffff1663e2a4853a8260405180807f6f776e657242616c616e63657300000000000000000000000000000000000000815250600d018273ffffffffffffffffffffffffffffffffffffffff1673ffffffffffffffffffffffffffffffffffffffff166c0100000000000000000000000002815260140191505060405180910390206134fe60016134f086611061565b6132d690919063ffffffff16565b6040518363ffffffff167c010000000000000000000000000000000000000000000000000000000002815260040180836000191660001916815260200182815260200192505050600060405180830381600087803b15801561355f57600080fd5b505af1158015613573573d6000803e3d6000fd5b5050505050565b6000809054906101000a900473ffffffffffffffffffffffffffffffffffffffff1673ffffffffffffffffffffffffffffffffffffffff1663e2a4853a6135d260016135c4610b39565b6132d690919063ffffffff16565b6040518263ffffffff167c010000000000000000000000000000000000000000000000000000000002815260040180807f746f74616c546f6b656e73000000000000000000000000000000000000000000815250602001828152602001915050600060405180830381600087803b15801561364c57600080fd5b505af1158015613660573d6000803e3d6000fd5b50505050565b6000809054906101000a900473ffffffffffffffffffffffffffffffffffffffff1673ffffffffffffffffffffffffffffffffffffffff1663e2a4853a8260405180807f6f776e657242616c616e63657300000000000000000000000000000000000000815250600d018273ffffffffffffffffffffffffffffffffffffffff1673ffffffffffffffffffffffffffffffffffffffff166c010000000000000000000000000281526014019150506040518091039020613738600161372a86611061565b6124c290919063ffffffff16565b6040518363ffffffff167c010000000000000000000000000000000000000000000000000000000002815260040180836000191660001916815260200182815260200192505050600060405180830381600087803b15801561379957600080fd5b505af11580156137ad573d6000803e3d6000fd5b50505050505600a165627a7a72305820f558cadfe1aab1eb236db6ae6603f15a6c600ea349925c4cc2cad13f213a33b00029",
  "source": "pragma solidity ^0.4.18;\n\nimport \"../Upgradability/ERC721TokenKeyed.sol\";\nimport \"../Registry/ApprovableRegistry.sol\";\nimport '../Registry/BotCoinPayableRegistry.sol';\nimport \"../Registry/OwnerRegistry.sol\";\nimport './BotProductRegistryDelegate.sol';\n\n/**\n* @title DeveloperRegistryDelegate\n* @dev Delegate contract that handles functionality for ownership of developer entries. Implements\n*  ERC721 standard, which allows for transferability of developer entries.\n*/\ncontract DeveloperRegistryDelegate is ApprovableRegistry, OwnerRegistry, BotCoinPayableRegistry, ERC721TokenKeyed {\n\n  /**\n  * @dev Event for when developer is added\n  * @param owner address that owns the developer\n  * @param developerId ID of the developer\n  * @param IpfsDigest IPFS Digest of the data associated with the new developer\n  * @param IpfsFnCode IPFS Function Code associated with the new developer\n  * @param IpfsSize IPFS Digest size associated with the new developer\n  */\n  event DeveloperAdded(address owner, uint256 developerId, bytes32 IpfsDigest, uint8 IpfsFnCode, uint8 IpfsSize);\n\n  /**\n  * @dev Constructor for DeveloperRegistryDelegate\n  * @param storage_ address of a BaseStorage contract\n  */\n  function DeveloperRegistryDelegate(BaseStorage storage_) \n    ApprovableRegistry(storage_, this)\n    BotCoinPayableRegistry(storage_)\n    ERC721TokenKeyed(storage_)\n    public \n    {}\n\n  /**\n  * @dev Returns IPFS hash for a given developer ID \n  * @param developerId A developer ID\n  * @return bytes32 URL\n  */\n  function developerIpfs(uint256 developerId) public view returns (bytes32 digest, uint8 fnCode, uint8 size) {\n    return _storage.getIpfs(keccak256(\"developerIpfsHash\", developerId));\n  }\n\n  /**\n  * @dev Returns ID of the developer entry that is owned by the given address. An address\n  *  can only own one developer entry.\n  * @param owner address of the owner\n  * @return A developer ID, or 0 if the given address does not own a developer entry\n  */\n  function owns(address owner) public view returns (uint256) {\n    return _storage.getUint(keccak256(\"ownerToId\", owner));\n  }\n\n  /**\n  * @dev Returns address that owns the given developer ID.\n  *  Implements Registry.ownerOfEntry() abstract\n  * @param _developerId A developer ID\n  * @return The address that owns the given developer ID\n  */\n  function ownerOfEntry(uint256 _developerId) public view returns (address _owner) {\n    return ownerOf(_developerId);\n  }\n\n  /**\n  * @dev Returns true if the given address is allowed to mint bot products for the given\n  *  developer ID\n  * @param minter Address of minter\n  * @param _developerId A developer ID\n  * @return True if minting is allowed\n  */\n  function mintingAllowed(address minter, uint256 _developerId) public view returns (bool) {\n    return ownerOf(_developerId) == minter && approvalStatus(_developerId) == true;\n  }\n\n  /**\n  * @dev Adds a new developer entry which is owned by the sender address. Defaults to unapproved,\n  *  but can be approved by the contract owner in a subsequent transaction.\n  * @param IpfsDigest IPFS Digest of the data associated with the new developer\n  * @param IpfsFnCode IPFS Function Code associated with the new developer\n  * @param IpfsSize IPFS Digest size associated with the new developer\n  */\n  function addDeveloper(bytes32 IpfsDigest, uint8 IpfsFnCode, uint8 IpfsSize) public {\n    require(owns(msg.sender) == 0);\n    require(IpfsDigest != 0x0);\n    require(IpfsFnCode != 0);\n    require(IpfsSize != 0);\n\n    uint256 _developerId = totalSupply().add(1);\n\n    setDeveloperIpfs(_developerId, IpfsDigest, IpfsFnCode, IpfsSize);\n    setOwnerId(msg.sender, _developerId);\n\n    transferBotCoin();\n\n    _mint(msg.sender, _developerId);\n\n    DeveloperAdded(msg.sender, _developerId, IpfsDigest, IpfsFnCode, IpfsSize);\n  }\n\n\n  /**\n  * @dev Private function to set a IPFS Hash for a developer\n  * @param developerId A developer ID\n  * @param digest bytes32 Multihash digest\n  * @param fnCode uint8 Multihash function code\n  * @param size uint8 URL Multihash digest size\n  */\n  function setDeveloperIpfs(uint256 developerId, bytes32 digest, uint8 fnCode, uint8 size) private {\n    _storage.setIpfs(keccak256(\"developerIpfsHash\", developerId), digest, fnCode, size);\n  }\n\n  /**\n  * @dev Private function to set the owner for a developer\n  * @param owner Address of the owner\n  * @param developerId A developer ID\n  */\n  function setOwnerId(address owner, uint256 developerId) private {\n    _storage.setUint(keccak256(\"ownerToId\", owner), developerId);\n  }\n\n  /**\n  * @dev Private function to set the address of the bot product registry\n  * @param botProductRegistry Address of a bot product registry\n  */\n  function setBotProductRegistry(BotProductRegistryDelegate botProductRegistry) private {\n    _storage.setAddress(\"botProductRegistry\", botProductRegistry);\n  }\n\n  /**\n  * @dev Checks if the given entry ID exists in the registry.\n  *  Implements ApprovableRegistry.entryExists() abstract.\n  * @param _entryId An entry ID\n  * @return bool indicating if the given entry ID exists\n  */\n  function entryExists(uint256 _entryId) private view returns (bool) {\n    return ownerOf(_entryId) != 0x0;\n  }\n\n}\n",
  "sourcePath": "/home/henry/ws/botchain/contracts/Delegates/DeveloperRegistryDelegate.sol",
  "compiler": {
    "name": "solc",
    "version": "0.4.24+commit.e67f0147.Emscripten.clang"
  },
  "schemaVersion": "2.0.1",
  "updatedAt": "2018-11-01T15:08:00.533Z"
}