{
  "contractName": "ERC721TokenKeyed",
  "abi": [
    {
      "inputs": [
        {
          "name": "storage_",
          "type": "address"
        }
      ],
      "payable": false,
      "stateMutability": "nonpayable",
      "type": "constructor"
    },
    {
      "anonymous": false,
      "inputs": [
        {
          "indexed": true,
          "name": "_from",
          "type": "address"
        },
        {
          "indexed": true,
          "name": "_to",
          "type": "address"
        },
        {
          "indexed": false,
          "name": "_tokenId",
          "type": "uint256"
        }
      ],
      "name": "Transfer",
      "type": "event"
    },
    {
      "anonymous": false,
      "inputs": [
        {
          "indexed": true,
          "name": "_owner",
          "type": "address"
        },
        {
          "indexed": true,
          "name": "_approved",
          "type": "address"
        },
        {
          "indexed": false,
          "name": "_tokenId",
          "type": "uint256"
        }
      ],
      "name": "Approval",
      "type": "event"
    },
    {
      "constant": true,
      "inputs": [],
      "name": "totalSupply",
      "outputs": [
        {
          "name": "",
          "type": "uint256"
        }
      ],
      "payable": false,
      "stateMutability": "view",
      "type": "function"
    },
    {
      "constant": true,
      "inputs": [
        {
          "name": "_owner",
          "type": "address"
        }
      ],
      "name": "balanceOf",
      "outputs": [
        {
          "name": "",
          "type": "uint256"
        }
      ],
      "payable": false,
      "stateMutability": "view",
      "type": "function"
    },
    {
      "constant": true,
      "inputs": [
        {
          "name": "_owner",
          "type": "address"
        }
      ],
      "name": "tokensOf",
      "outputs": [
        {
          "name": "",
          "type": "uint256[]"
        }
      ],
      "payable": false,
      "stateMutability": "view",
      "type": "function"
    },
    {
      "constant": true,
      "inputs": [
        {
          "name": "_tokenId",
          "type": "uint256"
        }
      ],
      "name": "ownerOf",
      "outputs": [
        {
          "name": "",
          "type": "address"
        }
      ],
      "payable": false,
      "stateMutability": "view",
      "type": "function"
    },
    {
      "constant": true,
      "inputs": [
        {
          "name": "_tokenId",
          "type": "uint256"
        }
      ],
      "name": "approvedFor",
      "outputs": [
        {
          "name": "",
          "type": "address"
        }
      ],
      "payable": false,
      "stateMutability": "view",
      "type": "function"
    },
    {
      "constant": false,
      "inputs": [
        {
          "name": "_to",
          "type": "address"
        },
        {
          "name": "_tokenId",
          "type": "uint256"
        }
      ],
      "name": "transfer",
      "outputs": [],
      "payable": false,
      "stateMutability": "nonpayable",
      "type": "function"
    },
    {
      "constant": false,
      "inputs": [
        {
          "name": "_to",
          "type": "address"
        },
        {
          "name": "_tokenId",
          "type": "uint256"
        }
      ],
      "name": "approve",
      "outputs": [],
      "payable": false,
      "stateMutability": "nonpayable",
      "type": "function"
    },
    {
      "constant": false,
      "inputs": [
        {
          "name": "_tokenId",
          "type": "uint256"
        }
      ],
      "name": "takeOwnership",
      "outputs": [],
      "payable": false,
      "stateMutability": "nonpayable",
      "type": "function"
    }
  ],
  "bytecode": "0x608060405234801561001057600080fd5b50604051602080611b938339810180604052810190808051906020019092919050505080806000806101000a81548173ffffffffffffffffffffffffffffffffffffffff021916908373ffffffffffffffffffffffffffffffffffffffff1602179055505050611b0e806100856000396000f30060806040526004361061008e576000357c0100000000000000000000000000000000000000000000000000000000900463ffffffff168063095ea7b31461009357806318160ddd146100e05780632a6dd48f1461010b5780635a3f2672146101785780636352211e1461021057806370a082311461027d578063a9059cbb146102d4578063b2e6ceeb14610321575b600080fd5b34801561009f57600080fd5b506100de600480360381019080803573ffffffffffffffffffffffffffffffffffffffff1690602001909291908035906020019092919050505061034e565b005b3480156100ec57600080fd5b506100f5610499565b6040518082815260200191505060405180910390f35b34801561011757600080fd5b506101366004803603810190808035906020019092919050505061058b565b604051808273ffffffffffffffffffffffffffffffffffffffff1673ffffffffffffffffffffffffffffffffffffffff16815260200191505060405180910390f35b34801561018457600080fd5b506101b9600480360381019080803573ffffffffffffffffffffffffffffffffffffffff16906020019092919050505061059d565b6040518080602001828103825283818151815260200191508051906020019060200280838360005b838110156101fc5780820151818401526020810190506101e1565b505050509050019250505060405180910390f35b34801561021c57600080fd5b5061023b6004803603810190808035906020019092919050505061062d565b604051808273ffffffffffffffffffffffffffffffffffffffff1673ffffffffffffffffffffffffffffffffffffffff16815260200191505060405180910390f35b34801561028957600080fd5b506102be600480360381019080803573ffffffffffffffffffffffffffffffffffffffff169060200190929190505050610680565b6040518082815260200191505060405180910390f35b3480156102e057600080fd5b5061031f600480360381019080803573ffffffffffffffffffffffffffffffffffffffff169060200190929190803590602001909291905050506107d4565b005b34801561032d57600080fd5b5061034c60048036038101908080359060200190929190505050610827565b005b6000813373ffffffffffffffffffffffffffffffffffffffff166103718261062d565b73ffffffffffffffffffffffffffffffffffffffff1614151561039357600080fd5b61039c8361062d565b91508173ffffffffffffffffffffffffffffffffffffffff168473ffffffffffffffffffffffffffffffffffffffff16141515156103d957600080fd5b60006103e48461058b565b73ffffffffffffffffffffffffffffffffffffffff1614158061041e575060008473ffffffffffffffffffffffffffffffffffffffff1614155b156104935761042d8385610852565b8373ffffffffffffffffffffffffffffffffffffffff168273ffffffffffffffffffffffffffffffffffffffff167f8c5be1e5ebec7d5bd14f71427d1e84f3dd0314c0f7b2291e5b200ac8c7c3b925856040518082815260200191505060405180910390a35b50505050565b60008060009054906101000a900473ffffffffffffffffffffffffffffffffffffffff1673ffffffffffffffffffffffffffffffffffffffff1663bd02d0f56040518163ffffffff167c010000000000000000000000000000000000000000000000000000000002815260040180807f746f74616c546f6b656e730000000000000000000000000000000000000000008152506020019050602060405180830381600087803b15801561054b57600080fd5b505af115801561055f573d6000803e3d6000fd5b505050506040513d602081101561057557600080fd5b8101908080519060200190929190505050905090565b600061059682610977565b9050919050565b60606000606060006105ae85610680565b9250826040519080825280602002602001820160405280156105df5781602001602082028038833980820191505090505b509150600090505b82811015610622576105f98582610a90565b828281518110151561060757fe5b906020019060200201818152505080806001019150506105e7565b819350505050919050565b60008061063983610bed565b9050600073ffffffffffffffffffffffffffffffffffffffff168173ffffffffffffffffffffffffffffffffffffffff161415151561067757600080fd5b80915050919050565b60008060009054906101000a900473ffffffffffffffffffffffffffffffffffffffff1673ffffffffffffffffffffffffffffffffffffffff1663bd02d0f58360405180807f6f776e657242616c616e63657300000000000000000000000000000000000000815250600d018273ffffffffffffffffffffffffffffffffffffffff1673ffffffffffffffffffffffffffffffffffffffff166c0100000000000000000000000002815260140191505060405180910390206040518263ffffffff167c0100000000000000000000000000000000000000000000000000000000028152600401808260001916600019168152602001915050602060405180830381600087803b15801561079257600080fd5b505af11580156107a6573d6000803e3d6000fd5b505050506040513d60208110156107bc57600080fd5b81019080805190602001909291905050509050919050565b803373ffffffffffffffffffffffffffffffffffffffff166107f58261062d565b73ffffffffffffffffffffffffffffffffffffffff1614151561081757600080fd5b610822338484610d06565b505050565b6108313382610e4f565b151561083c57600080fd5b61084f6108488261062d565b3383610d06565b50565b6000809054906101000a900473ffffffffffffffffffffffffffffffffffffffff1673ffffffffffffffffffffffffffffffffffffffff1663ca446dd98360405180807f746f6b656e417070726f76616c73000000000000000000000000000000000000815250600e018281526020019150506040518091039020836040518363ffffffff167c01000000000000000000000000000000000000000000000000000000000281526004018083600019166000191681526020018273ffffffffffffffffffffffffffffffffffffffff1673ffffffffffffffffffffffffffffffffffffffff16815260200192505050600060405180830381600087803b15801561095b57600080fd5b505af115801561096f573d6000803e3d6000fd5b505050505050565b60008060009054906101000a900473ffffffffffffffffffffffffffffffffffffffff1673ffffffffffffffffffffffffffffffffffffffff166321f8a7218360405180807f746f6b656e417070726f76616c73000000000000000000000000000000000000815250600e0182815260200191505060405180910390206040518263ffffffff167c0100000000000000000000000000000000000000000000000000000000028152600401808260001916600019168152602001915050602060405180830381600087803b158015610a4e57600080fd5b505af1158015610a62573d6000803e3d6000fd5b505050506040513d6020811015610a7857600080fd5b81019080805190602001909291905050509050919050565b60008060009054906101000a900473ffffffffffffffffffffffffffffffffffffffff1673ffffffffffffffffffffffffffffffffffffffff1663bd02d0f5848460405180807f6f776e6564546f6b656e73000000000000000000000000000000000000000000815250600b018373ffffffffffffffffffffffffffffffffffffffff1673ffffffffffffffffffffffffffffffffffffffff166c010000000000000000000000000281526014018281526020019250505060405180910390206040518263ffffffff167c0100000000000000000000000000000000000000000000000000000000028152600401808260001916600019168152602001915050602060405180830381600087803b158015610baa57600080fd5b505af1158015610bbe573d6000803e3d6000fd5b505050506040513d6020811015610bd457600080fd5b8101908080519060200190929190505050905092915050565b60008060009054906101000a900473ffffffffffffffffffffffffffffffffffffffff1673ffffffffffffffffffffffffffffffffffffffff166321f8a7218360405180807f746f6b656e4f776e657273000000000000000000000000000000000000000000815250600b0182815260200191505060405180910390206040518263ffffffff167c0100000000000000000000000000000000000000000000000000000000028152600401808260001916600019168152602001915050602060405180830381600087803b158015610cc457600080fd5b505af1158015610cd8573d6000803e3d6000fd5b505050506040513d6020811015610cee57600080fd5b81019080805190602001909291905050509050919050565b600073ffffffffffffffffffffffffffffffffffffffff168273ffffffffffffffffffffffffffffffffffffffff1614151515610d4257600080fd5b610d4b8161062d565b73ffffffffffffffffffffffffffffffffffffffff168273ffffffffffffffffffffffffffffffffffffffff1614151515610d8557600080fd5b8273ffffffffffffffffffffffffffffffffffffffff16610da58261062d565b73ffffffffffffffffffffffffffffffffffffffff16141515610dc757600080fd5b610dd18382610e90565b610ddb8382610f31565b610de58282610ffc565b8173ffffffffffffffffffffffffffffffffffffffff168373ffffffffffffffffffffffffffffffffffffffff167fddf252ad1be2c89b69c2b068fc378daa952ba7f163c4a11628f55a4df523b3ef836040518082815260200191505060405180910390a3505050565b60008273ffffffffffffffffffffffffffffffffffffffff16610e718361058b565b73ffffffffffffffffffffffffffffffffffffffff1614905092915050565b8173ffffffffffffffffffffffffffffffffffffffff16610eb08261062d565b73ffffffffffffffffffffffffffffffffffffffff16141515610ed257600080fd5b610edd816000610852565b60008273ffffffffffffffffffffffffffffffffffffffff167f8c5be1e5ebec7d5bd14f71427d1e84f3dd0314c0f7b2291e5b200ac8c7c3b925836040518082815260200191505060405180910390a35050565b60008060008473ffffffffffffffffffffffffffffffffffffffff16610f568561062d565b73ffffffffffffffffffffffffffffffffffffffff16141515610f7857600080fd5b610f8184611076565b9250610f9f6001610f9187610680565b61118f90919063ffffffff16565b9150610fab8583610a90565b9050610fb88460006111a8565b610fc38584836112cd565b610fcf858360006112cd565b610fd88561140a565b610fe3846000611558565b610fed8184611558565b610ff5611651565b5050505050565b60008073ffffffffffffffffffffffffffffffffffffffff1661101e83610bed565b73ffffffffffffffffffffffffffffffffffffffff1614151561104057600080fd5b61104a82846111a8565b61105383610680565b905061105f838361173d565b6110698282611558565b61107161188a565b505050565b60008060009054906101000a900473ffffffffffffffffffffffffffffffffffffffff1673ffffffffffffffffffffffffffffffffffffffff1663bd02d0f58360405180807f6f776e6564546f6b656e73496e6465780000000000000000000000000000000081525060100182815260200191505060405180910390206040518263ffffffff167c0100000000000000000000000000000000000000000000000000000000028152600401808260001916600019168152602001915050602060405180830381600087803b15801561114d57600080fd5b505af1158015611161573d6000803e3d6000fd5b505050506040513d602081101561117757600080fd5b81019080805190602001909291905050509050919050565b600082821115151561119d57fe5b818303905092915050565b6000809054906101000a900473ffffffffffffffffffffffffffffffffffffffff1673ffffffffffffffffffffffffffffffffffffffff1663ca446dd98360405180807f746f6b656e4f776e657273000000000000000000000000000000000000000000815250600b018281526020019150506040518091039020836040518363ffffffff167c01000000000000000000000000000000000000000000000000000000000281526004018083600019166000191681526020018273ffffffffffffffffffffffffffffffffffffffff1673ffffffffffffffffffffffffffffffffffffffff16815260200192505050600060405180830381600087803b1580156112b157600080fd5b505af11580156112c5573d6000803e3d6000fd5b505050505050565b6000809054906101000a900473ffffffffffffffffffffffffffffffffffffffff1673ffffffffffffffffffffffffffffffffffffffff1663e2a4853a848460405180807f6f776e6564546f6b656e73000000000000000000000000000000000000000000815250600b018373ffffffffffffffffffffffffffffffffffffffff1673ffffffffffffffffffffffffffffffffffffffff166c01000000000000000000000000028152601401828152602001925050506040518091039020836040518363ffffffff167c010000000000000000000000000000000000000000000000000000000002815260040180836000191660001916815260200182815260200192505050600060405180830381600087803b1580156113ed57600080fd5b505af1158015611401573d6000803e3d6000fd5b50505050505050565b6000809054906101000a900473ffffffffffffffffffffffffffffffffffffffff1673ffffffffffffffffffffffffffffffffffffffff1663e2a4853a8260405180807f6f776e657242616c616e63657300000000000000000000000000000000000000815250600d018273ffffffffffffffffffffffffffffffffffffffff1673ffffffffffffffffffffffffffffffffffffffff166c0100000000000000000000000002815260140191505060405180910390206114dc60016114ce86610680565b61118f90919063ffffffff16565b6040518363ffffffff167c010000000000000000000000000000000000000000000000000000000002815260040180836000191660001916815260200182815260200192505050600060405180830381600087803b15801561153d57600080fd5b505af1158015611551573d6000803e3d6000fd5b5050505050565b6000809054906101000a900473ffffffffffffffffffffffffffffffffffffffff1673ffffffffffffffffffffffffffffffffffffffff1663e2a4853a8360405180807f6f776e6564546f6b656e73496e646578000000000000000000000000000000008152506010018281526020019150506040518091039020836040518363ffffffff167c010000000000000000000000000000000000000000000000000000000002815260040180836000191660001916815260200182815260200192505050600060405180830381600087803b15801561163557600080fd5b505af1158015611649573d6000803e3d6000fd5b505050505050565b6000809054906101000a900473ffffffffffffffffffffffffffffffffffffffff1673ffffffffffffffffffffffffffffffffffffffff1663e2a4853a6116a9600161169b610499565b61118f90919063ffffffff16565b6040518263ffffffff167c010000000000000000000000000000000000000000000000000000000002815260040180807f746f74616c546f6b656e73000000000000000000000000000000000000000000815250602001828152602001915050600060405180830381600087803b15801561172357600080fd5b505af1158015611737573d6000803e3d6000fd5b50505050565b6000809054906101000a900473ffffffffffffffffffffffffffffffffffffffff1673ffffffffffffffffffffffffffffffffffffffff1663e2a4853a8361178485610680565b60405180807f6f776e6564546f6b656e73000000000000000000000000000000000000000000815250600b018373ffffffffffffffffffffffffffffffffffffffff1673ffffffffffffffffffffffffffffffffffffffff166c01000000000000000000000000028152601401828152602001925050506040518091039020836040518363ffffffff167c010000000000000000000000000000000000000000000000000000000002815260040180836000191660001916815260200182815260200192505050600060405180830381600087803b15801561186557600080fd5b505af1158015611879573d6000803e3d6000fd5b5050505061188682611976565b5050565b6000809054906101000a900473ffffffffffffffffffffffffffffffffffffffff1673ffffffffffffffffffffffffffffffffffffffff1663e2a4853a6118e260016118d4610499565b611ac490919063ffffffff16565b6040518263ffffffff167c010000000000000000000000000000000000000000000000000000000002815260040180807f746f74616c546f6b656e73000000000000000000000000000000000000000000815250602001828152602001915050600060405180830381600087803b15801561195c57600080fd5b505af1158015611970573d6000803e3d6000fd5b50505050565b6000809054906101000a900473ffffffffffffffffffffffffffffffffffffffff1673ffffffffffffffffffffffffffffffffffffffff1663e2a4853a8260405180807f6f776e657242616c616e63657300000000000000000000000000000000000000815250600d018273ffffffffffffffffffffffffffffffffffffffff1673ffffffffffffffffffffffffffffffffffffffff166c010000000000000000000000000281526014019150506040518091039020611a486001611a3a86610680565b611ac490919063ffffffff16565b6040518363ffffffff167c010000000000000000000000000000000000000000000000000000000002815260040180836000191660001916815260200182815260200192505050600060405180830381600087803b158015611aa957600080fd5b505af1158015611abd573d6000803e3d6000fd5b5050505050565b6000808284019050838110151515611ad857fe5b80915050929150505600a165627a7a723058203f160cd9342a933ac1470132432298a0c9ae3ffef5ec4d5943572294cbfeaec80029",
  "source": "pragma solidity ^0.4.18;\n\nimport \"zeppelin-solidity/contracts/token/ERC721/ERC721.sol\";\nimport \"zeppelin-solidity/contracts/math/SafeMath.sol\";\nimport \"./StorageConsumer.sol\";\n\n/**\n * @title ERC721TokenKeyed\n * Generic implementation for the required functionality of the ERC721 standard\n */\ncontract ERC721TokenKeyed is StorageConsumer, ERC721 {\n  using SafeMath for uint256;\n\n  function ERC721TokenKeyed(BaseStorage storage_) StorageConsumer(storage_) public {}\n\n  /**\n  * @dev Guarantees msg.sender is owner of the given token\n  * @param _tokenId uint256 ID of the token to validate its ownership belongs to msg.sender\n  */\n  modifier onlyOwnerOf(uint256 _tokenId) {\n    require(ownerOf(_tokenId) == msg.sender);\n    _;\n  }\n\n  /**\n  * @dev Gets the total amount of tokens stored by the contract\n  * @return uint256 representing the total amount of tokens\n  */\n  function totalSupply() public view returns (uint256) {\n    return _storage.getUint(\"totalTokens\");\n  }\n\n  /**\n  * @dev Gets the balance of the specified address\n  * @param _owner address to query the balance of\n  * @return uint256 representing the amount owned by the passed address\n  */\n  function balanceOf(address _owner) public view returns (uint256) {\n    return _storage.getUint(keccak256(\"ownerBalances\", _owner));\n  }\n\n  /**\n  * @dev Gets the list of tokens owned by a given address\n  * @param _owner address to query the tokens of\n  * @return uint256[] representing the list of tokens owned by the passed address\n  */\n  function tokensOf(address _owner) public view returns (uint256[]) {\n    uint256 _ownerBalance = balanceOf(_owner);\n    uint256[] memory _tokens = new uint256[](_ownerBalance);\n    for (uint256 i = 0; i < _ownerBalance; i++) {\n      _tokens[i] = getOwnedToken(_owner, i);\n    }\n    return _tokens;\n  }\n\n  /**\n  * @dev Gets the owner of the specified token ID\n  * @param _tokenId uint256 ID of the token to query the owner of\n  * @return owner address currently marked as the owner of the given token ID\n  */\n  function ownerOf(uint256 _tokenId) public view returns (address) {\n    address owner = getTokenOwner(_tokenId);\n    require(owner != address(0));\n    return owner;\n  }\n\n  /**\n   * @dev Gets the approved address to take ownership of a given token ID\n   * @param _tokenId uint256 ID of the token to query the approval of\n   * @return address currently approved to take ownership of the given token ID\n   */\n  function approvedFor(uint256 _tokenId) public view returns (address) {\n    return getTokenApproval(_tokenId);\n  }\n\n  /**\n  * @dev Transfers the ownership of a given token ID to another address\n  * @param _to address to receive the ownership of the given token ID\n  * @param _tokenId uint256 ID of the token to be transferred\n  */\n  function transfer(address _to, uint256 _tokenId) public onlyOwnerOf(_tokenId) {\n    clearApprovalAndTransfer(msg.sender, _to, _tokenId);\n  }\n\n  /**\n  * @dev Approves another address to claim for the ownership of the given token ID\n  * @param _to address to be approved for the given token ID\n  * @param _tokenId uint256 ID of the token to be approved\n  */\n  function approve(address _to, uint256 _tokenId) public onlyOwnerOf(_tokenId) {\n    address owner = ownerOf(_tokenId);\n    require(_to != owner);\n    if (approvedFor(_tokenId) != 0 || _to != 0) {\n      setTokenApproval(_tokenId, _to);\n      Approval(owner, _to, _tokenId);\n    }\n  }\n\n  /**\n  * @dev Claims the ownership of a given token ID\n  * @param _tokenId uint256 ID of the token being claimed by the msg.sender\n  */\n  function takeOwnership(uint256 _tokenId) public {\n    require(isApprovedFor(msg.sender, _tokenId));\n    clearApprovalAndTransfer(ownerOf(_tokenId), msg.sender, _tokenId);\n  }\n\n  /**\n  * @dev Mint token function\n  * @param _to The address that will own the minted token\n  * @param _tokenId uint256 ID of the token to be minted by the msg.sender\n  */\n  function _mint(address _to, uint256 _tokenId) internal {\n    require(_to != address(0));\n    addToken(_to, _tokenId);\n    Transfer(0x0, _to, _tokenId);\n  }\n\n  /**\n  * @dev Burns a specific token\n  * @param _tokenId uint256 ID of the token being burned by the msg.sender\n  */\n  function _burn(uint256 _tokenId) onlyOwnerOf(_tokenId) internal {\n    if (approvedFor(_tokenId) != 0) {\n      clearApproval(msg.sender, _tokenId);\n    }\n    removeToken(msg.sender, _tokenId);\n    Transfer(msg.sender, 0x0, _tokenId);\n  }\n\n  /**\n   * @dev Tells whether the msg.sender is approved for the given token ID or not\n   * This function is not private so it can be extended in further implementations like the operatable ERC721\n   * @param _owner address of the owner to query the approval of\n   * @param _tokenId uint256 ID of the token to query the approval of\n   * @return bool whether the msg.sender is approved for the given token ID or not\n   */\n  function isApprovedFor(address _owner, uint256 _tokenId) internal view returns (bool) {\n    return approvedFor(_tokenId) == _owner;\n  }\n\n  /**\n  * @dev Internal function to clear current approval and transfer the ownership of a given token ID\n  * @param _from address which you want to send tokens from\n  * @param _to address which you want to transfer the token to\n  * @param _tokenId uint256 ID of the token to be transferred\n  */\n  function clearApprovalAndTransfer(address _from, address _to, uint256 _tokenId) internal {\n    require(_to != address(0));\n    require(_to != ownerOf(_tokenId));\n    require(ownerOf(_tokenId) == _from);\n\n    clearApproval(_from, _tokenId);\n    removeToken(_from, _tokenId);\n    addToken(_to, _tokenId);\n    Transfer(_from, _to, _tokenId);\n  }\n\n  /**\n  * @dev Internal function to get token owner by token ID\n  * @param tokenId uint256 ID of the token to get the owner for\n  * @return address The address that owns the token an with ID of tokenId\n  */\n  function getTokenOwner(uint256 tokenId) private view returns (address) {\n    return _storage.getAddress(keccak256(\"tokenOwners\", tokenId));\n  }\n\n  /**\n  * @dev Internal function to get an approved address for a token\n  * @param tokenId uint256 ID of the token to get the approved address for\n  * @return address The approved address for the token\n  */\n  function getTokenApproval(uint256 tokenId) private view returns (address) {\n    return _storage.getAddress(keccak256(\"tokenApprovals\", tokenId));\n  }\n\n  /**\n  * @dev Internal function to get an ID value from list of owned token ID's\n  * @param owner address The owner of the token list\n  * @param tokenIndex uint256 The index of the token ID value within the list\n  * @return uint256 The token ID for the given owner and token index\n  */\n  function getOwnedToken(address owner, uint256 tokenIndex) private view returns (uint256) {\n    return _storage.getUint(keccak256(\"ownedTokens\", owner, tokenIndex));\n  }\n\n  /**\n  * @dev Internal function to get the index of a token ID within the owned tokens list\n  * @param tokenId uint256 ID of the token to get the index for\n  * @return uint256 The index of the token for the given ID\n  */\n  function getOwnedTokenIndex(uint256 tokenId) private view returns (uint256) {\n    return _storage.getUint(keccak256(\"ownedTokensIndex\", tokenId));\n  }\n\n  /**\n  * @dev Internal function to clear current approval of a given token ID\n  * @param _tokenId uint256 ID of the token to be transferred\n  */\n  function clearApproval(address _owner, uint256 _tokenId) private {\n    require(ownerOf(_tokenId) == _owner);\n    setTokenApproval(_tokenId, 0);\n    Approval(_owner, 0, _tokenId);\n  }\n\n  /**\n  * @dev Internal function to add a token ID to the list of a given address\n  * @param _to address representing the new owner of the given token ID\n  * @param _tokenId uint256 ID of the token to be added to the tokens list of the given address\n  */\n  function addToken(address _to, uint256 _tokenId) private {\n    require(getTokenOwner(_tokenId) == address(0));\n    setTokenOwner(_tokenId, _to);\n    uint256 length = balanceOf(_to);\n    pushOwnedToken(_to, _tokenId);\n    setOwnedTokenIndex(_tokenId, length);\n    incrementTotalTokens();\n  }\n\n  /**\n  * @dev Internal function to remove a token ID from the list of a given address\n  * @param _from address representing the previous owner of the given token ID\n  * @param _tokenId uint256 ID of the token to be removed from the tokens list of the given address\n  */\n  function removeToken(address _from, uint256 _tokenId) private {\n    require(ownerOf(_tokenId) == _from);\n\n    uint256 tokenIndex = getOwnedTokenIndex(_tokenId);\n    uint256 lastTokenIndex = balanceOf(_from).sub(1);\n    uint256 lastToken = getOwnedToken(_from, lastTokenIndex);\n\n    setTokenOwner(_tokenId, 0);\n    setOwnedToken(_from, tokenIndex, lastToken);\n    setOwnedToken(_from, lastTokenIndex, 0);\n    // Note that this will handle single-element arrays. In that case, both tokenIndex and lastTokenIndex are going to\n    // be zero. Then we can make sure that we will remove _tokenId from the ownedTokens list since we are first swapping\n    // the lastToken to the first position, and then dropping the element placed in the last position of the list\n\n    decrementOwnerBalance(_from);\n    setOwnedTokenIndex(_tokenId, 0);\n    setOwnedTokenIndex(lastToken, tokenIndex);\n    decrementTotalTokens();\n  }\n  \n  /**\n  * @dev Internal function to increase totalTokens by 1\n  */\n  function incrementTotalTokens() private {\n    _storage.setUint(\"totalTokens\", totalSupply().add(1));\n  }\n\n  /**\n  * @dev Internal function to decrease totalTokens by 1\n  */\n  function decrementTotalTokens() private {\n    _storage.setUint(\"totalTokens\", totalSupply().sub(1));\n  }\n\n  /**\n  * @dev Internal function to set token owner by token ID\n  * @param tokenId uint256 ID of the token to set the owner for\n  * @param tokenOwner address The address of the token owner\n  */\n  function setTokenOwner(uint256 tokenId, address tokenOwner) private {\n    _storage.setAddress(keccak256(\"tokenOwners\", tokenId), tokenOwner);\n  }\n\n  /**\n  * @dev Internal function to set an approved address for a token\n  * @param tokenId uint256 ID of the token to set the approved address for\n  * @param approvedAddress address The approved address to set for the token\n  */\n  function setTokenApproval(uint256 tokenId, address approvedAddress) private {\n    _storage.setAddress(keccak256(\"tokenApprovals\", tokenId), approvedAddress);\n  }\n\n  /**\n  * @dev Internal function to increment an owner's token balance by 1\n  * @param owner address The owner's address\n  */\n  function incrementOwnerBalance(address owner) private {\n    _storage.setUint(keccak256(\"ownerBalances\", owner), balanceOf(owner).add(1));\n  }\n\n  /**\n  * @dev Internal function to decrement an owner's token balance by 1\n  * @param owner address The owner's address\n  */\n  function decrementOwnerBalance(address owner) private {\n    _storage.setUint(keccak256(\"ownerBalances\", owner), balanceOf(owner).sub(1));\n  }\n\n  /**\n  * @dev Internal function to set an ID value within a list of owned token ID's\n  * @param owner address The owner of the token list\n  * @param tokenIndex uint256 The index to set within the owned token list\n  * @param tokenId uint256 The ID of the token to set\n  */\n  function setOwnedToken(address owner, uint256 tokenIndex, uint256 tokenId) private {\n    _storage.setUint(keccak256(\"ownedTokens\", owner, tokenIndex), tokenId);\n  }\n\n  /**\n  * @dev Internal function to append an ID value to a list of owned token ID's\n  * @param owner address The owner of the token list\n  * @param tokenId uint256 The token ID to append\n  */\n  function pushOwnedToken(address owner, uint256 tokenId) private {\n    _storage.setUint(keccak256(\"ownedTokens\", owner, balanceOf(owner)), tokenId);\n    incrementOwnerBalance(owner);\n  }\n\n  /**\n  * @dev Internal function to set the index of a token ID within the owned tokens list\n  * @param tokenId uint256 ID of the token to set the index for\n  * @param tokenIndex uint256 The token index to set for the given token ID\n  */\n  function setOwnedTokenIndex(uint256 tokenId, uint256 tokenIndex) private {\n    _storage.setUint(keccak256(\"ownedTokensIndex\", tokenId), tokenIndex);\n  }\n}\n",
  "sourcePath": "/home/henry/ws/botchain/contracts/Upgradability/ERC721TokenKeyed.sol",
  "compiler": {
    "name": "solc",
    "version": "0.4.24+commit.e67f0147.Emscripten.clang"
  },
  "schemaVersion": "2.0.1",
  "updatedAt": "2018-11-01T15:08:00.549Z"
}