{
  "contractName": "MockCurationCouncil",
  "abi": [
    {
      "inputs": [
        {
          "name": "storage_",
          "type": "address"
        },
        {
          "name": "botcoin",
          "type": "address"
        }
      ],
      "payable": false,
      "stateMutability": "nonpayable",
      "type": "constructor"
    },
    {
      "constant": false,
      "inputs": [],
      "name": "tokenVault",
      "outputs": [
        {
          "name": "",
          "type": "address"
        }
      ],
      "payable": false,
      "stateMutability": "nonpayable",
      "type": "function"
    },
    {
      "constant": false,
      "inputs": [],
      "name": "vote",
      "outputs": [],
      "payable": false,
      "stateMutability": "nonpayable",
      "type": "function"
    },
    {
      "constant": false,
      "inputs": [
        {
          "name": "addr",
          "type": "address"
        }
      ],
      "name": "changeTokenVault",
      "outputs": [],
      "payable": false,
      "stateMutability": "nonpayable",
      "type": "function"
    }
  ],
  "bytecode": "0x608060405234801561001057600080fd5b50604051604080610561833981018060405281019080805190602001909291908051906020019092919050505081806000806101000a81548173ffffffffffffffffffffffffffffffffffffffff021916908373ffffffffffffffffffffffffffffffffffffffff160217905550506000809054906101000a900473ffffffffffffffffffffffffffffffffffffffff1673ffffffffffffffffffffffffffffffffffffffff1663ca446dd9826040518263ffffffff167c010000000000000000000000000000000000000000000000000000000002815260040180807f626f74636f696e436f6e747261637400000000000000000000000000000000008152506020018273ffffffffffffffffffffffffffffffffffffffff1673ffffffffffffffffffffffffffffffffffffffff168152602001915050600060405180830381600087803b15801561016357600080fd5b505af1158015610177573d6000803e3d6000fd5b5050505050506103d58061018c6000396000f300608060405260043610610057576000357c0100000000000000000000000000000000000000000000000000000000900463ffffffff1680635bc789d91461005c578063632a9a52146100b3578063dce53844146100ca575b600080fd5b34801561006857600080fd5b5061007161010d565b604051808273ffffffffffffffffffffffffffffffffffffffff1673ffffffffffffffffffffffffffffffffffffffff16815260200191505060405180910390f35b3480156100bf57600080fd5b506100c86101ff565b005b3480156100d657600080fd5b5061010b600480360381019080803573ffffffffffffffffffffffffffffffffffffffff169060200190929190505050610284565b005b60008060009054906101000a900473ffffffffffffffffffffffffffffffffffffffff1673ffffffffffffffffffffffffffffffffffffffff166321f8a7216040518163ffffffff167c010000000000000000000000000000000000000000000000000000000002815260040180807f746f6b656e5661756c74436f6e747261637400000000000000000000000000008152506020019050602060405180830381600087803b1580156101bf57600080fd5b505af11580156101d3573d6000803e3d6000fd5b505050506040513d60208110156101e957600080fd5b8101908080519060200190929190505050905090565b61020761010d565b73ffffffffffffffffffffffffffffffffffffffff1663538ed7286040518163ffffffff167c0100000000000000000000000000000000000000000000000000000000028152600401600060405180830381600087803b15801561026a57600080fd5b505af115801561027e573d6000803e3d6000fd5b50505050565b60008173ffffffffffffffffffffffffffffffffffffffff16141515156102aa57600080fd5b6000809054906101000a900473ffffffffffffffffffffffffffffffffffffffff1673ffffffffffffffffffffffffffffffffffffffff1663ca446dd9826040518263ffffffff167c010000000000000000000000000000000000000000000000000000000002815260040180807f746f6b656e5661756c74436f6e747261637400000000000000000000000000008152506020018273ffffffffffffffffffffffffffffffffffffffff1673ffffffffffffffffffffffffffffffffffffffff168152602001915050600060405180830381600087803b15801561038e57600080fd5b505af11580156103a2573d6000803e3d6000fd5b50505050505600a165627a7a7230582057aa54cdd2cb28f5cf1fe0ecd7d559e9a200fbcaad86875bdfc36597d79eed3a0029",
  "source": "pragma solidity ^0.4.18;\n\nimport \"../Upgradability/PublicStorage.sol\";\nimport '../Upgradability/StorageConsumer.sol';\nimport '../Vault/TokenVault.sol';\n\ncontract MockCurationCouncil is StorageConsumer {\n\n  function MockCurationCouncil(PublicStorage storage_, address botcoin)\n    StorageConsumer(storage_)\n    public\n  { \n    _storage.setAddress('botcoinContract', botcoin);\n  }\n  \n  function tokenVault() public returns (TokenVault) {\n    return TokenVault(_storage.getAddress('tokenVaultContract'));\n  }\n\n  function vote() public {\n    tokenVault().applyCuratorReward();\n  }\n\n  function changeTokenVault(address addr) public {\n    require(addr != 0x0);\n    _storage.setAddress('tokenVaultContract', addr);\n  }\n}\n",
  "sourcePath": "/home/henry/ws/botchain/contracts/mocks/MockCurationCouncil.sol",
  "compiler": {
    "name": "solc",
    "version": "0.4.24+commit.e67f0147.Emscripten.clang"
  },
  "schemaVersion": "2.0.1",
  "updatedAt": "2018-11-01T15:08:00.556Z"
}