{
  "contractName": "OwnableStorage",
  "abi": [
    {
      "constant": true,
      "inputs": [],
      "name": "owner",
      "outputs": [
        {
          "name": "",
          "type": "address"
        }
      ],
      "payable": false,
      "stateMutability": "view",
      "type": "function"
    },
    {
      "constant": false,
      "inputs": [
        {
          "name": "newOwner",
          "type": "address"
        }
      ],
      "name": "transferOwnership",
      "outputs": [],
      "payable": false,
      "stateMutability": "nonpayable",
      "type": "function"
    },
    {
      "anonymous": false,
      "inputs": [
        {
          "indexed": true,
          "name": "previousOwner",
          "type": "address"
        },
        {
          "indexed": true,
          "name": "newOwner",
          "type": "address"
        }
      ],
      "name": "OwnershipTransferred",
      "type": "event"
    },
    {
      "constant": false,
      "inputs": [
        {
          "name": "contractAddress",
          "type": "address"
        }
      ],
      "name": "setContractId",
      "outputs": [],
      "payable": false,
      "stateMutability": "nonpayable",
      "type": "function"
    },
    {
      "constant": true,
      "inputs": [
        {
          "name": "key",
          "type": "bytes32"
        }
      ],
      "name": "getAddress",
      "outputs": [
        {
          "name": "",
          "type": "address"
        }
      ],
      "payable": false,
      "stateMutability": "view",
      "type": "function"
    },
    {
      "constant": true,
      "inputs": [
        {
          "name": "key",
          "type": "bytes32"
        }
      ],
      "name": "getUint",
      "outputs": [
        {
          "name": "",
          "type": "uint256"
        }
      ],
      "payable": false,
      "stateMutability": "view",
      "type": "function"
    },
    {
      "constant": true,
      "inputs": [
        {
          "name": "key",
          "type": "bytes32"
        }
      ],
      "name": "getString",
      "outputs": [
        {
          "name": "",
          "type": "string"
        }
      ],
      "payable": false,
      "stateMutability": "view",
      "type": "function"
    },
    {
      "constant": true,
      "inputs": [
        {
          "name": "key",
          "type": "bytes32"
        }
      ],
      "name": "getBytes",
      "outputs": [
        {
          "name": "",
          "type": "bytes"
        }
      ],
      "payable": false,
      "stateMutability": "view",
      "type": "function"
    },
    {
      "constant": true,
      "inputs": [
        {
          "name": "key",
          "type": "bytes32"
        }
      ],
      "name": "getBytes32",
      "outputs": [
        {
          "name": "",
          "type": "bytes32"
        }
      ],
      "payable": false,
      "stateMutability": "view",
      "type": "function"
    },
    {
      "constant": true,
      "inputs": [
        {
          "name": "key",
          "type": "bytes32"
        }
      ],
      "name": "getBool",
      "outputs": [
        {
          "name": "",
          "type": "bool"
        }
      ],
      "payable": false,
      "stateMutability": "view",
      "type": "function"
    },
    {
      "constant": true,
      "inputs": [
        {
          "name": "key",
          "type": "bytes32"
        }
      ],
      "name": "getInt",
      "outputs": [
        {
          "name": "",
          "type": "int256"
        }
      ],
      "payable": false,
      "stateMutability": "view",
      "type": "function"
    },
    {
      "constant": false,
      "inputs": [
        {
          "name": "key",
          "type": "bytes32"
        },
        {
          "name": "value",
          "type": "address"
        }
      ],
      "name": "setAddress",
      "outputs": [],
      "payable": false,
      "stateMutability": "nonpayable",
      "type": "function"
    },
    {
      "constant": false,
      "inputs": [
        {
          "name": "key",
          "type": "bytes32"
        },
        {
          "name": "value",
          "type": "uint256"
        }
      ],
      "name": "setUint",
      "outputs": [],
      "payable": false,
      "stateMutability": "nonpayable",
      "type": "function"
    },
    {
      "constant": false,
      "inputs": [
        {
          "name": "key",
          "type": "bytes32"
        },
        {
          "name": "value",
          "type": "string"
        }
      ],
      "name": "setString",
      "outputs": [],
      "payable": false,
      "stateMutability": "nonpayable",
      "type": "function"
    },
    {
      "constant": false,
      "inputs": [
        {
          "name": "key",
          "type": "bytes32"
        },
        {
          "name": "value",
          "type": "bytes"
        }
      ],
      "name": "setBytes",
      "outputs": [],
      "payable": false,
      "stateMutability": "nonpayable",
      "type": "function"
    },
    {
      "constant": false,
      "inputs": [
        {
          "name": "key",
          "type": "bytes32"
        },
        {
          "name": "value",
          "type": "bytes32"
        }
      ],
      "name": "setBytes32",
      "outputs": [],
      "payable": false,
      "stateMutability": "nonpayable",
      "type": "function"
    },
    {
      "constant": false,
      "inputs": [
        {
          "name": "key",
          "type": "bytes32"
        },
        {
          "name": "value",
          "type": "bool"
        }
      ],
      "name": "setBool",
      "outputs": [],
      "payable": false,
      "stateMutability": "nonpayable",
      "type": "function"
    },
    {
      "constant": false,
      "inputs": [
        {
          "name": "key",
          "type": "bytes32"
        },
        {
          "name": "value",
          "type": "int256"
        }
      ],
      "name": "setInt",
      "outputs": [],
      "payable": false,
      "stateMutability": "nonpayable",
      "type": "function"
    },
    {
      "constant": false,
      "inputs": [
        {
          "name": "key",
          "type": "bytes32"
        }
      ],
      "name": "deleteAddress",
      "outputs": [],
      "payable": false,
      "stateMutability": "nonpayable",
      "type": "function"
    },
    {
      "constant": false,
      "inputs": [
        {
          "name": "key",
          "type": "bytes32"
        }
      ],
      "name": "deleteUint",
      "outputs": [],
      "payable": false,
      "stateMutability": "nonpayable",
      "type": "function"
    },
    {
      "constant": false,
      "inputs": [
        {
          "name": "key",
          "type": "bytes32"
        }
      ],
      "name": "deleteString",
      "outputs": [],
      "payable": false,
      "stateMutability": "nonpayable",
      "type": "function"
    },
    {
      "constant": false,
      "inputs": [
        {
          "name": "key",
          "type": "bytes32"
        }
      ],
      "name": "deleteBytes",
      "outputs": [],
      "payable": false,
      "stateMutability": "nonpayable",
      "type": "function"
    },
    {
      "constant": false,
      "inputs": [
        {
          "name": "key",
          "type": "bytes32"
        }
      ],
      "name": "deleteBytes32",
      "outputs": [],
      "payable": false,
      "stateMutability": "nonpayable",
      "type": "function"
    },
    {
      "constant": false,
      "inputs": [
        {
          "name": "key",
          "type": "bytes32"
        }
      ],
      "name": "deleteBool",
      "outputs": [],
      "payable": false,
      "stateMutability": "nonpayable",
      "type": "function"
    },
    {
      "constant": false,
      "inputs": [
        {
          "name": "key",
          "type": "bytes32"
        }
      ],
      "name": "deleteInt",
      "outputs": [],
      "payable": false,
      "stateMutability": "nonpayable",
      "type": "function"
    }
  ],
  "bytecode": "0x60806040526000600a60006101000a81548161ffff021916908361ffff16021790555033600860006101000a81548173ffffffffffffffffffffffffffffffffffffffff021916908373ffffffffffffffffffffffffffffffffffffffff1602179055506115ef806100726000396000f30060806040526004361061013e576000357c0100000000000000000000000000000000000000000000000000000000900463ffffffff1680630b9adc57146101435780630e14a3761461017457806321f8a721146101a55780632c62ff2d146102165780632e28d084146102475780633e49bed0146102be5780634e91db08146102f9578063616b59f6146103385780636e899550146103695780637ae1cfca146103e05780638c160095146104295780638da5cb5b1461045a578063986e791a146104b1578063a6ed563e1461055b578063aa2055a4146105a8578063abfdcced146105eb578063bd02d0f514610628578063c031a1801461066d578063ca446dd914610717578063dc97d96214610768578063e2a4853a146107ad578063e2b202bf146107e8578063f2fde38b14610819578063f6bb3cc41461085c575b600080fd5b34801561014f57600080fd5b50610172600480360381019080803560001916906020019092919050505061088d565b005b34801561018057600080fd5b506101a360048036038101908080356000191690602001909291905050506108ca565b005b3480156101b157600080fd5b506101d46004803603810190808035600019169060200190929190505050610926565b604051808273ffffffffffffffffffffffffffffffffffffffff1673ffffffffffffffffffffffffffffffffffffffff16815260200191505060405180910390f35b34801561022257600080fd5b506102456004803603810190808035600019169060200190929190505050610986565b005b34801561025357600080fd5b506102bc6004803603810190808035600019169060200190929190803590602001908201803590602001908080601f01602080910402602001604051908101604052809392919081815260200183838082843782019150505050505091929192905050506109cf565b005b3480156102ca57600080fd5b506102f7600480360381019080803560001916906020019092919080359060200190929190505050610a1e565b005b34801561030557600080fd5b5061033660048036038101908080356000191690602001909291908035600019169060200190929190505050610a5d565b005b34801561034457600080fd5b506103676004803603810190808035600019169060200190929190505050610aa0565b005b34801561037557600080fd5b506103de6004803603810190808035600019169060200190929190803590602001908201803590602001908080601f0160208091040260200160405190810160405280939291908181526020018383808284378201915050505050509192919290505050610ae5565b005b3480156103ec57600080fd5b5061040f6004803603810190808035600019169060200190929190505050610b34565b604051808215151515815260200191505060405180910390f35b34801561043557600080fd5b506104586004803603810190808035600019169060200190929190505050610b81565b005b34801561046657600080fd5b5061046f610bbe565b604051808273ffffffffffffffffffffffffffffffffffffffff1673ffffffffffffffffffffffffffffffffffffffff16815260200191505060405180910390f35b3480156104bd57600080fd5b506104e06004803603810190808035600019169060200190929190505050610be4565b6040518080602001828103825283818151815260200191508051906020019080838360005b83811015610520578082015181840152602081019050610505565b50505050905090810190601f16801561054d5780820380516001836020036101000a031916815260200191505b509250505060405180910390f35b34801561056757600080fd5b5061058a6004803603810190808035600019169060200190929190505050610cbc565b60405180826000191660001916815260200191505060405180910390f35b3480156105b457600080fd5b506105e9600480360381019080803573ffffffffffffffffffffffffffffffffffffffff169060200190929190505050610cfc565b005b3480156105f757600080fd5b506106266004803603810190808035600019169060200190929190803515159060200190929190505050610eb7565b005b34801561063457600080fd5b506106576004803603810190808035600019169060200190929190505050610f09565b6040518082815260200191505060405180910390f35b34801561067957600080fd5b5061069c6004803603810190808035600019169060200190929190505050610f48565b6040518080602001828103825283818151815260200191508051906020019080838360005b838110156106dc5780820151818401526020810190506106c1565b50505050905090810190601f1680156107095780820380516001836020036101000a031916815260200191505b509250505060405180910390f35b34801561072357600080fd5b506107666004803603810190808035600019169060200190929190803573ffffffffffffffffffffffffffffffffffffffff169060200190929190505050611020565b005b34801561077457600080fd5b506107976004803603810190808035600019169060200190929190505050611099565b6040518082815260200191505060405180910390f35b3480156107b957600080fd5b506107e66004803603810190808035600019169060200190929190803590602001909291905050506110d9565b005b3480156107f457600080fd5b506108176004803603810190808035600019169060200190929190505050611117565b005b34801561082557600080fd5b5061085a600480360381019080803573ffffffffffffffffffffffffffffffffffffffff169060200190929190505050611153565b005b34801561086857600080fd5b5061088b60048036038101908080356000191690602001909291905050506112ab565b005b6108956112f0565b15156108a057600080fd5b600460006108ad8361134a565b600019166000191681526020019081526020016000206000905550565b6108d26112f0565b15156108dd57600080fd5b600260006108ea8361134a565b6000191660001916815260200190815260200160002060006101000a81549073ffffffffffffffffffffffffffffffffffffffff021916905550565b60006109306112f0565b151561093b57600080fd5b600260006109488461134a565b6000191660001916815260200190815260200160002060009054906101000a900473ffffffffffffffffffffffffffffffffffffffff169050919050565b61098e6112f0565b151561099957600080fd5b600560006109a68361134a565b6000191660001916815260200190815260200160002060006101000a81549060ff021916905550565b6109d76112f0565b15156109e257600080fd5b80600360006109f08561134a565b600019166000191681526020019081526020016000209080519060200190610a1992919061140e565b505050565b610a266112f0565b1515610a3157600080fd5b8060066000610a3f8561134a565b60001916600019168152602001908152602001600020819055505050565b610a656112f0565b1515610a7057600080fd5b8060046000610a7e8561134a565b6000191660001916815260200190815260200160002081600019169055505050565b610aa86112f0565b1515610ab357600080fd5b60036000610ac08361134a565b600019166000191681526020019081526020016000206000610ae2919061148e565b50565b610aed6112f0565b1515610af857600080fd5b8060016000610b068561134a565b600019166000191681526020019081526020016000209080519060200190610b2f9291906114d6565b505050565b6000610b3e6112f0565b1515610b4957600080fd5b60056000610b568461134a565b6000191660001916815260200190815260200160002060009054906101000a900460ff169050919050565b610b896112f0565b1515610b9457600080fd5b60066000610ba18361134a565b600019166000191681526020019081526020016000206000905550565b600860009054906101000a900473ffffffffffffffffffffffffffffffffffffffff1681565b6060610bee6112f0565b1515610bf957600080fd5b60016000610c068461134a565b600019166000191681526020019081526020016000208054600181600116156101000203166002900480601f016020809104026020016040519081016040528092919081815260200182805460018160011615610100020316600290048015610cb05780601f10610c8557610100808354040283529160200191610cb0565b820191906000526020600020905b815481529060010190602001808311610c9357829003601f168201915b50505050509050919050565b6000610cc66112f0565b1515610cd157600080fd5b60046000610cde8461134a565b60001916600019168152602001908152602001600020549050919050565b6000600860009054906101000a900473ffffffffffffffffffffffffffffffffffffffff1673ffffffffffffffffffffffffffffffffffffffff163373ffffffffffffffffffffffffffffffffffffffff16141515610d5a57600080fd5b600960008373ffffffffffffffffffffffffffffffffffffffff1673ffffffffffffffffffffffffffffffffffffffff16815260200190815260200160002060009054906101000a90047e010000000000000000000000000000000000000000000000000000000000000290506000600260ff16141515610dda57600080fd5b6001600a60009054906101000a900461ffff1601600a60006101000a81548161ffff021916908361ffff160217905550600a60009054906101000a900461ffff167e0100000000000000000000000000000000000000000000000000000000000002600960008473ffffffffffffffffffffffffffffffffffffffff1673ffffffffffffffffffffffffffffffffffffffff16815260200190815260200160002060006101000a81548161ffff02191690837e01000000000000000000000000000000000000000000000000000000000000900402179055505050565b610ebf6112f0565b1515610eca57600080fd5b8060056000610ed88561134a565b6000191660001916815260200190815260200160002060006101000a81548160ff0219169083151502179055505050565b6000610f136112f0565b1515610f1e57600080fd5b600080610f2a8461134a565b60001916600019168152602001908152602001600020549050919050565b6060610f526112f0565b1515610f5d57600080fd5b60036000610f6a8461134a565b600019166000191681526020019081526020016000208054600181600116156101000203166002900480601f0160208091040260200160405190810160405280929190818152602001828054600181600116156101000203166002900480156110145780601f10610fe957610100808354040283529160200191611014565b820191906000526020600020905b815481529060010190602001808311610ff757829003601f168201915b50505050509050919050565b6110286112f0565b151561103357600080fd5b80600260006110418561134a565b6000191660001916815260200190815260200160002060006101000a81548173ffffffffffffffffffffffffffffffffffffffff021916908373ffffffffffffffffffffffffffffffffffffffff1602179055505050565b60006110a36112f0565b15156110ae57600080fd5b600660006110bb8461134a565b60001916600019168152602001908152602001600020549050919050565b6110e16112f0565b15156110ec57600080fd5b806000806110f98561134a565b60001916600019168152602001908152602001600020819055505050565b61111f6112f0565b151561112a57600080fd5b6000806111368361134a565b600019166000191681526020019081526020016000206000905550565b600860009054906101000a900473ffffffffffffffffffffffffffffffffffffffff1673ffffffffffffffffffffffffffffffffffffffff163373ffffffffffffffffffffffffffffffffffffffff161415156111af57600080fd5b600073ffffffffffffffffffffffffffffffffffffffff168173ffffffffffffffffffffffffffffffffffffffff16141515156111eb57600080fd5b8073ffffffffffffffffffffffffffffffffffffffff16600860009054906101000a900473ffffffffffffffffffffffffffffffffffffffff1673ffffffffffffffffffffffffffffffffffffffff167f8be0079c531659141344cd1fd0a4f28419497f9722a3daafe3b4186f6b6457e060405160405180910390a380600860006101000a81548173ffffffffffffffffffffffffffffffffffffffff021916908373ffffffffffffffffffffffffffffffffffffffff16021790555050565b6112b36112f0565b15156112be57600080fd5b600160006112cb8361134a565b6000191660001916815260200190815260200160002060006112ed9190611556565b50565b600080600960003373ffffffffffffffffffffffffffffffffffffffff1673ffffffffffffffffffffffffffffffffffffffff16815260200190815260200160002060009054906101000a905050600260ff161415905090565b6000806000600960003373ffffffffffffffffffffffffffffffffffffffff1673ffffffffffffffffffffffffffffffffffffffff16815260200190815260200160002060009054906101000a90047e01000000000000000000000000000000000000000000000000000000000000027dffffffffffffffffffffffffffffffffffffffffffffffffffffffffffff191691506000602060ff16141515156113f157600080fd5b60f082600019169060020a02915083821790508092505050919050565b828054600181600116156101000203166002900490600052602060002090601f016020900481019282601f1061144f57805160ff191683800117855561147d565b8280016001018555821561147d579182015b8281111561147c578251825591602001919060010190611461565b5b50905061148a919061159e565b5090565b50805460018160011615610100020316600290046000825580601f106114b457506114d3565b601f0160209004906000526020600020908101906114d2919061159e565b5b50565b828054600181600116156101000203166002900490600052602060002090601f016020900481019282601f1061151757805160ff1916838001178555611545565b82800160010185558215611545579182015b82811115611544578251825591602001919060010190611529565b5b509050611552919061159e565b5090565b50805460018160011615610100020316600290046000825580601f1061157c575061159b565b601f01602090049060005260206000209081019061159a919061159e565b5b50565b6115c091905b808211156115bc5760008160009055506001016115a4565b5090565b905600a165627a7a7230582027c67a2fcd435c7c3f43c810ea116324d92495d807613378b03a3c4e1e1e66ae0029",
  "source": "pragma solidity ^0.4.18;\n\nimport 'zeppelin-solidity/contracts/ownership/Ownable.sol';\nimport './KeyValueStorage.sol';\n\n\ncontract OwnableStorage is KeyValueStorage, Ownable {\n\n  mapping(address => bytes2) _contractIdMap;\n  uint16 contractIdCount = 0;\n\n  function setContractId(address contractAddress) public onlyOwner {\n    bytes2 existingId = _contractIdMap[contractAddress];\n    require (existingId.length == 0);\n    contractIdCount = contractIdCount + 1;\n    _contractIdMap[contractAddress] = bytes2(contractIdCount);\n  }\n\n  modifier isAllowed {\n    require(senderIsValid());\n    _;\n  }\n\n  /**** Get Methods ***********/\n\n  function getAddress(bytes32 key) public view isAllowed returns (address) {\n      return _addressStorage[scopedKey(key)];\n  }\n\n  function getUint(bytes32 key) public view isAllowed returns (uint) {\n      return _uintStorage[scopedKey(key)];\n  }\n\n  function getString(bytes32 key) public view isAllowed returns (string) {\n      return _stringStorage[scopedKey(key)];\n  }\n\n  function getBytes(bytes32 key) public view isAllowed returns (bytes) {\n      return _bytesStorage[scopedKey(key)];\n  }\n\n  function getBytes32(bytes32 key) public view isAllowed returns (bytes32) {\n      return _bytes32Storage[scopedKey(key)];\n  }\n\n  function getBool(bytes32 key) public view isAllowed returns (bool) {\n      return _boolStorage[scopedKey(key)];\n  }\n\n  function getInt(bytes32 key) public view isAllowed returns (int) {\n      return _intStorage[scopedKey(key)];\n  }\n\n  /**** Set Methods ***********/\n\n  function setAddress(bytes32 key, address value) public isAllowed {\n    _addressStorage[scopedKey(key)] = value;\n  }\n\n  function setUint(bytes32 key, uint value) public isAllowed {\n      _uintStorage[scopedKey(key)] = value;\n  }\n\n  function setString(bytes32 key, string value) public isAllowed {\n      _stringStorage[scopedKey(key)] = value;\n  }\n\n  function setBytes(bytes32 key, bytes value) public isAllowed {\n      _bytesStorage[scopedKey(key)] = value;\n  }\n\n  function setBytes32(bytes32 key, bytes32 value) public isAllowed {\n      _bytes32Storage[scopedKey(key)] = value;\n  }\n\n  function setBool(bytes32 key, bool value) public isAllowed {\n      _boolStorage[scopedKey(key)] = value;\n  }\n\n  function setInt(bytes32 key, int value) public isAllowed {\n      _intStorage[scopedKey(key)] = value;\n  }\n\n  /**** Delete Methods ***********/\n\n  function deleteAddress(bytes32 key) public isAllowed {\n      delete _addressStorage[scopedKey(key)];\n  }\n\n  function deleteUint(bytes32 key) public isAllowed {\n      delete _uintStorage[scopedKey(key)];\n  }\n\n  function deleteString(bytes32 key) public isAllowed {\n      delete _stringStorage[scopedKey(key)];\n  }\n\n  function deleteBytes(bytes32 key) public isAllowed {\n      delete _bytesStorage[scopedKey(key)];\n  }\n\n  function deleteBytes32(bytes32 key) public isAllowed {\n      delete _bytes32Storage[scopedKey(key)];\n  }\n\n  function deleteBool(bytes32 key) public isAllowed {\n      delete _boolStorage[scopedKey(key)];\n  }\n\n  function deleteInt(bytes32 key) public isAllowed {\n      delete _intStorage[scopedKey(key)];\n  }\n\n  /**** Private Methods ***********/\n\n  function senderIsValid() private view returns (bool) {\n    return _contractIdMap[msg.sender].length != 0;\n  }\n\n  function scopedKey(bytes32 key) internal view returns(bytes32) {\n    bytes32 contractId = _contractIdMap[msg.sender];\n    require(contractId.length != 0);\n    contractId = contractId << 30*8;\n    bytes32 scoped_key = contractId | key;\n    return scoped_key;\n  }\n\n}\n",
  "sourcePath": "/home/henry/ws/botchain/contracts/Upgradability/OwnableStorage.sol",
  "compiler": {
    "name": "solc",
    "version": "0.4.24+commit.e67f0147.Emscripten.clang"
  },
  "schemaVersion": "2.0.1",
  "updatedAt": "2018-11-01T15:08:00.553Z"
}