{
  "contractName": "OwnableRegistry",
  "abi": [
    {
      "inputs": [
        {
          "name": "storage_",
          "type": "address"
        }
      ],
      "payable": false,
      "stateMutability": "nonpayable",
      "type": "constructor"
    },
    {
      "constant": true,
      "inputs": [],
      "name": "ownerRegistry",
      "outputs": [
        {
          "name": "",
          "type": "address"
        }
      ],
      "payable": false,
      "stateMutability": "view",
      "type": "function"
    },
    {
      "constant": true,
      "inputs": [],
      "name": "totalSupply",
      "outputs": [
        {
          "name": "",
          "type": "uint256"
        }
      ],
      "payable": false,
      "stateMutability": "view",
      "type": "function"
    },
    {
      "constant": true,
      "inputs": [
        {
          "name": "_ownerTokenId",
          "type": "uint256"
        }
      ],
      "name": "balanceOf",
      "outputs": [
        {
          "name": "",
          "type": "uint256"
        }
      ],
      "payable": false,
      "stateMutability": "view",
      "type": "function"
    },
    {
      "constant": true,
      "inputs": [
        {
          "name": "_ownerTokenId",
          "type": "uint256"
        }
      ],
      "name": "tokensOf",
      "outputs": [
        {
          "name": "",
          "type": "uint256[]"
        }
      ],
      "payable": false,
      "stateMutability": "view",
      "type": "function"
    },
    {
      "constant": true,
      "inputs": [
        {
          "name": "_tokenId",
          "type": "uint256"
        }
      ],
      "name": "ownerOf",
      "outputs": [
        {
          "name": "",
          "type": "uint256"
        }
      ],
      "payable": false,
      "stateMutability": "view",
      "type": "function"
    },
    {
      "constant": true,
      "inputs": [
        {
          "name": "_entryId",
          "type": "uint256"
        }
      ],
      "name": "ownerOfEntry",
      "outputs": [
        {
          "name": "",
          "type": "address"
        }
      ],
      "payable": false,
      "stateMutability": "view",
      "type": "function"
    }
  ],
  "bytecode": "0x608060405234801561001057600080fd5b506040516020806109d78339810180604052810190808051906020019092919050505080806000806101000a81548173ffffffffffffffffffffffffffffffffffffffff021916908373ffffffffffffffffffffffffffffffffffffffff1602179055505050610952806100856000396000f300608060405260043610610078576000357c0100000000000000000000000000000000000000000000000000000000900463ffffffff1680630c54a71a1461007d57806318160ddd146100d45780636352211e146100ff5780639cc7f70814610140578063a2eb892714610181578063ce03ffc914610203575b600080fd5b34801561008957600080fd5b50610092610270565b604051808273ffffffffffffffffffffffffffffffffffffffff1673ffffffffffffffffffffffffffffffffffffffff16815260200191505060405180910390f35b3480156100e057600080fd5b506100e9610362565b6040518082815260200191505060405180910390f35b34801561010b57600080fd5b5061012a60048036038101908080359060200190929190505050610454565b6040518082815260200191505060405180910390f35b34801561014c57600080fd5b5061016b6004803603810190808035906020019092919050505061047b565b6040518082815260200191505060405180910390f35b34801561018d57600080fd5b506101ac60048036038101908080359060200190929190505050610594565b6040518080602001828103825283818151815260200191508051906020019060200280838360005b838110156101ef5780820151818401526020810190506101d4565b505050509050019250505060405180910390f35b34801561020f57600080fd5b5061022e60048036038101908080359060200190929190505050610624565b604051808273ffffffffffffffffffffffffffffffffffffffff1673ffffffffffffffffffffffffffffffffffffffff16815260200191505060405180910390f35b60008060009054906101000a900473ffffffffffffffffffffffffffffffffffffffff1673ffffffffffffffffffffffffffffffffffffffff166321f8a7216040518163ffffffff167c010000000000000000000000000000000000000000000000000000000002815260040180807f6f776e65725265676973747279416464726573730000000000000000000000008152506020019050602060405180830381600087803b15801561032257600080fd5b505af1158015610336573d6000803e3d6000fd5b505050506040513d602081101561034c57600080fd5b8101908080519060200190929190505050905090565b60008060009054906101000a900473ffffffffffffffffffffffffffffffffffffffff1673ffffffffffffffffffffffffffffffffffffffff1663bd02d0f56040518163ffffffff167c010000000000000000000000000000000000000000000000000000000002815260040180807f746f74616c546f6b656e730000000000000000000000000000000000000000008152506020019050602060405180830381600087803b15801561041457600080fd5b505af1158015610428573d6000803e3d6000fd5b505050506040513d602081101561043e57600080fd5b8101908080519060200190929190505050905090565b600080610460836106eb565b90506000811415151561047257600080fd5b80915050919050565b60008060009054906101000a900473ffffffffffffffffffffffffffffffffffffffff1673ffffffffffffffffffffffffffffffffffffffff1663bd02d0f58360405180807f6f776e657242616c616e63657300000000000000000000000000000000000000815250600d0182815260200191505060405180910390206040518263ffffffff167c0100000000000000000000000000000000000000000000000000000000028152600401808260001916600019168152602001915050602060405180830381600087803b15801561055257600080fd5b505af1158015610566573d6000803e3d6000fd5b505050506040513d602081101561057c57600080fd5b81019080805190602001909291905050509050919050565b60606000606060006105a58561047b565b9250826040519080825280602002602001820160405280156105d65781602001602082028038833980820191505090505b509150600090505b82811015610619576105f08582610804565b82828151811015156105fe57fe5b906020019060200201818152505080806001019150506105de565b819350505050919050565b60008061063083610454565b905061063a610270565b73ffffffffffffffffffffffffffffffffffffffff1663ce03ffc9826040518263ffffffff167c010000000000000000000000000000000000000000000000000000000002815260040180828152602001915050602060405180830381600087803b1580156106a857600080fd5b505af11580156106bc573d6000803e3d6000fd5b505050506040513d60208110156106d257600080fd5b8101908080519060200190929190505050915050919050565b60008060009054906101000a900473ffffffffffffffffffffffffffffffffffffffff1673ffffffffffffffffffffffffffffffffffffffff1663bd02d0f58360405180807f746f6b656e4f776e657273000000000000000000000000000000000000000000815250600b0182815260200191505060405180910390206040518263ffffffff167c0100000000000000000000000000000000000000000000000000000000028152600401808260001916600019168152602001915050602060405180830381600087803b1580156107c257600080fd5b505af11580156107d6573d6000803e3d6000fd5b505050506040513d60208110156107ec57600080fd5b81019080805190602001909291905050509050919050565b60008060009054906101000a900473ffffffffffffffffffffffffffffffffffffffff1673ffffffffffffffffffffffffffffffffffffffff1663bd02d0f5848460405180807f6f776e6564546f6b656e73000000000000000000000000000000000000000000815250600b018381526020018281526020019250505060405180910390206040518263ffffffff167c0100000000000000000000000000000000000000000000000000000000028152600401808260001916600019168152602001915050602060405180830381600087803b1580156108e357600080fd5b505af11580156108f7573d6000803e3d6000fd5b505050506040513d602081101561090d57600080fd5b81019080805190602001909291905050509050929150505600a165627a7a723058205ce30928e64ea7acd1858c91f5a0fcedb0b290ac0bbdc9d72a5f5b62f42f9f940029",
  "source": "pragma solidity ^0.4.18;\n\nimport \"zeppelin-solidity/contracts/math/SafeMath.sol\";\nimport \"../Upgradability/StorageConsumer.sol\";\nimport \"./OwnerRegistry.sol\";\nimport \"./Registry.sol\";\n\n/**\n * @title OwnableRegistry\n * @dev Registry of token ID's that are owned by another token from a different registry\n */\ncontract OwnableRegistry is Registry, StorageConsumer {\n  using SafeMath for uint256;\n\n  /* @dev Constructor for OwnableRegistry */\n  function OwnableRegistry(BaseStorage storage_) StorageConsumer(storage_) public {}\n\n  /**\n  * @dev Gets address for owner registry\n  */\n  function ownerRegistry() public view returns (OwnerRegistry) {\n    return OwnerRegistry(_storage.getAddress(\"ownerRegistryAddress\"));\n  }\n\n  /**\n  * @dev Gets the total amount of tokens stored by the contract\n  * @return uint256 representing the total amount of tokens\n  */\n  function totalSupply() public view returns (uint256) {\n    return _storage.getUint(\"totalTokens\");\n  }\n\n  /**\n  * @dev Gets the balance of the specified token\n  * @param _ownerTokenId token ID to query the balance of\n  * @return uint256 representing the amount owned by the passed token ID\n  */\n  function balanceOf(uint256 _ownerTokenId) public view returns (uint256) {\n    return _storage.getUint(keccak256(\"ownerBalances\", _ownerTokenId));\n  }\n\n  /**\n  * @dev Gets the list of tokens owned by a given token ID\n  * @param _ownerTokenId uint256 to query the tokens of\n  * @return uint256[] representing the list of tokens owned by the passed token ID\n  */\n  function tokensOf(uint256 _ownerTokenId) public view returns (uint256[]) {\n    uint256 _ownerBalance = balanceOf(_ownerTokenId);\n    uint256[] memory _tokens = new uint256[](_ownerBalance);\n    for (uint256 i = 0; i < _ownerBalance; i++) {\n      _tokens[i] = getOwnedToken(_ownerTokenId, i);\n    }\n    return _tokens;\n  }\n\n  /**\n  * @dev Gets the owner id of the specified token ID\n  * @param _tokenId uint256 ID of the token to query the owner id of\n  * @return ownerTokenId token ID currently marked as the owner id of the given token ID\n  */\n  function ownerOf(uint256 _tokenId) public view returns (uint256) {\n    uint256 ownerTokenId = getTokenOwner(_tokenId);\n    require(ownerTokenId != 0);\n    return ownerTokenId;\n  }\n\n  /**\n  * @dev Returns id of owner of entry\n  * @param _entryId The id of the entry\n  * @return id that owns the entry with the given id\n  */\n  function ownerOfEntry(uint256 _entryId) public view returns (address) {\n    uint256 parentEntryId = ownerOf(_entryId);\n    return ownerRegistry().ownerOfEntry(parentEntryId);\n  }\n\n  /**\n  * @dev Mint token function\n  * @param _ownerTokenId uint256 ID of the token that will own the minted token\n  * @param _tokenId uint256 ID of the token to be minted by the msg.sender\n  */\n  function _mint(uint256 _ownerTokenId, uint256 _tokenId) internal {\n    require(_ownerTokenId != 0);\n    addToken(_ownerTokenId, _tokenId);\n  }\n\n  /**\n  * @dev Internal function to get token owner by token ID\n  * @param tokenId uint256 ID of the token to get the owner for\n  * @return uint255 The ID of the token that owns the token an with ID of tokenId\n  */\n  function getTokenOwner(uint256 tokenId) private view returns (uint256) {\n    return _storage.getUint(keccak256(\"tokenOwners\", tokenId));\n  }\n\n  /**\n  * @dev Internal function to get an ID value from list of owned token ID's\n  * @param ownerTokenId The token ID for the owner of the token list\n  * @param tokenIndex uint256 The index of the token ID value within the list\n  * @return uint256 The token ID for the given owner and token index\n  */\n  function getOwnedToken(uint256 ownerTokenId, uint256 tokenIndex) private view returns (uint256) {\n    return _storage.getUint(keccak256(\"ownedTokens\", ownerTokenId, tokenIndex));\n  }\n\n  /**\n  * @dev Internal function to get the index of a token ID within the owned tokens list\n  * @param tokenId uint256 ID of the token to get the index for\n  * @return uint256 The index of the token for the given ID\n  */\n  function getOwnedTokenIndex(uint256 tokenId) private view returns (uint256) {\n    return _storage.getUint(keccak256(\"ownedTokensIndex\", tokenId));\n  }\n\n  /**\n  * @dev Internal function to add a token ID to the list of a given owner token ID\n  * @param _toOwnerTokenId uint256 representing the new owner of the given token ID\n  * @param _tokenId uint256 ID of the token to be added to the tokens list of the given owner token ID\n  */\n  function addToken(uint256 _toOwnerTokenId, uint256 _tokenId) private {\n    require(getTokenOwner(_tokenId) == 0);\n    setTokenOwner(_tokenId, _toOwnerTokenId);\n    uint256 length = balanceOf(_toOwnerTokenId);\n    pushOwnedToken(_toOwnerTokenId, _tokenId);\n    setOwnedTokenIndex(_tokenId, length);\n    incrementTotalTokens();\n  }\n  \n  /**\n  * @dev Internal function to increase totalTokens by 1\n  */\n  function incrementTotalTokens() private {\n    _storage.setUint(\"totalTokens\", totalSupply().add(1));\n  }\n\n  /**\n  * @dev Internal function to decrease totalTokens by 1\n  */\n  function decrementTotalTokens() private {\n    _storage.setUint(\"totalTokens\", totalSupply().sub(1));\n  }\n\n  /**\n  * @dev Internal function to set token owner by token ID\n  * @param tokenId uint256 ID of the token to set the owner for\n  * @param ownerTokenId uint256 The ID of the token owner\n  */\n  function setTokenOwner(uint256 tokenId, uint256 ownerTokenId) private {\n    _storage.setUint(keccak256(\"tokenOwners\", tokenId), ownerTokenId);\n  }\n\n  /**\n  * @dev Internal function to increment an owner's token balance by 1\n  * @param ownerTokenId uint256 The owner's token ID\n  */\n  function incrementOwnerBalance(uint256 ownerTokenId) private {\n    _storage.setUint(keccak256(\"ownerBalances\", ownerTokenId), balanceOf(ownerTokenId).add(1));\n  }\n\n  /**\n  * @dev Internal function to decrement an owner's token balance by 1\n  * @param ownerTokenId uint256 The owner's token ID\n  */\n  function decrementOwnerBalance(uint256 ownerTokenId) private {\n    _storage.setUint(keccak256(\"ownerBalances\", ownerTokenId), balanceOf(ownerTokenId).sub(1));\n  }\n\n  /**\n  * @dev Internal function to set an ID value within a list of owned token ID's\n  * @param ownerTokenId uint256 The token ID of the owner of the token list\n  * @param tokenIndex uint256 The index to set within the owned token list\n  * @param tokenId uint256 The ID of the token to set\n  */\n  function setOwnedToken(uint256 ownerTokenId, uint256 tokenIndex, uint256 tokenId) private {\n    _storage.setUint(keccak256(\"ownedTokens\", ownerTokenId, tokenIndex), tokenId);\n  }\n\n  /**\n  * @dev Internal function to append an ID value to a list of owned token ID's\n  * @param ownerTokenId uint256 The token ID of the owner of the token list\n  * @param tokenId uint256 The token ID to append\n  */\n  function pushOwnedToken(uint256 ownerTokenId, uint256 tokenId) private {\n    _storage.setUint(keccak256(\"ownedTokens\", ownerTokenId, balanceOf(ownerTokenId)), tokenId);\n    incrementOwnerBalance(ownerTokenId);\n  }\n\n  /**\n  * @dev Internal function to set the index of a token ID within the owned tokens list\n  * @param tokenId uint256 ID of the token to set the index for\n  * @param tokenIndex uint256 The token index to set for the given token ID\n  */\n  function setOwnedTokenIndex(uint256 tokenId, uint256 tokenIndex) private {\n    _storage.setUint(keccak256(\"ownedTokensIndex\", tokenId), tokenIndex);\n  }\n}\n",
  "sourcePath": "/home/henry/ws/botchain/contracts/Registry/OwnableRegistry.sol",
  "compiler": {
    "name": "solc",
    "version": "0.4.24+commit.e67f0147.Emscripten.clang"
  },
  "schemaVersion": "2.0.1",
  "updatedAt": "2018-11-01T15:08:00.543Z"
}