{
  "contractName": "TokenVaultDelegate",
  "abi": [
    {
      "constant": false,
      "inputs": [
        {
          "name": "newArbiter",
          "type": "address"
        }
      ],
      "name": "changeArbiter",
      "outputs": [],
      "payable": false,
      "stateMutability": "nonpayable",
      "type": "function"
    },
    {
      "constant": true,
      "inputs": [],
      "name": "getOwner",
      "outputs": [
        {
          "name": "",
          "type": "address"
        }
      ],
      "payable": false,
      "stateMutability": "view",
      "type": "function"
    },
    {
      "constant": true,
      "inputs": [],
      "name": "balance",
      "outputs": [
        {
          "name": "",
          "type": "uint256"
        }
      ],
      "payable": false,
      "stateMutability": "view",
      "type": "function"
    },
    {
      "constant": true,
      "inputs": [],
      "name": "getArbiter",
      "outputs": [
        {
          "name": "",
          "type": "address"
        }
      ],
      "payable": false,
      "stateMutability": "view",
      "type": "function"
    },
    {
      "constant": false,
      "inputs": [
        {
          "name": "newOwner",
          "type": "address"
        }
      ],
      "name": "transferOwnership",
      "outputs": [],
      "payable": false,
      "stateMutability": "nonpayable",
      "type": "function"
    },
    {
      "inputs": [
        {
          "name": "_storage",
          "type": "address"
        },
        {
          "name": "_arbiter",
          "type": "address"
        }
      ],
      "payable": false,
      "stateMutability": "nonpayable",
      "type": "constructor"
    },
    {
      "anonymous": false,
      "inputs": [
        {
          "indexed": false,
          "name": "_balance",
          "type": "uint256"
        }
      ],
      "name": "BalanceUpdate",
      "type": "event"
    },
    {
      "anonymous": false,
      "inputs": [
        {
          "indexed": true,
          "name": "previousArbiter",
          "type": "address"
        },
        {
          "indexed": true,
          "name": "newArbiter",
          "type": "address"
        }
      ],
      "name": "ArbiterChange",
      "type": "event"
    },
    {
      "anonymous": false,
      "inputs": [
        {
          "indexed": true,
          "name": "previousOwner",
          "type": "address"
        },
        {
          "indexed": true,
          "name": "newOwner",
          "type": "address"
        }
      ],
      "name": "OwnershipTransferred",
      "type": "event"
    },
    {
      "constant": false,
      "inputs": [],
      "name": "botcoin",
      "outputs": [
        {
          "name": "",
          "type": "address"
        }
      ],
      "payable": false,
      "stateMutability": "nonpayable",
      "type": "function"
    },
    {
      "constant": false,
      "inputs": [],
      "name": "applyCuratorReward",
      "outputs": [],
      "payable": false,
      "stateMutability": "nonpayable",
      "type": "function"
    },
    {
      "constant": false,
      "inputs": [],
      "name": "applyDeveloperReward",
      "outputs": [],
      "payable": false,
      "stateMutability": "nonpayable",
      "type": "function"
    },
    {
      "constant": false,
      "inputs": [],
      "name": "reservedBalance",
      "outputs": [
        {
          "name": "",
          "type": "uint256"
        }
      ],
      "payable": false,
      "stateMutability": "nonpayable",
      "type": "function"
    },
    {
      "constant": true,
      "inputs": [],
      "name": "curatorRewardRate",
      "outputs": [
        {
          "name": "",
          "type": "uint256"
        }
      ],
      "payable": false,
      "stateMutability": "view",
      "type": "function"
    },
    {
      "constant": false,
      "inputs": [
        {
          "name": "rate",
          "type": "uint256"
        }
      ],
      "name": "setCuratorRewardRate",
      "outputs": [],
      "payable": false,
      "stateMutability": "nonpayable",
      "type": "function"
    },
    {
      "constant": false,
      "inputs": [
        {
          "name": "rate",
          "type": "uint256"
        }
      ],
      "name": "setDeveloperRewardRate",
      "outputs": [],
      "payable": false,
      "stateMutability": "nonpayable",
      "type": "function"
    },
    {
      "constant": true,
      "inputs": [],
      "name": "developerRewardRate",
      "outputs": [
        {
          "name": "",
          "type": "uint256"
        }
      ],
      "payable": false,
      "stateMutability": "view",
      "type": "function"
    },
    {
      "constant": false,
      "inputs": [],
      "name": "collectCuratorReward",
      "outputs": [],
      "payable": false,
      "stateMutability": "nonpayable",
      "type": "function"
    }
  ],
  "bytecode": "0x60806040523480156200001157600080fd5b5060405160408062001bcc83398101806040528101908080519060200190929190805190602001909291905050508181818181818180806000806101000a81548173ffffffffffffffffffffffffffffffffffffffff021916908373ffffffffffffffffffffffffffffffffffffffff1602179055505060008173ffffffffffffffffffffffffffffffffffffffff16141515620000c457620000c3336200010f640100000000026401000000009004565b5b5060008173ffffffffffffffffffffffffffffffffffffffff161415156200010157620001008162000210640100000000026401000000009004565b5b505050505050505062000311565b6000809054906101000a900473ffffffffffffffffffffffffffffffffffffffff1673ffffffffffffffffffffffffffffffffffffffff1663ca446dd9826040518263ffffffff167c010000000000000000000000000000000000000000000000000000000002815260040180807f6f776e65720000000000000000000000000000000000000000000000000000008152506020018273ffffffffffffffffffffffffffffffffffffffff1673ffffffffffffffffffffffffffffffffffffffff168152602001915050600060405180830381600087803b158015620001f457600080fd5b505af115801562000209573d6000803e3d6000fd5b5050505050565b6000809054906101000a900473ffffffffffffffffffffffffffffffffffffffff1673ffffffffffffffffffffffffffffffffffffffff1663ca446dd9826040518263ffffffff167c010000000000000000000000000000000000000000000000000000000002815260040180807f61726269746572000000000000000000000000000000000000000000000000008152506020018273ffffffffffffffffffffffffffffffffffffffff1673ffffffffffffffffffffffffffffffffffffffff168152602001915050600060405180830381600087803b158015620002f557600080fd5b505af11580156200030a573d6000803e3d6000fd5b5050505050565b6118ab80620003216000396000f3006080604052600436106100d0576000357c0100000000000000000000000000000000000000000000000000000000900463ffffffff1680630b2a32ce146100d5578063171aaa94146101005780633ed881871461012d5780634a52d11a14610144578063538ed7281461015b57806376cfa3121461017257806382e7434e146101b5578063893d20e8146101e05780639dbd367114610237578063a1aabda61461028e578063b69ef8a8146102b9578063cffe00f9146102e4578063f2fde38b1461033b578063f39f44041461037e575b600080fd5b3480156100e157600080fd5b506100ea6103ab565b6040518082815260200191505060405180910390f35b34801561010c57600080fd5b5061012b6004803603810190808035906020019092919050505061049d565b005b34801561013957600080fd5b506101426105b1565b005b34801561015057600080fd5b506101596106ce565b005b34801561016757600080fd5b50610170610825565b005b34801561017e57600080fd5b506101b3600480360381019080803573ffffffffffffffffffffffffffffffffffffffff1690602001909291905050506108d1565b005b3480156101c157600080fd5b506101ca6109bb565b6040518082815260200191505060405180910390f35b3480156101ec57600080fd5b506101f5610aad565b604051808273ffffffffffffffffffffffffffffffffffffffff1673ffffffffffffffffffffffffffffffffffffffff16815260200191505060405180910390f35b34801561024357600080fd5b5061024c610b9f565b604051808273ffffffffffffffffffffffffffffffffffffffff1673ffffffffffffffffffffffffffffffffffffffff16815260200191505060405180910390f35b34801561029a57600080fd5b506102a3610c91565b6040518082815260200191505060405180910390f35b3480156102c557600080fd5b506102ce610d83565b6040518082815260200191505060405180910390f35b3480156102f057600080fd5b506102f9610ed5565b604051808273ffffffffffffffffffffffffffffffffffffffff1673ffffffffffffffffffffffffffffffffffffffff16815260200191505060405180910390f35b34801561034757600080fd5b5061037c600480360381019080803573ffffffffffffffffffffffffffffffffffffffff169060200190929190505050610fc7565b005b34801561038a57600080fd5b506103a9600480360381019080803590602001909291905050506110b1565b005b60008060009054906101000a900473ffffffffffffffffffffffffffffffffffffffff1673ffffffffffffffffffffffffffffffffffffffff1663bd02d0f56040518163ffffffff167c010000000000000000000000000000000000000000000000000000000002815260040180807f63757261746f72456d697373696f6e52617465000000000000000000000000008152506020019050602060405180830381600087803b15801561045d57600080fd5b505af1158015610471573d6000803e3d6000fd5b505050506040513d602081101561048757600080fd5b8101908080519060200190929190505050905090565b6104a5610aad565b73ffffffffffffffffffffffffffffffffffffffff163373ffffffffffffffffffffffffffffffffffffffff161415156104de57600080fd5b6000809054906101000a900473ffffffffffffffffffffffffffffffffffffffff1673ffffffffffffffffffffffffffffffffffffffff1663e2a4853a826040518263ffffffff167c010000000000000000000000000000000000000000000000000000000002815260040180807f646576656c6f706572456d697373696f6e526174650000000000000000000000815250602001828152602001915050600060405180830381600087803b15801561059657600080fd5b505af11580156105aa573d6000803e3d6000fd5b5050505050565b60006105bb610d83565b90506105c5610c91565b81111515156105d357600080fd5b6105db610b9f565b73ffffffffffffffffffffffffffffffffffffffff1663a9059cbb32836040518363ffffffff167c0100000000000000000000000000000000000000000000000000000000028152600401808373ffffffffffffffffffffffffffffffffffffffff1673ffffffffffffffffffffffffffffffffffffffff16815260200182815260200192505050602060405180830381600087803b15801561067d57600080fd5b505af1158015610691573d6000803e3d6000fd5b505050506040513d60208110156106a757600080fd5b810190808051906020019092919050505015156106c357600080fd5b6106cb6111c5565b50565b6106d6610ed5565b73ffffffffffffffffffffffffffffffffffffffff163373ffffffffffffffffffffffffffffffffffffffff1614151561070f57600080fd5b610717611221565b61071f6109bb565b1115151561072c57600080fd5b610734610b9f565b73ffffffffffffffffffffffffffffffffffffffff1663a9059cbb326107586109bb565b6040518363ffffffff167c0100000000000000000000000000000000000000000000000000000000028152600401808373ffffffffffffffffffffffffffffffffffffffff1673ffffffffffffffffffffffffffffffffffffffff16815260200182815260200192505050602060405180830381600087803b1580156107dd57600080fd5b505af11580156107f1573d6000803e3d6000fd5b505050506040513d602081101561080757600080fd5b8101908080519060200190929190505050151561082357600080fd5b565b61082d610ed5565b73ffffffffffffffffffffffffffffffffffffffff163373ffffffffffffffffffffffffffffffffffffffff1614151561086657600080fd5b6108766108716103ab565b611239565b610890326108826103ab565b61088a610d83565b0161133d565b507fcf3d22c0a89321c749239a97002de8e0b3cfce4886874148b15bab3962a5c9b76108ba610d83565b6040518082815260200191505060405180910390a1565b6108d9610aad565b73ffffffffffffffffffffffffffffffffffffffff163373ffffffffffffffffffffffffffffffffffffffff1614151561091257600080fd5b600073ffffffffffffffffffffffffffffffffffffffff168173ffffffffffffffffffffffffffffffffffffffff161415151561094e57600080fd5b8073ffffffffffffffffffffffffffffffffffffffff1661096d610ed5565b73ffffffffffffffffffffffffffffffffffffffff167f0235cc560a61b22b1b05325679baabe0bfed9269fa7337232e6de194c90fcca560405160405180910390a36109b8816114ac565b50565b60008060009054906101000a900473ffffffffffffffffffffffffffffffffffffffff1673ffffffffffffffffffffffffffffffffffffffff1663bd02d0f56040518163ffffffff167c010000000000000000000000000000000000000000000000000000000002815260040180807f646576656c6f706572456d697373696f6e5261746500000000000000000000008152506020019050602060405180830381600087803b158015610a6d57600080fd5b505af1158015610a81573d6000803e3d6000fd5b505050506040513d6020811015610a9757600080fd5b8101908080519060200190929190505050905090565b60008060009054906101000a900473ffffffffffffffffffffffffffffffffffffffff1673ffffffffffffffffffffffffffffffffffffffff166321f8a7216040518163ffffffff167c010000000000000000000000000000000000000000000000000000000002815260040180807f6f776e65720000000000000000000000000000000000000000000000000000008152506020019050602060405180830381600087803b158015610b5f57600080fd5b505af1158015610b73573d6000803e3d6000fd5b505050506040513d6020811015610b8957600080fd5b8101908080519060200190929190505050905090565b60008060009054906101000a900473ffffffffffffffffffffffffffffffffffffffff1673ffffffffffffffffffffffffffffffffffffffff166321f8a7216040518163ffffffff167c010000000000000000000000000000000000000000000000000000000002815260040180807f626f74436f696e416464726573730000000000000000000000000000000000008152506020019050602060405180830381600087803b158015610c5157600080fd5b505af1158015610c65573d6000803e3d6000fd5b505050506040513d6020811015610c7b57600080fd5b8101908080519060200190929190505050905090565b60008060009054906101000a900473ffffffffffffffffffffffffffffffffffffffff1673ffffffffffffffffffffffffffffffffffffffff1663bd02d0f56040518163ffffffff167c010000000000000000000000000000000000000000000000000000000002815260040180807f726573657276656442616c616e636500000000000000000000000000000000008152506020019050602060405180830381600087803b158015610d4357600080fd5b505af1158015610d57573d6000803e3d6000fd5b505050506040513d6020811015610d6d57600080fd5b8101908080519060200190929190505050905090565b60008060009054906101000a900473ffffffffffffffffffffffffffffffffffffffff1673ffffffffffffffffffffffffffffffffffffffff1663bd02d0f53260405180807f706179656542616c616e63650000000000000000000000000000000000000000815250600c018273ffffffffffffffffffffffffffffffffffffffff1673ffffffffffffffffffffffffffffffffffffffff166c0100000000000000000000000002815260140191505060405180910390206040518263ffffffff167c0100000000000000000000000000000000000000000000000000000000028152600401808260001916600019168152602001915050602060405180830381600087803b158015610e9557600080fd5b505af1158015610ea9573d6000803e3d6000fd5b505050506040513d6020811015610ebf57600080fd5b8101908080519060200190929190505050905090565b60008060009054906101000a900473ffffffffffffffffffffffffffffffffffffffff1673ffffffffffffffffffffffffffffffffffffffff166321f8a7216040518163ffffffff167c010000000000000000000000000000000000000000000000000000000002815260040180807f61726269746572000000000000000000000000000000000000000000000000008152506020019050602060405180830381600087803b158015610f8757600080fd5b505af1158015610f9b573d6000803e3d6000fd5b505050506040513d6020811015610fb157600080fd5b8101908080519060200190929190505050905090565b610fcf610aad565b73ffffffffffffffffffffffffffffffffffffffff163373ffffffffffffffffffffffffffffffffffffffff1614151561100857600080fd5b600073ffffffffffffffffffffffffffffffffffffffff168173ffffffffffffffffffffffffffffffffffffffff161415151561104457600080fd5b8073ffffffffffffffffffffffffffffffffffffffff16611063610aad565b73ffffffffffffffffffffffffffffffffffffffff167f8be0079c531659141344cd1fd0a4f28419497f9722a3daafe3b4186f6b6457e060405160405180910390a36110ae816115ab565b50565b6110b9610aad565b73ffffffffffffffffffffffffffffffffffffffff163373ffffffffffffffffffffffffffffffffffffffff161415156110f257600080fd5b6000809054906101000a900473ffffffffffffffffffffffffffffffffffffffff1673ffffffffffffffffffffffffffffffffffffffff1663e2a4853a826040518263ffffffff167c010000000000000000000000000000000000000000000000000000000002815260040180807f63757261746f72456d697373696f6e5261746500000000000000000000000000815250602001828152602001915050600060405180830381600087803b1580156111aa57600080fd5b505af11580156111be573d6000803e3d6000fd5b5050505050565b6111d56111d0610d83565b6116aa565b6111e032600061133d565b507fcf3d22c0a89321c749239a97002de8e0b3cfce4886874148b15bab3962a5c9b761120a610d83565b6040518082815260200191505060405180910390a1565b600061122b610c91565b61123361179b565b03905090565b6000611243610c91565b8201905081811015801561125e575061125a61179b565b8111155b151561126957600080fd5b6000809054906101000a900473ffffffffffffffffffffffffffffffffffffffff1673ffffffffffffffffffffffffffffffffffffffff1663e2a4853a826040518263ffffffff167c010000000000000000000000000000000000000000000000000000000002815260040180807f726573657276656442616c616e63650000000000000000000000000000000000815250602001828152602001915050600060405180830381600087803b15801561132157600080fd5b505af1158015611335573d6000803e3d6000fd5b505050505050565b60008060009054906101000a900473ffffffffffffffffffffffffffffffffffffffff1673ffffffffffffffffffffffffffffffffffffffff1663e2a4853a8460405180807f706179656542616c616e63650000000000000000000000000000000000000000815250600c018273ffffffffffffffffffffffffffffffffffffffff1673ffffffffffffffffffffffffffffffffffffffff166c010000000000000000000000000281526014019150506040518091039020846040518363ffffffff167c010000000000000000000000000000000000000000000000000000000002815260040180836000191660001916815260200182815260200192505050600060405180830381600087803b15801561145757600080fd5b505af115801561146b573d6000803e3d6000fd5b505050507fcf3d22c0a89321c749239a97002de8e0b3cfce4886874148b15bab3962a5c9b7826040518082815260200191505060405180910390a192915050565b6000809054906101000a900473ffffffffffffffffffffffffffffffffffffffff1673ffffffffffffffffffffffffffffffffffffffff1663ca446dd9826040518263ffffffff167c010000000000000000000000000000000000000000000000000000000002815260040180807f61726269746572000000000000000000000000000000000000000000000000008152506020018273ffffffffffffffffffffffffffffffffffffffff1673ffffffffffffffffffffffffffffffffffffffff168152602001915050600060405180830381600087803b15801561159057600080fd5b505af11580156115a4573d6000803e3d6000fd5b5050505050565b6000809054906101000a900473ffffffffffffffffffffffffffffffffffffffff1673ffffffffffffffffffffffffffffffffffffffff1663ca446dd9826040518263ffffffff167c010000000000000000000000000000000000000000000000000000000002815260040180807f6f776e65720000000000000000000000000000000000000000000000000000008152506020018273ffffffffffffffffffffffffffffffffffffffff1673ffffffffffffffffffffffffffffffffffffffff168152602001915050600060405180830381600087803b15801561168f57600080fd5b505af11580156116a3573d6000803e3d6000fd5b5050505050565b60006116b4610c91565b90508082111515156116c557600080fd5b6000809054906101000a900473ffffffffffffffffffffffffffffffffffffffff1673ffffffffffffffffffffffffffffffffffffffff1663e2a4853a8383036040518263ffffffff167c010000000000000000000000000000000000000000000000000000000002815260040180807f726573657276656442616c6e6163650000000000000000000000000000000000815250602001828152602001915050600060405180830381600087803b15801561177f57600080fd5b505af1158015611793573d6000803e3d6000fd5b505050505050565b60006117a5610b9f565b73ffffffffffffffffffffffffffffffffffffffff166370a08231306040518263ffffffff167c0100000000000000000000000000000000000000000000000000000000028152600401808273ffffffffffffffffffffffffffffffffffffffff1673ffffffffffffffffffffffffffffffffffffffff168152602001915050602060405180830381600087803b15801561183f57600080fd5b505af1158015611853573d6000803e3d6000fd5b505050506040513d602081101561186957600080fd5b81019080805190602001909291905050509050905600a165627a7a72305820232c0f062221de880d1dabc8b5ea2f08355209e97cc95a825c24a2237774617d0029",
  "source": "pragma solidity ^0.4.18;\n\nimport '../Vault/TokenVault.sol';\nimport '../Upgradability/BaseStorage.sol';\nimport '../Upgradability/StorageConsumer.sol';\nimport 'zeppelin-solidity/contracts/token/ERC20/StandardToken.sol';\n\n/**\n* @title TokenVaultDelegate\n* @dev Delegate contract which implements functions to store and manipulate the balances related to\n*  curator and developer incentives. It maps the balances using the IncentiveMap inherited from\n*  the TokenVault interface.\n*/\ncontract TokenVaultDelegate is TokenVault {\n\n  function TokenVaultDelegate(BaseStorage _storage, address _arbiter)\n    TokenVault(_storage,_arbiter)\n    public\n    {}\n\n  /**\n  *  @dev Retreives the address of the EIP-20 from storage and instanties a StandardToken interface \n  *   for it.\n  *  @return StandardToken interface to the EIP-20 token contract.\n  */\n  function botcoin() public returns (StandardToken) {\n    return StandardToken(_storage.getAddress(\"botCoinAddress\"));\n  }\n\n  /**\n  * @dev Reserves tokens from the vaults balance for a particular curator.  The reserved tokens \n  *  are reflected in the current balance of the curator.  The TokenVaults available balance and\n  *  reserved balance will also reflect the change, but the vault's overall balance will remain\n  *  unchanged until the curator collects the reward.\n  *  Can only be executed by the Arbiter of the Vault (ideally the CurationCouncil contract).\n  */\n  function applyCuratorReward() onlyArbiter public {\n    reserveTokens(curatorRewardRate());\n    setBalance(tx.origin, balance() + curatorRewardRate());\n    BalanceUpdate(balance());\n  }\n\n  /**\n  * @dev Sends token reward from the vaults balance to the address of the transaction intiator.\n  *  The TokenVaults available balance also reflect the change.\n  *  Can only be executed by the Arbiter of the Vault (ideally the CurationCouncil contract).\n  */\n  function applyDeveloperReward() onlyArbiter public {\n    require(developerRewardRate() <= availableBalance());\n    require(botcoin().transfer(tx.origin, developerRewardRate()));\n  }\n\n  /**\n  * @dev Returns the balance reflected in the Botcoin contract minus the balances\n  *  that have already been reserved for curator rewards.\n  */\n  function availableBalance() private returns (uint) {\n    return vaultBalance() - reservedBalance();\n  }\n\n  /**\n   * @dev Returns the current amount of the Vault's Botcoin balance that has been reserved\n   *  for curator rewards.\n   */\n  function reservedBalance() public returns (uint) {\n    return _storage.getUint('reservedBalance');\n  }\n\n  /**\n   * @dev Reserves the provided amount of tokens to be collected at future time.\n   *  The available balance must be large enough to cover the requested amount.\n   * @param amount the number of tokens to reserve for the transaction origin.\n   */\n  function reserveTokens(uint amount) private {\n    uint new_reserve = amount + reservedBalance();\n    require(new_reserve >= amount && new_reserve <= vaultBalance());\n    _storage.setUint('reservedBalance', new_reserve);\n  }\n\n  /**\n  * @dev Updates the reserved balance to reflect the change.\n  *  The amount to consume must be less than or equal to the current reserved\n  *  balance.\n  * @param amount the count of tokens in the reserve balance to consume.\n  */\n  function consumeReservedTokens(uint amount) private {\n    uint reserved = reservedBalance();\n    require(amount <= reserved);\n    _storage.setUint('reservedBalnace', reserved - amount);\n  }\n\n  /**\n   * @dev Returns the current reward rate that can be claimed by a curator for doing\n   *  work.\n   */\n  function curatorRewardRate() public view returns (uint) {\n    // TODO: This should be returning a value based on an asymptotic function\n    // rather than an absolute value. What's the appropriate function?\n    // I.E. return calculateReward(curatorRewardRate())\n    return _storage.getUint('curatorEmissionRate');\n  }\n\n  /**\n   * @dev Sets the reward rate that can be claimed by a curator for doing work.\n   *  This can only be performed by the Owner of the Vault (ideally the GovernanceBoard).\n   * @param rate the count of tokens that should be rewarded.\n   */\n  function setCuratorRewardRate(uint rate) onlyOwner public {\n    _storage.setUint('curatorEmissionRate', rate);\n  }\n\n  /**\n   * @dev Sets the reward rate that can be claimed by a developer for successfully registering.\n   *  This can only be performed by the Owner of the Vault (ideally the GovernanceBoard).\n   * @param rate the count of tokens that should be rewarded.\n   */\n  function setDeveloperRewardRate(uint rate) onlyOwner public {\n    _storage.setUint('developerEmissionRate', rate);\n  }\n\n  /**\n   * @dev Returns the current developer reward rate available for registrations.\n   */\n  function developerRewardRate() public view returns (uint) {\n    return _storage.getUint('developerEmissionRate');\n  }\n\n  /**\n   * @dev Returns the current number of Botcoin stored in the TokenVault. This value does not\n   * reflect the number of tokens that are reserved for curator rewards.\n   */\n  function vaultBalance() internal returns (uint) {\n    return botcoin().balanceOf(address(this));\n  }\n\n  /**\n   * @dev Resets the balance of the transaction origin to zero and consumes them from the reserves.\n   * This should only be called after the balance has been succesfully transfered.\n   */\n  function resetCuratorBalance() private {\n    consumeReservedTokens(balance());\n    setBalance(tx.origin, 0);\n    BalanceUpdate(balance());\n  }\n\n  /**\n   * @dev Transfers the balance in the TokenVault to the wallet of the transactions origin.\n   *  Use caution not to call this on empty balances, since this will still require gas.\n   */\n  function collectCuratorReward() public {\n    uint _balance = balance();\n    require(_balance <= reservedBalance());\n    require(botcoin().transfer(tx.origin, _balance));\n    resetCuratorBalance();\n  }\n}\n",
  "sourcePath": "/home/henry/ws/botchain/contracts/Delegates/TokenVaultDelegate.sol",
  "compiler": {
    "name": "solc",
    "version": "0.4.24+commit.e67f0147.Emscripten.clang"
  },
  "schemaVersion": "2.0.1",
  "updatedAt": "2018-11-01T15:08:00.535Z"
}